{
	"oracle/DeveloperLendPriceProviderV1.sol": {
		"DeveloperLendPriceProviderV1": {
			"abi": [
				{
					"inputs": [],
					"stateMutability": "nonpayable",
					"type": "constructor"
				},
				{
					"anonymous": false,
					"inputs": [
						{
							"indexed": false,
							"internalType": "address",
							"name": "pToken",
							"type": "address"
						},
						{
							"indexed": false,
							"internalType": "address",
							"name": "underlying",
							"type": "address"
						},
						{
							"indexed": false,
							"internalType": "string",
							"name": "underlyingSymbol",
							"type": "string"
						},
						{
							"indexed": false,
							"internalType": "uint256",
							"name": "baseUnit",
							"type": "uint256"
						},
						{
							"indexed": false,
							"internalType": "bool",
							"name": "fixedUsd",
							"type": "bool"
						}
					],
					"name": "ConfigUpdated",
					"type": "event"
				},
				{
					"anonymous": false,
					"inputs": [
						{
							"indexed": true,
							"internalType": "address",
							"name": "previousOwner",
							"type": "address"
						},
						{
							"indexed": true,
							"internalType": "address",
							"name": "newOwner",
							"type": "address"
						}
					],
					"name": "OwnershipTransferred",
					"type": "event"
				},
				{
					"anonymous": false,
					"inputs": [
						{
							"indexed": false,
							"internalType": "address",
							"name": "pToken",
							"type": "address"
						},
						{
							"components": [
								{
									"internalType": "address",
									"name": "source",
									"type": "address"
								},
								{
									"internalType": "enum DeveloperLendPriceProviderV1.PriceOracleType",
									"name": "sourceType",
									"type": "uint8"
								},
								{
									"internalType": "bool",
									"name": "available",
									"type": "bool"
								}
							],
							"indexed": false,
							"internalType": "struct DeveloperLendPriceProviderV1.PriceOracle[]",
							"name": "oracles",
							"type": "tuple[]"
						}
					],
					"name": "PriceOracleUpdated",
					"type": "event"
				},
				{
					"inputs": [
						{
							"internalType": "address[]",
							"name": "tokens",
							"type": "address[]"
						},
						{
							"internalType": "address[]",
							"name": "chainLinkTokenEthPriceFeeds",
							"type": "address[]"
						}
					],
					"name": "addOrUpdateChainLinkTokenEthPriceFeed",
					"outputs": [],
					"stateMutability": "nonpayable",
					"type": "function"
				},
				{
					"inputs": [
						{
							"internalType": "address",
							"name": "pToken",
							"type": "address"
						},
						{
							"internalType": "uint256",
							"name": "index",
							"type": "uint256"
						},
						{
							"internalType": "address",
							"name": "source",
							"type": "address"
						},
						{
							"internalType": "enum DeveloperLendPriceProviderV1.PriceOracleType",
							"name": "_sourceType",
							"type": "uint8"
						},
						{
							"internalType": "bool",
							"name": "available",
							"type": "bool"
						}
					],
					"name": "addOrUpdateTokenConfigSource",
					"outputs": [],
					"stateMutability": "nonpayable",
					"type": "function"
				},
				{
					"inputs": [
						{
							"internalType": "address",
							"name": "pToken",
							"type": "address"
						},
						{
							"internalType": "address",
							"name": "underlying",
							"type": "address"
						},
						{
							"internalType": "string",
							"name": "underlyingSymbol",
							"type": "string"
						},
						{
							"internalType": "uint256",
							"name": "baseUnit",
							"type": "uint256"
						},
						{
							"internalType": "bool",
							"name": "fixedUsd",
							"type": "bool"
						},
						{
							"internalType": "address[]",
							"name": "sources",
							"type": "address[]"
						},
						{
							"internalType": "enum DeveloperLendPriceProviderV1.PriceOracleType[]",
							"name": "sourceTypes",
							"type": "uint8[]"
						}
					],
					"name": "addTokenConfig",
					"outputs": [],
					"stateMutability": "nonpayable",
					"type": "function"
				},
				{
					"inputs": [
						{
							"internalType": "address",
							"name": "",
							"type": "address"
						}
					],
					"name": "chainLinkTokenEthPriceFeed",
					"outputs": [
						{
							"internalType": "address",
							"name": "",
							"type": "address"
						}
					],
					"stateMutability": "view",
					"type": "function"
				},
				{
					"inputs": [],
					"name": "ethUsdPriceFeedAddress",
					"outputs": [
						{
							"internalType": "address",
							"name": "",
							"type": "address"
						}
					],
					"stateMutability": "view",
					"type": "function"
				},
				{
					"inputs": [
						{
							"internalType": "address",
							"name": "pToken",
							"type": "address"
						},
						{
							"internalType": "uint256",
							"name": "sourceIndex",
							"type": "uint256"
						}
					],
					"name": "getOracleSourcePrice",
					"outputs": [
						{
							"internalType": "uint256",
							"name": "",
							"type": "uint256"
						}
					],
					"stateMutability": "view",
					"type": "function"
				},
				{
					"inputs": [
						{
							"internalType": "address",
							"name": "_pToken",
							"type": "address"
						}
					],
					"name": "getUnderlyingPrice",
					"outputs": [
						{
							"internalType": "uint256",
							"name": "",
							"type": "uint256"
						}
					],
					"stateMutability": "view",
					"type": "function"
				},
				{
					"inputs": [
						{
							"internalType": "address",
							"name": "pToken",
							"type": "address"
						}
					],
					"name": "oracleLength",
					"outputs": [
						{
							"internalType": "uint256",
							"name": "",
							"type": "uint256"
						}
					],
					"stateMutability": "view",
					"type": "function"
				},
				{
					"inputs": [
						{
							"internalType": "address",
							"name": "",
							"type": "address"
						},
						{
							"internalType": "uint256",
							"name": "",
							"type": "uint256"
						}
					],
					"name": "oracles",
					"outputs": [
						{
							"internalType": "address",
							"name": "source",
							"type": "address"
						},
						{
							"internalType": "enum DeveloperLendPriceProviderV1.PriceOracleType",
							"name": "sourceType",
							"type": "uint8"
						},
						{
							"internalType": "bool",
							"name": "available",
							"type": "bool"
						}
					],
					"stateMutability": "view",
					"type": "function"
				},
				{
					"inputs": [],
					"name": "owner",
					"outputs": [
						{
							"internalType": "address",
							"name": "",
							"type": "address"
						}
					],
					"stateMutability": "view",
					"type": "function"
				},
				{
					"inputs": [],
					"name": "renounceOwnership",
					"outputs": [],
					"stateMutability": "nonpayable",
					"type": "function"
				},
				{
					"inputs": [
						{
							"internalType": "address",
							"name": "feedAddress",
							"type": "address"
						}
					],
					"name": "setEthUsdPriceFeedAddress",
					"outputs": [],
					"stateMutability": "nonpayable",
					"type": "function"
				},
				{
					"inputs": [
						{
							"internalType": "address",
							"name": "",
							"type": "address"
						}
					],
					"name": "tokenConfigs",
					"outputs": [
						{
							"internalType": "address",
							"name": "pToken",
							"type": "address"
						},
						{
							"internalType": "address",
							"name": "underlying",
							"type": "address"
						},
						{
							"internalType": "string",
							"name": "underlyingSymbol",
							"type": "string"
						},
						{
							"internalType": "uint256",
							"name": "baseUnit",
							"type": "uint256"
						},
						{
							"internalType": "bool",
							"name": "fixedUsd",
							"type": "bool"
						}
					],
					"stateMutability": "view",
					"type": "function"
				},
				{
					"inputs": [
						{
							"internalType": "address",
							"name": "newOwner",
							"type": "address"
						}
					],
					"name": "transferOwnership",
					"outputs": [],
					"stateMutability": "nonpayable",
					"type": "function"
				},
				{
					"inputs": [
						{
							"internalType": "address",
							"name": "pToken",
							"type": "address"
						},
						{
							"internalType": "uint256",
							"name": "baseUnit",
							"type": "uint256"
						}
					],
					"name": "updateTokenConfigBaseUnit",
					"outputs": [],
					"stateMutability": "nonpayable",
					"type": "function"
				},
				{
					"inputs": [
						{
							"internalType": "address",
							"name": "pToken",
							"type": "address"
						},
						{
							"internalType": "bool",
							"name": "fixedUsd",
							"type": "bool"
						}
					],
					"name": "updateTokenConfigFixedUsd",
					"outputs": [],
					"stateMutability": "nonpayable",
					"type": "function"
				}
			],
			"devdoc": {
				"kind": "dev",
				"methods": {
					"owner()": {
						"details": "Returns the address of the current owner."
					},
					"renounceOwnership()": {
						"details": "Leaves the contract without owner. It will not be possible to call `onlyOwner` functions anymore. Can only be called by the current owner. NOTE: Renouncing ownership will leave the contract without an owner, thereby removing any functionality that is only available to the owner."
					},
					"transferOwnership(address)": {
						"details": "Transfers ownership of the contract to a new account (`newOwner`). Can only be called by the current owner."
					}
				},
				"version": 1
			},
			"evm": {
				"assembly": "    /* \"oracle/DeveloperLendPriceProviderV1.sol\":1756:12117  contract DeveloperLendPriceProviderV1 is OwnableUpgradeable {... */\n  mstore(0x40, 0x80)\n    /* \"oracle/DeveloperLendPriceProviderV1.sol\":2774:2802  constructor() public {... */\n  callvalue\n  dup1\n  iszero\n  tag_1\n  jumpi\n  0x00\n  dup1\n  revert\ntag_1:\n  pop\n    /* \"oracle/DeveloperLendPriceProviderV1.sol\":1756:12117  contract DeveloperLendPriceProviderV1 is OwnableUpgradeable {... */\n  dataSize(sub_0)\n  dup1\n  dataOffset(sub_0)\n  0x00\n  codecopy\n  0x00\n  return\nstop\n\nsub_0: assembly {\n        /* \"oracle/DeveloperLendPriceProviderV1.sol\":1756:12117  contract DeveloperLendPriceProviderV1 is OwnableUpgradeable {... */\n      mstore(0x40, 0x80)\n      callvalue\n      dup1\n      iszero\n      tag_1\n      jumpi\n      0x00\n      dup1\n      revert\n    tag_1:\n      pop\n      jumpi(tag_2, lt(calldatasize, 0x04))\n      shr(0xe0, calldataload(0x00))\n      dup1\n      0x98ee9a13\n      gt\n      tag_19\n      jumpi\n      dup1\n      0xbec69b4f\n      gt\n      tag_20\n      jumpi\n      dup1\n      0xbec69b4f\n      eq\n      tag_15\n      jumpi\n      dup1\n      0xe316e297\n      eq\n      tag_16\n      jumpi\n      dup1\n      0xf2fde38b\n      eq\n      tag_17\n      jumpi\n      dup1\n      0xfc57d4df\n      eq\n      tag_18\n      jumpi\n      jump(tag_2)\n    tag_20:\n      dup1\n      0x98ee9a13\n      eq\n      tag_11\n      jumpi\n      dup1\n      0x9e237b1c\n      eq\n      tag_12\n      jumpi\n      dup1\n      0xa00a8b2c\n      eq\n      tag_13\n      jumpi\n      dup1\n      0xa22e6ee3\n      eq\n      tag_14\n      jumpi\n      jump(tag_2)\n    tag_19:\n      dup1\n      0x715018a6\n      gt\n      tag_21\n      jumpi\n      dup1\n      0x715018a6\n      eq\n      tag_7\n      jumpi\n      dup1\n      0x71cc09a9\n      eq\n      tag_8\n      jumpi\n      dup1\n      0x8341301a\n      eq\n      tag_9\n      jumpi\n      dup1\n      0x8da5cb5b\n      eq\n      tag_10\n      jumpi\n      jump(tag_2)\n    tag_21:\n      dup1\n      0x0e4230a0\n      eq\n      tag_3\n      jumpi\n      dup1\n      0x1b69dc5f\n      eq\n      tag_4\n      jumpi\n      dup1\n      0x43f5ae36\n      eq\n      tag_5\n      jumpi\n      dup1\n      0x49b39fd6\n      eq\n      tag_6\n      jumpi\n    tag_2:\n      0x00\n      dup1\n      revert\n        /* \"oracle/DeveloperLendPriceProviderV1.sol\":8193:9413  function addTokenConfig(address pToken, address underlying, string memory underlyingSymbol, uint256 baseUnit, bool fixedUsd,... */\n    tag_3:\n      tag_22\n      tag_23\n      calldatasize\n      0x04\n      tag_24\n      jump\t// in\n    tag_23:\n      tag_25\n      jump\t// in\n    tag_22:\n      stop\n        /* \"oracle/DeveloperLendPriceProviderV1.sol\":2361:2412  mapping(address => TokenConfig) public tokenConfigs */\n    tag_4:\n      tag_26\n      tag_27\n      calldatasize\n      0x04\n      tag_28\n      jump\t// in\n    tag_27:\n      tag_29\n      jump\t// in\n    tag_26:\n      mload(0x40)\n      tag_30\n      swap6\n      swap5\n      swap4\n      swap3\n      swap2\n      swap1\n      tag_31\n      jump\t// in\n    tag_30:\n      mload(0x40)\n      dup1\n      swap2\n      sub\n      swap1\n      return\n        /* \"oracle/DeveloperLendPriceProviderV1.sol\":11945:12114  function oracleLength(address pToken) public view returns (uint){... */\n    tag_5:\n      tag_32\n      tag_33\n      calldatasize\n      0x04\n      tag_28\n      jump\t// in\n    tag_33:\n      tag_34\n      jump\t// in\n    tag_32:\n      mload(0x40)\n      tag_30\n      swap2\n      swap1\n      tag_36\n      jump\t// in\n        /* \"oracle/DeveloperLendPriceProviderV1.sol\":10052:10438  function updateTokenConfigBaseUnit(address pToken, uint256 baseUnit) public onlyOwner {... */\n    tag_6:\n      tag_22\n      tag_38\n      calldatasize\n      0x04\n      tag_39\n      jump\t// in\n    tag_38:\n      tag_40\n      jump\t// in\n        /* \"openzeppelin/OwnableUpgradeable.sol\":2004:2152  function renounceOwnership() public virtual onlyOwner {\r... */\n    tag_7:\n      tag_22\n      tag_42\n      jump\t// in\n        /* \"oracle/DeveloperLendPriceProviderV1.sol\":10444:10827  function updateTokenConfigFixedUsd(address pToken, bool fixedUsd) public onlyOwner {... */\n    tag_8:\n      tag_22\n      tag_44\n      calldatasize\n      0x04\n      tag_45\n      jump\t// in\n    tag_44:\n      tag_46\n      jump\t// in\n        /* \"oracle/DeveloperLendPriceProviderV1.sol\":2472:2533  mapping(address => address) public chainLinkTokenEthPriceFeed */\n    tag_9:\n      tag_47\n      tag_48\n      calldatasize\n      0x04\n      tag_28\n      jump\t// in\n    tag_48:\n      tag_49\n      jump\t// in\n    tag_47:\n      mload(0x40)\n      tag_30\n      swap2\n      swap1\n      tag_51\n      jump\t// in\n        /* \"openzeppelin/OwnableUpgradeable.sol\":1353:1440  function owner() public view virtual returns (address) {\r... */\n    tag_10:\n      tag_47\n      tag_53\n      jump\t// in\n        /* \"oracle/DeveloperLendPriceProviderV1.sol\":10965:11428  function addOrUpdateChainLinkTokenEthPriceFeed(address[] memory tokens, address[] memory chainLinkTokenEthPriceFeeds) public onlyOwner {... */\n    tag_11:\n      tag_22\n      tag_56\n      calldatasize\n      0x04\n      tag_57\n      jump\t// in\n    tag_56:\n      tag_58\n      jump\t// in\n        /* \"oracle/DeveloperLendPriceProviderV1.sol\":11435:11752  function getOracleSourcePrice(address pToken, uint sourceIndex) public view returns (uint){... */\n    tag_12:\n      tag_32\n      tag_60\n      calldatasize\n      0x04\n      tag_39\n      jump\t// in\n    tag_60:\n      tag_61\n      jump\t// in\n        /* \"oracle/DeveloperLendPriceProviderV1.sol\":2418:2466  mapping(address => PriceOracle[]) public oracles */\n    tag_13:\n      tag_63\n      tag_64\n      calldatasize\n      0x04\n      tag_39\n      jump\t// in\n    tag_64:\n      tag_65\n      jump\t// in\n    tag_63:\n      mload(0x40)\n      tag_30\n      swap4\n      swap3\n      swap2\n      swap1\n      tag_67\n      jump\t// in\n        /* \"oracle/DeveloperLendPriceProviderV1.sol\":2540:2577  address public ethUsdPriceFeedAddress */\n    tag_14:\n      tag_47\n      tag_69\n      jump\t// in\n        /* \"oracle/DeveloperLendPriceProviderV1.sol\":10833:10959  function setEthUsdPriceFeedAddress(address feedAddress) public onlyOwner {... */\n    tag_15:\n      tag_22\n      tag_72\n      calldatasize\n      0x04\n      tag_28\n      jump\t// in\n    tag_72:\n      tag_73\n      jump\t// in\n        /* \"oracle/DeveloperLendPriceProviderV1.sol\":9419:10046  function addOrUpdateTokenConfigSource(address pToken, uint256 index, address source, PriceOracleType _sourceType, bool available) public onlyOwner {... */\n    tag_16:\n      tag_22\n      tag_75\n      calldatasize\n      0x04\n      tag_76\n      jump\t// in\n    tag_75:\n      tag_77\n      jump\t// in\n        /* \"openzeppelin/OwnableUpgradeable.sol\":2307:2551  function transferOwnership(address newOwner) public virtual onlyOwner {\r... */\n    tag_17:\n      tag_22\n      tag_79\n      calldatasize\n      0x04\n      tag_28\n      jump\t// in\n    tag_79:\n      tag_80\n      jump\t// in\n        /* \"oracle/DeveloperLendPriceProviderV1.sol\":2809:3734  function getUnderlyingPrice(address _pToken) external view returns (uint){... */\n    tag_18:\n      tag_32\n      tag_82\n      calldatasize\n      0x04\n      tag_28\n      jump\t// in\n    tag_82:\n      tag_83\n      jump\t// in\n        /* \"oracle/DeveloperLendPriceProviderV1.sol\":8193:9413  function addTokenConfig(address pToken, address underlying, string memory underlyingSymbol, uint256 baseUnit, bool fixedUsd,... */\n    tag_25:\n        /* \"openzeppelin/OwnableUpgradeable.sol\":1584:1596  _msgSender() */\n      tag_86\n        /* \"openzeppelin/OwnableUpgradeable.sol\":1584:1594  _msgSender */\n      tag_87\n        /* \"openzeppelin/OwnableUpgradeable.sol\":1584:1596  _msgSender() */\n      jump\t// in\n    tag_86:\n      sub(shl(0xa0, 0x01), 0x01)\n        /* \"openzeppelin/OwnableUpgradeable.sol\":1573:1596  owner() == _msgSender() */\n      and\n        /* \"openzeppelin/OwnableUpgradeable.sol\":1573:1580  owner() */\n      tag_88\n        /* \"openzeppelin/OwnableUpgradeable.sol\":1573:1578  owner */\n      tag_53\n        /* \"openzeppelin/OwnableUpgradeable.sol\":1573:1580  owner() */\n      jump\t// in\n    tag_88:\n      sub(shl(0xa0, 0x01), 0x01)\n        /* \"openzeppelin/OwnableUpgradeable.sol\":1573:1596  owner() == _msgSender() */\n      and\n      eq\n        /* \"openzeppelin/OwnableUpgradeable.sol\":1565:1633  require(owner() == _msgSender(), \"Ownable: caller is not the owner\") */\n      tag_89\n      jumpi\n      mload(0x40)\n      shl(0xe5, 0x461bcd)\n      dup2\n      mstore\n      0x04\n      add\n      tag_90\n      swap1\n      tag_91\n      jump\t// in\n    tag_90:\n      mload(0x40)\n      dup1\n      swap2\n      sub\n      swap1\n      revert\n    tag_89:\n        /* \"oracle/DeveloperLendPriceProviderV1.sol\":8428:8442  sources.length */\n      dup3\n      mload\n        /* \"oracle/DeveloperLendPriceProviderV1.sol\":8428:8464  sources.length == sourceTypes.length */\n      dup2\n      eq\n        /* \"oracle/DeveloperLendPriceProviderV1.sol\":8420:8518  require(sources.length == sourceTypes.length, \"sourceTypes.length must equal than sources.length\") */\n      tag_93\n      jumpi\n      mload(0x40)\n      shl(0xe5, 0x461bcd)\n      dup2\n      mstore\n      0x04\n      add\n      tag_90\n      swap1\n      tag_95\n      jump\t// in\n    tag_93:\n      sub(shl(0xa0, 0x01), 0x01)\n        /* \"oracle/DeveloperLendPriceProviderV1.sol\":8590:8610  tokenConfigs[pToken] */\n      dup1\n      dup10\n      and\n        /* \"oracle/DeveloperLendPriceProviderV1.sol\":8556:8587  TokenConfig storage tokenConfig */\n      0x00\n        /* \"oracle/DeveloperLendPriceProviderV1.sol\":8590:8610  tokenConfigs[pToken] */\n      swap1\n      dup2\n      mstore\n        /* \"oracle/DeveloperLendPriceProviderV1.sol\":8590:8602  tokenConfigs */\n      0x97\n        /* \"oracle/DeveloperLendPriceProviderV1.sol\":8590:8610  tokenConfigs[pToken] */\n      0x20\n      mstore\n      0x40\n      swap1\n      keccak256\n        /* \"oracle/DeveloperLendPriceProviderV1.sol\":8628:8646  tokenConfig.pToken */\n      dup1\n      sload\n        /* \"oracle/DeveloperLendPriceProviderV1.sol\":8590:8610  tokenConfigs[pToken] */\n      swap1\n      swap2\n        /* \"oracle/DeveloperLendPriceProviderV1.sol\":8628:8646  tokenConfig.pToken */\n      and\n        /* \"oracle/DeveloperLendPriceProviderV1.sol\":8628:8660  tokenConfig.pToken == address(0) */\n      iszero\n        /* \"oracle/DeveloperLendPriceProviderV1.sol\":8620:8675  require(tokenConfig.pToken == address(0), \"bad params\") */\n      tag_96\n      jumpi\n      mload(0x40)\n      shl(0xe5, 0x461bcd)\n      dup2\n      mstore\n      0x04\n      add\n      tag_90\n      swap1\n      tag_98\n      jump\t// in\n    tag_96:\n        /* \"oracle/DeveloperLendPriceProviderV1.sol\":8685:8712  tokenConfig.pToken = pToken */\n      dup1\n      sload\n      sub(shl(0xa0, 0x01), 0x01)\n      dup1\n      dup12\n      and\n      not(sub(shl(0xa0, 0x01), 0x01))\n      swap3\n      dup4\n      and\n      or\n      dup4\n      sstore\n      0x01\n        /* \"oracle/DeveloperLendPriceProviderV1.sol\":8722:8744  tokenConfig.underlying */\n      dup4\n      add\n        /* \"oracle/DeveloperLendPriceProviderV1.sol\":8722:8757  tokenConfig.underlying = underlying */\n      dup1\n      sload\n      swap2\n      dup12\n      and\n      swap2\n      swap1\n      swap3\n      and\n      or\n      swap1\n      sstore\n        /* \"oracle/DeveloperLendPriceProviderV1.sol\":8767:8814  tokenConfig.underlyingSymbol = underlyingSymbol */\n      dup7\n      mload\n      tag_99\n      swap1\n        /* \"oracle/DeveloperLendPriceProviderV1.sol\":8767:8795  tokenConfig.underlyingSymbol */\n      0x02\n      dup4\n      add\n      swap1\n        /* \"oracle/DeveloperLendPriceProviderV1.sol\":8767:8814  tokenConfig.underlyingSymbol = underlyingSymbol */\n      0x20\n      dup11\n      add\n      swap1\n      tag_100\n      jump\t// in\n    tag_99:\n      pop\n        /* \"oracle/DeveloperLendPriceProviderV1.sol\":8824:8844  tokenConfig.baseUnit */\n      0x03\n      dup2\n      add\n        /* \"oracle/DeveloperLendPriceProviderV1.sol\":8824:8855  tokenConfig.baseUnit = baseUnit */\n      dup7\n      swap1\n      sstore\n        /* \"oracle/DeveloperLendPriceProviderV1.sol\":8865:8885  tokenConfig.fixedUsd */\n      0x04\n      dup2\n      add\n        /* \"oracle/DeveloperLendPriceProviderV1.sol\":8865:8896  tokenConfig.fixedUsd = fixedUsd */\n      dup1\n      sload\n      not(0xff)\n      and\n      dup7\n      iszero\n      iszero\n      or\n      swap1\n      sstore\n      sub(shl(0xa0, 0x01), 0x01)\n        /* \"oracle/DeveloperLendPriceProviderV1.sol\":8943:8958  oracles[pToken] */\n      dup10\n      and\n      0x00\n      swap1\n      dup2\n      mstore\n        /* \"oracle/DeveloperLendPriceProviderV1.sol\":8943:8950  oracles */\n      0x98\n        /* \"oracle/DeveloperLendPriceProviderV1.sol\":8943:8958  oracles[pToken] */\n      0x20\n      mstore\n      0x40\n      swap1\n      keccak256\n        /* \"oracle/DeveloperLendPriceProviderV1.sol\":8943:8965  oracles[pToken].length */\n      sload\n      0x01\n      gt\n        /* \"oracle/DeveloperLendPriceProviderV1.sol\":8935:8984  require(oracles[pToken].length < 1, \"bad params\") */\n      tag_101\n      jumpi\n      mload(0x40)\n      shl(0xe5, 0x461bcd)\n      dup2\n      mstore\n      0x04\n      add\n      tag_90\n      swap1\n      tag_98\n      jump\t// in\n    tag_101:\n        /* \"oracle/DeveloperLendPriceProviderV1.sol\":8999:9005  uint i */\n      0x00\n        /* \"oracle/DeveloperLendPriceProviderV1.sol\":8994:9261  for (uint i = 0; i < sources.length; i++) {... */\n    tag_103:\n        /* \"oracle/DeveloperLendPriceProviderV1.sol\":9015:9022  sources */\n      dup5\n        /* \"oracle/DeveloperLendPriceProviderV1.sol\":9015:9029  sources.length */\n      mload\n        /* \"oracle/DeveloperLendPriceProviderV1.sol\":9011:9012  i */\n      dup2\n        /* \"oracle/DeveloperLendPriceProviderV1.sol\":9011:9029  i < sources.length */\n      lt\n        /* \"oracle/DeveloperLendPriceProviderV1.sol\":8994:9261  for (uint i = 0; i < sources.length; i++) {... */\n      iszero\n      tag_104\n      jumpi\n        /* \"oracle/DeveloperLendPriceProviderV1.sol\":9050:9076  PriceOracle[] storage list */\n      0x00\n        /* \"oracle/DeveloperLendPriceProviderV1.sol\":9079:9086  oracles */\n      0x98\n        /* \"oracle/DeveloperLendPriceProviderV1.sol\":9079:9094  oracles[pToken] */\n      0x00\n        /* \"oracle/DeveloperLendPriceProviderV1.sol\":9087:9093  pToken */\n      dup13\n      sub(shl(0xa0, 0x01), 0x01)\n        /* \"oracle/DeveloperLendPriceProviderV1.sol\":9079:9094  oracles[pToken] */\n      and\n      sub(shl(0xa0, 0x01), 0x01)\n      and\n      dup2\n      mstore\n      0x20\n      add\n      swap1\n      dup2\n      mstore\n      0x20\n      add\n      0x00\n      keccak256\n        /* \"oracle/DeveloperLendPriceProviderV1.sol\":9050:9094  PriceOracle[] storage list = oracles[pToken] */\n      swap1\n      pop\n        /* \"oracle/DeveloperLendPriceProviderV1.sol\":9108:9112  list */\n      dup1\n        /* \"oracle/DeveloperLendPriceProviderV1.sol\":9118:9249  PriceOracle({... */\n      mload(0x40)\n      dup1\n      0x60\n      add\n      0x40\n      mstore\n      dup1\n        /* \"oracle/DeveloperLendPriceProviderV1.sol\":9153:9160  sources */\n      dup9\n        /* \"oracle/DeveloperLendPriceProviderV1.sol\":9161:9162  i */\n      dup6\n        /* \"oracle/DeveloperLendPriceProviderV1.sol\":9153:9163  sources[i] */\n      dup2\n      mload\n      dup2\n      lt\n      tag_106\n      jumpi\n      invalid\n    tag_106:\n      0x20\n      mul\n      0x20\n      add\n      add\n      mload\n      sub(shl(0xa0, 0x01), 0x01)\n        /* \"oracle/DeveloperLendPriceProviderV1.sol\":9118:9249  PriceOracle({... */\n      and\n      dup2\n      mstore\n      0x20\n      add\n        /* \"oracle/DeveloperLendPriceProviderV1.sol\":9190:9201  sourceTypes */\n      dup8\n      dup8\n        /* \"oracle/DeveloperLendPriceProviderV1.sol\":9202:9203  i */\n      dup7\n        /* \"oracle/DeveloperLendPriceProviderV1.sol\":9190:9204  sourceTypes[i] */\n      dup2\n      dup2\n      lt\n      tag_107\n      jumpi\n      invalid\n    tag_107:\n      swap1\n      pop\n      0x20\n      mul\n      add\n      0x20\n      dup2\n      add\n      swap1\n      tag_108\n      swap2\n      swap1\n      tag_109\n      jump\t// in\n    tag_108:\n        /* \"oracle/DeveloperLendPriceProviderV1.sol\":9118:9249  PriceOracle({... */\n      0x04\n      dup2\n      gt\n      iszero\n      tag_110\n      jumpi\n      invalid\n    tag_110:\n      dup2\n      mstore\n        /* \"oracle/DeveloperLendPriceProviderV1.sol\":9230:9234  true */\n      0x01\n        /* \"oracle/DeveloperLendPriceProviderV1.sol\":9118:9249  PriceOracle({... */\n      0x20\n      swap2\n      dup3\n      add\n      dup2\n      swap1\n      mstore\n        /* \"oracle/DeveloperLendPriceProviderV1.sol\":9108:9250  list.push(PriceOracle({... */\n      dup4\n      sload\n      swap1\n      dup2\n      add\n      dup5\n      sstore\n      0x00\n      swap4\n      dup5\n      mstore\n      swap3\n      dup2\n      swap1\n      keccak256\n      dup3\n      mload\n      swap4\n      add\n      dup1\n      sload\n      not(sub(shl(0xa0, 0x01), 0x01))\n      and\n      sub(shl(0xa0, 0x01), 0x01)\n      swap1\n      swap5\n      and\n      swap4\n      swap1\n      swap4\n      or\n      dup1\n      dup5\n      sstore\n      swap1\n      dup3\n      add\n      mload\n      swap2\n      swap3\n      swap2\n      swap1\n      dup3\n      swap1\n      not(shl(0xa0, 0xff))\n      and\n      shl(0xa0, 0x01)\n      dup4\n      0x04\n      dup2\n      gt\n      iszero\n      tag_112\n      jumpi\n      invalid\n    tag_112:\n      mul\n      or\n      swap1\n      sstore\n      pop\n      0x40\n      swap2\n      swap1\n      swap2\n      add\n      mload\n      dup2\n      sload\n      swap1\n      iszero\n      iszero\n      shl(0xa8, 0x01)\n      mul\n      not(shl(0xa8, 0xff))\n      swap1\n      swap2\n      and\n      or\n      swap1\n      sstore\n      pop\n      0x01\n        /* \"oracle/DeveloperLendPriceProviderV1.sol\":9031:9034  i++ */\n      add\n        /* \"oracle/DeveloperLendPriceProviderV1.sol\":8994:9261  for (uint i = 0; i < sources.length; i++) {... */\n      jump(tag_103)\n    tag_104:\n      pop\n        /* \"oracle/DeveloperLendPriceProviderV1.sol\":9276:9347  ConfigUpdated(pToken, underlying, underlyingSymbol, baseUnit, fixedUsd) */\n      0x7e55bc43e6f0111474264fd86152c4a3e172abc29a15f5474298510ce6ff69ea\n        /* \"oracle/DeveloperLendPriceProviderV1.sol\":9290:9296  pToken */\n      dup10\n        /* \"oracle/DeveloperLendPriceProviderV1.sol\":9298:9308  underlying */\n      dup10\n        /* \"oracle/DeveloperLendPriceProviderV1.sol\":9310:9326  underlyingSymbol */\n      dup10\n        /* \"oracle/DeveloperLendPriceProviderV1.sol\":9328:9336  baseUnit */\n      dup10\n        /* \"oracle/DeveloperLendPriceProviderV1.sol\":9338:9346  fixedUsd */\n      dup10\n        /* \"oracle/DeveloperLendPriceProviderV1.sol\":9276:9347  ConfigUpdated(pToken, underlying, underlyingSymbol, baseUnit, fixedUsd) */\n      mload(0x40)\n      tag_113\n      swap6\n      swap5\n      swap4\n      swap3\n      swap2\n      swap1\n      tag_31\n      jump\t// in\n    tag_113:\n      mload(0x40)\n      dup1\n      swap2\n      sub\n      swap1\n      log1\n      sub(shl(0xa0, 0x01), 0x01)\n        /* \"oracle/DeveloperLendPriceProviderV1.sol\":9389:9404  oracles[pToken] */\n      dup10\n      and\n      0x00\n      swap1\n      dup2\n      mstore\n        /* \"oracle/DeveloperLendPriceProviderV1.sol\":9389:9396  oracles */\n      0x98\n        /* \"oracle/DeveloperLendPriceProviderV1.sol\":9389:9404  oracles[pToken] */\n      0x20\n      mstore\n      0x40\n      swap1\n      dup2\n      swap1\n      keccak256\n        /* \"oracle/DeveloperLendPriceProviderV1.sol\":9362:9405  PriceOracleUpdated(pToken, oracles[pToken]) */\n      swap1\n      mload\n      0x3305406be9630a8e3735461ddfb1c43204cdc73f28649e8038cafb44584d14bc\n      swap2\n      tag_114\n      swap2\n        /* \"oracle/DeveloperLendPriceProviderV1.sol\":9381:9387  pToken */\n      dup13\n      swap2\n        /* \"oracle/DeveloperLendPriceProviderV1.sol\":9389:9404  oracles[pToken] */\n      swap1\n        /* \"oracle/DeveloperLendPriceProviderV1.sol\":9362:9405  PriceOracleUpdated(pToken, oracles[pToken]) */\n      tag_115\n      jump\t// in\n    tag_114:\n      mload(0x40)\n      dup1\n      swap2\n      sub\n      swap1\n      log1\n        /* \"openzeppelin/OwnableUpgradeable.sol\":1644:1645  _ */\n      pop\n        /* \"oracle/DeveloperLendPriceProviderV1.sol\":8193:9413  function addTokenConfig(address pToken, address underlying, string memory underlyingSymbol, uint256 baseUnit, bool fixedUsd,... */\n      pop\n      pop\n      pop\n      pop\n      pop\n      pop\n      pop\n      pop\n      jump\t// out\n        /* \"oracle/DeveloperLendPriceProviderV1.sol\":2361:2412  mapping(address => TokenConfig) public tokenConfigs */\n    tag_29:\n      0x97\n      0x20\n      swap1\n      dup2\n      mstore\n      0x00\n      swap2\n      dup3\n      mstore\n      0x40\n      swap2\n      dup3\n      swap1\n      keccak256\n      dup1\n      sload\n      0x01\n      dup1\n      dup4\n      add\n      sload\n      0x02\n      dup1\n      dup6\n      add\n      dup1\n      sload\n      dup9\n      mload\n      0x0100\n      swap6\n      dup3\n      and\n      iszero\n      swap6\n      swap1\n      swap6\n      mul\n      not(0x00)\n      add\n      and\n      swap2\n      swap1\n      swap2\n      div\n      0x1f\n      dup2\n      add\n      dup8\n      swap1\n      div\n      dup8\n      mul\n      dup5\n      add\n      dup8\n      add\n      swap1\n      swap8\n      mstore\n      dup7\n      dup4\n      mstore\n      sub(shl(0xa0, 0x01), 0x01)\n      swap4\n      dup5\n      and\n      swap7\n      swap4\n      swap1\n      swap2\n      and\n      swap5\n      swap2\n      swap3\n      swap1\n      swap2\n      dup4\n      add\n      dup3\n      dup3\n      dup1\n      iszero\n      tag_116\n      jumpi\n      dup1\n      0x1f\n      lt\n      tag_117\n      jumpi\n      0x0100\n      dup1\n      dup4\n      sload\n      div\n      mul\n      dup4\n      mstore\n      swap2\n      0x20\n      add\n      swap2\n      jump(tag_116)\n    tag_117:\n      dup3\n      add\n      swap2\n      swap1\n      0x00\n      mstore\n      keccak256(0x00, 0x20)\n      swap1\n    tag_118:\n      dup2\n      sload\n      dup2\n      mstore\n      swap1\n      0x01\n      add\n      swap1\n      0x20\n      add\n      dup1\n      dup4\n      gt\n      tag_118\n      jumpi\n      dup3\n      swap1\n      sub\n      0x1f\n      and\n      dup3\n      add\n      swap2\n    tag_116:\n      pop\n      pop\n      pop\n      pop\n      0x03\n      dup4\n      add\n      sload\n      0x04\n      swap1\n      swap4\n      add\n      sload\n      swap2\n      swap3\n      swap2\n      0xff\n      and\n      swap1\n      pop\n      dup6\n      jump\t// out\n        /* \"oracle/DeveloperLendPriceProviderV1.sol\":11945:12114  function oracleLength(address pToken) public view returns (uint){... */\n    tag_34:\n      sub(shl(0xa0, 0x01), 0x01)\n        /* \"oracle/DeveloperLendPriceProviderV1.sol\":12056:12071  oracles[pToken] */\n      dup2\n      and\n        /* \"oracle/DeveloperLendPriceProviderV1.sol\":12004:12008  uint */\n      0x00\n        /* \"oracle/DeveloperLendPriceProviderV1.sol\":12056:12071  oracles[pToken] */\n      swap1\n      dup2\n      mstore\n        /* \"oracle/DeveloperLendPriceProviderV1.sol\":12056:12063  oracles */\n      0x98\n        /* \"oracle/DeveloperLendPriceProviderV1.sol\":12056:12071  oracles[pToken] */\n      0x20\n      mstore\n      0x40\n      swap1\n      keccak256\n        /* \"oracle/DeveloperLendPriceProviderV1.sol\":12088:12107  priceOracles.length */\n      sload\n        /* \"oracle/DeveloperLendPriceProviderV1.sol\":11945:12114  function oracleLength(address pToken) public view returns (uint){... */\n    tag_119:\n      swap2\n      swap1\n      pop\n      jump\t// out\n        /* \"oracle/DeveloperLendPriceProviderV1.sol\":10052:10438  function updateTokenConfigBaseUnit(address pToken, uint256 baseUnit) public onlyOwner {... */\n    tag_40:\n        /* \"openzeppelin/OwnableUpgradeable.sol\":1584:1596  _msgSender() */\n      tag_121\n        /* \"openzeppelin/OwnableUpgradeable.sol\":1584:1594  _msgSender */\n      tag_87\n        /* \"openzeppelin/OwnableUpgradeable.sol\":1584:1596  _msgSender() */\n      jump\t// in\n    tag_121:\n      sub(shl(0xa0, 0x01), 0x01)\n        /* \"openzeppelin/OwnableUpgradeable.sol\":1573:1596  owner() == _msgSender() */\n      and\n        /* \"openzeppelin/OwnableUpgradeable.sol\":1573:1580  owner() */\n      tag_122\n        /* \"openzeppelin/OwnableUpgradeable.sol\":1573:1578  owner */\n      tag_53\n        /* \"openzeppelin/OwnableUpgradeable.sol\":1573:1580  owner() */\n      jump\t// in\n    tag_122:\n      sub(shl(0xa0, 0x01), 0x01)\n        /* \"openzeppelin/OwnableUpgradeable.sol\":1573:1596  owner() == _msgSender() */\n      and\n      eq\n        /* \"openzeppelin/OwnableUpgradeable.sol\":1565:1633  require(owner() == _msgSender(), \"Ownable: caller is not the owner\") */\n      tag_123\n      jumpi\n      mload(0x40)\n      shl(0xe5, 0x461bcd)\n      dup2\n      mstore\n      0x04\n      add\n      tag_90\n      swap1\n      tag_91\n      jump\t// in\n    tag_123:\n      sub(shl(0xa0, 0x01), 0x01)\n        /* \"oracle/DeveloperLendPriceProviderV1.sol\":10182:10202  tokenConfigs[pToken] */\n      dup1\n      dup4\n      and\n        /* \"oracle/DeveloperLendPriceProviderV1.sol\":10148:10179  TokenConfig storage tokenConfig */\n      0x00\n        /* \"oracle/DeveloperLendPriceProviderV1.sol\":10182:10202  tokenConfigs[pToken] */\n      swap1\n      dup2\n      mstore\n        /* \"oracle/DeveloperLendPriceProviderV1.sol\":10182:10194  tokenConfigs */\n      0x97\n        /* \"oracle/DeveloperLendPriceProviderV1.sol\":10182:10202  tokenConfigs[pToken] */\n      0x20\n      mstore\n      0x40\n      swap1\n      keccak256\n        /* \"oracle/DeveloperLendPriceProviderV1.sol\":10220:10238  tokenConfig.pToken */\n      dup1\n      sload\n        /* \"oracle/DeveloperLendPriceProviderV1.sol\":10182:10202  tokenConfigs[pToken] */\n      swap1\n      swap2\n        /* \"oracle/DeveloperLendPriceProviderV1.sol\":10220:10238  tokenConfig.pToken */\n      and\n        /* \"oracle/DeveloperLendPriceProviderV1.sol\":10212:10267  require(tokenConfig.pToken != address(0), \"bad params\") */\n      tag_126\n      jumpi\n      mload(0x40)\n      shl(0xe5, 0x461bcd)\n      dup2\n      mstore\n      0x04\n      add\n      tag_90\n      swap1\n      tag_98\n      jump\t// in\n    tag_126:\n        /* \"oracle/DeveloperLendPriceProviderV1.sol\":10277:10297  tokenConfig.baseUnit */\n      0x03\n      dup2\n      add\n        /* \"oracle/DeveloperLendPriceProviderV1.sol\":10277:10308  tokenConfig.baseUnit = baseUnit */\n      dup3\n      swap1\n      sstore\n        /* \"oracle/DeveloperLendPriceProviderV1.sol\":10346:10368  tokenConfig.underlying */\n      0x01\n      dup2\n      add\n      sload\n        /* \"oracle/DeveloperLendPriceProviderV1.sol\":10410:10430  tokenConfig.fixedUsd */\n      0x04\n      dup3\n      add\n      sload\n        /* \"oracle/DeveloperLendPriceProviderV1.sol\":10324:10431  ConfigUpdated(pToken, tokenConfig.underlying, tokenConfig.underlyingSymbol, baseUnit, tokenConfig.fixedUsd) */\n      mload(0x40)\n      0x7e55bc43e6f0111474264fd86152c4a3e172abc29a15f5474298510ce6ff69ea\n      swap3\n      tag_128\n      swap3\n        /* \"oracle/DeveloperLendPriceProviderV1.sol\":10338:10344  pToken */\n      dup8\n      swap3\n      sub(shl(0xa0, 0x01), 0x01)\n        /* \"oracle/DeveloperLendPriceProviderV1.sol\":10346:10368  tokenConfig.underlying */\n      swap1\n      swap3\n      and\n      swap2\n        /* \"oracle/DeveloperLendPriceProviderV1.sol\":10370:10398  tokenConfig.underlyingSymbol */\n      0x02\n      dup8\n      add\n      swap2\n        /* \"oracle/DeveloperLendPriceProviderV1.sol\":10300:10308  baseUnit */\n      dup9\n      swap2\n        /* \"oracle/DeveloperLendPriceProviderV1.sol\":10410:10430  tokenConfig.fixedUsd */\n      0xff\n      swap1\n      swap2\n      and\n      swap1\n        /* \"oracle/DeveloperLendPriceProviderV1.sol\":10324:10431  ConfigUpdated(pToken, tokenConfig.underlying, tokenConfig.underlyingSymbol, baseUnit, tokenConfig.fixedUsd) */\n      tag_129\n      jump\t// in\n    tag_128:\n      mload(0x40)\n      dup1\n      swap2\n      sub\n      swap1\n      log1\n        /* \"openzeppelin/OwnableUpgradeable.sol\":1644:1645  _ */\n      pop\n        /* \"oracle/DeveloperLendPriceProviderV1.sol\":10052:10438  function updateTokenConfigBaseUnit(address pToken, uint256 baseUnit) public onlyOwner {... */\n      pop\n      pop\n      jump\t// out\n        /* \"openzeppelin/OwnableUpgradeable.sol\":2004:2152  function renounceOwnership() public virtual onlyOwner {\r... */\n    tag_42:\n        /* \"openzeppelin/OwnableUpgradeable.sol\":1584:1596  _msgSender() */\n      tag_131\n        /* \"openzeppelin/OwnableUpgradeable.sol\":1584:1594  _msgSender */\n      tag_87\n        /* \"openzeppelin/OwnableUpgradeable.sol\":1584:1596  _msgSender() */\n      jump\t// in\n    tag_131:\n      sub(shl(0xa0, 0x01), 0x01)\n        /* \"openzeppelin/OwnableUpgradeable.sol\":1573:1596  owner() == _msgSender() */\n      and\n        /* \"openzeppelin/OwnableUpgradeable.sol\":1573:1580  owner() */\n      tag_132\n        /* \"openzeppelin/OwnableUpgradeable.sol\":1573:1578  owner */\n      tag_53\n        /* \"openzeppelin/OwnableUpgradeable.sol\":1573:1580  owner() */\n      jump\t// in\n    tag_132:\n      sub(shl(0xa0, 0x01), 0x01)\n        /* \"openzeppelin/OwnableUpgradeable.sol\":1573:1596  owner() == _msgSender() */\n      and\n      eq\n        /* \"openzeppelin/OwnableUpgradeable.sol\":1565:1633  require(owner() == _msgSender(), \"Ownable: caller is not the owner\") */\n      tag_133\n      jumpi\n      mload(0x40)\n      shl(0xe5, 0x461bcd)\n      dup2\n      mstore\n      0x04\n      add\n      tag_90\n      swap1\n      tag_91\n      jump\t// in\n    tag_133:\n        /* \"openzeppelin/OwnableUpgradeable.sol\":2095:2101  _owner */\n      sload(0x65)\n        /* \"openzeppelin/OwnableUpgradeable.sol\":2074:2114  OwnershipTransferred(_owner, address(0)) */\n      mload(0x40)\n        /* \"openzeppelin/OwnableUpgradeable.sol\":2111:2112  0 */\n      0x00\n      swap2\n      sub(shl(0xa0, 0x01), 0x01)\n        /* \"openzeppelin/OwnableUpgradeable.sol\":2095:2101  _owner */\n      and\n      swap1\n        /* \"openzeppelin/OwnableUpgradeable.sol\":2074:2114  OwnershipTransferred(_owner, address(0)) */\n      0x8be0079c531659141344cd1fd0a4f28419497f9722a3daafe3b4186f6b6457e0\n      swap1\n        /* \"openzeppelin/OwnableUpgradeable.sol\":2111:2112  0 */\n      dup4\n      swap1\n        /* \"openzeppelin/OwnableUpgradeable.sol\":2074:2114  OwnershipTransferred(_owner, address(0)) */\n      log3\n        /* \"openzeppelin/OwnableUpgradeable.sol\":2125:2131  _owner */\n      0x65\n        /* \"openzeppelin/OwnableUpgradeable.sol\":2125:2144  _owner = address(0) */\n      dup1\n      sload\n      not(sub(shl(0xa0, 0x01), 0x01))\n      and\n      swap1\n      sstore\n        /* \"openzeppelin/OwnableUpgradeable.sol\":2004:2152  function renounceOwnership() public virtual onlyOwner {\r... */\n      jump\t// out\n        /* \"oracle/DeveloperLendPriceProviderV1.sol\":10444:10827  function updateTokenConfigFixedUsd(address pToken, bool fixedUsd) public onlyOwner {... */\n    tag_46:\n        /* \"openzeppelin/OwnableUpgradeable.sol\":1584:1596  _msgSender() */\n      tag_137\n        /* \"openzeppelin/OwnableUpgradeable.sol\":1584:1594  _msgSender */\n      tag_87\n        /* \"openzeppelin/OwnableUpgradeable.sol\":1584:1596  _msgSender() */\n      jump\t// in\n    tag_137:\n      sub(shl(0xa0, 0x01), 0x01)\n        /* \"openzeppelin/OwnableUpgradeable.sol\":1573:1596  owner() == _msgSender() */\n      and\n        /* \"openzeppelin/OwnableUpgradeable.sol\":1573:1580  owner() */\n      tag_138\n        /* \"openzeppelin/OwnableUpgradeable.sol\":1573:1578  owner */\n      tag_53\n        /* \"openzeppelin/OwnableUpgradeable.sol\":1573:1580  owner() */\n      jump\t// in\n    tag_138:\n      sub(shl(0xa0, 0x01), 0x01)\n        /* \"openzeppelin/OwnableUpgradeable.sol\":1573:1596  owner() == _msgSender() */\n      and\n      eq\n        /* \"openzeppelin/OwnableUpgradeable.sol\":1565:1633  require(owner() == _msgSender(), \"Ownable: caller is not the owner\") */\n      tag_139\n      jumpi\n      mload(0x40)\n      shl(0xe5, 0x461bcd)\n      dup2\n      mstore\n      0x04\n      add\n      tag_90\n      swap1\n      tag_91\n      jump\t// in\n    tag_139:\n      sub(shl(0xa0, 0x01), 0x01)\n        /* \"oracle/DeveloperLendPriceProviderV1.sol\":10571:10591  tokenConfigs[pToken] */\n      dup1\n      dup4\n      and\n        /* \"oracle/DeveloperLendPriceProviderV1.sol\":10537:10568  TokenConfig storage tokenConfig */\n      0x00\n        /* \"oracle/DeveloperLendPriceProviderV1.sol\":10571:10591  tokenConfigs[pToken] */\n      swap1\n      dup2\n      mstore\n        /* \"oracle/DeveloperLendPriceProviderV1.sol\":10571:10583  tokenConfigs */\n      0x97\n        /* \"oracle/DeveloperLendPriceProviderV1.sol\":10571:10591  tokenConfigs[pToken] */\n      0x20\n      mstore\n      0x40\n      swap1\n      keccak256\n        /* \"oracle/DeveloperLendPriceProviderV1.sol\":10609:10627  tokenConfig.pToken */\n      dup1\n      sload\n        /* \"oracle/DeveloperLendPriceProviderV1.sol\":10571:10591  tokenConfigs[pToken] */\n      swap1\n      swap2\n        /* \"oracle/DeveloperLendPriceProviderV1.sol\":10609:10627  tokenConfig.pToken */\n      and\n        /* \"oracle/DeveloperLendPriceProviderV1.sol\":10601:10656  require(tokenConfig.pToken != address(0), \"bad params\") */\n      tag_142\n      jumpi\n      mload(0x40)\n      shl(0xe5, 0x461bcd)\n      dup2\n      mstore\n      0x04\n      add\n      tag_90\n      swap1\n      tag_98\n      jump\t// in\n    tag_142:\n        /* \"oracle/DeveloperLendPriceProviderV1.sol\":10666:10686  tokenConfig.fixedUsd */\n      0x04\n      dup2\n      add\n        /* \"oracle/DeveloperLendPriceProviderV1.sol\":10666:10697  tokenConfig.fixedUsd = fixedUsd */\n      dup1\n      sload\n      not(0xff)\n      and\n      dup4\n      iszero\n      iszero\n      or\n      swap1\n      sstore\n      0x01\n        /* \"oracle/DeveloperLendPriceProviderV1.sol\":10735:10757  tokenConfig.underlying */\n      dup2\n      add\n      sload\n        /* \"oracle/DeveloperLendPriceProviderV1.sol\":10789:10809  tokenConfig.baseUnit */\n      0x03\n      dup3\n      add\n      sload\n        /* \"oracle/DeveloperLendPriceProviderV1.sol\":10713:10820  ConfigUpdated(pToken, tokenConfig.underlying, tokenConfig.underlyingSymbol, tokenConfig.baseUnit, fixedUsd) */\n      mload(0x40)\n      0x7e55bc43e6f0111474264fd86152c4a3e172abc29a15f5474298510ce6ff69ea\n      swap3\n      tag_128\n      swap3\n        /* \"oracle/DeveloperLendPriceProviderV1.sol\":10727:10733  pToken */\n      dup8\n      swap3\n      sub(shl(0xa0, 0x01), 0x01)\n        /* \"oracle/DeveloperLendPriceProviderV1.sol\":10735:10757  tokenConfig.underlying */\n      swap1\n      swap3\n      and\n      swap2\n        /* \"oracle/DeveloperLendPriceProviderV1.sol\":10759:10787  tokenConfig.underlyingSymbol */\n      0x02\n      dup8\n      add\n      swap2\n        /* \"oracle/DeveloperLendPriceProviderV1.sol\":10789:10809  tokenConfig.baseUnit */\n      swap1\n        /* \"oracle/DeveloperLendPriceProviderV1.sol\":10666:10697  tokenConfig.fixedUsd = fixedUsd */\n      dup9\n      swap1\n        /* \"oracle/DeveloperLendPriceProviderV1.sol\":10713:10820  ConfigUpdated(pToken, tokenConfig.underlying, tokenConfig.underlyingSymbol, tokenConfig.baseUnit, fixedUsd) */\n      tag_129\n      jump\t// in\n        /* \"oracle/DeveloperLendPriceProviderV1.sol\":2472:2533  mapping(address => address) public chainLinkTokenEthPriceFeed */\n    tag_49:\n      mstore(0x20, 0x99)\n      0x00\n      swap1\n      dup2\n      mstore\n      0x40\n      swap1\n      keccak256\n      sload\n      sub(shl(0xa0, 0x01), 0x01)\n      and\n      dup2\n      jump\t// out\n        /* \"openzeppelin/OwnableUpgradeable.sol\":1353:1440  function owner() public view virtual returns (address) {\r... */\n    tag_53:\n        /* \"openzeppelin/OwnableUpgradeable.sol\":1426:1432  _owner */\n      and(sub(shl(0xa0, 0x01), 0x01), sload(0x65))\n        /* \"openzeppelin/OwnableUpgradeable.sol\":1353:1440  function owner() public view virtual returns (address) {\r... */\n      swap1\n      jump\t// out\n        /* \"oracle/DeveloperLendPriceProviderV1.sol\":10965:11428  function addOrUpdateChainLinkTokenEthPriceFeed(address[] memory tokens, address[] memory chainLinkTokenEthPriceFeeds) public onlyOwner {... */\n    tag_58:\n        /* \"openzeppelin/OwnableUpgradeable.sol\":1584:1596  _msgSender() */\n      tag_147\n        /* \"openzeppelin/OwnableUpgradeable.sol\":1584:1594  _msgSender */\n      tag_87\n        /* \"openzeppelin/OwnableUpgradeable.sol\":1584:1596  _msgSender() */\n      jump\t// in\n    tag_147:\n      sub(shl(0xa0, 0x01), 0x01)\n        /* \"openzeppelin/OwnableUpgradeable.sol\":1573:1596  owner() == _msgSender() */\n      and\n        /* \"openzeppelin/OwnableUpgradeable.sol\":1573:1580  owner() */\n      tag_148\n        /* \"openzeppelin/OwnableUpgradeable.sol\":1573:1578  owner */\n      tag_53\n        /* \"openzeppelin/OwnableUpgradeable.sol\":1573:1580  owner() */\n      jump\t// in\n    tag_148:\n      sub(shl(0xa0, 0x01), 0x01)\n        /* \"openzeppelin/OwnableUpgradeable.sol\":1573:1596  owner() == _msgSender() */\n      and\n      eq\n        /* \"openzeppelin/OwnableUpgradeable.sol\":1565:1633  require(owner() == _msgSender(), \"Ownable: caller is not the owner\") */\n      tag_149\n      jumpi\n      mload(0x40)\n      shl(0xe5, 0x461bcd)\n      dup2\n      mstore\n      0x04\n      add\n      tag_90\n      swap1\n      tag_91\n      jump\t// in\n    tag_149:\n        /* \"oracle/DeveloperLendPriceProviderV1.sol\":11136:11163  chainLinkTokenEthPriceFeeds */\n      dup1\n        /* \"oracle/DeveloperLendPriceProviderV1.sol\":11136:11170  chainLinkTokenEthPriceFeeds.length */\n      mload\n        /* \"oracle/DeveloperLendPriceProviderV1.sol\":11119:11125  tokens */\n      dup3\n        /* \"oracle/DeveloperLendPriceProviderV1.sol\":11119:11132  tokens.length */\n      mload\n        /* \"oracle/DeveloperLendPriceProviderV1.sol\":11119:11170  tokens.length == chainLinkTokenEthPriceFeeds.length */\n      eq\n        /* \"oracle/DeveloperLendPriceProviderV1.sol\":11111:11239  require(tokens.length == chainLinkTokenEthPriceFeeds.length, \"tokens.length must equal than chainLinkTokenEthPriceFeeds.length\") */\n      tag_152\n      jumpi\n      mload(0x40)\n      shl(0xe5, 0x461bcd)\n      dup2\n      mstore\n      0x04\n      add\n      tag_90\n      swap1\n      tag_154\n      jump\t// in\n    tag_152:\n        /* \"oracle/DeveloperLendPriceProviderV1.sol\":11255:11261  uint i */\n      0x00\n        /* \"oracle/DeveloperLendPriceProviderV1.sol\":11250:11421  for (uint i = 0; i < tokens.length; i++) {... */\n    tag_155:\n        /* \"oracle/DeveloperLendPriceProviderV1.sol\":11271:11277  tokens */\n      dup3\n        /* \"oracle/DeveloperLendPriceProviderV1.sol\":11271:11284  tokens.length */\n      mload\n        /* \"oracle/DeveloperLendPriceProviderV1.sol\":11267:11268  i */\n      dup2\n        /* \"oracle/DeveloperLendPriceProviderV1.sol\":11267:11284  i < tokens.length */\n      lt\n        /* \"oracle/DeveloperLendPriceProviderV1.sol\":11250:11421  for (uint i = 0; i < tokens.length; i++) {... */\n      iszero\n      tag_156\n      jumpi\n        /* \"oracle/DeveloperLendPriceProviderV1.sol\":11305:11318  address token */\n      0x00\n        /* \"oracle/DeveloperLendPriceProviderV1.sol\":11321:11327  tokens */\n      dup4\n        /* \"oracle/DeveloperLendPriceProviderV1.sol\":11328:11329  i */\n      dup3\n        /* \"oracle/DeveloperLendPriceProviderV1.sol\":11321:11330  tokens[i] */\n      dup2\n      mload\n      dup2\n      lt\n      tag_158\n      jumpi\n      invalid\n    tag_158:\n      0x20\n      mul\n      0x20\n      add\n      add\n      mload\n        /* \"oracle/DeveloperLendPriceProviderV1.sol\":11305:11330  address token = tokens[i] */\n      swap1\n      pop\n        /* \"oracle/DeveloperLendPriceProviderV1.sol\":11380:11407  chainLinkTokenEthPriceFeeds */\n      dup3\n        /* \"oracle/DeveloperLendPriceProviderV1.sol\":11408:11409  i */\n      dup3\n        /* \"oracle/DeveloperLendPriceProviderV1.sol\":11380:11410  chainLinkTokenEthPriceFeeds[i] */\n      dup2\n      mload\n      dup2\n      lt\n      tag_159\n      jumpi\n      invalid\n    tag_159:\n      0x20\n      swap1\n      dup2\n      mul\n      swap2\n      swap1\n      swap2\n      add\n      dup2\n      add\n      mload\n      sub(shl(0xa0, 0x01), 0x01)\n        /* \"oracle/DeveloperLendPriceProviderV1.sol\":11344:11377  chainLinkTokenEthPriceFeed[token] */\n      swap3\n      dup4\n      and\n      0x00\n      swap1\n      dup2\n      mstore\n        /* \"oracle/DeveloperLendPriceProviderV1.sol\":11344:11370  chainLinkTokenEthPriceFeed */\n      0x99\n        /* \"oracle/DeveloperLendPriceProviderV1.sol\":11344:11377  chainLinkTokenEthPriceFeed[token] */\n      swap1\n      swap3\n      mstore\n      0x40\n      swap1\n      swap2\n      keccak256\n        /* \"oracle/DeveloperLendPriceProviderV1.sol\":11344:11410  chainLinkTokenEthPriceFeed[token] = chainLinkTokenEthPriceFeeds[i] */\n      dup1\n      sload\n      not(sub(shl(0xa0, 0x01), 0x01))\n      and\n      swap3\n      swap1\n      swap2\n      and\n      swap2\n      swap1\n      swap2\n      or\n      swap1\n      sstore\n      0x01\n        /* \"oracle/DeveloperLendPriceProviderV1.sol\":11286:11289  i++ */\n      add\n        /* \"oracle/DeveloperLendPriceProviderV1.sol\":11250:11421  for (uint i = 0; i < tokens.length; i++) {... */\n      jump(tag_155)\n    tag_156:\n      pop\n        /* \"oracle/DeveloperLendPriceProviderV1.sol\":10965:11428  function addOrUpdateChainLinkTokenEthPriceFeed(address[] memory tokens, address[] memory chainLinkTokenEthPriceFeeds) public onlyOwner {... */\n      pop\n      pop\n      jump\t// out\n        /* \"oracle/DeveloperLendPriceProviderV1.sol\":11435:11752  function getOracleSourcePrice(address pToken, uint sourceIndex) public view returns (uint){... */\n    tag_61:\n      sub(shl(0xa0, 0x01), 0x01)\n        /* \"oracle/DeveloperLendPriceProviderV1.sol\":11570:11590  tokenConfigs[pToken] */\n      dup3\n      dup2\n      and\n        /* \"oracle/DeveloperLendPriceProviderV1.sol\":11520:11524  uint */\n      0x00\n        /* \"oracle/DeveloperLendPriceProviderV1.sol\":11570:11590  tokenConfigs[pToken] */\n      swap1\n      dup2\n      mstore\n        /* \"oracle/DeveloperLendPriceProviderV1.sol\":11570:11582  tokenConfigs */\n      0x97\n        /* \"oracle/DeveloperLendPriceProviderV1.sol\":11570:11590  tokenConfigs[pToken] */\n      0x20\n      swap1\n      dup2\n      mstore\n      0x40\n      dup1\n      dup4\n      keccak256\n        /* \"oracle/DeveloperLendPriceProviderV1.sol\":11637:11644  oracles */\n      0x98\n        /* \"oracle/DeveloperLendPriceProviderV1.sol\":11637:11652  oracles[pToken] */\n      dup4\n      mstore\n      dup2\n      dup5\n      keccak256\n        /* \"oracle/DeveloperLendPriceProviderV1.sol\":11670:11745  _getUnderlyingPriceInternal(pToken, tokenConfig, priceOracles[sourceIndex]) */\n      dup3\n      mload\n      0xa0\n      dup2\n      add\n      dup5\n      mstore\n      dup3\n      sload\n      dup8\n      and\n      dup2\n      mstore\n      0x01\n      dup1\n      dup5\n      add\n      sload\n      swap1\n      swap8\n      and\n      dup2\n      dup7\n      add\n      mstore\n      0x02\n      dup1\n      dup5\n      add\n      dup1\n      sload\n      dup7\n      mload\n      0x0100\n      swap11\n      dup3\n      and\n      iszero\n      swap11\n      swap1\n      swap11\n      mul\n      not(0x00)\n      add\n      and\n      swap2\n      swap1\n      swap2\n      div\n      0x1f\n      dup2\n      add\n      dup8\n      swap1\n      div\n      dup8\n      mul\n      dup10\n      add\n      dup8\n      add\n      dup7\n      mstore\n      dup1\n      dup10\n      mstore\n        /* \"oracle/DeveloperLendPriceProviderV1.sol\":11520:11524  uint */\n      swap7\n      swap8\n        /* \"oracle/DeveloperLendPriceProviderV1.sol\":11570:11590  tokenConfigs[pToken] */\n      swap4\n      swap7\n        /* \"oracle/DeveloperLendPriceProviderV1.sol\":11637:11652  oracles[pToken] */\n      swap3\n      swap6\n        /* \"oracle/DeveloperLendPriceProviderV1.sol\":11670:11745  _getUnderlyingPriceInternal(pToken, tokenConfig, priceOracles[sourceIndex]) */\n      tag_161\n      swap6\n        /* \"oracle/DeveloperLendPriceProviderV1.sol\":11570:11590  tokenConfigs[pToken] */\n      dup12\n      swap6\n        /* \"oracle/DeveloperLendPriceProviderV1.sol\":11670:11745  _getUnderlyingPriceInternal(pToken, tokenConfig, priceOracles[sourceIndex]) */\n      swap4\n      swap5\n        /* \"oracle/DeveloperLendPriceProviderV1.sol\":11570:11590  tokenConfigs[pToken] */\n      dup10\n      swap5\n        /* \"oracle/DeveloperLendPriceProviderV1.sol\":11670:11745  _getUnderlyingPriceInternal(pToken, tokenConfig, priceOracles[sourceIndex]) */\n      swap2\n      dup7\n      add\n      swap4\n      swap2\n      swap3\n      dup4\n      add\n      dup3\n      dup3\n      dup1\n      iszero\n      tag_162\n      jumpi\n      dup1\n      0x1f\n      lt\n      tag_163\n      jumpi\n      0x0100\n      dup1\n      dup4\n      sload\n      div\n      mul\n      dup4\n      mstore\n      swap2\n      0x20\n      add\n      swap2\n      jump(tag_162)\n    tag_163:\n      dup3\n      add\n      swap2\n      swap1\n      0x00\n      mstore\n      keccak256(0x00, 0x20)\n      swap1\n    tag_164:\n      dup2\n      sload\n      dup2\n      mstore\n      swap1\n      0x01\n      add\n      swap1\n      0x20\n      add\n      dup1\n      dup4\n      gt\n      tag_164\n      jumpi\n      dup3\n      swap1\n      sub\n      0x1f\n      and\n      dup3\n      add\n      swap2\n    tag_162:\n      pop\n      pop\n      pop\n      swap2\n      dup4\n      mstore\n      pop\n      pop\n      0x03\n      dup3\n      add\n      sload\n      0x20\n      dup3\n      add\n      mstore\n      0x04\n      swap1\n      swap2\n      add\n      sload\n      0xff\n      and\n      iszero\n      iszero\n      0x40\n      swap1\n      swap2\n      add\n      mstore\n        /* \"oracle/DeveloperLendPriceProviderV1.sol\":11719:11744  priceOracles[sourceIndex] */\n      dup4\n      sload\n        /* \"oracle/DeveloperLendPriceProviderV1.sol\":11719:11731  priceOracles */\n      dup5\n      swap1\n        /* \"oracle/DeveloperLendPriceProviderV1.sol\":11732:11743  sourceIndex */\n      dup9\n      swap1\n        /* \"oracle/DeveloperLendPriceProviderV1.sol\":11719:11744  priceOracles[sourceIndex] */\n      dup2\n      lt\n      tag_165\n      jumpi\n      invalid\n    tag_165:\n      0x00\n      swap2\n      dup3\n      mstore\n      0x20\n      swap2\n      dup3\n      swap1\n      keccak256\n        /* \"oracle/DeveloperLendPriceProviderV1.sol\":11670:11745  _getUnderlyingPriceInternal(pToken, tokenConfig, priceOracles[sourceIndex]) */\n      0x40\n      dup1\n      mload\n      0x60\n      dup2\n      add\n      swap1\n      swap2\n      mstore\n        /* \"oracle/DeveloperLendPriceProviderV1.sol\":11719:11744  priceOracles[sourceIndex] */\n      swap2\n      add\n        /* \"oracle/DeveloperLendPriceProviderV1.sol\":11670:11745  _getUnderlyingPriceInternal(pToken, tokenConfig, priceOracles[sourceIndex]) */\n      dup1\n      sload\n      sub(shl(0xa0, 0x01), 0x01)\n      dup2\n      and\n      dup4\n      mstore\n      swap2\n      swap3\n        /* \"oracle/DeveloperLendPriceProviderV1.sol\":11719:11744  priceOracles[sourceIndex] */\n      swap1\n      swap2\n        /* \"oracle/DeveloperLendPriceProviderV1.sol\":11670:11745  _getUnderlyingPriceInternal(pToken, tokenConfig, priceOracles[sourceIndex]) */\n      swap1\n      dup4\n      add\n      swap1\n      shl(0xa0, 0x01)\n      swap1\n      div\n      0xff\n      and\n      0x04\n      dup2\n      gt\n      iszero\n      tag_167\n      jumpi\n      invalid\n    tag_167:\n      0x04\n      dup2\n      gt\n      iszero\n      tag_168\n      jumpi\n      invalid\n    tag_168:\n      dup2\n      mstore\n      swap1\n      sload\n      shl(0xa8, 0x01)\n      swap1\n      div\n      0xff\n      and\n      iszero\n      iszero\n      0x20\n      swap1\n      swap2\n      add\n      mstore\n        /* \"oracle/DeveloperLendPriceProviderV1.sol\":11670:11697  _getUnderlyingPriceInternal */\n      tag_169\n        /* \"oracle/DeveloperLendPriceProviderV1.sol\":11670:11745  _getUnderlyingPriceInternal(pToken, tokenConfig, priceOracles[sourceIndex]) */\n      jump\t// in\n    tag_161:\n        /* \"oracle/DeveloperLendPriceProviderV1.sol\":11663:11745  return _getUnderlyingPriceInternal(pToken, tokenConfig, priceOracles[sourceIndex]) */\n      swap3\n      pop\n      pop\n      pop\n        /* \"oracle/DeveloperLendPriceProviderV1.sol\":11435:11752  function getOracleSourcePrice(address pToken, uint sourceIndex) public view returns (uint){... */\n    tag_160:\n      swap3\n      swap2\n      pop\n      pop\n      jump\t// out\n        /* \"oracle/DeveloperLendPriceProviderV1.sol\":2418:2466  mapping(address => PriceOracle[]) public oracles */\n    tag_65:\n      mstore(0x20, 0x98)\n      dup2\n      0x00\n      mstore\n      keccak256(0x00, 0x40)\n      dup2\n      dup2\n      sload\n      dup2\n      lt\n      tag_170\n      jumpi\n      invalid\n    tag_170:\n      0x00\n      swap2\n      dup3\n      mstore\n      0x20\n      swap1\n      swap2\n      keccak256\n      add\n      sload\n      sub(shl(0xa0, 0x01), 0x01)\n      dup2\n      and\n      swap3\n      pop\n      0xff\n      shl(0xa0, 0x01)\n      dup3\n      div\n      dup2\n      and\n      swap3\n      pop\n      shl(0xa8, 0x01)\n      swap1\n      swap2\n      div\n      and\n      dup4\n      jump\t// out\n        /* \"oracle/DeveloperLendPriceProviderV1.sol\":2540:2577  address public ethUsdPriceFeedAddress */\n    tag_69:\n      and(sub(shl(0xa0, 0x01), 0x01), sload(0x9a))\n      dup2\n      jump\t// out\n        /* \"oracle/DeveloperLendPriceProviderV1.sol\":10833:10959  function setEthUsdPriceFeedAddress(address feedAddress) public onlyOwner {... */\n    tag_73:\n        /* \"openzeppelin/OwnableUpgradeable.sol\":1584:1596  _msgSender() */\n      tag_173\n        /* \"openzeppelin/OwnableUpgradeable.sol\":1584:1594  _msgSender */\n      tag_87\n        /* \"openzeppelin/OwnableUpgradeable.sol\":1584:1596  _msgSender() */\n      jump\t// in\n    tag_173:\n      sub(shl(0xa0, 0x01), 0x01)\n        /* \"openzeppelin/OwnableUpgradeable.sol\":1573:1596  owner() == _msgSender() */\n      and\n        /* \"openzeppelin/OwnableUpgradeable.sol\":1573:1580  owner() */\n      tag_174\n        /* \"openzeppelin/OwnableUpgradeable.sol\":1573:1578  owner */\n      tag_53\n        /* \"openzeppelin/OwnableUpgradeable.sol\":1573:1580  owner() */\n      jump\t// in\n    tag_174:\n      sub(shl(0xa0, 0x01), 0x01)\n        /* \"openzeppelin/OwnableUpgradeable.sol\":1573:1596  owner() == _msgSender() */\n      and\n      eq\n        /* \"openzeppelin/OwnableUpgradeable.sol\":1565:1633  require(owner() == _msgSender(), \"Ownable: caller is not the owner\") */\n      tag_175\n      jumpi\n      mload(0x40)\n      shl(0xe5, 0x461bcd)\n      dup2\n      mstore\n      0x04\n      add\n      tag_90\n      swap1\n      tag_91\n      jump\t// in\n    tag_175:\n        /* \"oracle/DeveloperLendPriceProviderV1.sol\":10916:10938  ethUsdPriceFeedAddress */\n      0x9a\n        /* \"oracle/DeveloperLendPriceProviderV1.sol\":10916:10952  ethUsdPriceFeedAddress = feedAddress */\n      dup1\n      sload\n      not(sub(shl(0xa0, 0x01), 0x01))\n      and\n      sub(shl(0xa0, 0x01), 0x01)\n      swap3\n      swap1\n      swap3\n      and\n      swap2\n      swap1\n      swap2\n      or\n      swap1\n      sstore\n        /* \"oracle/DeveloperLendPriceProviderV1.sol\":10833:10959  function setEthUsdPriceFeedAddress(address feedAddress) public onlyOwner {... */\n      jump\t// out\n        /* \"oracle/DeveloperLendPriceProviderV1.sol\":9419:10046  function addOrUpdateTokenConfigSource(address pToken, uint256 index, address source, PriceOracleType _sourceType, bool available) public onlyOwner {... */\n    tag_77:\n        /* \"openzeppelin/OwnableUpgradeable.sol\":1584:1596  _msgSender() */\n      tag_179\n        /* \"openzeppelin/OwnableUpgradeable.sol\":1584:1594  _msgSender */\n      tag_87\n        /* \"openzeppelin/OwnableUpgradeable.sol\":1584:1596  _msgSender() */\n      jump\t// in\n    tag_179:\n      sub(shl(0xa0, 0x01), 0x01)\n        /* \"openzeppelin/OwnableUpgradeable.sol\":1573:1596  owner() == _msgSender() */\n      and\n        /* \"openzeppelin/OwnableUpgradeable.sol\":1573:1580  owner() */\n      tag_180\n        /* \"openzeppelin/OwnableUpgradeable.sol\":1573:1578  owner */\n      tag_53\n        /* \"openzeppelin/OwnableUpgradeable.sol\":1573:1580  owner() */\n      jump\t// in\n    tag_180:\n      sub(shl(0xa0, 0x01), 0x01)\n        /* \"openzeppelin/OwnableUpgradeable.sol\":1573:1596  owner() == _msgSender() */\n      and\n      eq\n        /* \"openzeppelin/OwnableUpgradeable.sol\":1565:1633  require(owner() == _msgSender(), \"Ownable: caller is not the owner\") */\n      tag_181\n      jumpi\n      mload(0x40)\n      shl(0xe5, 0x461bcd)\n      dup2\n      mstore\n      0x04\n      add\n      tag_90\n      swap1\n      tag_91\n      jump\t// in\n    tag_181:\n      sub(shl(0xa0, 0x01), 0x01)\n        /* \"oracle/DeveloperLendPriceProviderV1.sol\":9606:9621  oracles[pToken] */\n      dup6\n      and\n        /* \"oracle/DeveloperLendPriceProviderV1.sol\":9577:9603  PriceOracle[] storage list */\n      0x00\n        /* \"oracle/DeveloperLendPriceProviderV1.sol\":9606:9621  oracles[pToken] */\n      swap1\n      dup2\n      mstore\n        /* \"oracle/DeveloperLendPriceProviderV1.sol\":9606:9613  oracles */\n      0x98\n        /* \"oracle/DeveloperLendPriceProviderV1.sol\":9606:9621  oracles[pToken] */\n      0x20\n      mstore\n      0x40\n      swap1\n      keccak256\n        /* \"oracle/DeveloperLendPriceProviderV1.sol\":9636:9647  list.length */\n      dup1\n      sload\n        /* \"oracle/DeveloperLendPriceProviderV1.sol\":9636:9655  list.length > index */\n      dup6\n      lt\n        /* \"oracle/DeveloperLendPriceProviderV1.sol\":9632:10039  if (list.length > index) {//will update... */\n      iszero\n      tag_184\n      jumpi\n        /* \"oracle/DeveloperLendPriceProviderV1.sol\":9684:9710  PriceOracle storage oracle */\n      0x00\n        /* \"oracle/DeveloperLendPriceProviderV1.sol\":9713:9717  list */\n      dup2\n        /* \"oracle/DeveloperLendPriceProviderV1.sol\":9718:9723  index */\n      dup7\n        /* \"oracle/DeveloperLendPriceProviderV1.sol\":9713:9724  list[index] */\n      dup2\n      sload\n      dup2\n      lt\n      tag_185\n      jumpi\n      invalid\n    tag_185:\n      0x00\n      swap2\n      dup3\n      mstore\n      0x20\n      swap1\n      swap2\n      keccak256\n      add\n        /* \"oracle/DeveloperLendPriceProviderV1.sol\":9738:9760  oracle.source = source */\n      dup1\n      sload\n      not(sub(shl(0xa0, 0x01), 0x01))\n      and\n      sub(shl(0xa0, 0x01), 0x01)\n      dup8\n      and\n      or\n      dup1\n      dup3\n      sstore\n        /* \"oracle/DeveloperLendPriceProviderV1.sol\":9713:9724  list[index] */\n      swap1\n      swap2\n      pop\n        /* \"oracle/DeveloperLendPriceProviderV1.sol\":9794:9805  _sourceType */\n      dup5\n      swap1\n        /* \"oracle/DeveloperLendPriceProviderV1.sol\":9713:9724  list[index] */\n      dup3\n      swap1\n      not(shl(0xa0, 0xff))\n        /* \"oracle/DeveloperLendPriceProviderV1.sol\":9774:9805  oracle.sourceType = _sourceType */\n      and\n      shl(0xa0, 0x01)\n        /* \"oracle/DeveloperLendPriceProviderV1.sol\":9794:9805  _sourceType */\n      dup4\n        /* \"oracle/DeveloperLendPriceProviderV1.sol\":9774:9805  oracle.sourceType = _sourceType */\n      0x04\n      dup2\n      gt\n      iszero\n      tag_187\n      jumpi\n      invalid\n    tag_187:\n      mul\n      or\n      swap1\n      sstore\n      pop\n        /* \"oracle/DeveloperLendPriceProviderV1.sol\":9819:9847  oracle.available = available */\n      dup1\n      sload\n      not(shl(0xa8, 0xff))\n      and\n      shl(0xa8, 0x01)\n      dup5\n      iszero\n      iszero\n      mul\n      or\n      swap1\n      sstore\n        /* \"oracle/DeveloperLendPriceProviderV1.sol\":9632:10039  if (list.length > index) {//will update... */\n      jump(tag_188)\n    tag_184:\n        /* \"oracle/DeveloperLendPriceProviderV1.sol\":9888:9892  list */\n      dup1\n        /* \"oracle/DeveloperLendPriceProviderV1.sol\":9898:10027  PriceOracle({... */\n      mload(0x40)\n      dup1\n      0x60\n      add\n      0x40\n      mstore\n      dup1\n        /* \"oracle/DeveloperLendPriceProviderV1.sol\":9933:9939  source */\n      dup7\n      sub(shl(0xa0, 0x01), 0x01)\n        /* \"oracle/DeveloperLendPriceProviderV1.sol\":9898:10027  PriceOracle({... */\n      and\n      dup2\n      mstore\n      0x20\n      add\n        /* \"oracle/DeveloperLendPriceProviderV1.sol\":9966:9977  _sourceType */\n      dup6\n        /* \"oracle/DeveloperLendPriceProviderV1.sol\":9898:10027  PriceOracle({... */\n      0x04\n      dup2\n      gt\n      iszero\n      tag_189\n      jumpi\n      invalid\n    tag_189:\n      dup2\n      mstore\n      dup5\n      iszero\n      iszero\n      0x20\n      swap2\n      dup3\n      add\n      mstore\n        /* \"oracle/DeveloperLendPriceProviderV1.sol\":9888:10028  list.push(PriceOracle({... */\n      dup3\n      sload\n      0x01\n      dup2\n      add\n      dup5\n      sstore\n      0x00\n      swap4\n      dup5\n      mstore\n      swap3\n      dup2\n      swap1\n      keccak256\n      dup3\n      mload\n      swap4\n      add\n      dup1\n      sload\n      not(sub(shl(0xa0, 0x01), 0x01))\n      and\n      sub(shl(0xa0, 0x01), 0x01)\n      swap1\n      swap5\n      and\n      swap4\n      swap1\n      swap4\n      or\n      dup1\n      dup5\n      sstore\n      swap1\n      dup3\n      add\n      mload\n      swap2\n      swap3\n      swap2\n      swap1\n      dup3\n      swap1\n      not(shl(0xa0, 0xff))\n      and\n      shl(0xa0, 0x01)\n      dup4\n      0x04\n      dup2\n      gt\n      iszero\n      tag_191\n      jumpi\n      invalid\n    tag_191:\n      mul\n      or\n      swap1\n      sstore\n      pop\n      0x40\n      swap2\n      swap1\n      swap2\n      add\n      mload\n      dup2\n      sload\n      swap1\n      iszero\n      iszero\n      shl(0xa8, 0x01)\n      mul\n      not(shl(0xa8, 0xff))\n      swap1\n      swap2\n      and\n      or\n      swap1\n      sstore\n        /* \"oracle/DeveloperLendPriceProviderV1.sol\":9632:10039  if (list.length > index) {//will update... */\n    tag_188:\n        /* \"openzeppelin/OwnableUpgradeable.sol\":1644:1645  _ */\n      pop\n        /* \"oracle/DeveloperLendPriceProviderV1.sol\":9419:10046  function addOrUpdateTokenConfigSource(address pToken, uint256 index, address source, PriceOracleType _sourceType, bool available) public onlyOwner {... */\n      pop\n      pop\n      pop\n      pop\n      pop\n      jump\t// out\n        /* \"openzeppelin/OwnableUpgradeable.sol\":2307:2551  function transferOwnership(address newOwner) public virtual onlyOwner {\r... */\n    tag_80:\n        /* \"openzeppelin/OwnableUpgradeable.sol\":1584:1596  _msgSender() */\n      tag_193\n        /* \"openzeppelin/OwnableUpgradeable.sol\":1584:1594  _msgSender */\n      tag_87\n        /* \"openzeppelin/OwnableUpgradeable.sol\":1584:1596  _msgSender() */\n      jump\t// in\n    tag_193:\n      sub(shl(0xa0, 0x01), 0x01)\n        /* \"openzeppelin/OwnableUpgradeable.sol\":1573:1596  owner() == _msgSender() */\n      and\n        /* \"openzeppelin/OwnableUpgradeable.sol\":1573:1580  owner() */\n      tag_194\n        /* \"openzeppelin/OwnableUpgradeable.sol\":1573:1578  owner */\n      tag_53\n        /* \"openzeppelin/OwnableUpgradeable.sol\":1573:1580  owner() */\n      jump\t// in\n    tag_194:\n      sub(shl(0xa0, 0x01), 0x01)\n        /* \"openzeppelin/OwnableUpgradeable.sol\":1573:1596  owner() == _msgSender() */\n      and\n      eq\n        /* \"openzeppelin/OwnableUpgradeable.sol\":1565:1633  require(owner() == _msgSender(), \"Ownable: caller is not the owner\") */\n      tag_195\n      jumpi\n      mload(0x40)\n      shl(0xe5, 0x461bcd)\n      dup2\n      mstore\n      0x04\n      add\n      tag_90\n      swap1\n      tag_91\n      jump\t// in\n    tag_195:\n      sub(shl(0xa0, 0x01), 0x01)\n        /* \"openzeppelin/OwnableUpgradeable.sol\":2396:2418  newOwner != address(0) */\n      dup2\n      and\n        /* \"openzeppelin/OwnableUpgradeable.sol\":2388:2461  require(newOwner != address(0), \"Ownable: new owner is the zero address\") */\n      tag_198\n      jumpi\n      mload(0x40)\n      shl(0xe5, 0x461bcd)\n      dup2\n      mstore\n      0x04\n      add\n      tag_90\n      swap1\n      tag_200\n      jump\t// in\n    tag_198:\n        /* \"openzeppelin/OwnableUpgradeable.sol\":2498:2504  _owner */\n      sload(0x65)\n        /* \"openzeppelin/OwnableUpgradeable.sol\":2477:2515  OwnershipTransferred(_owner, newOwner) */\n      mload(0x40)\n      sub(shl(0xa0, 0x01), 0x01)\n      dup1\n      dup5\n      and\n      swap3\n        /* \"openzeppelin/OwnableUpgradeable.sol\":2498:2504  _owner */\n      and\n      swap1\n        /* \"openzeppelin/OwnableUpgradeable.sol\":2477:2515  OwnershipTransferred(_owner, newOwner) */\n      0x8be0079c531659141344cd1fd0a4f28419497f9722a3daafe3b4186f6b6457e0\n      swap1\n        /* \"openzeppelin/OwnableUpgradeable.sol\":2498:2504  _owner */\n      0x00\n      swap1\n        /* \"openzeppelin/OwnableUpgradeable.sol\":2477:2515  OwnershipTransferred(_owner, newOwner) */\n      log3\n        /* \"openzeppelin/OwnableUpgradeable.sol\":2526:2532  _owner */\n      0x65\n        /* \"openzeppelin/OwnableUpgradeable.sol\":2526:2543  _owner = newOwner */\n      dup1\n      sload\n      not(sub(shl(0xa0, 0x01), 0x01))\n      and\n      sub(shl(0xa0, 0x01), 0x01)\n      swap3\n      swap1\n      swap3\n      and\n      swap2\n      swap1\n      swap2\n      or\n      swap1\n      sstore\n        /* \"openzeppelin/OwnableUpgradeable.sol\":2307:2551  function transferOwnership(address newOwner) public virtual onlyOwner {\r... */\n      jump\t// out\n        /* \"oracle/DeveloperLendPriceProviderV1.sol\":2809:3734  function getUnderlyingPrice(address _pToken) external view returns (uint){... */\n    tag_83:\n      sub(shl(0xa0, 0x01), 0x01)\n        /* \"oracle/DeveloperLendPriceProviderV1.sol\":2954:2975  tokenConfigs[_pToken] */\n      dup2\n      and\n        /* \"oracle/DeveloperLendPriceProviderV1.sol\":2877:2881  uint */\n      0x00\n        /* \"oracle/DeveloperLendPriceProviderV1.sol\":2954:2975  tokenConfigs[_pToken] */\n      swap1\n      dup2\n      mstore\n        /* \"oracle/DeveloperLendPriceProviderV1.sol\":2954:2966  tokenConfigs */\n      0x97\n        /* \"oracle/DeveloperLendPriceProviderV1.sol\":2954:2975  tokenConfigs[_pToken] */\n      0x20\n      mstore\n      0x40\n      dup2\n      keccak256\n        /* \"oracle/DeveloperLendPriceProviderV1.sol\":2989:3009  tokenConfig.fixedUsd */\n      0x04\n      dup2\n      add\n      sload\n        /* \"oracle/DeveloperLendPriceProviderV1.sol\":2877:2881  uint */\n      dup3\n      swap2\n        /* \"oracle/DeveloperLendPriceProviderV1.sol\":2954:2975  tokenConfigs[_pToken] */\n      swap1\n        /* \"oracle/DeveloperLendPriceProviderV1.sol\":2989:3009  tokenConfig.fixedUsd */\n      0xff\n      and\n        /* \"oracle/DeveloperLendPriceProviderV1.sol\":2985:3143  if (tokenConfig.fixedUsd) {//if true,will return 1*e36/baseUnit... */\n      iszero\n      tag_202\n      jumpi\n        /* \"oracle/DeveloperLendPriceProviderV1.sol\":3111:3131  tokenConfig.baseUnit */\n      0x03\n      dup2\n      add\n      sload\n        /* \"oracle/DeveloperLendPriceProviderV1.sol\":3069:3070  1 */\n      0x01\n      swap3\n      pop\n        /* \"oracle/DeveloperLendPriceProviderV1.sol\":3091:3132  price.mul(1e36).div(tokenConfig.baseUnit) */\n      tag_203\n      swap1\n        /* \"oracle/DeveloperLendPriceProviderV1.sol\":3091:3106  price.mul(1e36) */\n      tag_204\n        /* \"oracle/DeveloperLendPriceProviderV1.sol\":3069:3070  1 */\n      dup5\n        /* \"oracle/DeveloperLendPriceProviderV1.sol\":3101:3105  1e36 */\n      0xc097ce7bc90715b34b9f1000000000\n        /* \"oracle/DeveloperLendPriceProviderV1.sol\":3091:3100  price.mul */\n      tag_205\n        /* \"oracle/DeveloperLendPriceProviderV1.sol\":3091:3106  price.mul(1e36) */\n      jump\t// in\n    tag_204:\n        /* \"oracle/DeveloperLendPriceProviderV1.sol\":3091:3110  price.mul(1e36).div */\n      swap1\n      tag_206\n        /* \"oracle/DeveloperLendPriceProviderV1.sol\":3091:3132  price.mul(1e36).div(tokenConfig.baseUnit) */\n      jump\t// in\n    tag_203:\n        /* \"oracle/DeveloperLendPriceProviderV1.sol\":3084:3132  return price.mul(1e36).div(tokenConfig.baseUnit) */\n      swap3\n      pop\n      pop\n      pop\n      jump(tag_119)\n        /* \"oracle/DeveloperLendPriceProviderV1.sol\":2985:3143  if (tokenConfig.fixedUsd) {//if true,will return 1*e36/baseUnit... */\n    tag_202:\n      sub(shl(0xa0, 0x01), 0x01)\n        /* \"oracle/DeveloperLendPriceProviderV1.sol\":3190:3206  oracles[_pToken] */\n      dup5\n      and\n        /* \"oracle/DeveloperLendPriceProviderV1.sol\":3153:3187  PriceOracle[] storage priceOracles */\n      0x00\n        /* \"oracle/DeveloperLendPriceProviderV1.sol\":3190:3206  oracles[_pToken] */\n      swap1\n      dup2\n      mstore\n        /* \"oracle/DeveloperLendPriceProviderV1.sol\":3190:3197  oracles */\n      0x98\n        /* \"oracle/DeveloperLendPriceProviderV1.sol\":3190:3206  oracles[_pToken] */\n      0x20\n      mstore\n      0x40\n      dup2\n      keccak256\n      swap1\n        /* \"oracle/DeveloperLendPriceProviderV1.sol\":3216:3613  for (uint256 i = 0; i < priceOracles.length; i++) {... */\n    tag_207:\n        /* \"oracle/DeveloperLendPriceProviderV1.sol\":3240:3259  priceOracles.length */\n      dup2\n      sload\n        /* \"oracle/DeveloperLendPriceProviderV1.sol\":3236:3259  i < priceOracles.length */\n      dup2\n      lt\n        /* \"oracle/DeveloperLendPriceProviderV1.sol\":3216:3613  for (uint256 i = 0; i < priceOracles.length; i++) {... */\n      iszero\n      tag_208\n      jumpi\n        /* \"oracle/DeveloperLendPriceProviderV1.sol\":3280:3311  PriceOracle storage priceOracle */\n      0x00\n        /* \"oracle/DeveloperLendPriceProviderV1.sol\":3314:3326  priceOracles */\n      dup3\n        /* \"oracle/DeveloperLendPriceProviderV1.sol\":3327:3328  i */\n      dup3\n        /* \"oracle/DeveloperLendPriceProviderV1.sol\":3314:3329  priceOracles[i] */\n      dup2\n      sload\n      dup2\n      lt\n      tag_210\n      jumpi\n      invalid\n    tag_210:\n      0x00\n      swap2\n      dup3\n      mstore\n      0x20\n      swap1\n      swap2\n      keccak256\n      add\n        /* \"oracle/DeveloperLendPriceProviderV1.sol\":3347:3368  priceOracle.available */\n      dup1\n      sload\n        /* \"oracle/DeveloperLendPriceProviderV1.sol\":3314:3329  priceOracles[i] */\n      swap1\n      swap2\n      pop\n      shl(0xa8, 0x01)\n        /* \"oracle/DeveloperLendPriceProviderV1.sol\":3347:3368  priceOracle.available */\n      swap1\n      div\n      0xff\n      and\n        /* \"oracle/DeveloperLendPriceProviderV1.sol\":3347:3376  priceOracle.available == true */\n      iszero\n      iszero\n        /* \"oracle/DeveloperLendPriceProviderV1.sol\":3372:3376  true */\n      0x01\n        /* \"oracle/DeveloperLendPriceProviderV1.sol\":3347:3376  priceOracle.available == true */\n      eq\n        /* \"oracle/DeveloperLendPriceProviderV1.sol\":3343:3603  if (priceOracle.available == true) {// check the priceOracle is available... */\n      iszero\n      tag_219\n      jumpi\n        /* \"oracle/DeveloperLendPriceProviderV1.sol\":3441:3503  _getUnderlyingPriceInternal(_pToken, tokenConfig, priceOracle) */\n      0x40\n      dup1\n      mload\n      0xa0\n      dup2\n      add\n      dup3\n      mstore\n      dup6\n      sload\n      sub(shl(0xa0, 0x01), 0x01)\n      swap1\n      dup2\n      and\n      dup3\n      mstore\n      0x01\n      dup1\n      dup9\n      add\n      sload\n      swap1\n      swap2\n      and\n      0x20\n      dup1\n      dup5\n      add\n      swap2\n      swap1\n      swap2\n      mstore\n      0x02\n      dup1\n      dup10\n      add\n      dup1\n      sload\n      dup7\n      mload\n      0x0100\n      swap6\n      dup3\n      and\n      iszero\n      swap6\n      swap1\n      swap6\n      mul\n      not(0x00)\n      add\n      and\n      swap2\n      swap1\n      swap2\n      div\n      0x1f\n      dup2\n      add\n      dup4\n      swap1\n      div\n      dup4\n      mul\n      dup5\n      add\n      dup4\n      add\n      dup7\n      mstore\n      dup1\n      dup5\n      mstore\n      tag_213\n      swap6\n        /* \"oracle/DeveloperLendPriceProviderV1.sol\":3469:3476  _pToken */\n      dup14\n      swap6\n        /* \"oracle/DeveloperLendPriceProviderV1.sol\":3441:3503  _getUnderlyingPriceInternal(_pToken, tokenConfig, priceOracle) */\n      swap5\n      dup12\n      swap5\n      swap2\n      dup7\n      add\n      swap4\n      swap1\n      swap3\n      swap1\n      swap2\n      dup4\n      add\n      dup3\n      dup3\n      dup1\n      iszero\n      tag_214\n      jumpi\n      dup1\n      0x1f\n      lt\n      tag_215\n      jumpi\n      0x0100\n      dup1\n      dup4\n      sload\n      div\n      mul\n      dup4\n      mstore\n      swap2\n      0x20\n      add\n      swap2\n      jump(tag_214)\n    tag_215:\n      dup3\n      add\n      swap2\n      swap1\n      0x00\n      mstore\n      keccak256(0x00, 0x20)\n      swap1\n    tag_216:\n      dup2\n      sload\n      dup2\n      mstore\n      swap1\n      0x01\n      add\n      swap1\n      0x20\n      add\n      dup1\n      dup4\n      gt\n      tag_216\n      jumpi\n      dup3\n      swap1\n      sub\n      0x1f\n      and\n      dup3\n      add\n      swap2\n    tag_214:\n      pop\n      pop\n      pop\n      swap2\n      dup4\n      mstore\n      pop\n      pop\n      0x03\n      dup3\n      add\n      sload\n      0x20\n      dup1\n      dup4\n      add\n      swap2\n      swap1\n      swap2\n      mstore\n      0x04\n      swap3\n      dup4\n      add\n      sload\n      0xff\n      swap1\n      dup2\n      and\n      iszero\n      iszero\n      0x40\n      swap4\n      dup5\n      add\n      mstore\n      dup3\n      mload\n      0x60\n      dup2\n      add\n      swap1\n      swap4\n      mstore\n      dup8\n      sload\n      sub(shl(0xa0, 0x01), 0x01)\n      dup2\n      and\n      dup5\n      mstore\n      swap3\n      swap4\n        /* \"oracle/DeveloperLendPriceProviderV1.sol\":3491:3502  priceOracle */\n      dup9\n      swap4\n        /* \"oracle/DeveloperLendPriceProviderV1.sol\":3441:3503  _getUnderlyingPriceInternal(_pToken, tokenConfig, priceOracle) */\n      swap3\n      dup6\n      add\n      swap3\n      shl(0xa0, 0x01)\n      swap1\n      div\n      swap1\n      swap2\n      and\n      swap1\n      dup2\n      gt\n      iszero\n      tag_167\n      jumpi\n      invalid\n    tag_213:\n        /* \"oracle/DeveloperLendPriceProviderV1.sol\":3433:3503  price = _getUnderlyingPriceInternal(_pToken, tokenConfig, priceOracle) */\n      swap5\n      pop\n        /* \"oracle/DeveloperLendPriceProviderV1.sol\":3525:3534  price > 0 */\n      dup5\n      iszero\n        /* \"oracle/DeveloperLendPriceProviderV1.sol\":3521:3589  if (price > 0) {... */\n      tag_219\n      jumpi\n        /* \"oracle/DeveloperLendPriceProviderV1.sol\":3565:3570  price */\n      dup5\n        /* \"oracle/DeveloperLendPriceProviderV1.sol\":3558:3570  return price */\n      swap6\n      pop\n      pop\n      pop\n      pop\n      pop\n      pop\n      jump(tag_119)\n        /* \"oracle/DeveloperLendPriceProviderV1.sol\":3521:3589  if (price > 0) {... */\n    tag_219:\n      pop\n        /* \"oracle/DeveloperLendPriceProviderV1.sol\":3261:3264  i++ */\n      0x01\n      add\n        /* \"oracle/DeveloperLendPriceProviderV1.sol\":3216:3613  for (uint256 i = 0; i < priceOracles.length; i++) {... */\n      jump(tag_207)\n    tag_208:\n      pop\n        /* \"oracle/DeveloperLendPriceProviderV1.sol\":3675:3676  0 */\n      0x00\n        /* \"oracle/DeveloperLendPriceProviderV1.sol\":3667:3672  price */\n      dup4\n        /* \"oracle/DeveloperLendPriceProviderV1.sol\":3667:3676  price > 0 */\n      gt\n        /* \"oracle/DeveloperLendPriceProviderV1.sol\":3659:3708  require(price > 0, \"price must bigger than zero\") */\n      tag_220\n      jumpi\n      mload(0x40)\n      shl(0xe5, 0x461bcd)\n      dup2\n      mstore\n      0x04\n      add\n      tag_90\n      swap1\n      tag_222\n      jump\t// in\n    tag_220:\n      pop\n        /* \"oracle/DeveloperLendPriceProviderV1.sol\":3726:3727  0 */\n      0x00\n      swap5\n        /* \"oracle/DeveloperLendPriceProviderV1.sol\":2809:3734  function getUnderlyingPrice(address _pToken) external view returns (uint){... */\n      swap4\n      pop\n      pop\n      pop\n      pop\n      jump\t// out\n        /* \"openzeppelin/ContextUpgradeable.sol\":810:916  function _msgSender() internal view virtual returns (address payable) {\r... */\n    tag_87:\n        /* \"openzeppelin/ContextUpgradeable.sol\":898:908  msg.sender */\n      caller\n        /* \"openzeppelin/ContextUpgradeable.sol\":810:916  function _msgSender() internal view virtual returns (address payable) {\r... */\n      swap1\n      jump\t// out\n        /* \"oracle/DeveloperLendPriceProviderV1.sol\":3740:4942  function _getUnderlyingPriceInternal(address _pToken, TokenConfig memory tokenConfig, PriceOracle memory priceOracle) internal view returns (uint){... */\n    tag_169:\n        /* \"oracle/DeveloperLendPriceProviderV1.sol\":3881:3885  uint */\n      0x00\n        /* \"oracle/DeveloperLendPriceProviderV1.sol\":3897:3915  address underlying */\n      dup1\n        /* \"oracle/DeveloperLendPriceProviderV1.sol\":3926:3968  0xEeeeeEeeeEeEeeEeEeEeeEEEeeeeEeeeeeeeEEeE */\n      0xeeeeeeeeeeeeeeeeeeeeeeeeeeeeeeeeeeeeeeee\n        /* \"oracle/DeveloperLendPriceProviderV1.sol\":3897:3969  address underlying = address(0xEeeeeEeeeEeEeeEeEeEeeEEEeeeeEeeeeeeeEEeE) */\n      swap1\n      pop\n        /* \"oracle/DeveloperLendPriceProviderV1.sol\":3979:4001  PTokenInterface pToken */\n      0x00\n        /* \"oracle/DeveloperLendPriceProviderV1.sol\":4020:4027  _pToken */\n      dup6\n        /* \"oracle/DeveloperLendPriceProviderV1.sol\":3979:4028  PTokenInterface pToken = PTokenInterface(_pToken) */\n      swap1\n      pop\n        /* \"oracle/DeveloperLendPriceProviderV1.sol\":4044:4085  compareStrings(pToken.symbol(), \"pMATIC\") */\n      tag_225\n        /* \"oracle/DeveloperLendPriceProviderV1.sol\":4059:4065  pToken */\n      dup2\n      sub(shl(0xa0, 0x01), 0x01)\n        /* \"oracle/DeveloperLendPriceProviderV1.sol\":4059:4072  pToken.symbol */\n      and\n      0x95d89b41\n        /* \"oracle/DeveloperLendPriceProviderV1.sol\":4059:4074  pToken.symbol() */\n      mload(0x40)\n      dup2\n      0xffffffff\n      and\n      0xe0\n      shl\n      dup2\n      mstore\n      0x04\n      add\n      0x00\n      mload(0x40)\n      dup1\n      dup4\n      sub\n      dup2\n      dup7\n      dup1\n      extcodesize\n      iszero\n      dup1\n      iszero\n      tag_226\n      jumpi\n      0x00\n      dup1\n      revert\n    tag_226:\n      pop\n      gas\n      staticcall\n      iszero\n      dup1\n      iszero\n      tag_228\n      jumpi\n      returndatasize\n      0x00\n      dup1\n      returndatacopy\n      revert(0x00, returndatasize)\n    tag_228:\n      pop\n      pop\n      pop\n      pop\n      mload(0x40)\n      returndatasize\n      0x00\n      dup3\n      returndatacopy\n      0x1f\n      returndatasize\n      swap1\n      dup2\n      add\n      not(0x1f)\n      and\n      dup3\n      add\n      0x40\n      mstore\n      tag_229\n      swap2\n      swap1\n      dup2\n      add\n      swap1\n      tag_230\n      jump\t// in\n    tag_229:\n        /* \"oracle/DeveloperLendPriceProviderV1.sol\":4044:4085  compareStrings(pToken.symbol(), \"pMATIC\") */\n      mload(0x40)\n      dup1\n      0x40\n      add\n      0x40\n      mstore\n      dup1\n      0x06\n      dup2\n      mstore\n      0x20\n      add\n      shl(0xd0, 0x704d41544943)\n      dup2\n      mstore\n      pop\n        /* \"oracle/DeveloperLendPriceProviderV1.sol\":4044:4058  compareStrings */\n      tag_231\n        /* \"oracle/DeveloperLendPriceProviderV1.sol\":4044:4085  compareStrings(pToken.symbol(), \"pMATIC\") */\n      jump\t// in\n    tag_225:\n        /* \"oracle/DeveloperLendPriceProviderV1.sol\":4039:4171  if (!compareStrings(pToken.symbol(), \"pMATIC\")) {... */\n      tag_232\n      jumpi\n        /* \"oracle/DeveloperLendPriceProviderV1.sol\":4138:4145  _pToken */\n      dup6\n      sub(shl(0xa0, 0x01), 0x01)\n        /* \"oracle/DeveloperLendPriceProviderV1.sol\":4122:4157  PTokenInterface(_pToken).underlying */\n      and\n      0x6f307dc3\n        /* \"oracle/DeveloperLendPriceProviderV1.sol\":4122:4159  PTokenInterface(_pToken).underlying() */\n      mload(0x40)\n      dup2\n      0xffffffff\n      and\n      0xe0\n      shl\n      dup2\n      mstore\n      0x04\n      add\n      0x20\n      mload(0x40)\n      dup1\n      dup4\n      sub\n      dup2\n      dup7\n      dup1\n      extcodesize\n      iszero\n      dup1\n      iszero\n      tag_233\n      jumpi\n      0x00\n      dup1\n      revert\n    tag_233:\n      pop\n      gas\n      staticcall\n      iszero\n      dup1\n      iszero\n      tag_235\n      jumpi\n      returndatasize\n      0x00\n      dup1\n      returndatacopy\n      revert(0x00, returndatasize)\n    tag_235:\n      pop\n      pop\n      pop\n      pop\n      mload(0x40)\n      returndatasize\n      not(0x1f)\n      0x1f\n      dup3\n      add\n      and\n      dup3\n      add\n      dup1\n      0x40\n      mstore\n      pop\n      dup2\n      add\n      swap1\n      tag_236\n      swap2\n      swap1\n      tag_237\n      jump\t// in\n    tag_236:\n        /* \"oracle/DeveloperLendPriceProviderV1.sol\":4101:4160  underlying = address(PTokenInterface(_pToken).underlying()) */\n      swap2\n      pop\n        /* \"oracle/DeveloperLendPriceProviderV1.sol\":4039:4171  if (!compareStrings(pToken.symbol(), \"pMATIC\")) {... */\n    tag_232:\n        /* \"oracle/DeveloperLendPriceProviderV1.sol\":4210:4232  priceOracle.sourceType */\n      0x20\n      dup5\n      add\n      mload\n        /* \"oracle/DeveloperLendPriceProviderV1.sol\":4181:4207  PriceOracleType sourceType */\n      0x00\n        /* \"oracle/DeveloperLendPriceProviderV1.sol\":4246:4256  sourceType */\n      dup2\n        /* \"oracle/DeveloperLendPriceProviderV1.sol\":4246:4285  sourceType == PriceOracleType.ChainLink */\n      0x04\n      dup2\n      gt\n      iszero\n      tag_239\n      jumpi\n      invalid\n    tag_239:\n      eq\n        /* \"oracle/DeveloperLendPriceProviderV1.sol\":4242:4917  if (sourceType == PriceOracleType.ChainLink) {... */\n      iszero\n      tag_240\n      jumpi\n        /* \"oracle/DeveloperLendPriceProviderV1.sol\":4308:4360  _getChainlinkPriceInternal(priceOracle, tokenConfig) */\n      tag_241\n        /* \"oracle/DeveloperLendPriceProviderV1.sol\":4335:4346  priceOracle */\n      dup6\n        /* \"oracle/DeveloperLendPriceProviderV1.sol\":4348:4359  tokenConfig */\n      dup8\n        /* \"oracle/DeveloperLendPriceProviderV1.sol\":4308:4334  _getChainlinkPriceInternal */\n      tag_242\n        /* \"oracle/DeveloperLendPriceProviderV1.sol\":4308:4360  _getChainlinkPriceInternal(priceOracle, tokenConfig) */\n      jump\t// in\n    tag_241:\n        /* \"oracle/DeveloperLendPriceProviderV1.sol\":4301:4360  return _getChainlinkPriceInternal(priceOracle, tokenConfig) */\n      swap4\n      pop\n      pop\n      pop\n      pop\n      jump(tag_224)\n        /* \"oracle/DeveloperLendPriceProviderV1.sol\":4242:4917  if (sourceType == PriceOracleType.ChainLink) {... */\n    tag_240:\n        /* \"oracle/DeveloperLendPriceProviderV1.sol\":4396:4419  PriceOracleType.UniSwap */\n      0x01\n        /* \"oracle/DeveloperLendPriceProviderV1.sol\":4382:4392  sourceType */\n      dup2\n        /* \"oracle/DeveloperLendPriceProviderV1.sol\":4382:4419  sourceType == PriceOracleType.UniSwap */\n      0x04\n      dup2\n      gt\n      iszero\n      tag_245\n      jumpi\n      invalid\n    tag_245:\n      eq\n        /* \"oracle/DeveloperLendPriceProviderV1.sol\":4378:4917  if (sourceType == PriceOracleType.UniSwap) {... */\n      iszero\n      tag_246\n      jumpi\n        /* \"oracle/DeveloperLendPriceProviderV1.sol\":4442:4492  _getUniSwapPriceInternal(priceOracle, tokenConfig) */\n      tag_241\n        /* \"oracle/DeveloperLendPriceProviderV1.sol\":4467:4478  priceOracle */\n      dup6\n        /* \"oracle/DeveloperLendPriceProviderV1.sol\":4480:4491  tokenConfig */\n      dup8\n        /* \"oracle/DeveloperLendPriceProviderV1.sol\":4442:4466  _getUniSwapPriceInternal */\n      tag_248\n        /* \"oracle/DeveloperLendPriceProviderV1.sol\":4442:4492  _getUniSwapPriceInternal(priceOracle, tokenConfig) */\n      jump\t// in\n        /* \"oracle/DeveloperLendPriceProviderV1.sol\":4378:4917  if (sourceType == PriceOracleType.UniSwap) {... */\n    tag_246:\n        /* \"oracle/DeveloperLendPriceProviderV1.sol\":4526:4550  PriceOracleType.Compound */\n      0x02\n        /* \"oracle/DeveloperLendPriceProviderV1.sol\":4512:4522  sourceType */\n      dup2\n        /* \"oracle/DeveloperLendPriceProviderV1.sol\":4512:4550  sourceType == PriceOracleType.Compound */\n      0x04\n      dup2\n      gt\n      iszero\n      tag_251\n      jumpi\n      invalid\n    tag_251:\n      eq\n        /* \"oracle/DeveloperLendPriceProviderV1.sol\":4508:4917  if (sourceType == PriceOracleType.Compound) {... */\n      iszero\n      tag_252\n      jumpi\n        /* \"oracle/DeveloperLendPriceProviderV1.sol\":4573:4624  _getCompoundPriceInternal(priceOracle, tokenConfig) */\n      tag_241\n        /* \"oracle/DeveloperLendPriceProviderV1.sol\":4599:4610  priceOracle */\n      dup6\n        /* \"oracle/DeveloperLendPriceProviderV1.sol\":4612:4623  tokenConfig */\n      dup8\n        /* \"oracle/DeveloperLendPriceProviderV1.sol\":4573:4598  _getCompoundPriceInternal */\n      tag_254\n        /* \"oracle/DeveloperLendPriceProviderV1.sol\":4573:4624  _getCompoundPriceInternal(priceOracle, tokenConfig) */\n      jump\t// in\n        /* \"oracle/DeveloperLendPriceProviderV1.sol\":4508:4917  if (sourceType == PriceOracleType.Compound) {... */\n    tag_252:\n        /* \"oracle/DeveloperLendPriceProviderV1.sol\":4659:4683  PriceOracleType.Customer */\n      0x03\n        /* \"oracle/DeveloperLendPriceProviderV1.sol\":4645:4655  sourceType */\n      dup2\n        /* \"oracle/DeveloperLendPriceProviderV1.sol\":4645:4683  sourceType == PriceOracleType.Customer */\n      0x04\n      dup2\n      gt\n      iszero\n      tag_257\n      jumpi\n      invalid\n    tag_257:\n      eq\n        /* \"oracle/DeveloperLendPriceProviderV1.sol\":4641:4917  if (sourceType == PriceOracleType.Customer) {... */\n      iszero\n      tag_258\n      jumpi\n        /* \"oracle/DeveloperLendPriceProviderV1.sol\":4706:4757  _getCustomerPriceInternal(priceOracle, tokenConfig) */\n      tag_241\n        /* \"oracle/DeveloperLendPriceProviderV1.sol\":4732:4743  priceOracle */\n      dup6\n        /* \"oracle/DeveloperLendPriceProviderV1.sol\":4745:4756  tokenConfig */\n      dup8\n        /* \"oracle/DeveloperLendPriceProviderV1.sol\":4706:4731  _getCustomerPriceInternal */\n      tag_260\n        /* \"oracle/DeveloperLendPriceProviderV1.sol\":4706:4757  _getCustomerPriceInternal(priceOracle, tokenConfig) */\n      jump\t// in\n        /* \"oracle/DeveloperLendPriceProviderV1.sol\":4641:4917  if (sourceType == PriceOracleType.Customer) {... */\n    tag_258:\n        /* \"oracle/DeveloperLendPriceProviderV1.sol\":4792:4824  PriceOracleType.ChainLinkEthBase */\n      0x04\n        /* \"oracle/DeveloperLendPriceProviderV1.sol\":4778:4788  sourceType */\n      dup2\n        /* \"oracle/DeveloperLendPriceProviderV1.sol\":4778:4824  sourceType == PriceOracleType.ChainLinkEthBase */\n      0x04\n      dup2\n      gt\n      iszero\n      tag_263\n      jumpi\n      invalid\n    tag_263:\n      eq\n        /* \"oracle/DeveloperLendPriceProviderV1.sol\":4774:4917  if (sourceType == PriceOracleType.ChainLinkEthBase) {... */\n      iszero\n      tag_264\n      jumpi\n        /* \"oracle/DeveloperLendPriceProviderV1.sol\":4847:4906  _getChainLinkEthBasePriceInternal(priceOracle, tokenConfig) */\n      tag_241\n        /* \"oracle/DeveloperLendPriceProviderV1.sol\":4881:4892  priceOracle */\n      dup6\n        /* \"oracle/DeveloperLendPriceProviderV1.sol\":4894:4905  tokenConfig */\n      dup8\n        /* \"oracle/DeveloperLendPriceProviderV1.sol\":4847:4880  _getChainLinkEthBasePriceInternal */\n      tag_266\n        /* \"oracle/DeveloperLendPriceProviderV1.sol\":4847:4906  _getChainLinkEthBasePriceInternal(priceOracle, tokenConfig) */\n      jump\t// in\n        /* \"oracle/DeveloperLendPriceProviderV1.sol\":4774:4917  if (sourceType == PriceOracleType.ChainLinkEthBase) {... */\n    tag_264:\n        /* \"oracle/DeveloperLendPriceProviderV1.sol\":4934:4935  0 */\n      0x00\n        /* \"oracle/DeveloperLendPriceProviderV1.sol\":4927:4935  return 0 */\n      swap4\n      pop\n      pop\n      pop\n      pop\n        /* \"oracle/DeveloperLendPriceProviderV1.sol\":3740:4942  function _getUnderlyingPriceInternal(address _pToken, TokenConfig memory tokenConfig, PriceOracle memory priceOracle) internal view returns (uint){... */\n    tag_224:\n      swap4\n      swap3\n      pop\n      pop\n      pop\n      jump\t// out\n        /* \"openzeppelin/SafeMath.sol\":3645:3865  function mul(uint256 a, uint256 b) internal pure returns (uint256) {\r... */\n    tag_205:\n        /* \"openzeppelin/SafeMath.sol\":3703:3710  uint256 */\n      0x00\n        /* \"openzeppelin/SafeMath.sol\":3727:3733  a == 0 */\n      dup3\n        /* \"openzeppelin/SafeMath.sol\":3723:3743  if (a == 0) return 0 */\n      tag_268\n      jumpi\n      pop\n        /* \"openzeppelin/SafeMath.sol\":3742:3743  0 */\n      0x00\n        /* \"openzeppelin/SafeMath.sol\":3735:3743  return 0 */\n      jump(tag_160)\n        /* \"openzeppelin/SafeMath.sol\":3723:3743  if (a == 0) return 0 */\n    tag_268:\n        /* \"openzeppelin/SafeMath.sol\":3766:3771  a * b */\n      dup3\n      dup3\n      mul\n        /* \"openzeppelin/SafeMath.sol\":3770:3771  b */\n      dup3\n        /* \"openzeppelin/SafeMath.sol\":3766:3767  a */\n      dup5\n        /* \"openzeppelin/SafeMath.sol\":3766:3771  a * b */\n      dup3\n        /* \"openzeppelin/SafeMath.sol\":3766:3767  a */\n      dup2\n        /* \"openzeppelin/SafeMath.sol\":3790:3795  c / a */\n      tag_269\n      jumpi\n      invalid\n    tag_269:\n      div\n        /* \"openzeppelin/SafeMath.sol\":3790:3800  c / a == b */\n      eq\n        /* \"openzeppelin/SafeMath.sol\":3782:3838  require(c / a == b, \"SafeMath: multiplication overflow\") */\n      tag_224\n      jumpi\n      mload(0x40)\n      shl(0xe5, 0x461bcd)\n      dup2\n      mstore\n      0x04\n      add\n      tag_90\n      swap1\n      tag_272\n      jump\t// in\n        /* \"openzeppelin/SafeMath.sol\":4343:4496  function div(uint256 a, uint256 b) internal pure returns (uint256) {\r... */\n    tag_206:\n        /* \"openzeppelin/SafeMath.sol\":4401:4408  uint256 */\n      0x00\n        /* \"openzeppelin/SafeMath.sol\":4433:4434  0 */\n      dup1\n        /* \"openzeppelin/SafeMath.sol\":4429:4430  b */\n      dup3\n        /* \"openzeppelin/SafeMath.sol\":4429:4434  b > 0 */\n      gt\n        /* \"openzeppelin/SafeMath.sol\":4421:4465  require(b > 0, \"SafeMath: division by zero\") */\n      tag_274\n      jumpi\n      mload(0x40)\n      shl(0xe5, 0x461bcd)\n      dup2\n      mstore\n      0x04\n      add\n      tag_90\n      swap1\n      tag_276\n      jump\t// in\n    tag_274:\n        /* \"openzeppelin/SafeMath.sol\":4487:4488  b */\n      dup2\n        /* \"openzeppelin/SafeMath.sol\":4483:4484  a */\n      dup4\n        /* \"openzeppelin/SafeMath.sol\":4483:4488  a / b */\n      dup2\n      tag_277\n      jumpi\n      invalid\n    tag_277:\n      div\n      swap4\n        /* \"openzeppelin/SafeMath.sol\":4343:4496  function div(uint256 a, uint256 b) internal pure returns (uint256) {\r... */\n      swap3\n      pop\n      pop\n      pop\n      jump\t// out\n        /* \"oracle/DeveloperLendPriceProviderV1.sol\":11758:11939  function compareStrings(string memory a, string memory b) internal pure returns (bool) {... */\n    tag_231:\n        /* \"oracle/DeveloperLendPriceProviderV1.sol\":11839:11843  bool */\n      0x00\n        /* \"oracle/DeveloperLendPriceProviderV1.sol\":11927:11928  b */\n      dup2\n        /* \"oracle/DeveloperLendPriceProviderV1.sol\":11909:11930  abi.encodePacked((b)) */\n      add(0x20, mload(0x40))\n      tag_279\n      swap2\n      swap1\n      tag_280\n      jump\t// in\n    tag_279:\n      mload(0x40)\n      0x20\n      dup2\n      dup4\n      sub\n      sub\n      dup2\n      mstore\n      swap1\n      0x40\n      mstore\n        /* \"oracle/DeveloperLendPriceProviderV1.sol\":11899:11931  keccak256(abi.encodePacked((b))) */\n      dup1\n      mload\n      swap1\n      0x20\n      add\n      keccak256\n        /* \"oracle/DeveloperLendPriceProviderV1.sol\":11891:11892  a */\n      dup4\n        /* \"oracle/DeveloperLendPriceProviderV1.sol\":11873:11894  abi.encodePacked((a)) */\n      add(0x20, mload(0x40))\n      tag_281\n      swap2\n      swap1\n      tag_280\n      jump\t// in\n    tag_281:\n      mload(0x40)\n      0x20\n      dup2\n      dup4\n      sub\n      sub\n      dup2\n      mstore\n      swap1\n      0x40\n      mstore\n        /* \"oracle/DeveloperLendPriceProviderV1.sol\":11863:11895  keccak256(abi.encodePacked((a))) */\n      dup1\n      mload\n      swap1\n      0x20\n      add\n      keccak256\n        /* \"oracle/DeveloperLendPriceProviderV1.sol\":11863:11931  keccak256(abi.encodePacked((a))) == keccak256(abi.encodePacked((b))) */\n      eq\n        /* \"oracle/DeveloperLendPriceProviderV1.sol\":11855:11932  return (keccak256(abi.encodePacked((a))) == keccak256(abi.encodePacked((b)))) */\n      swap1\n      pop\n        /* \"oracle/DeveloperLendPriceProviderV1.sol\":11758:11939  function compareStrings(string memory a, string memory b) internal pure returns (bool) {... */\n      swap3\n      swap2\n      pop\n      pop\n      jump\t// out\n        /* \"oracle/DeveloperLendPriceProviderV1.sol\":6716:7290  function _getChainlinkPriceInternal(PriceOracle memory priceOracle, TokenConfig memory tokenConfig) internal view returns (uint){... */\n    tag_242:\n        /* \"oracle/DeveloperLendPriceProviderV1.sol\":6839:6843  uint */\n      0x00\n        /* \"oracle/DeveloperLendPriceProviderV1.sol\":6886:6887  0 */\n      dup1\n        /* \"oracle/DeveloperLendPriceProviderV1.sol\":6863:6874  tokenConfig */\n      dup3\n        /* \"oracle/DeveloperLendPriceProviderV1.sol\":6863:6883  tokenConfig.baseUnit */\n      0x60\n      add\n      mload\n        /* \"oracle/DeveloperLendPriceProviderV1.sol\":6863:6887  tokenConfig.baseUnit > 0 */\n      gt\n        /* \"oracle/DeveloperLendPriceProviderV1.sol\":6855:6926  require(tokenConfig.baseUnit > 0, \"baseUnit must be greater than zero\") */\n      tag_283\n      jumpi\n      mload(0x40)\n      shl(0xe5, 0x461bcd)\n      dup2\n      mstore\n      0x04\n      add\n      tag_90\n      swap1\n      tag_285\n      jump\t// in\n    tag_283:\n        /* \"oracle/DeveloperLendPriceProviderV1.sol\":6937:6968  AggregatorV3Interface priceFeed */\n      0x00\n        /* \"oracle/DeveloperLendPriceProviderV1.sol\":6993:7004  priceOracle */\n      dup4\n        /* \"oracle/DeveloperLendPriceProviderV1.sol\":6993:7011  priceOracle.source */\n      0x00\n      add\n      mload\n        /* \"oracle/DeveloperLendPriceProviderV1.sol\":6937:7012  AggregatorV3Interface priceFeed = AggregatorV3Interface(priceOracle.source) */\n      swap1\n      pop\n        /* \"oracle/DeveloperLendPriceProviderV1.sol\":7024:7033  int price */\n      0x00\n        /* \"oracle/DeveloperLendPriceProviderV1.sol\":7040:7049  priceFeed */\n      dup2\n      sub(shl(0xa0, 0x01), 0x01)\n        /* \"oracle/DeveloperLendPriceProviderV1.sol\":7040:7065  priceFeed.latestRoundData */\n      and\n      0xfeaf968c\n        /* \"oracle/DeveloperLendPriceProviderV1.sol\":7040:7067  priceFeed.latestRoundData() */\n      mload(0x40)\n      dup2\n      0xffffffff\n      and\n      0xe0\n      shl\n      dup2\n      mstore\n      0x04\n      add\n      0xa0\n      mload(0x40)\n      dup1\n      dup4\n      sub\n      dup2\n      dup7\n      dup1\n      extcodesize\n      iszero\n      dup1\n      iszero\n      tag_286\n      jumpi\n      0x00\n      dup1\n      revert\n    tag_286:\n      pop\n      gas\n      staticcall\n      iszero\n      dup1\n      iszero\n      tag_288\n      jumpi\n      returndatasize\n      0x00\n      dup1\n      returndatacopy\n      revert(0x00, returndatasize)\n    tag_288:\n      pop\n      pop\n      pop\n      pop\n      mload(0x40)\n      returndatasize\n      not(0x1f)\n      0x1f\n      dup3\n      add\n      and\n      dup3\n      add\n      dup1\n      0x40\n      mstore\n      pop\n      dup2\n      add\n      swap1\n      tag_289\n      swap2\n      swap1\n      tag_290\n      jump\t// in\n    tag_289:\n        /* \"oracle/DeveloperLendPriceProviderV1.sol\":7022:7067  (,int price,,,) = priceFeed.latestRoundData() */\n      pop\n      pop\n      pop\n      swap2\n      pop\n      pop\n        /* \"oracle/DeveloperLendPriceProviderV1.sol\":7091:7092  0 */\n      0x00\n        /* \"oracle/DeveloperLendPriceProviderV1.sol\":7082:7087  price */\n      dup2\n        /* \"oracle/DeveloperLendPriceProviderV1.sol\":7082:7092  price <= 0 */\n      sgt\n        /* \"oracle/DeveloperLendPriceProviderV1.sol\":7078:7283  if (price <= 0) {... */\n      tag_291\n      jumpi\n        /* \"oracle/DeveloperLendPriceProviderV1.sol\":7115:7116  0 */\n      0x00\n        /* \"oracle/DeveloperLendPriceProviderV1.sol\":7108:7116  return 0 */\n      swap3\n      pop\n      pop\n      pop\n      jump(tag_160)\n        /* \"oracle/DeveloperLendPriceProviderV1.sol\":7078:7283  if (price <= 0) {... */\n    tag_291:\n        /* \"oracle/DeveloperLendPriceProviderV1.sol\":7251:7271  tokenConfig.baseUnit */\n      0x60\n      dup5\n      add\n      mload\n        /* \"oracle/DeveloperLendPriceProviderV1.sol\":7225:7272  uint(price).mul(1e28).div(tokenConfig.baseUnit) */\n      tag_293\n      swap1\n        /* \"oracle/DeveloperLendPriceProviderV1.sol\":7225:7246  uint(price).mul(1e28) */\n      tag_204\n        /* \"oracle/DeveloperLendPriceProviderV1.sol\":7230:7235  price */\n      dup4\n        /* \"oracle/DeveloperLendPriceProviderV1.sol\":7241:7245  1e28 */\n      0x204fce5e3e25026110000000\n        /* \"oracle/DeveloperLendPriceProviderV1.sol\":7225:7240  uint(price).mul */\n      tag_205\n        /* \"oracle/DeveloperLendPriceProviderV1.sol\":7225:7246  uint(price).mul(1e28) */\n      jump\t// in\n        /* \"oracle/DeveloperLendPriceProviderV1.sol\":7225:7272  uint(price).mul(1e28).div(tokenConfig.baseUnit) */\n    tag_293:\n        /* \"oracle/DeveloperLendPriceProviderV1.sol\":7218:7272  return uint(price).mul(1e28).div(tokenConfig.baseUnit) */\n      swap3\n      pop\n      pop\n      pop\n      jump(tag_160)\n        /* \"oracle/DeveloperLendPriceProviderV1.sol\":4948:5516  function _getUniSwapPriceInternal(PriceOracle memory priceOracle, TokenConfig memory tokenConfig) internal view returns (uint) {... */\n    tag_248:\n        /* \"oracle/DeveloperLendPriceProviderV1.sol\":5102:5120  priceOracle.source */\n      dup2\n      mload\n        /* \"oracle/DeveloperLendPriceProviderV1.sol\":5272:5294  tokenConfig.underlying */\n      0x20\n      dup3\n      add\n      mload\n        /* \"oracle/DeveloperLendPriceProviderV1.sol\":5237:5295  uniSwapPriceOracle.getUniSwapPrice(tokenConfig.underlying) */\n      mload(0x40)\n      shl(0xe5, 0x0141c631)\n      dup2\n      mstore\n        /* \"oracle/DeveloperLendPriceProviderV1.sol\":5069:5073  uint */\n      0x00\n      swap3\n        /* \"oracle/DeveloperLendPriceProviderV1.sol\":5102:5120  priceOracle.source */\n      swap2\n      dup3\n      swap2\n        /* \"oracle/DeveloperLendPriceProviderV1.sol\":5069:5073  uint */\n      dup5\n      swap2\n      sub(shl(0xa0, 0x01), 0x01)\n        /* \"oracle/DeveloperLendPriceProviderV1.sol\":5237:5271  uniSwapPriceOracle.getUniSwapPrice */\n      dup5\n      and\n      swap2\n      0x2838c620\n      swap2\n        /* \"oracle/DeveloperLendPriceProviderV1.sol\":5237:5295  uniSwapPriceOracle.getUniSwapPrice(tokenConfig.underlying) */\n      tag_296\n      swap2\n      0x04\n      add\n      tag_51\n      jump\t// in\n    tag_296:\n      0x20\n      mload(0x40)\n      dup1\n      dup4\n      sub\n      dup2\n      dup7\n      dup1\n      extcodesize\n      iszero\n      dup1\n      iszero\n      tag_297\n      jumpi\n      0x00\n      dup1\n      revert\n    tag_297:\n      pop\n      gas\n      staticcall\n      iszero\n      dup1\n      iszero\n      tag_299\n      jumpi\n      returndatasize\n      0x00\n      dup1\n      returndatacopy\n      revert(0x00, returndatasize)\n    tag_299:\n      pop\n      pop\n      pop\n      pop\n      mload(0x40)\n      returndatasize\n      not(0x1f)\n      0x1f\n      dup3\n      add\n      and\n      dup3\n      add\n      dup1\n      0x40\n      mstore\n      pop\n      dup2\n      add\n      swap1\n      tag_300\n      swap2\n      swap1\n      tag_301\n      jump\t// in\n    tag_300:\n        /* \"oracle/DeveloperLendPriceProviderV1.sol\":5224:5295  uint price = uniSwapPriceOracle.getUniSwapPrice(tokenConfig.underlying) */\n      swap1\n      pop\n        /* \"oracle/DeveloperLendPriceProviderV1.sol\":5318:5319  0 */\n      0x00\n        /* \"oracle/DeveloperLendPriceProviderV1.sol\":5309:5314  price */\n      dup2\n        /* \"oracle/DeveloperLendPriceProviderV1.sol\":5309:5319  price <= 0 */\n      gt\n        /* \"oracle/DeveloperLendPriceProviderV1.sol\":5305:5510  if (price <= 0) {... */\n      tag_302\n      jumpi\n        /* \"oracle/DeveloperLendPriceProviderV1.sol\":5342:5343  0 */\n      0x00\n        /* \"oracle/DeveloperLendPriceProviderV1.sol\":5335:5343  return 0 */\n      swap4\n      pop\n      pop\n      pop\n      pop\n      jump(tag_160)\n        /* \"oracle/DeveloperLendPriceProviderV1.sol\":5305:5510  if (price <= 0) {... */\n    tag_302:\n        /* \"oracle/DeveloperLendPriceProviderV1.sol\":5478:5498  tokenConfig.baseUnit */\n      0x60\n      dup6\n      add\n      mload\n        /* \"oracle/DeveloperLendPriceProviderV1.sol\":5452:5499  uint(price).mul(1e28).div(tokenConfig.baseUnit) */\n      tag_304\n      swap1\n        /* \"oracle/DeveloperLendPriceProviderV1.sol\":5452:5473  uint(price).mul(1e28) */\n      tag_204\n        /* \"oracle/DeveloperLendPriceProviderV1.sol\":5457:5462  price */\n      dup4\n        /* \"oracle/DeveloperLendPriceProviderV1.sol\":5468:5472  1e28 */\n      0x204fce5e3e25026110000000\n        /* \"oracle/DeveloperLendPriceProviderV1.sol\":5452:5467  uint(price).mul */\n      tag_205\n        /* \"oracle/DeveloperLendPriceProviderV1.sol\":5452:5473  uint(price).mul(1e28) */\n      jump\t// in\n        /* \"oracle/DeveloperLendPriceProviderV1.sol\":5452:5499  uint(price).mul(1e28).div(tokenConfig.baseUnit) */\n    tag_304:\n        /* \"oracle/DeveloperLendPriceProviderV1.sol\":5445:5499  return uint(price).mul(1e28).div(tokenConfig.baseUnit) */\n      swap4\n      pop\n      pop\n      pop\n      pop\n      jump(tag_160)\n        /* \"oracle/DeveloperLendPriceProviderV1.sol\":6142:6670  function _getCompoundPriceInternal(PriceOracle memory priceOracle, TokenConfig memory tokenConfig) internal view returns (uint) {... */\n    tag_254:\n        /* \"oracle/DeveloperLendPriceProviderV1.sol\":6297:6315  priceOracle.source */\n      dup2\n      mload\n        /* \"oracle/DeveloperLendPriceProviderV1.sol\":6264:6268  uint */\n      0x00\n      swap1\n        /* \"oracle/DeveloperLendPriceProviderV1.sol\":6297:6315  priceOracle.source */\n      dup1\n        /* \"oracle/DeveloperLendPriceProviderV1.sol\":6422:6474  CompoundPriceOracleInterface.CTokenConfig memory ctc */\n      tag_307\n      tag_308\n      jump\t// in\n    tag_307:\n        /* \"oracle/DeveloperLendPriceProviderV1.sol\":6520:6548  tokenConfig.underlyingSymbol */\n      0x40\n      dup1\n      dup7\n      add\n      mload\n        /* \"oracle/DeveloperLendPriceProviderV1.sol\":6477:6549  compoundPriceOracle.getTokenConfigBySymbol(tokenConfig.underlyingSymbol) */\n      swap1\n      mload\n      shl(0xe1, 0x13b6165d)\n      dup2\n      mstore\n      sub(shl(0xa0, 0x01), 0x01)\n        /* \"oracle/DeveloperLendPriceProviderV1.sol\":6477:6519  compoundPriceOracle.getTokenConfigBySymbol */\n      dup5\n      and\n      swap2\n      0x276c2cba\n      swap2\n        /* \"oracle/DeveloperLendPriceProviderV1.sol\":6477:6549  compoundPriceOracle.getTokenConfigBySymbol(tokenConfig.underlyingSymbol) */\n      tag_309\n      swap2\n        /* \"oracle/DeveloperLendPriceProviderV1.sol\":6520:6548  tokenConfig.underlyingSymbol */\n      swap1\n        /* \"oracle/DeveloperLendPriceProviderV1.sol\":6477:6549  compoundPriceOracle.getTokenConfigBySymbol(tokenConfig.underlyingSymbol) */\n      0x04\n      add\n      tag_310\n      jump\t// in\n    tag_309:\n      0x0100\n      mload(0x40)\n      dup1\n      dup4\n      sub\n      dup2\n      dup7\n      dup1\n      extcodesize\n      iszero\n      dup1\n      iszero\n      tag_311\n      jumpi\n      0x00\n      dup1\n      revert\n    tag_311:\n      pop\n      gas\n      staticcall\n      iszero\n      dup1\n      iszero\n      tag_313\n      jumpi\n      returndatasize\n      0x00\n      dup1\n      returndatacopy\n      revert(0x00, returndatasize)\n    tag_313:\n      pop\n      pop\n      pop\n      pop\n      mload(0x40)\n      returndatasize\n      not(0x1f)\n      0x1f\n      dup3\n      add\n      and\n      dup3\n      add\n      dup1\n      0x40\n      mstore\n      pop\n      dup2\n      add\n      swap1\n      tag_314\n      swap2\n      swap1\n      tag_315\n      jump\t// in\n    tag_314:\n        /* \"oracle/DeveloperLendPriceProviderV1.sol\":6583:6593  ctc.cToken */\n      dup1\n      mload\n        /* \"oracle/DeveloperLendPriceProviderV1.sol\":6610:6663  compoundPriceOracle.getUnderlyingPrice(cTokenAddress) */\n      mload(0x40)\n      shl(0xe0, 0xfc57d4df)\n      dup2\n      mstore\n        /* \"oracle/DeveloperLendPriceProviderV1.sol\":6422:6549  CompoundPriceOracleInterface.CTokenConfig memory ctc = compoundPriceOracle.getTokenConfigBySymbol(tokenConfig.underlyingSymbol) */\n      swap2\n      swap3\n      pop\n        /* \"oracle/DeveloperLendPriceProviderV1.sol\":6583:6593  ctc.cToken */\n      swap1\n      sub(shl(0xa0, 0x01), 0x01)\n        /* \"oracle/DeveloperLendPriceProviderV1.sol\":6610:6648  compoundPriceOracle.getUnderlyingPrice */\n      dup5\n      and\n      swap1\n      0xfc57d4df\n      swap1\n        /* \"oracle/DeveloperLendPriceProviderV1.sol\":6610:6663  compoundPriceOracle.getUnderlyingPrice(cTokenAddress) */\n      tag_316\n      swap1\n        /* \"oracle/DeveloperLendPriceProviderV1.sol\":6583:6593  ctc.cToken */\n      dup5\n      swap1\n        /* \"oracle/DeveloperLendPriceProviderV1.sol\":6610:6663  compoundPriceOracle.getUnderlyingPrice(cTokenAddress) */\n      0x04\n      add\n      tag_51\n      jump\t// in\n    tag_316:\n      0x20\n      mload(0x40)\n      dup1\n      dup4\n      sub\n      dup2\n      dup7\n      dup1\n      extcodesize\n      iszero\n      dup1\n      iszero\n      tag_317\n      jumpi\n      0x00\n      dup1\n      revert\n    tag_317:\n      pop\n      gas\n      staticcall\n      iszero\n      dup1\n      iszero\n      tag_319\n      jumpi\n      returndatasize\n      0x00\n      dup1\n      returndatacopy\n      revert(0x00, returndatasize)\n    tag_319:\n      pop\n      pop\n      pop\n      pop\n      mload(0x40)\n      returndatasize\n      not(0x1f)\n      0x1f\n      dup3\n      add\n      and\n      dup3\n      add\n      dup1\n      0x40\n      mstore\n      pop\n      dup2\n      add\n      swap1\n      tag_320\n      swap2\n      swap1\n      tag_301\n      jump\t// in\n    tag_320:\n        /* \"oracle/DeveloperLendPriceProviderV1.sol\":6603:6663  return compoundPriceOracle.getUnderlyingPrice(cTokenAddress) */\n      swap8\n        /* \"oracle/DeveloperLendPriceProviderV1.sol\":6142:6670  function _getCompoundPriceInternal(PriceOracle memory priceOracle, TokenConfig memory tokenConfig) internal view returns (uint) {... */\n      swap7\n      pop\n      pop\n      pop\n      pop\n      pop\n      pop\n      pop\n      jump\t// out\n        /* \"oracle/DeveloperLendPriceProviderV1.sol\":5522:6098  function _getCustomerPriceInternal(PriceOracle memory priceOracle, TokenConfig memory tokenConfig) internal view returns (uint) {... */\n    tag_260:\n        /* \"oracle/DeveloperLendPriceProviderV1.sol\":5677:5695  priceOracle.source */\n      dup2\n      mload\n        /* \"oracle/DeveloperLendPriceProviderV1.sol\":5854:5876  tokenConfig.underlying */\n      0x20\n      dup3\n      add\n      mload\n        /* \"oracle/DeveloperLendPriceProviderV1.sol\":5825:5877  customerPriceOracle.getPrice(tokenConfig.underlying) */\n      mload(0x40)\n      shl(0xe0, 0x41976e09)\n      dup2\n      mstore\n        /* \"oracle/DeveloperLendPriceProviderV1.sol\":5644:5648  uint */\n      0x00\n      swap3\n        /* \"oracle/DeveloperLendPriceProviderV1.sol\":5677:5695  priceOracle.source */\n      swap2\n      dup3\n      swap2\n        /* \"oracle/DeveloperLendPriceProviderV1.sol\":5644:5648  uint */\n      dup5\n      swap2\n      sub(shl(0xa0, 0x01), 0x01)\n        /* \"oracle/DeveloperLendPriceProviderV1.sol\":5825:5853  customerPriceOracle.getPrice */\n      dup5\n      and\n      swap2\n      0x41976e09\n      swap2\n        /* \"oracle/DeveloperLendPriceProviderV1.sol\":5825:5877  customerPriceOracle.getPrice(tokenConfig.underlying) */\n      tag_296\n      swap2\n      0x04\n      add\n      tag_51\n      jump\t// in\n        /* \"oracle/DeveloperLendPriceProviderV1.sol\":7333:8187  function _getChainLinkEthBasePriceInternal(PriceOracle memory priceOracle, TokenConfig memory tokenConfig) internal view returns (uint){... */\n    tag_266:\n        /* \"oracle/DeveloperLendPriceProviderV1.sol\":7463:7467  uint */\n      0x00\n        /* \"oracle/DeveloperLendPriceProviderV1.sol\":7509:7510  0 */\n      dup1\n        /* \"oracle/DeveloperLendPriceProviderV1.sol\":7486:7497  tokenConfig */\n      dup3\n        /* \"oracle/DeveloperLendPriceProviderV1.sol\":7486:7506  tokenConfig.baseUnit */\n      0x60\n      add\n      mload\n        /* \"oracle/DeveloperLendPriceProviderV1.sol\":7486:7510  tokenConfig.baseUnit > 0 */\n      gt\n        /* \"oracle/DeveloperLendPriceProviderV1.sol\":7478:7549  require(tokenConfig.baseUnit > 0, \"baseUnit must be greater than zero\") */\n      tag_332\n      jumpi\n      mload(0x40)\n      shl(0xe5, 0x461bcd)\n      dup2\n      mstore\n      0x04\n      add\n      tag_90\n      swap1\n      tag_285\n      jump\t// in\n    tag_332:\n        /* \"oracle/DeveloperLendPriceProviderV1.sol\":7576:7598  tokenConfig.underlying */\n      0x20\n      dup1\n      dup4\n      add\n      mload\n      sub(shl(0xa0, 0x01), 0x01)\n        /* \"oracle/DeveloperLendPriceProviderV1.sol\":7672:7705  chainLinkTokenEthPriceFeed[token] */\n      dup1\n      dup3\n      and\n        /* \"oracle/DeveloperLendPriceProviderV1.sol\":7560:7573  address token */\n      0x00\n        /* \"oracle/DeveloperLendPriceProviderV1.sol\":7672:7705  chainLinkTokenEthPriceFeed[token] */\n      swap1\n      dup2\n      mstore\n        /* \"oracle/DeveloperLendPriceProviderV1.sol\":7672:7698  chainLinkTokenEthPriceFeed */\n      0x99\n        /* \"oracle/DeveloperLendPriceProviderV1.sol\":7672:7705  chainLinkTokenEthPriceFeed[token] */\n      swap1\n      swap4\n      mstore\n      0x40\n      dup1\n      dup5\n      keccak256\n      sload\n        /* \"oracle/DeveloperLendPriceProviderV1.sol\":7742:7777  tokenEthPriceFeed.latestRoundData() */\n      dup2\n      mload\n      shl(0xe2, 0x3fabe5a3)\n      dup2\n      mstore\n      swap2\n      mload\n        /* \"oracle/DeveloperLendPriceProviderV1.sol\":7576:7598  tokenConfig.underlying */\n      swap4\n      swap5\n        /* \"oracle/DeveloperLendPriceProviderV1.sol\":7672:7705  chainLinkTokenEthPriceFeed[token] */\n      swap3\n      and\n      swap3\n      dup4\n      swap2\n        /* \"oracle/DeveloperLendPriceProviderV1.sol\":7742:7775  tokenEthPriceFeed.latestRoundData */\n      0xfeaf968c\n      swap2\n        /* \"oracle/DeveloperLendPriceProviderV1.sol\":7742:7777  tokenEthPriceFeed.latestRoundData() */\n      0x04\n      dup1\n      dup4\n      add\n      swap3\n      0xa0\n      swap3\n      swap2\n      swap1\n      dup3\n      swap1\n      sub\n      add\n      dup2\n        /* \"oracle/DeveloperLendPriceProviderV1.sol\":7672:7705  chainLinkTokenEthPriceFeed[token] */\n      dup7\n        /* \"oracle/DeveloperLendPriceProviderV1.sol\":7742:7777  tokenEthPriceFeed.latestRoundData() */\n      dup1\n      extcodesize\n      iszero\n      dup1\n      iszero\n      tag_334\n      jumpi\n      0x00\n      dup1\n      revert\n    tag_334:\n      pop\n      gas\n      staticcall\n      iszero\n      dup1\n      iszero\n      tag_336\n      jumpi\n      returndatasize\n      0x00\n      dup1\n      returndatacopy\n      revert(0x00, returndatasize)\n    tag_336:\n      pop\n      pop\n      pop\n      pop\n      mload(0x40)\n      returndatasize\n      not(0x1f)\n      0x1f\n      dup3\n      add\n      and\n      dup3\n      add\n      dup1\n      0x40\n      mstore\n      pop\n      dup2\n      add\n      swap1\n      tag_337\n      swap2\n      swap1\n      tag_290\n      jump\t// in\n    tag_337:\n        /* \"oracle/DeveloperLendPriceProviderV1.sol\":7716:7777  (,int tokenEthPrice,,,) = tokenEthPriceFeed.latestRoundData() */\n      pop\n      pop\n      pop\n      swap2\n      pop\n      pop\n        /* \"oracle/DeveloperLendPriceProviderV1.sol\":7788:7825  AggregatorV3Interface ethUsdPriceFeed */\n      0x00\n        /* \"oracle/DeveloperLendPriceProviderV1.sol\":7850:7872  ethUsdPriceFeedAddress */\n      0x9a\n      0x00\n      swap1\n      sload\n      swap1\n      0x0100\n      exp\n      swap1\n      div\n      sub(shl(0xa0, 0x01), 0x01)\n      and\n        /* \"oracle/DeveloperLendPriceProviderV1.sol\":7788:7873  AggregatorV3Interface ethUsdPriceFeed = AggregatorV3Interface(ethUsdPriceFeedAddress) */\n      swap1\n      pop\n        /* \"oracle/DeveloperLendPriceProviderV1.sol\":7885:7900  int ethUsdPrice */\n      0x00\n        /* \"oracle/DeveloperLendPriceProviderV1.sol\":7907:7922  ethUsdPriceFeed */\n      dup2\n      sub(shl(0xa0, 0x01), 0x01)\n        /* \"oracle/DeveloperLendPriceProviderV1.sol\":7907:7938  ethUsdPriceFeed.latestRoundData */\n      and\n      0xfeaf968c\n        /* \"oracle/DeveloperLendPriceProviderV1.sol\":7907:7940  ethUsdPriceFeed.latestRoundData() */\n      mload(0x40)\n      dup2\n      0xffffffff\n      and\n      0xe0\n      shl\n      dup2\n      mstore\n      0x04\n      add\n      0xa0\n      mload(0x40)\n      dup1\n      dup4\n      sub\n      dup2\n      dup7\n      dup1\n      extcodesize\n      iszero\n      dup1\n      iszero\n      tag_338\n      jumpi\n      0x00\n      dup1\n      revert\n    tag_338:\n      pop\n      gas\n      staticcall\n      iszero\n      dup1\n      iszero\n      tag_340\n      jumpi\n      returndatasize\n      0x00\n      dup1\n      returndatacopy\n      revert(0x00, returndatasize)\n    tag_340:\n      pop\n      pop\n      pop\n      pop\n      mload(0x40)\n      returndatasize\n      not(0x1f)\n      0x1f\n      dup3\n      add\n      and\n      dup3\n      add\n      dup1\n      0x40\n      mstore\n      pop\n      dup2\n      add\n      swap1\n      tag_341\n      swap2\n      swap1\n      tag_290\n      jump\t// in\n    tag_341:\n        /* \"oracle/DeveloperLendPriceProviderV1.sol\":7883:7940  (,int ethUsdPrice,,,) = ethUsdPriceFeed.latestRoundData() */\n      pop\n      pop\n      pop\n      swap2\n      pop\n      pop\n        /* \"oracle/DeveloperLendPriceProviderV1.sol\":7972:7973  0 */\n      0x00\n        /* \"oracle/DeveloperLendPriceProviderV1.sol\":7955:7968  tokenEthPrice */\n      dup4\n        /* \"oracle/DeveloperLendPriceProviderV1.sol\":7955:7973  tokenEthPrice <= 0 */\n      sgt\n        /* \"oracle/DeveloperLendPriceProviderV1.sol\":7951:8181  if (tokenEthPrice <= 0) {... */\n      tag_342\n      jumpi\n        /* \"oracle/DeveloperLendPriceProviderV1.sol\":7996:7997  0 */\n      0x00\n        /* \"oracle/DeveloperLendPriceProviderV1.sol\":7989:7997  return 0 */\n      swap6\n      pop\n      pop\n      pop\n      pop\n      pop\n      pop\n      jump(tag_160)\n        /* \"oracle/DeveloperLendPriceProviderV1.sol\":7951:8181  if (tokenEthPrice <= 0) {... */\n    tag_342:\n        /* \"oracle/DeveloperLendPriceProviderV1.sol\":8149:8169  tokenConfig.baseUnit */\n      0x60\n      dup8\n      add\n      mload\n        /* \"oracle/DeveloperLendPriceProviderV1.sol\":8092:8170  uint(tokenEthPrice).mul(uint(ethUsdPrice)).mul(1e10).div(tokenConfig.baseUnit) */\n      tag_344\n      swap1\n        /* \"oracle/DeveloperLendPriceProviderV1.sol\":8092:8144  uint(tokenEthPrice).mul(uint(ethUsdPrice)).mul(1e10) */\n      tag_204\n        /* \"oracle/DeveloperLendPriceProviderV1.sol\":8139:8143  1e10 */\n      0x02540be400\n        /* \"oracle/DeveloperLendPriceProviderV1.sol\":8092:8134  uint(tokenEthPrice).mul(uint(ethUsdPrice)) */\n      tag_346\n        /* \"oracle/DeveloperLendPriceProviderV1.sol\":8097:8110  tokenEthPrice */\n      dup8\n        /* \"oracle/DeveloperLendPriceProviderV1.sol\":8121:8132  ethUsdPrice */\n      dup7\n        /* \"oracle/DeveloperLendPriceProviderV1.sol\":8092:8115  uint(tokenEthPrice).mul */\n      tag_205\n        /* \"oracle/DeveloperLendPriceProviderV1.sol\":8092:8134  uint(tokenEthPrice).mul(uint(ethUsdPrice)) */\n      jump\t// in\n    tag_346:\n        /* \"oracle/DeveloperLendPriceProviderV1.sol\":8092:8138  uint(tokenEthPrice).mul(uint(ethUsdPrice)).mul */\n      swap1\n      tag_205\n        /* \"oracle/DeveloperLendPriceProviderV1.sol\":8092:8144  uint(tokenEthPrice).mul(uint(ethUsdPrice)).mul(1e10) */\n      jump\t// in\n        /* \"oracle/DeveloperLendPriceProviderV1.sol\":8092:8170  uint(tokenEthPrice).mul(uint(ethUsdPrice)).mul(1e10).div(tokenConfig.baseUnit) */\n    tag_344:\n        /* \"oracle/DeveloperLendPriceProviderV1.sol\":8085:8170  return uint(tokenEthPrice).mul(uint(ethUsdPrice)).mul(1e10).div(tokenConfig.baseUnit) */\n      swap6\n      pop\n      pop\n      pop\n      pop\n      pop\n      pop\n      jump(tag_160)\n        /* \"oracle/DeveloperLendPriceProviderV1.sol\":7951:8181  if (tokenEthPrice <= 0) {... */\n    tag_343:\n        /* \"oracle/DeveloperLendPriceProviderV1.sol\":7333:8187  function _getChainLinkEthBasePriceInternal(PriceOracle memory priceOracle, TokenConfig memory tokenConfig) internal view returns (uint){... */\n      pop\n      pop\n      pop\n      pop\n      pop\n      swap3\n      swap2\n      pop\n      pop\n      jump\t// out\n    tag_100:\n      dup3\n      dup1\n      sload\n      0x01\n      dup2\n      0x01\n      and\n      iszero\n      0x0100\n      mul\n      sub\n      and\n      0x02\n      swap1\n      div\n      swap1\n      0x00\n      mstore\n      keccak256(0x00, 0x20)\n      swap1\n      0x1f\n      add\n      0x20\n      swap1\n      div\n      dup2\n      add\n      swap3\n      dup3\n      0x1f\n      lt\n      tag_348\n      jumpi\n      dup1\n      mload\n      not(0xff)\n      and\n      dup4\n      dup1\n      add\n      or\n      dup6\n      sstore\n      jump(tag_350)\n    tag_348:\n      dup3\n      dup1\n      add\n      0x01\n      add\n      dup6\n      sstore\n      dup3\n      iszero\n      tag_350\n      jumpi\n      swap2\n      dup3\n      add\n    tag_349:\n      dup3\n      dup2\n      gt\n      iszero\n      tag_350\n      jumpi\n      dup3\n      mload\n      dup3\n      sstore\n      swap2\n      0x20\n      add\n      swap2\n      swap1\n      0x01\n      add\n      swap1\n      jump(tag_349)\n    tag_350:\n      pop\n      tag_351\n      swap3\n      swap2\n      pop\n      tag_352\n      jump\t// in\n    tag_351:\n      pop\n      swap1\n      jump\t// out\n    tag_308:\n      0x40\n      dup1\n      mload\n      0x0100\n      dup2\n      add\n      dup3\n      mstore\n      0x00\n      dup1\n      dup3\n      mstore\n      0x20\n      dup3\n      add\n      dup2\n      swap1\n      mstore\n      swap2\n      dup2\n      add\n      dup3\n      swap1\n      mstore\n      0x60\n      dup2\n      add\n      dup3\n      swap1\n      mstore\n      swap1\n      0x80\n      dup3\n      add\n      swap1\n      dup2\n      mstore\n      0x00\n      0x20\n      dup3\n      add\n      dup2\n      swap1\n      mstore\n      0x40\n      dup3\n      add\n      dup2\n      swap1\n      mstore\n      0x60\n      swap1\n      swap2\n      add\n      mstore\n      swap1\n      jump\t// out\n    tag_352:\n    tag_354:\n      dup1\n      dup3\n      gt\n      iszero\n      tag_351\n      jumpi\n      0x00\n      dup2\n      sstore\n      0x01\n      add\n      jump(tag_354)\n        /* \"--CODEGEN--\":142:276   */\n    tag_357:\n        /* \"--CODEGEN--\":220:233   */\n      dup1\n      mload\n        /* \"--CODEGEN--\":238:271   */\n      tag_160\n        /* \"--CODEGEN--\":220:233   */\n      dup2\n        /* \"--CODEGEN--\":238:271   */\n      tag_360\n      jump\t// in\n        /* \"--CODEGEN--\":301:1008   */\n    tag_361:\n      0x00\n        /* \"--CODEGEN--\":418:421   */\n      dup3\n        /* \"--CODEGEN--\":411:415   */\n      0x1f\n        /* \"--CODEGEN--\":403:409   */\n      dup4\n        /* \"--CODEGEN--\":399:416   */\n      add\n        /* \"--CODEGEN--\":395:422   */\n      slt\n        /* \"--CODEGEN--\":385:387   */\n      tag_363\n      jumpi\n      dup1\n      dup2\n        /* \"--CODEGEN--\":426:438   */\n      revert\n        /* \"--CODEGEN--\":385:387   */\n    tag_363:\n        /* \"--CODEGEN--\":473:479   */\n      dup2\n        /* \"--CODEGEN--\":460:480   */\n      calldataload\n        /* \"--CODEGEN--\":27217:27235   */\n      0xffffffffffffffff\n        /* \"--CODEGEN--\":27209:27215   */\n      dup2\n        /* \"--CODEGEN--\":27206:27236   */\n      gt\n        /* \"--CODEGEN--\":27203:27205   */\n      iszero\n      tag_364\n      jumpi\n      dup2\n      dup3\n        /* \"--CODEGEN--\":27239:27251   */\n      revert\n        /* \"--CODEGEN--\":27203:27205   */\n    tag_364:\n        /* \"--CODEGEN--\":27284:27288   */\n      0x20\n      dup1\n        /* \"--CODEGEN--\":27276:27282   */\n      dup3\n        /* \"--CODEGEN--\":27272:27289   */\n      mul\n        /* \"--CODEGEN--\":495:575   */\n      tag_365\n        /* \"--CODEGEN--\":27284:27288   */\n      dup3\n        /* \"--CODEGEN--\":27272:27289   */\n      dup3\n        /* \"--CODEGEN--\":27337:27352   */\n      add\n        /* \"--CODEGEN--\":495:575   */\n      tag_366\n      jump\t// in\n    tag_365:\n        /* \"--CODEGEN--\":603:624   */\n      dup4\n      dup2\n      mstore\n        /* \"--CODEGEN--\":486:575   */\n      swap4\n      pop\n        /* \"--CODEGEN--\":660:674   */\n      dup2\n      dup5\n      add\n        /* \"--CODEGEN--\":635:652   */\n      dup6\n      dup4\n      add\n        /* \"--CODEGEN--\":740:767   */\n      dup3\n      dup8\n      add\n      dup5\n      add\n        /* \"--CODEGEN--\":737:773   */\n      dup9\n      lt\n        /* \"--CODEGEN--\":734:736   */\n      iszero\n      tag_367\n      jumpi\n        /* \"--CODEGEN--\":786:787   */\n      0x00\n      dup1\n        /* \"--CODEGEN--\":776:788   */\n      revert\n        /* \"--CODEGEN--\":734:736   */\n    tag_367:\n        /* \"--CODEGEN--\":811:812   */\n      0x00\n        /* \"--CODEGEN--\":802:812   */\n      swap3\n      pop\n        /* \"--CODEGEN--\":796:1002   */\n    tag_368:\n        /* \"--CODEGEN--\":821:827   */\n      dup5\n        /* \"--CODEGEN--\":818:819   */\n      dup4\n        /* \"--CODEGEN--\":815:828   */\n      lt\n        /* \"--CODEGEN--\":796:1002   */\n      iszero\n      tag_343\n      jumpi\n        /* \"--CODEGEN--\":85:91   */\n      dup1\n        /* \"--CODEGEN--\":72:92   */\n      calldataload\n        /* \"--CODEGEN--\":97:130   */\n      tag_371\n        /* \"--CODEGEN--\":124:129   */\n      dup2\n        /* \"--CODEGEN--\":97:130   */\n      tag_360\n      jump\t// in\n    tag_371:\n        /* \"--CODEGEN--\":889:939   */\n      dup3\n      mstore\n        /* \"--CODEGEN--\":843:844   */\n      0x01\n        /* \"--CODEGEN--\":836:845   */\n      swap3\n      swap1\n      swap3\n      add\n      swap2\n        /* \"--CODEGEN--\":953:967   */\n      swap1\n      dup4\n      add\n      swap1\n        /* \"--CODEGEN--\":981:995   */\n      dup4\n      add\n        /* \"--CODEGEN--\":796:1002   */\n      jump(tag_368)\n        /* \"--CODEGEN--\":1076:1447   */\n    tag_372:\n      0x00\n      dup1\n        /* \"--CODEGEN--\":1225:1228   */\n      dup4\n        /* \"--CODEGEN--\":1218:1222   */\n      0x1f\n        /* \"--CODEGEN--\":1210:1216   */\n      dup5\n        /* \"--CODEGEN--\":1206:1223   */\n      add\n        /* \"--CODEGEN--\":1202:1229   */\n      slt\n        /* \"--CODEGEN--\":1192:1194   */\n      tag_374\n      jumpi\n      dup1\n      dup2\n        /* \"--CODEGEN--\":1233:1245   */\n      revert\n        /* \"--CODEGEN--\":1192:1194   */\n    tag_374:\n      pop\n        /* \"--CODEGEN--\":1263:1283   */\n      dup2\n      calldataload\n        /* \"--CODEGEN--\":1303:1321   */\n      0xffffffffffffffff\n        /* \"--CODEGEN--\":1292:1322   */\n      dup2\n      gt\n        /* \"--CODEGEN--\":1289:1291   */\n      iszero\n      tag_375\n      jumpi\n      dup2\n      dup3\n        /* \"--CODEGEN--\":1325:1337   */\n      revert\n        /* \"--CODEGEN--\":1289:1291   */\n    tag_375:\n        /* \"--CODEGEN--\":1369:1373   */\n      0x20\n        /* \"--CODEGEN--\":1361:1367   */\n      dup4\n        /* \"--CODEGEN--\":1357:1374   */\n      add\n        /* \"--CODEGEN--\":1345:1374   */\n      swap2\n      pop\n        /* \"--CODEGEN--\":1420:1423   */\n      dup4\n        /* \"--CODEGEN--\":1369:1373   */\n      0x20\n      dup1\n        /* \"--CODEGEN--\":1404:1410   */\n      dup4\n        /* \"--CODEGEN--\":1400:1417   */\n      mul\n        /* \"--CODEGEN--\":1361:1367   */\n      dup6\n        /* \"--CODEGEN--\":1386:1418   */\n      add\n      add\n        /* \"--CODEGEN--\":1383:1424   */\n      gt\n        /* \"--CODEGEN--\":1380:1382   */\n      iszero\n      tag_376\n      jumpi\n        /* \"--CODEGEN--\":1437:1438   */\n      0x00\n      dup1\n        /* \"--CODEGEN--\":1427:1439   */\n      revert\n        /* \"--CODEGEN--\":1380:1382   */\n    tag_376:\n        /* \"--CODEGEN--\":1185:1447   */\n      swap3\n      pop\n      swap3\n      swap1\n      pop\n      jump\t// out\n        /* \"--CODEGEN--\":1455:1579   */\n    tag_377:\n        /* \"--CODEGEN--\":1519:1539   */\n      dup1\n      calldataload\n        /* \"--CODEGEN--\":1544:1574   */\n      tag_160\n        /* \"--CODEGEN--\":1519:1539   */\n      dup2\n        /* \"--CODEGEN--\":1544:1574   */\n      tag_380\n      jump\t// in\n        /* \"--CODEGEN--\":1586:1714   */\n    tag_381:\n        /* \"--CODEGEN--\":1661:1674   */\n      dup1\n      mload\n        /* \"--CODEGEN--\":1679:1709   */\n      tag_160\n        /* \"--CODEGEN--\":1661:1674   */\n      dup2\n        /* \"--CODEGEN--\":1679:1709   */\n      tag_380\n      jump\t// in\n        /* \"--CODEGEN--\":1862:2030   */\n    tag_384:\n        /* \"--CODEGEN--\":1948:1968   */\n      dup1\n      calldataload\n        /* \"--CODEGEN--\":32361:32362   */\n      0x05\n        /* \"--CODEGEN--\":32351:32363   */\n      dup2\n      lt\n        /* \"--CODEGEN--\":32341:32343   */\n      tag_160\n      jumpi\n        /* \"--CODEGEN--\":32377:32378   */\n      0x00\n      dup1\n        /* \"--CODEGEN--\":32367:32379   */\n      revert\n        /* \"--CODEGEN--\":2037:2201   */\n    tag_387:\n        /* \"--CODEGEN--\":2130:2143   */\n      dup1\n      mload\n        /* \"--CODEGEN--\":32477:32478   */\n      0x03\n        /* \"--CODEGEN--\":32467:32479   */\n      dup2\n      lt\n        /* \"--CODEGEN--\":32457:32459   */\n      tag_160\n      jumpi\n        /* \"--CODEGEN--\":32493:32494   */\n      0x00\n      dup1\n        /* \"--CODEGEN--\":32483:32495   */\n      revert\n        /* \"--CODEGEN--\":2348:2790   */\n    tag_390:\n      0x00\n        /* \"--CODEGEN--\":2450:2453   */\n      dup3\n        /* \"--CODEGEN--\":2443:2447   */\n      0x1f\n        /* \"--CODEGEN--\":2435:2441   */\n      dup4\n        /* \"--CODEGEN--\":2431:2448   */\n      add\n        /* \"--CODEGEN--\":2427:2454   */\n      slt\n        /* \"--CODEGEN--\":2417:2419   */\n      tag_392\n      jumpi\n      dup1\n      dup2\n        /* \"--CODEGEN--\":2458:2470   */\n      revert\n        /* \"--CODEGEN--\":2417:2419   */\n    tag_392:\n        /* \"--CODEGEN--\":2505:2511   */\n      dup2\n        /* \"--CODEGEN--\":2492:2512   */\n      calldataload\n        /* \"--CODEGEN--\":2527:2592   */\n      tag_393\n        /* \"--CODEGEN--\":2542:2591   */\n      tag_394\n        /* \"--CODEGEN--\":2584:2590   */\n      dup3\n        /* \"--CODEGEN--\":2542:2591   */\n      tag_395\n      jump\t// in\n    tag_394:\n        /* \"--CODEGEN--\":2527:2592   */\n      tag_366\n      jump\t// in\n    tag_393:\n        /* \"--CODEGEN--\":2518:2592   */\n      swap2\n      pop\n        /* \"--CODEGEN--\":2612:2618   */\n      dup1\n        /* \"--CODEGEN--\":2605:2610   */\n      dup3\n        /* \"--CODEGEN--\":2598:2619   */\n      mstore\n        /* \"--CODEGEN--\":2716:2719   */\n      dup4\n        /* \"--CODEGEN--\":2648:2652   */\n      0x20\n        /* \"--CODEGEN--\":2707:2713   */\n      dup3\n        /* \"--CODEGEN--\":2640:2646   */\n      dup6\n        /* \"--CODEGEN--\":2698:2714   */\n      add\n      add\n        /* \"--CODEGEN--\":2695:2720   */\n      gt\n        /* \"--CODEGEN--\":2692:2694   */\n      iszero\n      tag_396\n      jumpi\n        /* \"--CODEGEN--\":2733:2734   */\n      0x00\n      dup1\n        /* \"--CODEGEN--\":2723:2735   */\n      revert\n        /* \"--CODEGEN--\":2692:2694   */\n    tag_396:\n        /* \"--CODEGEN--\":30456:30462   */\n      dup1\n        /* \"--CODEGEN--\":2648:2652   */\n      0x20\n        /* \"--CODEGEN--\":2640:2646   */\n      dup5\n        /* \"--CODEGEN--\":2636:2653   */\n      add\n        /* \"--CODEGEN--\":2648:2652   */\n      0x20\n        /* \"--CODEGEN--\":2674:2679   */\n      dup5\n        /* \"--CODEGEN--\":2670:2686   */\n      add\n        /* \"--CODEGEN--\":30433:30463   */\n      calldatacopy\n        /* \"--CODEGEN--\":30512:30513   */\n      0x00\n        /* \"--CODEGEN--\":30494:30510   */\n      swap1\n      dup3\n      add\n        /* \"--CODEGEN--\":2648:2652   */\n      0x20\n        /* \"--CODEGEN--\":30494:30510   */\n      add\n        /* \"--CODEGEN--\":30487:30514   */\n      mstore\n        /* \"--CODEGEN--\":2674:2679   */\n      swap3\n        /* \"--CODEGEN--\":2410:2790   */\n      swap2\n      pop\n      pop\n      jump\t// out\n        /* \"--CODEGEN--\":5098:5230   */\n    tag_397:\n        /* \"--CODEGEN--\":5175:5188   */\n      dup1\n      mload\n        /* \"--CODEGEN--\":30188:30210   */\n      0xffffffffffffffffffff\n        /* \"--CODEGEN--\":30177:30211   */\n      dup2\n      and\n        /* \"--CODEGEN--\":32813:32847   */\n      dup2\n      eq\n        /* \"--CODEGEN--\":32803:32805   */\n      tag_160\n      jumpi\n        /* \"--CODEGEN--\":32861:32862   */\n      0x00\n      dup1\n        /* \"--CODEGEN--\":32851:32863   */\n      revert\n        /* \"--CODEGEN--\":5237:5478   */\n    tag_28:\n      0x00\n        /* \"--CODEGEN--\":5341:5343   */\n      0x20\n        /* \"--CODEGEN--\":5329:5338   */\n      dup3\n        /* \"--CODEGEN--\":5320:5327   */\n      dup5\n        /* \"--CODEGEN--\":5316:5339   */\n      sub\n        /* \"--CODEGEN--\":5312:5344   */\n      slt\n        /* \"--CODEGEN--\":5309:5311   */\n      iszero\n      tag_401\n      jumpi\n      dup1\n      dup2\n        /* \"--CODEGEN--\":5347:5359   */\n      revert\n        /* \"--CODEGEN--\":5309:5311   */\n    tag_401:\n        /* \"--CODEGEN--\":85:91   */\n      dup2\n        /* \"--CODEGEN--\":72:92   */\n      calldataload\n        /* \"--CODEGEN--\":97:130   */\n      tag_224\n        /* \"--CODEGEN--\":124:129   */\n      dup2\n        /* \"--CODEGEN--\":97:130   */\n      tag_360\n      jump\t// in\n        /* \"--CODEGEN--\":5485:5748   */\n    tag_237:\n      0x00\n        /* \"--CODEGEN--\":5600:5602   */\n      0x20\n        /* \"--CODEGEN--\":5588:5597   */\n      dup3\n        /* \"--CODEGEN--\":5579:5586   */\n      dup5\n        /* \"--CODEGEN--\":5575:5598   */\n      sub\n        /* \"--CODEGEN--\":5571:5603   */\n      slt\n        /* \"--CODEGEN--\":5568:5570   */\n      iszero\n      tag_404\n      jumpi\n      dup1\n      dup2\n        /* \"--CODEGEN--\":5606:5618   */\n      revert\n        /* \"--CODEGEN--\":5568:5570   */\n    tag_404:\n        /* \"--CODEGEN--\":226:232   */\n      dup2\n        /* \"--CODEGEN--\":220:233   */\n      mload\n        /* \"--CODEGEN--\":238:271   */\n      tag_224\n        /* \"--CODEGEN--\":265:270   */\n      dup2\n        /* \"--CODEGEN--\":238:271   */\n      tag_360\n      jump\t// in\n        /* \"--CODEGEN--\":5755:7180   */\n    tag_24:\n      0x00\n      dup1\n      0x00\n      dup1\n      0x00\n      dup1\n      0x00\n      dup1\n        /* \"--CODEGEN--\":6047:6050   */\n      0xe0\n        /* \"--CODEGEN--\":6035:6044   */\n      dup10\n        /* \"--CODEGEN--\":6026:6033   */\n      dup12\n        /* \"--CODEGEN--\":6022:6045   */\n      sub\n        /* \"--CODEGEN--\":6018:6051   */\n      slt\n        /* \"--CODEGEN--\":6015:6017   */\n      iszero\n      tag_407\n      jumpi\n      dup4\n      dup5\n        /* \"--CODEGEN--\":6054:6066   */\n      revert\n        /* \"--CODEGEN--\":6015:6017   */\n    tag_407:\n        /* \"--CODEGEN--\":85:91   */\n      dup9\n        /* \"--CODEGEN--\":72:92   */\n      calldataload\n        /* \"--CODEGEN--\":97:130   */\n      tag_408\n        /* \"--CODEGEN--\":124:129   */\n      dup2\n        /* \"--CODEGEN--\":97:130   */\n      tag_360\n      jump\t// in\n    tag_408:\n        /* \"--CODEGEN--\":6106:6169   */\n      swap8\n      pop\n        /* \"--CODEGEN--\":6206:6208   */\n      0x20\n        /* \"--CODEGEN--\":6245:6267   */\n      dup10\n      add\n        /* \"--CODEGEN--\":72:92   */\n      calldataload\n        /* \"--CODEGEN--\":97:130   */\n      tag_409\n        /* \"--CODEGEN--\":72:92   */\n      dup2\n        /* \"--CODEGEN--\":97:130   */\n      tag_360\n      jump\t// in\n    tag_409:\n        /* \"--CODEGEN--\":6214:6277   */\n      swap7\n      pop\n        /* \"--CODEGEN--\":6342:6344   */\n      0x40\n        /* \"--CODEGEN--\":6327:6345   */\n      dup10\n      add\n        /* \"--CODEGEN--\":6314:6346   */\n      calldataload\n        /* \"--CODEGEN--\":6366:6384   */\n      0xffffffffffffffff\n        /* \"--CODEGEN--\":6355:6385   */\n      dup1\n      dup3\n      gt\n        /* \"--CODEGEN--\":6352:6354   */\n      iszero\n      tag_410\n      jumpi\n      dup6\n      dup7\n        /* \"--CODEGEN--\":6388:6400   */\n      revert\n        /* \"--CODEGEN--\":6352:6354   */\n    tag_410:\n        /* \"--CODEGEN--\":6418:6481   */\n      tag_411\n        /* \"--CODEGEN--\":6473:6480   */\n      dup13\n        /* \"--CODEGEN--\":6464:6470   */\n      dup4\n        /* \"--CODEGEN--\":6453:6462   */\n      dup14\n        /* \"--CODEGEN--\":6449:6471   */\n      add\n        /* \"--CODEGEN--\":6418:6481   */\n      tag_390\n      jump\t// in\n    tag_411:\n        /* \"--CODEGEN--\":6408:6481   */\n      swap8\n      pop\n        /* \"--CODEGEN--\":6518:6520   */\n      0x60\n        /* \"--CODEGEN--\":6561:6570   */\n      dup12\n        /* \"--CODEGEN--\":6557:6579   */\n      add\n        /* \"--CODEGEN--\":4887:4907   */\n      calldataload\n        /* \"--CODEGEN--\":6526:6589   */\n      swap7\n      pop\n        /* \"--CODEGEN--\":6645:6695   */\n      tag_412\n        /* \"--CODEGEN--\":6687:6694   */\n      dup13\n        /* \"--CODEGEN--\":6626:6629   */\n      0x80\n        /* \"--CODEGEN--\":6667:6676   */\n      dup14\n        /* \"--CODEGEN--\":6663:6685   */\n      add\n        /* \"--CODEGEN--\":6645:6695   */\n      tag_377\n      jump\t// in\n    tag_412:\n        /* \"--CODEGEN--\":6635:6695   */\n      swap6\n      pop\n        /* \"--CODEGEN--\":6760:6763   */\n      0xa0\n        /* \"--CODEGEN--\":6749:6758   */\n      dup12\n        /* \"--CODEGEN--\":6745:6764   */\n      add\n        /* \"--CODEGEN--\":6732:6765   */\n      calldataload\n        /* \"--CODEGEN--\":6718:6765   */\n      swap2\n      pop\n        /* \"--CODEGEN--\":6366:6384   */\n      dup1\n        /* \"--CODEGEN--\":6777:6783   */\n      dup3\n        /* \"--CODEGEN--\":6774:6804   */\n      gt\n        /* \"--CODEGEN--\":6771:6773   */\n      iszero\n      tag_413\n      jumpi\n      dup5\n      dup6\n        /* \"--CODEGEN--\":6807:6819   */\n      revert\n        /* \"--CODEGEN--\":6771:6773   */\n    tag_413:\n        /* \"--CODEGEN--\":6837:6915   */\n      tag_414\n        /* \"--CODEGEN--\":6907:6914   */\n      dup13\n        /* \"--CODEGEN--\":6898:6904   */\n      dup4\n        /* \"--CODEGEN--\":6887:6896   */\n      dup14\n        /* \"--CODEGEN--\":6883:6905   */\n      add\n        /* \"--CODEGEN--\":6837:6915   */\n      tag_361\n      jump\t// in\n    tag_414:\n        /* \"--CODEGEN--\":6827:6915   */\n      swap5\n      pop\n        /* \"--CODEGEN--\":6980:6983   */\n      0xc0\n        /* \"--CODEGEN--\":6969:6978   */\n      dup12\n        /* \"--CODEGEN--\":6965:6984   */\n      add\n        /* \"--CODEGEN--\":6952:6985   */\n      calldataload\n        /* \"--CODEGEN--\":6938:6985   */\n      swap2\n      pop\n        /* \"--CODEGEN--\":6366:6384   */\n      dup1\n        /* \"--CODEGEN--\":6997:7003   */\n      dup3\n        /* \"--CODEGEN--\":6994:7024   */\n      gt\n        /* \"--CODEGEN--\":6991:6993   */\n      iszero\n      tag_415\n      jumpi\n      dup4\n      dup5\n        /* \"--CODEGEN--\":7027:7039   */\n      revert\n        /* \"--CODEGEN--\":6991:6993   */\n    tag_415:\n      pop\n        /* \"--CODEGEN--\":7065:7164   */\n      tag_416\n        /* \"--CODEGEN--\":7156:7163   */\n      dup12\n        /* \"--CODEGEN--\":7147:7153   */\n      dup3\n        /* \"--CODEGEN--\":7136:7145   */\n      dup13\n        /* \"--CODEGEN--\":7132:7154   */\n      add\n        /* \"--CODEGEN--\":7065:7164   */\n      tag_372\n      jump\t// in\n    tag_416:\n        /* \"--CODEGEN--\":6009:7180   */\n      swap10\n      swap13\n      swap9\n      swap12\n      pop\n      swap7\n      swap10\n      pop\n      swap5\n      swap8\n      swap4\n      swap7\n      swap3\n      swap6\n        /* \"--CODEGEN--\":7047:7164   */\n      swap5\n      pop\n      pop\n      pop\n        /* \"--CODEGEN--\":6009:7180   */\n      jump\t// out\n        /* \"--CODEGEN--\":7187:7547   */\n    tag_45:\n      0x00\n      dup1\n        /* \"--CODEGEN--\":7305:7307   */\n      0x40\n        /* \"--CODEGEN--\":7293:7302   */\n      dup4\n        /* \"--CODEGEN--\":7284:7291   */\n      dup6\n        /* \"--CODEGEN--\":7280:7303   */\n      sub\n        /* \"--CODEGEN--\":7276:7308   */\n      slt\n        /* \"--CODEGEN--\":7273:7275   */\n      iszero\n      tag_418\n      jumpi\n      dup2\n      dup3\n        /* \"--CODEGEN--\":7311:7323   */\n      revert\n        /* \"--CODEGEN--\":7273:7275   */\n    tag_418:\n        /* \"--CODEGEN--\":85:91   */\n      dup3\n        /* \"--CODEGEN--\":72:92   */\n      calldataload\n        /* \"--CODEGEN--\":97:130   */\n      tag_419\n        /* \"--CODEGEN--\":124:129   */\n      dup2\n        /* \"--CODEGEN--\":97:130   */\n      tag_360\n      jump\t// in\n    tag_419:\n        /* \"--CODEGEN--\":7363:7426   */\n      swap2\n      pop\n        /* \"--CODEGEN--\":7463:7465   */\n      0x20\n        /* \"--CODEGEN--\":7499:7521   */\n      dup4\n      add\n        /* \"--CODEGEN--\":1519:1539   */\n      calldataload\n        /* \"--CODEGEN--\":1544:1574   */\n      tag_420\n        /* \"--CODEGEN--\":1519:1539   */\n      dup2\n        /* \"--CODEGEN--\":1544:1574   */\n      tag_380\n      jump\t// in\n    tag_420:\n        /* \"--CODEGEN--\":7471:7531   */\n      dup1\n      swap2\n      pop\n      pop\n        /* \"--CODEGEN--\":7267:7547   */\n      swap3\n      pop\n      swap3\n      swap1\n      pop\n      jump\t// out\n        /* \"--CODEGEN--\":7554:7920   */\n    tag_39:\n      0x00\n      dup1\n        /* \"--CODEGEN--\":7675:7677   */\n      0x40\n        /* \"--CODEGEN--\":7663:7672   */\n      dup4\n        /* \"--CODEGEN--\":7654:7661   */\n      dup6\n        /* \"--CODEGEN--\":7650:7673   */\n      sub\n        /* \"--CODEGEN--\":7646:7678   */\n      slt\n        /* \"--CODEGEN--\":7643:7645   */\n      iszero\n      tag_422\n      jumpi\n      dup2\n      dup3\n        /* \"--CODEGEN--\":7681:7693   */\n      revert\n        /* \"--CODEGEN--\":7643:7645   */\n    tag_422:\n        /* \"--CODEGEN--\":85:91   */\n      dup3\n        /* \"--CODEGEN--\":72:92   */\n      calldataload\n        /* \"--CODEGEN--\":97:130   */\n      tag_423\n        /* \"--CODEGEN--\":124:129   */\n      dup2\n        /* \"--CODEGEN--\":97:130   */\n      tag_360\n      jump\t// in\n    tag_423:\n        /* \"--CODEGEN--\":7733:7796   */\n      swap5\n        /* \"--CODEGEN--\":7833:7835   */\n      0x20\n        /* \"--CODEGEN--\":7872:7894   */\n      swap4\n      swap1\n      swap4\n      add\n        /* \"--CODEGEN--\":4887:4907   */\n      calldataload\n      swap4\n      pop\n      pop\n      pop\n        /* \"--CODEGEN--\":7637:7920   */\n      jump\t// out\n        /* \"--CODEGEN--\":7927:8702   */\n    tag_76:\n      0x00\n      dup1\n      0x00\n      dup1\n      0x00\n        /* \"--CODEGEN--\":8115:8118   */\n      0xa0\n        /* \"--CODEGEN--\":8103:8112   */\n      dup7\n        /* \"--CODEGEN--\":8094:8101   */\n      dup9\n        /* \"--CODEGEN--\":8090:8113   */\n      sub\n        /* \"--CODEGEN--\":8086:8119   */\n      slt\n        /* \"--CODEGEN--\":8083:8085   */\n      iszero\n      tag_425\n      jumpi\n      dup1\n      dup2\n        /* \"--CODEGEN--\":8122:8134   */\n      revert\n        /* \"--CODEGEN--\":8083:8085   */\n    tag_425:\n        /* \"--CODEGEN--\":85:91   */\n      dup6\n        /* \"--CODEGEN--\":72:92   */\n      calldataload\n        /* \"--CODEGEN--\":97:130   */\n      tag_426\n        /* \"--CODEGEN--\":124:129   */\n      dup2\n        /* \"--CODEGEN--\":97:130   */\n      tag_360\n      jump\t// in\n    tag_426:\n        /* \"--CODEGEN--\":8174:8237   */\n      swap5\n      pop\n        /* \"--CODEGEN--\":8274:8276   */\n      0x20\n        /* \"--CODEGEN--\":8313:8335   */\n      dup7\n      add\n        /* \"--CODEGEN--\":4887:4907   */\n      calldataload\n      swap4\n      pop\n        /* \"--CODEGEN--\":8382:8384   */\n      0x40\n        /* \"--CODEGEN--\":8421:8443   */\n      dup7\n      add\n        /* \"--CODEGEN--\":72:92   */\n      calldataload\n        /* \"--CODEGEN--\":97:130   */\n      tag_427\n        /* \"--CODEGEN--\":72:92   */\n      dup2\n        /* \"--CODEGEN--\":97:130   */\n      tag_360\n      jump\t// in\n    tag_427:\n        /* \"--CODEGEN--\":8390:8453   */\n      swap3\n      pop\n        /* \"--CODEGEN--\":8508:8580   */\n      tag_428\n        /* \"--CODEGEN--\":8572:8579   */\n      dup8\n        /* \"--CODEGEN--\":8490:8492   */\n      0x60\n        /* \"--CODEGEN--\":8548:8570   */\n      dup9\n      add\n        /* \"--CODEGEN--\":8508:8580   */\n      tag_384\n      jump\t// in\n    tag_428:\n        /* \"--CODEGEN--\":8498:8580   */\n      swap2\n      pop\n        /* \"--CODEGEN--\":8617:8620   */\n      0x80\n        /* \"--CODEGEN--\":8658:8667   */\n      dup7\n        /* \"--CODEGEN--\":8654:8676   */\n      add\n        /* \"--CODEGEN--\":1519:1539   */\n      calldataload\n        /* \"--CODEGEN--\":1544:1574   */\n      tag_429\n        /* \"--CODEGEN--\":1568:1573   */\n      dup2\n        /* \"--CODEGEN--\":1544:1574   */\n      tag_380\n      jump\t// in\n    tag_429:\n        /* \"--CODEGEN--\":8626:8686   */\n      dup1\n      swap2\n      pop\n      pop\n        /* \"--CODEGEN--\":8077:8702   */\n      swap3\n      swap6\n      pop\n      swap3\n      swap6\n      swap1\n      swap4\n      pop\n      jump\t// out\n        /* \"--CODEGEN--\":8709:9347   */\n    tag_57:\n      0x00\n      dup1\n        /* \"--CODEGEN--\":8880:8882   */\n      0x40\n        /* \"--CODEGEN--\":8868:8877   */\n      dup4\n        /* \"--CODEGEN--\":8859:8866   */\n      dup6\n        /* \"--CODEGEN--\":8855:8878   */\n      sub\n        /* \"--CODEGEN--\":8851:8883   */\n      slt\n        /* \"--CODEGEN--\":8848:8850   */\n      iszero\n      tag_431\n      jumpi\n      dup2\n      dup3\n        /* \"--CODEGEN--\":8886:8898   */\n      revert\n        /* \"--CODEGEN--\":8848:8850   */\n    tag_431:\n        /* \"--CODEGEN--\":8944:8961   */\n      dup3\n        /* \"--CODEGEN--\":8931:8962   */\n      calldataload\n        /* \"--CODEGEN--\":8982:9000   */\n      0xffffffffffffffff\n      dup1\n        /* \"--CODEGEN--\":8974:8980   */\n      dup3\n        /* \"--CODEGEN--\":8971:9001   */\n      gt\n        /* \"--CODEGEN--\":8968:8970   */\n      iszero\n      tag_432\n      jumpi\n      dup4\n      dup5\n        /* \"--CODEGEN--\":9004:9016   */\n      revert\n        /* \"--CODEGEN--\":8968:8970   */\n    tag_432:\n        /* \"--CODEGEN--\":9034:9112   */\n      tag_433\n        /* \"--CODEGEN--\":9104:9111   */\n      dup7\n        /* \"--CODEGEN--\":9095:9101   */\n      dup4\n        /* \"--CODEGEN--\":9084:9093   */\n      dup8\n        /* \"--CODEGEN--\":9080:9102   */\n      add\n        /* \"--CODEGEN--\":9034:9112   */\n      tag_361\n      jump\t// in\n    tag_433:\n        /* \"--CODEGEN--\":9024:9112   */\n      swap4\n      pop\n        /* \"--CODEGEN--\":9177:9179   */\n      0x20\n        /* \"--CODEGEN--\":9166:9175   */\n      dup6\n        /* \"--CODEGEN--\":9162:9180   */\n      add\n        /* \"--CODEGEN--\":9149:9181   */\n      calldataload\n        /* \"--CODEGEN--\":9135:9181   */\n      swap2\n      pop\n        /* \"--CODEGEN--\":8982:9000   */\n      dup1\n        /* \"--CODEGEN--\":9193:9199   */\n      dup3\n        /* \"--CODEGEN--\":9190:9220   */\n      gt\n        /* \"--CODEGEN--\":9187:9189   */\n      iszero\n      tag_434\n      jumpi\n      dup3\n      dup4\n        /* \"--CODEGEN--\":9223:9235   */\n      revert\n        /* \"--CODEGEN--\":9187:9189   */\n    tag_434:\n      pop\n        /* \"--CODEGEN--\":9253:9331   */\n      tag_435\n        /* \"--CODEGEN--\":9323:9330   */\n      dup6\n        /* \"--CODEGEN--\":9314:9320   */\n      dup3\n        /* \"--CODEGEN--\":9303:9312   */\n      dup7\n        /* \"--CODEGEN--\":9299:9321   */\n      add\n        /* \"--CODEGEN--\":9253:9331   */\n      tag_361\n      jump\t// in\n    tag_435:\n        /* \"--CODEGEN--\":9243:9331   */\n      swap2\n      pop\n      pop\n        /* \"--CODEGEN--\":8842:9347   */\n      swap3\n      pop\n      swap3\n      swap1\n      pop\n      jump\t// out\n        /* \"--CODEGEN--\":9354:9633   */\n    tag_109:\n      0x00\n        /* \"--CODEGEN--\":9477:9479   */\n      0x20\n        /* \"--CODEGEN--\":9465:9474   */\n      dup3\n        /* \"--CODEGEN--\":9456:9463   */\n      dup5\n        /* \"--CODEGEN--\":9452:9475   */\n      sub\n        /* \"--CODEGEN--\":9448:9480   */\n      slt\n        /* \"--CODEGEN--\":9445:9447   */\n      iszero\n      tag_437\n      jumpi\n      dup1\n      dup2\n        /* \"--CODEGEN--\":9483:9495   */\n      revert\n        /* \"--CODEGEN--\":9445:9447   */\n    tag_437:\n        /* \"--CODEGEN--\":9545:9617   */\n      tag_224\n        /* \"--CODEGEN--\":9609:9616   */\n      dup4\n        /* \"--CODEGEN--\":9585:9607   */\n      dup4\n        /* \"--CODEGEN--\":9545:9617   */\n      tag_384\n      jump\t// in\n        /* \"--CODEGEN--\":9640:10002   */\n    tag_230:\n      0x00\n        /* \"--CODEGEN--\":9765:9767   */\n      0x20\n        /* \"--CODEGEN--\":9753:9762   */\n      dup3\n        /* \"--CODEGEN--\":9744:9751   */\n      dup5\n        /* \"--CODEGEN--\":9740:9763   */\n      sub\n        /* \"--CODEGEN--\":9736:9768   */\n      slt\n        /* \"--CODEGEN--\":9733:9735   */\n      iszero\n      tag_440\n      jumpi\n      dup1\n      dup2\n        /* \"--CODEGEN--\":9771:9783   */\n      revert\n        /* \"--CODEGEN--\":9733:9735   */\n    tag_440:\n        /* \"--CODEGEN--\":9822:9839   */\n      dup2\n        /* \"--CODEGEN--\":9816:9840   */\n      mload\n        /* \"--CODEGEN--\":9860:9878   */\n      0xffffffffffffffff\n        /* \"--CODEGEN--\":9852:9858   */\n      dup2\n        /* \"--CODEGEN--\":9849:9879   */\n      gt\n        /* \"--CODEGEN--\":9846:9848   */\n      iszero\n      tag_441\n      jumpi\n      dup2\n      dup3\n        /* \"--CODEGEN--\":9882:9894   */\n      revert\n        /* \"--CODEGEN--\":9846:9848   */\n    tag_441:\n        /* \"--CODEGEN--\":9954:9976   */\n      dup3\n      add\n        /* \"--CODEGEN--\":2905:2909   */\n      0x1f\n        /* \"--CODEGEN--\":2893:2910   */\n      dup2\n      add\n        /* \"--CODEGEN--\":2889:2916   */\n      dup5\n      sgt\n        /* \"--CODEGEN--\":2879:2881   */\n      tag_442\n      jumpi\n      dup2\n      dup3\n        /* \"--CODEGEN--\":2920:2932   */\n      revert\n        /* \"--CODEGEN--\":2879:2881   */\n    tag_442:\n        /* \"--CODEGEN--\":2960:2966   */\n      dup1\n        /* \"--CODEGEN--\":2954:2967   */\n      mload\n        /* \"--CODEGEN--\":2982:3047   */\n      tag_443\n        /* \"--CODEGEN--\":2997:3046   */\n      tag_394\n        /* \"--CODEGEN--\":3039:3045   */\n      dup3\n        /* \"--CODEGEN--\":2997:3046   */\n      tag_395\n      jump\t// in\n        /* \"--CODEGEN--\":2982:3047   */\n    tag_443:\n        /* \"--CODEGEN--\":3067:3073   */\n      dup2\n        /* \"--CODEGEN--\":3060:3065   */\n      dup2\n        /* \"--CODEGEN--\":3053:3074   */\n      mstore\n        /* \"--CODEGEN--\":3171:3174   */\n      dup6\n        /* \"--CODEGEN--\":9765:9767   */\n      0x20\n        /* \"--CODEGEN--\":3162:3168   */\n      dup4\n        /* \"--CODEGEN--\":3095:3101   */\n      dup6\n        /* \"--CODEGEN--\":3153:3169   */\n      add\n      add\n        /* \"--CODEGEN--\":3150:3175   */\n      gt\n        /* \"--CODEGEN--\":3147:3149   */\n      iszero\n      tag_445\n      jumpi\n      dup4\n      dup5\n        /* \"--CODEGEN--\":3178:3190   */\n      revert\n        /* \"--CODEGEN--\":3147:3149   */\n    tag_445:\n        /* \"--CODEGEN--\":3198:3237   */\n      tag_446\n        /* \"--CODEGEN--\":3230:3236   */\n      dup3\n        /* \"--CODEGEN--\":9765:9767   */\n      0x20\n        /* \"--CODEGEN--\":3129:3134   */\n      dup4\n        /* \"--CODEGEN--\":3125:3141   */\n      add\n        /* \"--CODEGEN--\":9765:9767   */\n      0x20\n        /* \"--CODEGEN--\":3095:3101   */\n      dup7\n        /* \"--CODEGEN--\":3091:3108   */\n      add\n        /* \"--CODEGEN--\":3198:3237   */\n      tag_447\n      jump\t// in\n    tag_446:\n        /* \"--CODEGEN--\":9902:9986   */\n      swap6\n        /* \"--CODEGEN--\":9727:10002   */\n      swap5\n      pop\n      pop\n      pop\n      pop\n      pop\n      jump\t// out\n        /* \"--CODEGEN--\":10009:10331   */\n    tag_315:\n      0x00\n        /* \"--CODEGEN--\":10153:10156   */\n      0x0100\n      dup1\n        /* \"--CODEGEN--\":10141:10150   */\n      dup4\n        /* \"--CODEGEN--\":10132:10139   */\n      dup6\n        /* \"--CODEGEN--\":10128:10151   */\n      sub\n        /* \"--CODEGEN--\":10124:10157   */\n      slt\n        /* \"--CODEGEN--\":10121:10123   */\n      iszero\n      tag_449\n      jumpi\n      dup2\n      dup3\n        /* \"--CODEGEN--\":10160:10172   */\n      revert\n        /* \"--CODEGEN--\":10121:10123   */\n    tag_449:\n        /* \"--CODEGEN--\":3473:3495   */\n      tag_450\n        /* \"--CODEGEN--\":10153:10156   */\n      dup2\n        /* \"--CODEGEN--\":3473:3495   */\n      tag_366\n      jump\t// in\n    tag_450:\n        /* \"--CODEGEN--\":3464:3495   */\n      swap1\n      pop\n        /* \"--CODEGEN--\":226:232   */\n      dup3\n        /* \"--CODEGEN--\":220:233   */\n      mload\n        /* \"--CODEGEN--\":238:271   */\n      tag_451\n        /* \"--CODEGEN--\":265:270   */\n      dup2\n        /* \"--CODEGEN--\":238:271   */\n      tag_360\n      jump\t// in\n    tag_451:\n        /* \"--CODEGEN--\":3554:3640   */\n      dup2\n      mstore\n        /* \"--CODEGEN--\":3707:3709   */\n      0x20\n        /* \"--CODEGEN--\":3772:3794   */\n      dup4\n      add\n        /* \"--CODEGEN--\":220:233   */\n      mload\n        /* \"--CODEGEN--\":238:271   */\n      tag_452\n        /* \"--CODEGEN--\":220:233   */\n      dup2\n        /* \"--CODEGEN--\":238:271   */\n      tag_360\n      jump\t// in\n    tag_452:\n        /* \"--CODEGEN--\":3740:3800   */\n      dup1\n        /* \"--CODEGEN--\":3707:3709   */\n      0x20\n        /* \"--CODEGEN--\":3726:3731   */\n      dup4\n        /* \"--CODEGEN--\":3722:3738   */\n      add\n        /* \"--CODEGEN--\":3715:3801   */\n      mstore\n      pop\n        /* \"--CODEGEN--\":3868:3870   */\n      0x40\n        /* \"--CODEGEN--\":3937:3946   */\n      dup4\n        /* \"--CODEGEN--\":3933:3955   */\n      add\n        /* \"--CODEGEN--\":1799:1812   */\n      mload\n        /* \"--CODEGEN--\":3868:3870   */\n      0x40\n        /* \"--CODEGEN--\":3887:3892   */\n      dup3\n        /* \"--CODEGEN--\":3883:3899   */\n      add\n        /* \"--CODEGEN--\":3876:3962   */\n      mstore\n        /* \"--CODEGEN--\":4027:4029   */\n      0x60\n        /* \"--CODEGEN--\":4096:4105   */\n      dup4\n        /* \"--CODEGEN--\":4092:4114   */\n      add\n        /* \"--CODEGEN--\":5035:5048   */\n      mload\n        /* \"--CODEGEN--\":4027:4029   */\n      0x60\n        /* \"--CODEGEN--\":4046:4051   */\n      dup3\n        /* \"--CODEGEN--\":4042:4058   */\n      add\n        /* \"--CODEGEN--\":4035:4121   */\n      mstore\n        /* \"--CODEGEN--\":4223:4298   */\n      tag_453\n        /* \"--CODEGEN--\":4294:4297   */\n      dup5\n        /* \"--CODEGEN--\":4189:4192   */\n      0x80\n        /* \"--CODEGEN--\":4274:4283   */\n      dup6\n        /* \"--CODEGEN--\":4270:4292   */\n      add\n        /* \"--CODEGEN--\":4223:4298   */\n      tag_387\n      jump\t// in\n    tag_453:\n        /* \"--CODEGEN--\":4189:4192   */\n      0x80\n        /* \"--CODEGEN--\":4209:4214   */\n      dup3\n        /* \"--CODEGEN--\":4205:4221   */\n      add\n        /* \"--CODEGEN--\":4198:4299   */\n      mstore\n        /* \"--CODEGEN--\":4366:4369   */\n      0xa0\n        /* \"--CODEGEN--\":4436:4445   */\n      dup4\n        /* \"--CODEGEN--\":4432:4454   */\n      add\n        /* \"--CODEGEN--\":5035:5048   */\n      mload\n        /* \"--CODEGEN--\":4366:4369   */\n      0xa0\n        /* \"--CODEGEN--\":4386:4391   */\n      dup3\n        /* \"--CODEGEN--\":4382:4398   */\n      add\n        /* \"--CODEGEN--\":4375:4461   */\n      mstore\n        /* \"--CODEGEN--\":4565:4625   */\n      tag_454\n        /* \"--CODEGEN--\":4621:4624   */\n      dup5\n        /* \"--CODEGEN--\":4531:4534   */\n      0xc0\n        /* \"--CODEGEN--\":4601:4610   */\n      dup6\n        /* \"--CODEGEN--\":4597:4619   */\n      add\n        /* \"--CODEGEN--\":4565:4625   */\n      tag_357\n      jump\t// in\n    tag_454:\n        /* \"--CODEGEN--\":4531:4534   */\n      0xc0\n        /* \"--CODEGEN--\":4551:4556   */\n      dup3\n        /* \"--CODEGEN--\":4547:4563   */\n      add\n        /* \"--CODEGEN--\":4540:4626   */\n      mstore\n        /* \"--CODEGEN--\":4734:4791   */\n      tag_455\n        /* \"--CODEGEN--\":4787:4790   */\n      dup5\n        /* \"--CODEGEN--\":4700:4703   */\n      0xe0\n        /* \"--CODEGEN--\":4767:4776   */\n      dup6\n        /* \"--CODEGEN--\":4763:4785   */\n      add\n        /* \"--CODEGEN--\":4734:4791   */\n      tag_381\n      jump\t// in\n    tag_455:\n        /* \"--CODEGEN--\":4700:4703   */\n      0xe0\n        /* \"--CODEGEN--\":4716:4732   */\n      dup3\n      add\n        /* \"--CODEGEN--\":4709:4792   */\n      mstore\n        /* \"--CODEGEN--\":4720:4725   */\n      swap4\n        /* \"--CODEGEN--\":10115:10331   */\n      swap3\n      pop\n      pop\n      pop\n      jump\t// out\n        /* \"--CODEGEN--\":10338:10601   */\n    tag_301:\n      0x00\n        /* \"--CODEGEN--\":10453:10455   */\n      0x20\n        /* \"--CODEGEN--\":10441:10450   */\n      dup3\n        /* \"--CODEGEN--\":10432:10439   */\n      dup5\n        /* \"--CODEGEN--\":10428:10451   */\n      sub\n        /* \"--CODEGEN--\":10424:10456   */\n      slt\n        /* \"--CODEGEN--\":10421:10423   */\n      iszero\n      tag_457\n      jumpi\n      dup1\n      dup2\n        /* \"--CODEGEN--\":10459:10471   */\n      revert\n        /* \"--CODEGEN--\":10421:10423   */\n    tag_457:\n      pop\n        /* \"--CODEGEN--\":5035:5048   */\n      mload\n      swap2\n        /* \"--CODEGEN--\":10415:10601   */\n      swap1\n      pop\n      jump\t// out\n        /* \"--CODEGEN--\":10608:11411   */\n    tag_290:\n      0x00\n      dup1\n      0x00\n      dup1\n      0x00\n        /* \"--CODEGEN--\":10788:10791   */\n      0xa0\n        /* \"--CODEGEN--\":10776:10785   */\n      dup7\n        /* \"--CODEGEN--\":10767:10774   */\n      dup9\n        /* \"--CODEGEN--\":10763:10786   */\n      sub\n        /* \"--CODEGEN--\":10759:10792   */\n      slt\n        /* \"--CODEGEN--\":10756:10758   */\n      iszero\n      tag_459\n      jumpi\n      dup3\n      dup4\n        /* \"--CODEGEN--\":10795:10807   */\n      revert\n        /* \"--CODEGEN--\":10756:10758   */\n    tag_459:\n        /* \"--CODEGEN--\":10857:10920   */\n      tag_460\n        /* \"--CODEGEN--\":10912:10919   */\n      dup8\n        /* \"--CODEGEN--\":10888:10910   */\n      dup8\n        /* \"--CODEGEN--\":10857:10920   */\n      tag_397\n      jump\t// in\n    tag_460:\n        /* \"--CODEGEN--\":10847:10920   */\n      swap5\n      pop\n        /* \"--CODEGEN--\":10957:10959   */\n      0x20\n        /* \"--CODEGEN--\":11010:11019   */\n      dup7\n        /* \"--CODEGEN--\":11006:11028   */\n      add\n        /* \"--CODEGEN--\":2285:2298   */\n      mload\n        /* \"--CODEGEN--\":10965:11038   */\n      swap4\n      pop\n        /* \"--CODEGEN--\":11075:11077   */\n      0x40\n        /* \"--CODEGEN--\":11129:11138   */\n      dup7\n        /* \"--CODEGEN--\":11125:11147   */\n      add\n        /* \"--CODEGEN--\":5035:5048   */\n      mload\n        /* \"--CODEGEN--\":11083:11157   */\n      swap3\n      pop\n        /* \"--CODEGEN--\":11194:11196   */\n      0x60\n        /* \"--CODEGEN--\":11248:11257   */\n      dup7\n        /* \"--CODEGEN--\":11244:11266   */\n      add\n        /* \"--CODEGEN--\":5035:5048   */\n      mload\n        /* \"--CODEGEN--\":11202:11276   */\n      swap2\n      pop\n        /* \"--CODEGEN--\":11332:11395   */\n      tag_461\n        /* \"--CODEGEN--\":11387:11394   */\n      dup8\n        /* \"--CODEGEN--\":11313:11316   */\n      0x80\n        /* \"--CODEGEN--\":11367:11376   */\n      dup9\n        /* \"--CODEGEN--\":11363:11385   */\n      add\n        /* \"--CODEGEN--\":11332:11395   */\n      tag_397\n      jump\t// in\n    tag_461:\n        /* \"--CODEGEN--\":11322:11395   */\n      swap1\n      pop\n        /* \"--CODEGEN--\":10750:11411   */\n      swap3\n      swap6\n      pop\n      swap3\n      swap6\n      swap1\n      swap4\n      pop\n      jump\t// out\n        /* \"--CODEGEN--\":12935:13029   */\n    tag_462:\n        /* \"--CODEGEN--\":29575:29588   */\n      iszero\n        /* \"--CODEGEN--\":29568:29589   */\n      iszero\n        /* \"--CODEGEN--\":12990:13024   */\n      swap1\n      mstore\n        /* \"--CODEGEN--\":12984:13029   */\n      jump\t// out\n        /* \"--CODEGEN--\":13471:13818   */\n    tag_464:\n      0x00\n        /* \"--CODEGEN--\":13616:13621   */\n      dup2\n        /* \"--CODEGEN--\":28329:28341   */\n      mload\n        /* \"--CODEGEN--\":28666:28672   */\n      dup1\n        /* \"--CODEGEN--\":28661:28664   */\n      dup5\n        /* \"--CODEGEN--\":28654:28673   */\n      mstore\n        /* \"--CODEGEN--\":13710:13762   */\n      tag_466\n        /* \"--CODEGEN--\":13755:13761   */\n      dup2\n        /* \"--CODEGEN--\":28703:28707   */\n      0x20\n        /* \"--CODEGEN--\":28698:28701   */\n      dup7\n        /* \"--CODEGEN--\":28694:28708   */\n      add\n        /* \"--CODEGEN--\":28703:28707   */\n      0x20\n        /* \"--CODEGEN--\":13736:13741   */\n      dup7\n        /* \"--CODEGEN--\":13732:13748   */\n      add\n        /* \"--CODEGEN--\":13710:13762   */\n      tag_447\n      jump\t// in\n    tag_466:\n        /* \"--CODEGEN--\":31431:31438   */\n      0x1f\n        /* \"--CODEGEN--\":31415:31429   */\n      add\n      not(0x1f)\n        /* \"--CODEGEN--\":31411:31439   */\n      and\n        /* \"--CODEGEN--\":13774:13813   */\n      swap3\n      swap1\n      swap3\n      add\n        /* \"--CODEGEN--\":28703:28707   */\n      0x20\n        /* \"--CODEGEN--\":13774:13813   */\n      add\n      swap3\n        /* \"--CODEGEN--\":13563:13818   */\n      swap2\n      pop\n      pop\n      jump\t// out\n        /* \"--CODEGEN--\":19374:19649   */\n    tag_280:\n      0x00\n        /* \"--CODEGEN--\":13988:13993   */\n      dup3\n        /* \"--CODEGEN--\":28329:28341   */\n      mload\n        /* \"--CODEGEN--\":14100:14152   */\n      tag_468\n        /* \"--CODEGEN--\":14145:14151   */\n      dup2\n        /* \"--CODEGEN--\":14140:14143   */\n      dup5\n        /* \"--CODEGEN--\":14133:14137   */\n      0x20\n        /* \"--CODEGEN--\":14126:14131   */\n      dup8\n        /* \"--CODEGEN--\":14122:14138   */\n      add\n        /* \"--CODEGEN--\":14100:14152   */\n      tag_447\n      jump\t// in\n    tag_468:\n        /* \"--CODEGEN--\":14164:14180   */\n      swap2\n      swap1\n      swap2\n      add\n      swap3\n        /* \"--CODEGEN--\":19510:19649   */\n      swap2\n      pop\n      pop\n      jump\t// out\n        /* \"--CODEGEN--\":19656:19878   */\n    tag_51:\n      sub(shl(0xa0, 0x01), 0x01)\n        /* \"--CODEGEN--\":29123:29177   */\n      swap2\n      swap1\n      swap2\n      and\n        /* \"--CODEGEN--\":11767:11804   */\n      dup2\n      mstore\n        /* \"--CODEGEN--\":19783:19785   */\n      0x20\n        /* \"--CODEGEN--\":19768:19786   */\n      add\n      swap1\n        /* \"--CODEGEN--\":19754:19878   */\n      jump\t// out\n        /* \"--CODEGEN--\":19885:20629   */\n    tag_31:\n      sub(shl(0xa0, 0x01), 0x01)\n        /* \"--CODEGEN--\":29123:29177   */\n      dup7\n      dup2\n      and\n        /* \"--CODEGEN--\":11767:11804   */\n      dup3\n      mstore\n        /* \"--CODEGEN--\":29123:29177   */\n      dup6\n      and\n        /* \"--CODEGEN--\":20303:20305   */\n      0x20\n        /* \"--CODEGEN--\":20288:20306   */\n      dup3\n      add\n        /* \"--CODEGEN--\":11767:11804   */\n      mstore\n        /* \"--CODEGEN--\":29134:29176   */\n      0xa0\n        /* \"--CODEGEN--\":20340:20342   */\n      0x40\n        /* \"--CODEGEN--\":20325:20343   */\n      dup3\n      add\n        /* \"--CODEGEN--\":20318:20366   */\n      dup2\n      swap1\n      mstore\n        /* \"--CODEGEN--\":19885:20629   */\n      0x00\n      swap1\n        /* \"--CODEGEN--\":20380:20458   */\n      tag_471\n      swap1\n        /* \"--CODEGEN--\":20123:20142   */\n      dup4\n      add\n        /* \"--CODEGEN--\":20444:20450   */\n      dup7\n        /* \"--CODEGEN--\":20380:20458   */\n      tag_464\n      jump\t// in\n    tag_471:\n        /* \"--CODEGEN--\":20537:20539   */\n      0x60\n        /* \"--CODEGEN--\":20522:20540   */\n      dup4\n      add\n        /* \"--CODEGEN--\":19325:19362   */\n      swap5\n      swap1\n      swap5\n      mstore\n      pop\n        /* \"--CODEGEN--\":29575:29588   */\n      swap1\n      iszero\n        /* \"--CODEGEN--\":29568:29589   */\n      iszero\n        /* \"--CODEGEN--\":20614:20617   */\n      0x80\n        /* \"--CODEGEN--\":20599:20618   */\n      swap1\n      swap2\n      add\n        /* \"--CODEGEN--\":12990:13024   */\n      mstore\n        /* \"--CODEGEN--\":20372:20458   */\n      swap4\n        /* \"--CODEGEN--\":20109:20629   */\n      swap3\n      pop\n      pop\n      pop\n      jump\t// out\n        /* \"--CODEGEN--\":20636:21374   */\n    tag_129:\n      0x00\n        /* \"--CODEGEN--\":20886:20889   */\n      0xa0\n        /* \"--CODEGEN--\":20875:20884   */\n      dup3\n        /* \"--CODEGEN--\":20871:20890   */\n      add\n        /* \"--CODEGEN--\":27217:27235   */\n      0x01\n      dup1\n        /* \"--CODEGEN--\":29134:29176   */\n      0xa0\n      shl\n      sub\n      dup1\n        /* \"--CODEGEN--\":11797:11802   */\n      dup10\n        /* \"--CODEGEN--\":29123:29177   */\n      and\n        /* \"--CODEGEN--\":11774:11777   */\n      dup5\n        /* \"--CODEGEN--\":11767:11804   */\n      mstore\n        /* \"--CODEGEN--\":21051:21053   */\n      0x20\n        /* \"--CODEGEN--\":29134:29176   */\n      dup2\n        /* \"--CODEGEN--\":11797:11802   */\n      dup10\n        /* \"--CODEGEN--\":29123:29177   */\n      and\n        /* \"--CODEGEN--\":21051:21053   */\n      dup2\n        /* \"--CODEGEN--\":21040:21049   */\n      dup7\n        /* \"--CODEGEN--\":21036:21054   */\n      add\n        /* \"--CODEGEN--\":11767:11804   */\n      mstore\n        /* \"--CODEGEN--\":20886:20889   */\n      0xa0\n        /* \"--CODEGEN--\":21088:21090   */\n      0x40\n        /* \"--CODEGEN--\":21077:21086   */\n      dup7\n        /* \"--CODEGEN--\":21073:21091   */\n      add\n        /* \"--CODEGEN--\":21066:21114   */\n      mstore\n      dup4\n        /* \"--CODEGEN--\":21128:21203   */\n      swap2\n      pop\n        /* \"--CODEGEN--\":14336:14341   */\n      dup8\n        /* \"--CODEGEN--\":14330:14342   */\n      sload\n        /* \"--CODEGEN--\":14370:14371   */\n      0x01\n      dup1\n        /* \"--CODEGEN--\":14359:14368   */\n      dup3\n        /* \"--CODEGEN--\":14355:14372   */\n      and\n        /* \"--CODEGEN--\":14383:14384   */\n      0x00\n        /* \"--CODEGEN--\":14378:14626   */\n      dup2\n      eq\n      tag_474\n      jumpi\n        /* \"--CODEGEN--\":14637:14638   */\n      0x01\n        /* \"--CODEGEN--\":14632:15034   */\n      dup2\n      eq\n      tag_475\n      jumpi\n        /* \"--CODEGEN--\":14348:15034   */\n      jump(tag_473)\n        /* \"--CODEGEN--\":14378:14626   */\n    tag_474:\n        /* \"--CODEGEN--\":14475:14546   */\n      tag_476\n        /* \"--CODEGEN--\":14456:14460   */\n      0x7f\n        /* \"--CODEGEN--\":14452:14453   */\n      0x02\n        /* \"--CODEGEN--\":14441:14450   */\n      dup6\n        /* \"--CODEGEN--\":14437:14454   */\n      div\n        /* \"--CODEGEN--\":14433:14461   */\n      and\n        /* \"--CODEGEN--\":14534:14537   */\n      dup8\n        /* \"--CODEGEN--\":14475:14546   */\n      tag_36\n      jump\t// in\n    tag_476:\n      not(0xff)\n        /* \"--CODEGEN--\":14565:14590   */\n      dup5\n      and\n        /* \"--CODEGEN--\":14553:14591   */\n      dup2\n      mstore\n        /* \"--CODEGEN--\":14605:14619   */\n      dup5\n      add\n      swap5\n      pop\n        /* \"--CODEGEN--\":14378:14626   */\n      jump(tag_473)\n        /* \"--CODEGEN--\":14632:15034   */\n    tag_475:\n        /* \"--CODEGEN--\":14701:14702   */\n      0x02\n        /* \"--CODEGEN--\":14690:14699   */\n      dup4\n        /* \"--CODEGEN--\":14686:14703   */\n      div\n        /* \"--CODEGEN--\":14717:14788   */\n      tag_478\n        /* \"--CODEGEN--\":14781:14787   */\n      dup2\n        /* \"--CODEGEN--\":14776:14779   */\n      dup9\n        /* \"--CODEGEN--\":14717:14788   */\n      tag_36\n      jump\t// in\n    tag_478:\n        /* \"--CODEGEN--\":14810:14848   */\n      tag_479\n        /* \"--CODEGEN--\":14842:14847   */\n      dup14\n        /* \"--CODEGEN--\":14810:14848   */\n      tag_480\n      jump\t// in\n    tag_479:\n      dup10\n        /* \"--CODEGEN--\":14872:15002   */\n    tag_481:\n        /* \"--CODEGEN--\":14886:14892   */\n      dup4\n        /* \"--CODEGEN--\":14883:14884   */\n      dup2\n        /* \"--CODEGEN--\":14880:14893   */\n      lt\n        /* \"--CODEGEN--\":14872:15002   */\n      iszero\n      tag_483\n      jumpi\n        /* \"--CODEGEN--\":14945:14959   */\n      dup2\n      sload\n        /* \"--CODEGEN--\":14932:14943   */\n      dup4\n      dup3\n      add\n        /* \"--CODEGEN--\":14925:14960   */\n      mstore\n        /* \"--CODEGEN--\":14979:14994   */\n      swap1\n      dup6\n      add\n      swap1\n        /* \"--CODEGEN--\":14901:14913   */\n      dup8\n      add\n        /* \"--CODEGEN--\":14872:15002   */\n      jump(tag_481)\n    tag_483:\n        /* \"--CODEGEN--\":15016:15027   */\n      swap2\n      swap1\n      swap2\n      add\n      swap7\n      pop\n      pop\n      pop\n        /* \"--CODEGEN--\":14348:15034   */\n    tag_473:\n      pop\n      pop\n      pop\n      pop\n        /* \"--CODEGEN--\":21120:21203   */\n      dup1\n      swap3\n      pop\n      pop\n      pop\n        /* \"--CODEGEN--\":19355:19360   */\n      dup4\n        /* \"--CODEGEN--\":21282:21284   */\n      0x60\n        /* \"--CODEGEN--\":21271:21280   */\n      dup4\n        /* \"--CODEGEN--\":21267:21285   */\n      add\n        /* \"--CODEGEN--\":19325:19362   */\n      mstore\n        /* \"--CODEGEN--\":21297:21364   */\n      tag_484\n        /* \"--CODEGEN--\":21359:21362   */\n      0x80\n        /* \"--CODEGEN--\":21348:21357   */\n      dup4\n        /* \"--CODEGEN--\":21344:21363   */\n      add\n        /* \"--CODEGEN--\":21335:21341   */\n      dup5\n        /* \"--CODEGEN--\":21297:21364   */\n      tag_462\n      jump\t// in\n    tag_484:\n        /* \"--CODEGEN--\":20857:21374   */\n      swap7\n      swap6\n      pop\n      pop\n      pop\n      pop\n      pop\n      pop\n      jump\t// out\n        /* \"--CODEGEN--\":21381:21962   */\n    tag_115:\n      0x00\n        /* \"--CODEGEN--\":21636:21638   */\n      0x40\n      dup1\n        /* \"--CODEGEN--\":21625:21634   */\n      dup4\n        /* \"--CODEGEN--\":21621:21639   */\n      add\n        /* \"--CODEGEN--\":27217:27235   */\n      0x01\n      dup1\n        /* \"--CODEGEN--\":29134:29176   */\n      0xa0\n      shl\n      sub\n      dup1\n        /* \"--CODEGEN--\":11797:11802   */\n      dup8\n        /* \"--CODEGEN--\":29123:29177   */\n      and\n        /* \"--CODEGEN--\":11774:11777   */\n      dup6\n        /* \"--CODEGEN--\":11767:11804   */\n      mstore\n        /* \"--CODEGEN--\":21754:21756   */\n      0x20\n        /* \"--CODEGEN--\":21636:21638   */\n      dup4\n        /* \"--CODEGEN--\":21754:21756   */\n      dup2\n        /* \"--CODEGEN--\":21743:21752   */\n      dup8\n        /* \"--CODEGEN--\":21739:21757   */\n      add\n        /* \"--CODEGEN--\":21732:21780   */\n      mstore\n        /* \"--CODEGEN--\":21794:21952   */\n      dup3\n        /* \"--CODEGEN--\":12312:12317   */\n      dup8\n        /* \"--CODEGEN--\":28199:28211   */\n      sload\n        /* \"--CODEGEN--\":28666:28672   */\n      dup1\n        /* \"--CODEGEN--\":28661:28664   */\n      dup6\n        /* \"--CODEGEN--\":28654:28673   */\n      mstore\n        /* \"--CODEGEN--\":28694:28708   */\n      0x60\n      swap5\n      pop\n      dup5\n        /* \"--CODEGEN--\":21625:21634   */\n      dup9\n        /* \"--CODEGEN--\":28694:28708   */\n      add\n        /* \"--CODEGEN--\":12324:12445   */\n      swap2\n      pop\n        /* \"--CODEGEN--\":27843:27846   */\n      dup9\n      dup8\n        /* \"--CODEGEN--\":27833:27847   */\n      mstore\n        /* \"--CODEGEN--\":21754:21756   */\n      dup3\n      dup8\n        /* \"--CODEGEN--\":27862:27880   */\n      keccak256\n      dup8\n        /* \"--CODEGEN--\":12577:12905   */\n    tag_486:\n        /* \"--CODEGEN--\":12602:12608   */\n      dup3\n        /* \"--CODEGEN--\":12599:12600   */\n      dup2\n        /* \"--CODEGEN--\":12596:12609   */\n      lt\n        /* \"--CODEGEN--\":12577:12905   */\n      iszero\n      tag_488\n      jumpi\n        /* \"--CODEGEN--\":18647:18663   */\n      dup2\n        /* \"--CODEGEN--\":18641:18664   */\n      sload\n        /* \"--CODEGEN--\":29134:29176   */\n      dup7\n        /* \"--CODEGEN--\":18735:18744   */\n      dup2\n        /* \"--CODEGEN--\":29123:29177   */\n      and\n        /* \"--CODEGEN--\":11774:11777   */\n      dup6\n        /* \"--CODEGEN--\":11767:11804   */\n      mstore\n        /* \"--CODEGEN--\":29272:29276   */\n      0xff\n      dup1\n        /* \"--CODEGEN--\":18947:18956   */\n      dup3\n        /* \"--CODEGEN--\":31647:31650   */\n      0xa0\n        /* \"--CODEGEN--\":31643:31658   */\n      shr\n        /* \"--CODEGEN--\":29261:29277   */\n      and\n        /* \"--CODEGEN--\":29767:29819   */\n      tag_489\n        /* \"--CODEGEN--\":29813:29818   */\n      dup2\n        /* \"--CODEGEN--\":29767:29819   */\n      tag_490\n      jump\t// in\n    tag_489:\n        /* \"--CODEGEN--\":19028:19042   */\n      dup7\n      dup9\n      add\n        /* \"--CODEGEN--\":13225:13292   */\n      mstore\n        /* \"--CODEGEN--\":31761:31764   */\n      0xa8\n        /* \"--CODEGEN--\":31757:31772   */\n      swap2\n      swap1\n      swap2\n      shr\n        /* \"--CODEGEN--\":29261:29277   */\n      and\n        /* \"--CODEGEN--\":29575:29588   */\n      iszero\n        /* \"--CODEGEN--\":29568:29589   */\n      iszero\n        /* \"--CODEGEN--\":19211:19225   */\n      dup9\n      dup6\n      add\n        /* \"--CODEGEN--\":12990:13024   */\n      mstore\n        /* \"--CODEGEN--\":11678:11692   */\n      swap3\n      dup7\n      add\n      swap3\n        /* \"--CODEGEN--\":12624:12625   */\n      0x01\n        /* \"--CODEGEN--\":28481:28495   */\n      swap2\n      dup3\n      add\n      swap2\n        /* \"--CODEGEN--\":12617:12626   */\n      add\n        /* \"--CODEGEN--\":12577:12905   */\n      jump(tag_486)\n    tag_488:\n      pop\n        /* \"--CODEGEN--\":21786:21952   */\n      swap2\n      swap11\n        /* \"--CODEGEN--\":21607:21962   */\n      swap10\n      pop\n      pop\n      pop\n      pop\n      pop\n      pop\n      pop\n      pop\n      pop\n      pop\n      jump\t// out\n        /* \"--CODEGEN--\":21969:22435   */\n    tag_67:\n      sub(shl(0xa0, 0x01), 0x01)\n        /* \"--CODEGEN--\":29123:29177   */\n      dup5\n      and\n        /* \"--CODEGEN--\":11767:11804   */\n      dup2\n      mstore\n        /* \"--CODEGEN--\":22163:22165   */\n      0x60\n        /* \"--CODEGEN--\":22148:22166   */\n      dup2\n      add\n        /* \"--CODEGEN--\":29767:29819   */\n      tag_492\n        /* \"--CODEGEN--\":29813:29818   */\n      dup5\n        /* \"--CODEGEN--\":29767:29819   */\n      tag_490\n      jump\t// in\n    tag_492:\n        /* \"--CODEGEN--\":30319:30362   */\n      dup4\n        /* \"--CODEGEN--\":22344:22346   */\n      0x20\n        /* \"--CODEGEN--\":22333:22342   */\n      dup4\n        /* \"--CODEGEN--\":22329:22347   */\n      add\n        /* \"--CODEGEN--\":13225:13292   */\n      mstore\n        /* \"--CODEGEN--\":13017:13022   */\n      dup3\n        /* \"--CODEGEN--\":29575:29588   */\n      iszero\n        /* \"--CODEGEN--\":29568:29589   */\n      iszero\n        /* \"--CODEGEN--\":22421:22423   */\n      0x40\n        /* \"--CODEGEN--\":22410:22419   */\n      dup4\n        /* \"--CODEGEN--\":22406:22424   */\n      add\n        /* \"--CODEGEN--\":12990:13024   */\n      mstore\n        /* \"--CODEGEN--\":22134:22435   */\n      swap5\n      swap4\n      pop\n      pop\n      pop\n      pop\n      jump\t// out\n        /* \"--CODEGEN--\":22442:22752   */\n    tag_310:\n      0x00\n        /* \"--CODEGEN--\":22589:22591   */\n      0x20\n        /* \"--CODEGEN--\":22610:22627   */\n      dup3\n        /* \"--CODEGEN--\":22603:22650   */\n      mstore\n        /* \"--CODEGEN--\":22664:22742   */\n      tag_224\n        /* \"--CODEGEN--\":22589:22591   */\n      0x20\n        /* \"--CODEGEN--\":22578:22587   */\n      dup4\n        /* \"--CODEGEN--\":22574:22592   */\n      add\n        /* \"--CODEGEN--\":22728:22734   */\n      dup5\n        /* \"--CODEGEN--\":22664:22742   */\n      tag_464\n      jump\t// in\n        /* \"--CODEGEN--\":22759:23175   */\n    tag_200:\n        /* \"--CODEGEN--\":22959:22961   */\n      0x20\n        /* \"--CODEGEN--\":22973:23020   */\n      dup1\n      dup3\n      mstore\n        /* \"--CODEGEN--\":15273:15275   */\n      0x26\n        /* \"--CODEGEN--\":22944:22962   */\n      swap1\n      dup3\n      add\n        /* \"--CODEGEN--\":28654:28673   */\n      mstore\n        /* \"--CODEGEN--\":15309:15343   */\n      0x4f776e61626c653a206e6577206f776e657220697320746865207a65726f2061\n        /* \"--CODEGEN--\":28694:28708   */\n      0x40\n      dup3\n      add\n        /* \"--CODEGEN--\":15289:15344   */\n      mstore\n      shl(0xd0, 0x646472657373)\n        /* \"--CODEGEN--\":15364:15376   */\n      0x60\n      dup3\n      add\n        /* \"--CODEGEN--\":15357:15387   */\n      mstore\n        /* \"--CODEGEN--\":15406:15418   */\n      0x80\n      add\n      swap1\n        /* \"--CODEGEN--\":22930:23175   */\n      jump\t// out\n        /* \"--CODEGEN--\":23182:23598   */\n    tag_285:\n        /* \"--CODEGEN--\":23382:23384   */\n      0x20\n        /* \"--CODEGEN--\":23396:23443   */\n      dup1\n      dup3\n      mstore\n        /* \"--CODEGEN--\":15657:15659   */\n      0x22\n        /* \"--CODEGEN--\":23367:23385   */\n      swap1\n      dup3\n      add\n        /* \"--CODEGEN--\":28654:28673   */\n      mstore\n        /* \"--CODEGEN--\":15693:15727   */\n      0x62617365556e6974206d7573742062652067726561746572207468616e207a65\n        /* \"--CODEGEN--\":28694:28708   */\n      0x40\n      dup3\n      add\n        /* \"--CODEGEN--\":15673:15728   */\n      mstore\n      shl(0xf0, 0x726f)\n        /* \"--CODEGEN--\":15748:15760   */\n      0x60\n      dup3\n      add\n        /* \"--CODEGEN--\":15741:15767   */\n      mstore\n        /* \"--CODEGEN--\":15786:15798   */\n      0x80\n      add\n      swap1\n        /* \"--CODEGEN--\":23353:23598   */\n      jump\t// out\n        /* \"--CODEGEN--\":23605:24021   */\n    tag_98:\n        /* \"--CODEGEN--\":23805:23807   */\n      0x20\n        /* \"--CODEGEN--\":23819:23866   */\n      dup1\n      dup3\n      mstore\n        /* \"--CODEGEN--\":16037:16039   */\n      0x0a\n        /* \"--CODEGEN--\":23790:23808   */\n      swap1\n      dup3\n      add\n        /* \"--CODEGEN--\":28654:28673   */\n      mstore\n      shl(0xb0, 0x62616420706172616d73)\n        /* \"--CODEGEN--\":28694:28708   */\n      0x40\n      dup3\n      add\n        /* \"--CODEGEN--\":16053:16086   */\n      mstore\n        /* \"--CODEGEN--\":16105:16117   */\n      0x60\n      add\n      swap1\n        /* \"--CODEGEN--\":23776:24021   */\n      jump\t// out\n        /* \"--CODEGEN--\":24028:24444   */\n    tag_276:\n        /* \"--CODEGEN--\":24228:24230   */\n      0x20\n        /* \"--CODEGEN--\":24242:24289   */\n      dup1\n      dup3\n      mstore\n        /* \"--CODEGEN--\":16356:16358   */\n      0x1a\n        /* \"--CODEGEN--\":24213:24231   */\n      swap1\n      dup3\n      add\n        /* \"--CODEGEN--\":28654:28673   */\n      mstore\n        /* \"--CODEGEN--\":16392:16420   */\n      0x536166654d6174683a206469766973696f6e206279207a65726f000000000000\n        /* \"--CODEGEN--\":28694:28708   */\n      0x40\n      dup3\n      add\n        /* \"--CODEGEN--\":16372:16421   */\n      mstore\n        /* \"--CODEGEN--\":16440:16452   */\n      0x60\n      add\n      swap1\n        /* \"--CODEGEN--\":24199:24444   */\n      jump\t// out\n        /* \"--CODEGEN--\":24451:24867   */\n    tag_222:\n        /* \"--CODEGEN--\":24651:24653   */\n      0x20\n        /* \"--CODEGEN--\":24665:24712   */\n      dup1\n      dup3\n      mstore\n        /* \"--CODEGEN--\":16691:16693   */\n      0x1b\n        /* \"--CODEGEN--\":24636:24654   */\n      swap1\n      dup3\n      add\n        /* \"--CODEGEN--\":28654:28673   */\n      mstore\n        /* \"--CODEGEN--\":16727:16756   */\n      0x7072696365206d75737420626967676572207468616e207a65726f0000000000\n        /* \"--CODEGEN--\":28694:28708   */\n      0x40\n      dup3\n      add\n        /* \"--CODEGEN--\":16707:16757   */\n      mstore\n        /* \"--CODEGEN--\":16776:16788   */\n      0x60\n      add\n      swap1\n        /* \"--CODEGEN--\":24622:24867   */\n      jump\t// out\n        /* \"--CODEGEN--\":24874:25290   */\n    tag_95:\n        /* \"--CODEGEN--\":25074:25076   */\n      0x20\n        /* \"--CODEGEN--\":25088:25135   */\n      dup1\n      dup3\n      mstore\n        /* \"--CODEGEN--\":17027:17029   */\n      0x31\n        /* \"--CODEGEN--\":25059:25077   */\n      swap1\n      dup3\n      add\n        /* \"--CODEGEN--\":28654:28673   */\n      mstore\n        /* \"--CODEGEN--\":17063:17097   */\n      0x736f7572636554797065732e6c656e677468206d75737420657175616c207468\n        /* \"--CODEGEN--\":28694:28708   */\n      0x40\n      dup3\n      add\n        /* \"--CODEGEN--\":17043:17098   */\n      mstore\n      shl(0x7b, 0x0c2dc40e6deeae4c6cae65cd8cadccee8d)\n        /* \"--CODEGEN--\":17118:17130   */\n      0x60\n      dup3\n      add\n        /* \"--CODEGEN--\":17111:17152   */\n      mstore\n        /* \"--CODEGEN--\":17171:17183   */\n      0x80\n      add\n      swap1\n        /* \"--CODEGEN--\":25045:25290   */\n      jump\t// out\n        /* \"--CODEGEN--\":25297:25713   */\n    tag_272:\n        /* \"--CODEGEN--\":25497:25499   */\n      0x20\n        /* \"--CODEGEN--\":25511:25558   */\n      dup1\n      dup3\n      mstore\n        /* \"--CODEGEN--\":17422:17424   */\n      0x21\n        /* \"--CODEGEN--\":25482:25500   */\n      swap1\n      dup3\n      add\n        /* \"--CODEGEN--\":28654:28673   */\n      mstore\n        /* \"--CODEGEN--\":17458:17492   */\n      0x536166654d6174683a206d756c7469706c69636174696f6e206f766572666c6f\n        /* \"--CODEGEN--\":28694:28708   */\n      0x40\n      dup3\n      add\n        /* \"--CODEGEN--\":17438:17493   */\n      mstore\n      shl(0xf8, 0x77)\n        /* \"--CODEGEN--\":17513:17525   */\n      0x60\n      dup3\n      add\n        /* \"--CODEGEN--\":17506:17531   */\n      mstore\n        /* \"--CODEGEN--\":17550:17562   */\n      0x80\n      add\n      swap1\n        /* \"--CODEGEN--\":25468:25713   */\n      jump\t// out\n        /* \"--CODEGEN--\":25720:26136   */\n    tag_91:\n        /* \"--CODEGEN--\":25920:25922   */\n      0x20\n        /* \"--CODEGEN--\":25934:25981   */\n      dup1\n      dup3\n      mstore\n        /* \"--CODEGEN--\":25905:25923   */\n      dup2\n      dup2\n      add\n        /* \"--CODEGEN--\":28654:28673   */\n      mstore\n        /* \"--CODEGEN--\":17837:17871   */\n      0x4f776e61626c653a2063616c6c6572206973206e6f7420746865206f776e6572\n        /* \"--CODEGEN--\":28694:28708   */\n      0x40\n      dup3\n      add\n        /* \"--CODEGEN--\":17817:17872   */\n      mstore\n        /* \"--CODEGEN--\":17891:17903   */\n      0x60\n      add\n      swap1\n        /* \"--CODEGEN--\":25891:26136   */\n      jump\t// out\n        /* \"--CODEGEN--\":26143:26559   */\n    tag_154:\n        /* \"--CODEGEN--\":26343:26345   */\n      0x20\n        /* \"--CODEGEN--\":26357:26404   */\n      dup1\n      dup3\n      mstore\n        /* \"--CODEGEN--\":18142:18144   */\n      0x40\n        /* \"--CODEGEN--\":26328:26346   */\n      swap1\n      dup3\n      add\n        /* \"--CODEGEN--\":28654:28673   */\n      dup2\n      swap1\n      mstore\n        /* \"--CODEGEN--\":18178:18212   */\n      0x746f6b656e732e6c656e677468206d75737420657175616c207468616e206368\n        /* \"--CODEGEN--\":28694:28708   */\n      swap1\n      dup3\n      add\n        /* \"--CODEGEN--\":18158:18213   */\n      mstore\n        /* \"--CODEGEN--\":18247:18281   */\n      0x61696e4c696e6b546f6b656e457468507269636546656564732e6c656e677468\n        /* \"--CODEGEN--\":18233:18245   */\n      0x60\n      dup3\n      add\n        /* \"--CODEGEN--\":18226:18282   */\n      mstore\n        /* \"--CODEGEN--\":18301:18313   */\n      0x80\n      add\n      swap1\n        /* \"--CODEGEN--\":26314:26559   */\n      jump\t// out\n        /* \"--CODEGEN--\":26566:26788   */\n    tag_36:\n        /* \"--CODEGEN--\":19325:19362   */\n      swap1\n      dup2\n      mstore\n        /* \"--CODEGEN--\":26693:26695   */\n      0x20\n        /* \"--CODEGEN--\":26678:26696   */\n      add\n      swap1\n        /* \"--CODEGEN--\":26664:26788   */\n      jump\t// out\n        /* \"--CODEGEN--\":26795:27051   */\n    tag_366:\n        /* \"--CODEGEN--\":26857:26859   */\n      0x40\n        /* \"--CODEGEN--\":26851:26860   */\n      mload\n        /* \"--CODEGEN--\":26883:26900   */\n      dup2\n      dup2\n      add\n        /* \"--CODEGEN--\":26958:26976   */\n      0xffffffffffffffff\n        /* \"--CODEGEN--\":26943:26977   */\n      dup2\n      gt\n        /* \"--CODEGEN--\":26979:27001   */\n      dup3\n      dup3\n      lt\n        /* \"--CODEGEN--\":26940:27002   */\n      or\n        /* \"--CODEGEN--\":26937:26939   */\n      iszero\n      tag_506\n      jumpi\n        /* \"--CODEGEN--\":27015:27016   */\n      0x00\n      dup1\n        /* \"--CODEGEN--\":27005:27017   */\n      revert\n        /* \"--CODEGEN--\":26937:26939   */\n    tag_506:\n        /* \"--CODEGEN--\":26857:26859   */\n      0x40\n        /* \"--CODEGEN--\":27024:27046   */\n      mstore\n        /* \"--CODEGEN--\":26835:27051   */\n      swap2\n      swap1\n      pop\n      jump\t// out\n        /* \"--CODEGEN--\":27369:27691   */\n    tag_395:\n      0x00\n        /* \"--CODEGEN--\":27513:27531   */\n      0xffffffffffffffff\n        /* \"--CODEGEN--\":27505:27511   */\n      dup3\n        /* \"--CODEGEN--\":27502:27532   */\n      gt\n        /* \"--CODEGEN--\":27499:27501   */\n      iszero\n      tag_508\n      jumpi\n      dup1\n      dup2\n        /* \"--CODEGEN--\":27535:27547   */\n      revert\n        /* \"--CODEGEN--\":27499:27501   */\n    tag_508:\n      pop\n        /* \"--CODEGEN--\":31431:31438   */\n      0x1f\n        /* \"--CODEGEN--\":27589:27606   */\n      add\n      not(0x1f)\n        /* \"--CODEGEN--\":27585:27618   */\n      and\n        /* \"--CODEGEN--\":27676:27680   */\n      0x20\n        /* \"--CODEGEN--\":27666:27681   */\n      add\n      swap1\n        /* \"--CODEGEN--\":27436:27691   */\n      jump\t// out\n        /* \"--CODEGEN--\":27698:27896   */\n    tag_480:\n      0x00\n        /* \"--CODEGEN--\":27833:27847   */\n      swap1\n      dup2\n      mstore\n        /* \"--CODEGEN--\":27875:27879   */\n      0x20\n        /* \"--CODEGEN--\":27862:27880   */\n      swap1\n      keccak256\n      swap1\n        /* \"--CODEGEN--\":27792:27896   */\n      jump\t// out\n        /* \"--CODEGEN--\":30529:30797   */\n    tag_447:\n        /* \"--CODEGEN--\":30594:30595   */\n      0x00\n        /* \"--CODEGEN--\":30601:30702   */\n    tag_512:\n        /* \"--CODEGEN--\":30615:30621   */\n      dup4\n        /* \"--CODEGEN--\":30612:30613   */\n      dup2\n        /* \"--CODEGEN--\":30609:30622   */\n      lt\n        /* \"--CODEGEN--\":30601:30702   */\n      iszero\n      tag_514\n      jumpi\n        /* \"--CODEGEN--\":30682:30693   */\n      dup2\n      dup2\n      add\n        /* \"--CODEGEN--\":30676:30694   */\n      mload\n        /* \"--CODEGEN--\":30663:30674   */\n      dup4\n      dup3\n      add\n        /* \"--CODEGEN--\":30656:30695   */\n      mstore\n        /* \"--CODEGEN--\":30637:30639   */\n      0x20\n        /* \"--CODEGEN--\":30630:30640   */\n      add\n        /* \"--CODEGEN--\":30601:30702   */\n      jump(tag_512)\n    tag_514:\n        /* \"--CODEGEN--\":30717:30723   */\n      dup4\n        /* \"--CODEGEN--\":30714:30715   */\n      dup2\n        /* \"--CODEGEN--\":30711:30724   */\n      gt\n        /* \"--CODEGEN--\":30708:30710   */\n      iszero\n      tag_515\n      jumpi\n        /* \"--CODEGEN--\":30594:30595   */\n      0x00\n        /* \"--CODEGEN--\":30773:30779   */\n      dup5\n        /* \"--CODEGEN--\":30768:30771   */\n      dup5\n        /* \"--CODEGEN--\":30764:30780   */\n      add\n        /* \"--CODEGEN--\":30757:30784   */\n      mstore\n        /* \"--CODEGEN--\":30708:30710   */\n    tag_515:\n      pop\n        /* \"--CODEGEN--\":30578:30797   */\n      pop\n      pop\n      pop\n      jump\t// out\n        /* \"--CODEGEN--\":31790:31900   */\n    tag_490:\n        /* \"--CODEGEN--\":31878:31879   */\n      0x05\n        /* \"--CODEGEN--\":31871:31876   */\n      dup2\n        /* \"--CODEGEN--\":31868:31880   */\n      lt\n        /* \"--CODEGEN--\":31858:31860   */\n      tag_517\n      jumpi\n        /* \"--CODEGEN--\":31884:31893   */\n      invalid\n        /* \"--CODEGEN--\":31858:31860   */\n    tag_517:\n        /* \"--CODEGEN--\":31852:31900   */\n      pop\n      jump\t// out\n        /* \"--CODEGEN--\":31907:32024   */\n    tag_360:\n      sub(shl(0xa0, 0x01), 0x01)\n        /* \"--CODEGEN--\":29123:29177   */\n      dup2\n      and\n        /* \"--CODEGEN--\":31966:32001   */\n      dup2\n      eq\n        /* \"--CODEGEN--\":31956:31958   */\n      tag_517\n      jumpi\n        /* \"--CODEGEN--\":32015:32016   */\n      0x00\n      dup1\n        /* \"--CODEGEN--\":32005:32017   */\n      revert\n        /* \"--CODEGEN--\":32031:32142   */\n    tag_380:\n        /* \"--CODEGEN--\":32112:32117   */\n      dup1\n        /* \"--CODEGEN--\":29575:29588   */\n      iszero\n        /* \"--CODEGEN--\":29568:29589   */\n      iszero\n        /* \"--CODEGEN--\":32090:32095   */\n      dup2\n        /* \"--CODEGEN--\":32087:32119   */\n      eq\n        /* \"--CODEGEN--\":32077:32079   */\n      tag_517\n      jumpi\n        /* \"--CODEGEN--\":32133:32134   */\n      0x00\n      dup1\n        /* \"--CODEGEN--\":32123:32135   */\n      revert\n\n    auxdata: 0xa26469706673582212201635b1f874a724e85bbb1d43084d7c921f6e5200139cb04174148fb03d462ac864736f6c634300060c0033\n}\n",
				"bytecode": {
					"linkReferences": {},
					"object": "608060405234801561001057600080fd5b506122b8806100206000396000f3fe608060405234801561001057600080fd5b50600436106101005760003560e01c806398ee9a1311610097578063bec69b4f11610066578063bec69b4f1461020d578063e316e29714610220578063f2fde38b14610233578063fc57d4df1461024657610100565b806398ee9a13146101bd5780639e237b1c146101d0578063a00a8b2c146101e3578063a22e6ee31461020557610100565b8063715018a6116100d3578063715018a61461017a57806371cc09a9146101825780638341301a146101955780638da5cb5b146101b557610100565b80630e4230a0146101055780631b69dc5f1461011a57806343f5ae361461014757806349b39fd614610167575b600080fd5b6101186101133660046119cf565b610259565b005b61012d610128366004611997565b610545565b60405161013e959493929190611db8565b60405180910390f35b61015a610155366004611997565b61060f565b60405161013e91906121c2565b610118610175366004611ad2565b61062e565b61011861070e565b610118610190366004611a9a565b610797565b6101a86101a3366004611997565b61086e565b60405161013e9190611da4565b6101a8610889565b6101186101cb366004611b63565b610898565b61015a6101de366004611ad2565b610971565b6101f66101f1366004611ad2565b610aea565b60405161013e93929190611f41565b6101a8610b34565b61011861021b366004611997565b610b43565b61011861022e366004611afd565b610ba4565b610118610241366004611997565b610d28565b61015a610254366004611997565b610de9565b610261610ffd565b6001600160a01b0316610272610889565b6001600160a01b0316146102a15760405162461bcd60e51b81526004016102989061212f565b60405180910390fd5b825181146102c15760405162461bcd60e51b81526004016102989061209d565b6001600160a01b0380891660009081526097602052604090208054909116156102fc5760405162461bcd60e51b81526004016102989061200b565b80546001600160a01b03808b166001600160a01b0319928316178355600183018054918b1691909216179055865161033d90600283019060208a019061174c565b506003810186905560048101805460ff19168615151790556001600160a01b03891660009081526098602052604090205460011161038d5760405162461bcd60e51b81526004016102989061200b565b60005b84518110156104a8576000609860008c6001600160a01b03166001600160a01b0316815260200190815260200160002090508060405180606001604052808885815181106103da57fe5b60200260200101516001600160a01b031681526020018787868181106103fc57fe5b90506020020160208101906104119190611bc4565b600481111561041c57fe5b815260016020918201819052835490810184556000938452928190208251930180546001600160a01b0319166001600160a01b03909416939093178084559082015191929190829060ff60a01b1916600160a01b83600481111561047c57fe5b0217905550604091909101518154901515600160a81b0260ff60a81b1990911617905550600101610390565b507f7e55bc43e6f0111474264fd86152c4a3e172abc29a15f5474298510ce6ff69ea89898989896040516104e0959493929190611db8565b60405180910390a16001600160a01b0389166000908152609860205260409081902090517f3305406be9630a8e3735461ddfb1c43204cdc73f28649e8038cafb44584d14bc91610532918c9190611ebf565b60405180910390a1505050505050505050565b60976020908152600091825260409182902080546001808301546002808501805488516101009582161595909502600019011691909104601f81018790048702840187019097528683526001600160a01b03938416969390911694919290918301828280156105f55780601f106105ca576101008083540402835291602001916105f5565b820191906000526020600020905b8154815290600101906020018083116105d857829003601f168201915b50505050600383015460049093015491929160ff16905085565b6001600160a01b0381166000908152609860205260409020545b919050565b610636610ffd565b6001600160a01b0316610647610889565b6001600160a01b03161461066d5760405162461bcd60e51b81526004016102989061212f565b6001600160a01b03808316600090815260976020526040902080549091166106a75760405162461bcd60e51b81526004016102989061200b565b60038101829055600181015460048201546040517f7e55bc43e6f0111474264fd86152c4a3e172abc29a15f5474298510ce6ff69ea926107019287926001600160a01b03909216916002870191889160ff90911690611dfd565b60405180910390a1505050565b610716610ffd565b6001600160a01b0316610727610889565b6001600160a01b03161461074d5760405162461bcd60e51b81526004016102989061212f565b6065546040516000916001600160a01b0316907f8be0079c531659141344cd1fd0a4f28419497f9722a3daafe3b4186f6b6457e0908390a3606580546001600160a01b0319169055565b61079f610ffd565b6001600160a01b03166107b0610889565b6001600160a01b0316146107d65760405162461bcd60e51b81526004016102989061212f565b6001600160a01b03808316600090815260976020526040902080549091166108105760405162461bcd60e51b81526004016102989061200b565b60048101805460ff1916831515179055600181015460038201546040517f7e55bc43e6f0111474264fd86152c4a3e172abc29a15f5474298510ce6ff69ea926107019287926001600160a01b03909216916002870191908890611dfd565b6099602052600090815260409020546001600160a01b031681565b6065546001600160a01b031690565b6108a0610ffd565b6001600160a01b03166108b1610889565b6001600160a01b0316146108d75760405162461bcd60e51b81526004016102989061212f565b80518251146108f85760405162461bcd60e51b815260040161029890612164565b60005b825181101561096c57600083828151811061091257fe5b6020026020010151905082828151811061092857fe5b6020908102919091018101516001600160a01b0392831660009081526099909252604090912080546001600160a01b031916929091169190911790556001016108fb565b505050565b6001600160a01b03828116600090815260976020908152604080832060988352818420825160a081018452825487168152600180840154909716818601526002808401805486516101009a8216159a909a02600019011691909104601f81018790048702890187018652808952969793969295610adf958b9593948994918601939192830182828015610a455780601f10610a1a57610100808354040283529160200191610a45565b820191906000526020600020905b815481529060010190602001808311610a2857829003601f168201915b50505091835250506003820154602082015260049091015460ff1615156040909101528354849088908110610a7657fe5b60009182526020918290206040805160608101909152910180546001600160a01b03811683529192909190830190600160a01b900460ff166004811115610ab957fe5b6004811115610ac457fe5b81529054600160a81b900460ff161515602090910152611001565b925050505b92915050565b60986020528160005260406000208181548110610b0357fe5b6000918252602090912001546001600160a01b038116925060ff600160a01b820481169250600160a81b9091041683565b609a546001600160a01b031681565b610b4b610ffd565b6001600160a01b0316610b5c610889565b6001600160a01b031614610b825760405162461bcd60e51b81526004016102989061212f565b609a80546001600160a01b0319166001600160a01b0392909216919091179055565b610bac610ffd565b6001600160a01b0316610bbd610889565b6001600160a01b031614610be35760405162461bcd60e51b81526004016102989061212f565b6001600160a01b03851660009081526098602052604090208054851015610c75576000818681548110610c1257fe5b600091825260209091200180546001600160a01b0319166001600160a01b038716178082559091508490829060ff60a01b1916600160a01b836004811115610c5657fe5b0217905550805460ff60a81b1916600160a81b84151502179055610d20565b806040518060600160405280866001600160a01b03168152602001856004811115610c9c57fe5b815284151560209182015282546001810184556000938452928190208251930180546001600160a01b0319166001600160a01b03909416939093178084559082015191929190829060ff60a01b1916600160a01b836004811115610cfc57fe5b0217905550604091909101518154901515600160a81b0260ff60a81b199091161790555b505050505050565b610d30610ffd565b6001600160a01b0316610d41610889565b6001600160a01b031614610d675760405162461bcd60e51b81526004016102989061212f565b6001600160a01b038116610d8d5760405162461bcd60e51b815260040161029890611f83565b6065546040516001600160a01b038084169216907f8be0079c531659141344cd1fd0a4f28419497f9722a3daafe3b4186f6b6457e090600090a3606580546001600160a01b0319166001600160a01b0392909216919091179055565b6001600160a01b0381166000908152609760205260408120600481015482919060ff1615610e4657600381015460019250610e3d90610e37846ec097ce7bc90715b34b9f10000000006111e8565b90611222565b92505050610629565b6001600160a01b0384166000908152609860205260408120905b8154811015610fd1576000828281548110610e7757fe5b60009182526020909120018054909150600160a81b900460ff16151560011415610fc8576040805160a08101825285546001600160a01b0390811682526001808801549091166020808401919091526002808901805486516101009582161595909502600019011691909104601f81018390048302840183018652808452610fb3958d95948b949186019390929091830182828015610f575780601f10610f2c57610100808354040283529160200191610f57565b820191906000526020600020905b815481529060010190602001808311610f3a57829003601f168201915b5050509183525050600382015460208083019190915260049283015460ff908116151560409384015282516060810190935287546001600160a01b03811684529293889392850192600160a01b900490911690811115610ab957fe5b94508415610fc8578495505050505050610629565b50600101610e60565b5060008311610ff25760405162461bcd60e51b815260040161029890612066565b506000949350505050565b3390565b60008073eeeeeeeeeeeeeeeeeeeeeeeeeeeeeeeeeeeeeeee905060008590506110bc816001600160a01b03166395d89b416040518163ffffffff1660e01b815260040160006040518083038186803b15801561105c57600080fd5b505afa158015611070573d6000803e3d6000fd5b505050506040513d6000823e601f3d908101601f191682016040526110989190810190611bdf565b60405180604001604052806006815260200165704d4154494360d01b815250611254565b61113457856001600160a01b0316636f307dc36040518163ffffffff1660e01b815260040160206040518083038186803b1580156110f957600080fd5b505afa15801561110d573d6000803e3d6000fd5b505050506040513d601f19601f8201168201806040525081019061113191906119b3565b91505b6020840151600081600481111561114757fe5b14156111615761115785876112ad565b93505050506111e1565b600181600481111561116f57fe5b141561117f57611157858761138f565b600281600481111561118d57fe5b141561119d576111578587611457565b60038160048111156111ab57fe5b14156111bb576111578587611573565b60048160048111156111c957fe5b14156111d95761115785876115ac565b600093505050505b9392505050565b6000826111f757506000610ae4565b8282028284828161120457fe5b04146111e15760405162461bcd60e51b8152600401610298906120ee565b60008082116112435760405162461bcd60e51b81526004016102989061202f565b81838161124c57fe5b049392505050565b6000816040516020016112679190611d88565b604051602081830303815290604052805190602001208360405160200161128e9190611d88565b6040516020818303038152906040528051906020012014905092915050565b6000808260600151116112d25760405162461bcd60e51b815260040161029890611fc9565b6000836000015190506000816001600160a01b031663feaf968c6040518163ffffffff1660e01b815260040160a06040518083038186803b15801561131657600080fd5b505afa15801561132a573d6000803e3d6000fd5b505050506040513d601f19601f8201168201806040525081019061134e9190611d05565b5050509150506000811361136757600092505050610ae4565b606084015161138690610e37836b204fce5e3e250261100000006111e8565b92505050610ae4565b81516020820151604051630141c63160e51b815260009291829184916001600160a01b03841691632838c620916113c891600401611da4565b60206040518083038186803b1580156113e057600080fd5b505afa1580156113f4573d6000803e3d6000fd5b505050506040513d601f19601f820116820180604052508101906114189190611ced565b90506000811161142e5760009350505050610ae4565b606085015161144d90610e37836b204fce5e3e250261100000006111e8565b9350505050610ae4565b8151600090806114656117ca565b60408086015190516313b6165d60e11b81526001600160a01b0384169163276c2cba916114959190600401611f70565b6101006040518083038186803b1580156114ae57600080fd5b505afa1580156114c2573d6000803e3d6000fd5b505050506040513d601f19601f820116820180604052508101906114e69190611c52565b805160405163fc57d4df60e01b8152919250906001600160a01b0384169063fc57d4df90611518908490600401611da4565b60206040518083038186803b15801561153057600080fd5b505afa158015611544573d6000803e3d6000fd5b505050506040513d601f19601f820116820180604052508101906115689190611ced565b979650505050505050565b815160208201516040516341976e0960e01b815260009291829184916001600160a01b038416916341976e09916113c891600401611da4565b6000808260600151116115d15760405162461bcd60e51b815260040161029890611fc9565b6020808301516001600160a01b03808216600090815260999093526040808420548151633fabe5a360e21b815291519394921692839163feaf968c9160048083019260a0929190829003018186803b15801561162c57600080fd5b505afa158015611640573d6000803e3d6000fd5b505050506040513d601f19601f820116820180604052508101906116649190611d05565b5050509150506000609a60009054906101000a90046001600160a01b031690506000816001600160a01b031663feaf968c6040518163ffffffff1660e01b815260040160a06040518083038186803b1580156116bf57600080fd5b505afa1580156116d3573d6000803e3d6000fd5b505050506040513d601f19601f820116820180604052508101906116f79190611d05565b5050509150506000831361171357600095505050505050610ae4565b606087015161173590610e376402540be40061172f87866111e8565b906111e8565b95505050505050610ae4565b505050505092915050565b828054600181600116156101000203166002900490600052602060002090601f016020900481019282601f1061178d57805160ff19168380011785556117ba565b828001600101855582156117ba579182015b828111156117ba57825182559160200191906001019061179f565b506117c692915061180f565b5090565b60408051610100810182526000808252602082018190529181018290526060810182905290608082019081526000602082018190526040820181905260609091015290565b5b808211156117c65760008155600101611810565b8051610ae48161225f565b600082601f83011261183f578081fd5b813567ffffffffffffffff811115611855578182fd5b60208082026118658282016121cb565b8381529350818401858301828701840188101561188157600080fd5b600092505b848310156117415780356118998161225f565b825260019290920191908301908301611886565b60008083601f8401126118be578081fd5b50813567ffffffffffffffff8111156118d5578182fd5b60208301915083602080830285010111156118ef57600080fd5b9250929050565b8035610ae481612274565b8051610ae481612274565b803560058110610ae457600080fd5b805160038110610ae457600080fd5b600082601f83011261193a578081fd5b813561194d611948826121f2565b6121cb565b915080825283602082850101111561196457600080fd5b8060208401602084013760009082016020015292915050565b805169ffffffffffffffffffff81168114610ae457600080fd5b6000602082840312156119a8578081fd5b81356111e18161225f565b6000602082840312156119c4578081fd5b81516111e18161225f565b60008060008060008060008060e0898b0312156119ea578384fd5b88356119f58161225f565b97506020890135611a058161225f565b9650604089013567ffffffffffffffff80821115611a21578586fd5b611a2d8c838d0161192a565b975060608b01359650611a438c60808d016118f6565b955060a08b0135915080821115611a58578485fd5b611a648c838d0161182f565b945060c08b0135915080821115611a79578384fd5b50611a868b828c016118ad565b999c989b5096995094979396929594505050565b60008060408385031215611aac578182fd5b8235611ab78161225f565b91506020830135611ac781612274565b809150509250929050565b60008060408385031215611ae4578182fd5b8235611aef8161225f565b946020939093013593505050565b600080600080600060a08688031215611b14578081fd5b8535611b1f8161225f565b9450602086013593506040860135611b368161225f565b9250611b45876060880161190c565b91506080860135611b5581612274565b809150509295509295909350565b60008060408385031215611b75578182fd5b823567ffffffffffffffff80821115611b8c578384fd5b611b988683870161182f565b93506020850135915080821115611bad578283fd5b50611bba8582860161182f565b9150509250929050565b600060208284031215611bd5578081fd5b6111e1838361190c565b600060208284031215611bf0578081fd5b815167ffffffffffffffff811115611c06578182fd5b8201601f81018413611c16578182fd5b8051611c24611948826121f2565b818152856020838501011115611c38578384fd5b611c49826020830160208601612222565b95945050505050565b6000610100808385031215611c65578182fd5b611c6e816121cb565b90508251611c7b8161225f565b81526020830151611c8b8161225f565b806020830152506040830151604082015260608301516060820152611cb3846080850161191b565b608082015260a083015160a0820152611ccf8460c08501611824565b60c0820152611ce18460e08501611901565b60e08201529392505050565b600060208284031215611cfe578081fd5b5051919050565b600080600080600060a08688031215611d1c578283fd5b611d26878761197d565b9450602086015193506040860151925060608601519150611d4a876080880161197d565b90509295509295909350565b15159052565b60008151808452611d74816020860160208601612222565b601f01601f19169290920160200192915050565b60008251611d9a818460208701612222565b9190910192915050565b6001600160a01b0391909116815260200190565b6001600160a01b0386811682528516602082015260a060408201819052600090611de490830186611d5c565b6060830194909452509015156080909101529392505050565b600060a0820160018060a01b03808916845260208189168186015260a060408601528391508754600180821660008114611e3e5760018114611e5e57611e99565b611e4e607f6002850416876121c2565b60ff198416815284019450611e99565b60028304611e6c81886121c2565b611e758d612216565b895b83811015611e9057815483820152908501908701611e77565b91909101965050505b505050508092505050836060830152611eb56080830184611d56565b9695505050505050565b6000604080830160018060a01b03808716855260208381870152828754808552606094508488019150888752828720875b82811015611f31578154868116855260ff808260a01c16611f1081612252565b8688015260a89190911c161515888501529286019260019182019101611ef0565b50919a9950505050505050505050565b6001600160a01b038416815260608101611f5a84612252565b8360208301528215156040830152949350505050565b6000602082526111e16020830184611d5c565b60208082526026908201527f4f776e61626c653a206e6577206f776e657220697320746865207a65726f206160408201526564647265737360d01b606082015260800190565b60208082526022908201527f62617365556e6974206d7573742062652067726561746572207468616e207a65604082015261726f60f01b606082015260800190565b6020808252600a908201526962616420706172616d7360b01b604082015260600190565b6020808252601a908201527f536166654d6174683a206469766973696f6e206279207a65726f000000000000604082015260600190565b6020808252601b908201527f7072696365206d75737420626967676572207468616e207a65726f0000000000604082015260600190565b60208082526031908201527f736f7572636554797065732e6c656e677468206d75737420657175616c2074686040820152700c2dc40e6deeae4c6cae65cd8cadccee8d607b1b606082015260800190565b60208082526021908201527f536166654d6174683a206d756c7469706c69636174696f6e206f766572666c6f6040820152607760f81b606082015260800190565b6020808252818101527f4f776e61626c653a2063616c6c6572206973206e6f7420746865206f776e6572604082015260600190565b602080825260409082018190527f746f6b656e732e6c656e677468206d75737420657175616c207468616e206368908201527f61696e4c696e6b546f6b656e457468507269636546656564732e6c656e677468606082015260800190565b90815260200190565b60405181810167ffffffffffffffff811182821017156121ea57600080fd5b604052919050565b600067ffffffffffffffff821115612208578081fd5b50601f01601f191660200190565b60009081526020902090565b60005b8381101561223d578181015183820152602001612225565b8381111561224c576000848401525b50505050565b6005811061225c57fe5b50565b6001600160a01b038116811461225c57600080fd5b801515811461225c57600080fdfea26469706673582212201635b1f874a724e85bbb1d43084d7c921f6e5200139cb04174148fb03d462ac864736f6c634300060c0033",
					"opcodes": "PUSH1 0x80 PUSH1 0x40 MSTORE CALLVALUE DUP1 ISZERO PUSH2 0x10 JUMPI PUSH1 0x0 DUP1 REVERT JUMPDEST POP PUSH2 0x22B8 DUP1 PUSH2 0x20 PUSH1 0x0 CODECOPY PUSH1 0x0 RETURN INVALID PUSH1 0x80 PUSH1 0x40 MSTORE CALLVALUE DUP1 ISZERO PUSH2 0x10 JUMPI PUSH1 0x0 DUP1 REVERT JUMPDEST POP PUSH1 0x4 CALLDATASIZE LT PUSH2 0x100 JUMPI PUSH1 0x0 CALLDATALOAD PUSH1 0xE0 SHR DUP1 PUSH4 0x98EE9A13 GT PUSH2 0x97 JUMPI DUP1 PUSH4 0xBEC69B4F GT PUSH2 0x66 JUMPI DUP1 PUSH4 0xBEC69B4F EQ PUSH2 0x20D JUMPI DUP1 PUSH4 0xE316E297 EQ PUSH2 0x220 JUMPI DUP1 PUSH4 0xF2FDE38B EQ PUSH2 0x233 JUMPI DUP1 PUSH4 0xFC57D4DF EQ PUSH2 0x246 JUMPI PUSH2 0x100 JUMP JUMPDEST DUP1 PUSH4 0x98EE9A13 EQ PUSH2 0x1BD JUMPI DUP1 PUSH4 0x9E237B1C EQ PUSH2 0x1D0 JUMPI DUP1 PUSH4 0xA00A8B2C EQ PUSH2 0x1E3 JUMPI DUP1 PUSH4 0xA22E6EE3 EQ PUSH2 0x205 JUMPI PUSH2 0x100 JUMP JUMPDEST DUP1 PUSH4 0x715018A6 GT PUSH2 0xD3 JUMPI DUP1 PUSH4 0x715018A6 EQ PUSH2 0x17A JUMPI DUP1 PUSH4 0x71CC09A9 EQ PUSH2 0x182 JUMPI DUP1 PUSH4 0x8341301A EQ PUSH2 0x195 JUMPI DUP1 PUSH4 0x8DA5CB5B EQ PUSH2 0x1B5 JUMPI PUSH2 0x100 JUMP JUMPDEST DUP1 PUSH4 0xE4230A0 EQ PUSH2 0x105 JUMPI DUP1 PUSH4 0x1B69DC5F EQ PUSH2 0x11A JUMPI DUP1 PUSH4 0x43F5AE36 EQ PUSH2 0x147 JUMPI DUP1 PUSH4 0x49B39FD6 EQ PUSH2 0x167 JUMPI JUMPDEST PUSH1 0x0 DUP1 REVERT JUMPDEST PUSH2 0x118 PUSH2 0x113 CALLDATASIZE PUSH1 0x4 PUSH2 0x19CF JUMP JUMPDEST PUSH2 0x259 JUMP JUMPDEST STOP JUMPDEST PUSH2 0x12D PUSH2 0x128 CALLDATASIZE PUSH1 0x4 PUSH2 0x1997 JUMP JUMPDEST PUSH2 0x545 JUMP JUMPDEST PUSH1 0x40 MLOAD PUSH2 0x13E SWAP6 SWAP5 SWAP4 SWAP3 SWAP2 SWAP1 PUSH2 0x1DB8 JUMP JUMPDEST PUSH1 0x40 MLOAD DUP1 SWAP2 SUB SWAP1 RETURN JUMPDEST PUSH2 0x15A PUSH2 0x155 CALLDATASIZE PUSH1 0x4 PUSH2 0x1997 JUMP JUMPDEST PUSH2 0x60F JUMP JUMPDEST PUSH1 0x40 MLOAD PUSH2 0x13E SWAP2 SWAP1 PUSH2 0x21C2 JUMP JUMPDEST PUSH2 0x118 PUSH2 0x175 CALLDATASIZE PUSH1 0x4 PUSH2 0x1AD2 JUMP JUMPDEST PUSH2 0x62E JUMP JUMPDEST PUSH2 0x118 PUSH2 0x70E JUMP JUMPDEST PUSH2 0x118 PUSH2 0x190 CALLDATASIZE PUSH1 0x4 PUSH2 0x1A9A JUMP JUMPDEST PUSH2 0x797 JUMP JUMPDEST PUSH2 0x1A8 PUSH2 0x1A3 CALLDATASIZE PUSH1 0x4 PUSH2 0x1997 JUMP JUMPDEST PUSH2 0x86E JUMP JUMPDEST PUSH1 0x40 MLOAD PUSH2 0x13E SWAP2 SWAP1 PUSH2 0x1DA4 JUMP JUMPDEST PUSH2 0x1A8 PUSH2 0x889 JUMP JUMPDEST PUSH2 0x118 PUSH2 0x1CB CALLDATASIZE PUSH1 0x4 PUSH2 0x1B63 JUMP JUMPDEST PUSH2 0x898 JUMP JUMPDEST PUSH2 0x15A PUSH2 0x1DE CALLDATASIZE PUSH1 0x4 PUSH2 0x1AD2 JUMP JUMPDEST PUSH2 0x971 JUMP JUMPDEST PUSH2 0x1F6 PUSH2 0x1F1 CALLDATASIZE PUSH1 0x4 PUSH2 0x1AD2 JUMP JUMPDEST PUSH2 0xAEA JUMP JUMPDEST PUSH1 0x40 MLOAD PUSH2 0x13E SWAP4 SWAP3 SWAP2 SWAP1 PUSH2 0x1F41 JUMP JUMPDEST PUSH2 0x1A8 PUSH2 0xB34 JUMP JUMPDEST PUSH2 0x118 PUSH2 0x21B CALLDATASIZE PUSH1 0x4 PUSH2 0x1997 JUMP JUMPDEST PUSH2 0xB43 JUMP JUMPDEST PUSH2 0x118 PUSH2 0x22E CALLDATASIZE PUSH1 0x4 PUSH2 0x1AFD JUMP JUMPDEST PUSH2 0xBA4 JUMP JUMPDEST PUSH2 0x118 PUSH2 0x241 CALLDATASIZE PUSH1 0x4 PUSH2 0x1997 JUMP JUMPDEST PUSH2 0xD28 JUMP JUMPDEST PUSH2 0x15A PUSH2 0x254 CALLDATASIZE PUSH1 0x4 PUSH2 0x1997 JUMP JUMPDEST PUSH2 0xDE9 JUMP JUMPDEST PUSH2 0x261 PUSH2 0xFFD JUMP JUMPDEST PUSH1 0x1 PUSH1 0x1 PUSH1 0xA0 SHL SUB AND PUSH2 0x272 PUSH2 0x889 JUMP JUMPDEST PUSH1 0x1 PUSH1 0x1 PUSH1 0xA0 SHL SUB AND EQ PUSH2 0x2A1 JUMPI PUSH1 0x40 MLOAD PUSH3 0x461BCD PUSH1 0xE5 SHL DUP2 MSTORE PUSH1 0x4 ADD PUSH2 0x298 SWAP1 PUSH2 0x212F JUMP JUMPDEST PUSH1 0x40 MLOAD DUP1 SWAP2 SUB SWAP1 REVERT JUMPDEST DUP3 MLOAD DUP2 EQ PUSH2 0x2C1 JUMPI PUSH1 0x40 MLOAD PUSH3 0x461BCD PUSH1 0xE5 SHL DUP2 MSTORE PUSH1 0x4 ADD PUSH2 0x298 SWAP1 PUSH2 0x209D JUMP JUMPDEST PUSH1 0x1 PUSH1 0x1 PUSH1 0xA0 SHL SUB DUP1 DUP10 AND PUSH1 0x0 SWAP1 DUP2 MSTORE PUSH1 0x97 PUSH1 0x20 MSTORE PUSH1 0x40 SWAP1 KECCAK256 DUP1 SLOAD SWAP1 SWAP2 AND ISZERO PUSH2 0x2FC JUMPI PUSH1 0x40 MLOAD PUSH3 0x461BCD PUSH1 0xE5 SHL DUP2 MSTORE PUSH1 0x4 ADD PUSH2 0x298 SWAP1 PUSH2 0x200B JUMP JUMPDEST DUP1 SLOAD PUSH1 0x1 PUSH1 0x1 PUSH1 0xA0 SHL SUB DUP1 DUP12 AND PUSH1 0x1 PUSH1 0x1 PUSH1 0xA0 SHL SUB NOT SWAP3 DUP4 AND OR DUP4 SSTORE PUSH1 0x1 DUP4 ADD DUP1 SLOAD SWAP2 DUP12 AND SWAP2 SWAP1 SWAP3 AND OR SWAP1 SSTORE DUP7 MLOAD PUSH2 0x33D SWAP1 PUSH1 0x2 DUP4 ADD SWAP1 PUSH1 0x20 DUP11 ADD SWAP1 PUSH2 0x174C JUMP JUMPDEST POP PUSH1 0x3 DUP2 ADD DUP7 SWAP1 SSTORE PUSH1 0x4 DUP2 ADD DUP1 SLOAD PUSH1 0xFF NOT AND DUP7 ISZERO ISZERO OR SWAP1 SSTORE PUSH1 0x1 PUSH1 0x1 PUSH1 0xA0 SHL SUB DUP10 AND PUSH1 0x0 SWAP1 DUP2 MSTORE PUSH1 0x98 PUSH1 0x20 MSTORE PUSH1 0x40 SWAP1 KECCAK256 SLOAD PUSH1 0x1 GT PUSH2 0x38D JUMPI PUSH1 0x40 MLOAD PUSH3 0x461BCD PUSH1 0xE5 SHL DUP2 MSTORE PUSH1 0x4 ADD PUSH2 0x298 SWAP1 PUSH2 0x200B JUMP JUMPDEST PUSH1 0x0 JUMPDEST DUP5 MLOAD DUP2 LT ISZERO PUSH2 0x4A8 JUMPI PUSH1 0x0 PUSH1 0x98 PUSH1 0x0 DUP13 PUSH1 0x1 PUSH1 0x1 PUSH1 0xA0 SHL SUB AND PUSH1 0x1 PUSH1 0x1 PUSH1 0xA0 SHL SUB AND DUP2 MSTORE PUSH1 0x20 ADD SWAP1 DUP2 MSTORE PUSH1 0x20 ADD PUSH1 0x0 KECCAK256 SWAP1 POP DUP1 PUSH1 0x40 MLOAD DUP1 PUSH1 0x60 ADD PUSH1 0x40 MSTORE DUP1 DUP9 DUP6 DUP2 MLOAD DUP2 LT PUSH2 0x3DA JUMPI INVALID JUMPDEST PUSH1 0x20 MUL PUSH1 0x20 ADD ADD MLOAD PUSH1 0x1 PUSH1 0x1 PUSH1 0xA0 SHL SUB AND DUP2 MSTORE PUSH1 0x20 ADD DUP8 DUP8 DUP7 DUP2 DUP2 LT PUSH2 0x3FC JUMPI INVALID JUMPDEST SWAP1 POP PUSH1 0x20 MUL ADD PUSH1 0x20 DUP2 ADD SWAP1 PUSH2 0x411 SWAP2 SWAP1 PUSH2 0x1BC4 JUMP JUMPDEST PUSH1 0x4 DUP2 GT ISZERO PUSH2 0x41C JUMPI INVALID JUMPDEST DUP2 MSTORE PUSH1 0x1 PUSH1 0x20 SWAP2 DUP3 ADD DUP2 SWAP1 MSTORE DUP4 SLOAD SWAP1 DUP2 ADD DUP5 SSTORE PUSH1 0x0 SWAP4 DUP5 MSTORE SWAP3 DUP2 SWAP1 KECCAK256 DUP3 MLOAD SWAP4 ADD DUP1 SLOAD PUSH1 0x1 PUSH1 0x1 PUSH1 0xA0 SHL SUB NOT AND PUSH1 0x1 PUSH1 0x1 PUSH1 0xA0 SHL SUB SWAP1 SWAP5 AND SWAP4 SWAP1 SWAP4 OR DUP1 DUP5 SSTORE SWAP1 DUP3 ADD MLOAD SWAP2 SWAP3 SWAP2 SWAP1 DUP3 SWAP1 PUSH1 0xFF PUSH1 0xA0 SHL NOT AND PUSH1 0x1 PUSH1 0xA0 SHL DUP4 PUSH1 0x4 DUP2 GT ISZERO PUSH2 0x47C JUMPI INVALID JUMPDEST MUL OR SWAP1 SSTORE POP PUSH1 0x40 SWAP2 SWAP1 SWAP2 ADD MLOAD DUP2 SLOAD SWAP1 ISZERO ISZERO PUSH1 0x1 PUSH1 0xA8 SHL MUL PUSH1 0xFF PUSH1 0xA8 SHL NOT SWAP1 SWAP2 AND OR SWAP1 SSTORE POP PUSH1 0x1 ADD PUSH2 0x390 JUMP JUMPDEST POP PUSH32 0x7E55BC43E6F0111474264FD86152C4A3E172ABC29A15F5474298510CE6FF69EA DUP10 DUP10 DUP10 DUP10 DUP10 PUSH1 0x40 MLOAD PUSH2 0x4E0 SWAP6 SWAP5 SWAP4 SWAP3 SWAP2 SWAP1 PUSH2 0x1DB8 JUMP JUMPDEST PUSH1 0x40 MLOAD DUP1 SWAP2 SUB SWAP1 LOG1 PUSH1 0x1 PUSH1 0x1 PUSH1 0xA0 SHL SUB DUP10 AND PUSH1 0x0 SWAP1 DUP2 MSTORE PUSH1 0x98 PUSH1 0x20 MSTORE PUSH1 0x40 SWAP1 DUP2 SWAP1 KECCAK256 SWAP1 MLOAD PUSH32 0x3305406BE9630A8E3735461DDFB1C43204CDC73F28649E8038CAFB44584D14BC SWAP2 PUSH2 0x532 SWAP2 DUP13 SWAP2 SWAP1 PUSH2 0x1EBF JUMP JUMPDEST PUSH1 0x40 MLOAD DUP1 SWAP2 SUB SWAP1 LOG1 POP POP POP POP POP POP POP POP POP JUMP JUMPDEST PUSH1 0x97 PUSH1 0x20 SWAP1 DUP2 MSTORE PUSH1 0x0 SWAP2 DUP3 MSTORE PUSH1 0x40 SWAP2 DUP3 SWAP1 KECCAK256 DUP1 SLOAD PUSH1 0x1 DUP1 DUP4 ADD SLOAD PUSH1 0x2 DUP1 DUP6 ADD DUP1 SLOAD DUP9 MLOAD PUSH2 0x100 SWAP6 DUP3 AND ISZERO SWAP6 SWAP1 SWAP6 MUL PUSH1 0x0 NOT ADD AND SWAP2 SWAP1 SWAP2 DIV PUSH1 0x1F DUP2 ADD DUP8 SWAP1 DIV DUP8 MUL DUP5 ADD DUP8 ADD SWAP1 SWAP8 MSTORE DUP7 DUP4 MSTORE PUSH1 0x1 PUSH1 0x1 PUSH1 0xA0 SHL SUB SWAP4 DUP5 AND SWAP7 SWAP4 SWAP1 SWAP2 AND SWAP5 SWAP2 SWAP3 SWAP1 SWAP2 DUP4 ADD DUP3 DUP3 DUP1 ISZERO PUSH2 0x5F5 JUMPI DUP1 PUSH1 0x1F LT PUSH2 0x5CA JUMPI PUSH2 0x100 DUP1 DUP4 SLOAD DIV MUL DUP4 MSTORE SWAP2 PUSH1 0x20 ADD SWAP2 PUSH2 0x5F5 JUMP JUMPDEST DUP3 ADD SWAP2 SWAP1 PUSH1 0x0 MSTORE PUSH1 0x20 PUSH1 0x0 KECCAK256 SWAP1 JUMPDEST DUP2 SLOAD DUP2 MSTORE SWAP1 PUSH1 0x1 ADD SWAP1 PUSH1 0x20 ADD DUP1 DUP4 GT PUSH2 0x5D8 JUMPI DUP3 SWAP1 SUB PUSH1 0x1F AND DUP3 ADD SWAP2 JUMPDEST POP POP POP POP PUSH1 0x3 DUP4 ADD SLOAD PUSH1 0x4 SWAP1 SWAP4 ADD SLOAD SWAP2 SWAP3 SWAP2 PUSH1 0xFF AND SWAP1 POP DUP6 JUMP JUMPDEST PUSH1 0x1 PUSH1 0x1 PUSH1 0xA0 SHL SUB DUP2 AND PUSH1 0x0 SWAP1 DUP2 MSTORE PUSH1 0x98 PUSH1 0x20 MSTORE PUSH1 0x40 SWAP1 KECCAK256 SLOAD JUMPDEST SWAP2 SWAP1 POP JUMP JUMPDEST PUSH2 0x636 PUSH2 0xFFD JUMP JUMPDEST PUSH1 0x1 PUSH1 0x1 PUSH1 0xA0 SHL SUB AND PUSH2 0x647 PUSH2 0x889 JUMP JUMPDEST PUSH1 0x1 PUSH1 0x1 PUSH1 0xA0 SHL SUB AND EQ PUSH2 0x66D JUMPI PUSH1 0x40 MLOAD PUSH3 0x461BCD PUSH1 0xE5 SHL DUP2 MSTORE PUSH1 0x4 ADD PUSH2 0x298 SWAP1 PUSH2 0x212F JUMP JUMPDEST PUSH1 0x1 PUSH1 0x1 PUSH1 0xA0 SHL SUB DUP1 DUP4 AND PUSH1 0x0 SWAP1 DUP2 MSTORE PUSH1 0x97 PUSH1 0x20 MSTORE PUSH1 0x40 SWAP1 KECCAK256 DUP1 SLOAD SWAP1 SWAP2 AND PUSH2 0x6A7 JUMPI PUSH1 0x40 MLOAD PUSH3 0x461BCD PUSH1 0xE5 SHL DUP2 MSTORE PUSH1 0x4 ADD PUSH2 0x298 SWAP1 PUSH2 0x200B JUMP JUMPDEST PUSH1 0x3 DUP2 ADD DUP3 SWAP1 SSTORE PUSH1 0x1 DUP2 ADD SLOAD PUSH1 0x4 DUP3 ADD SLOAD PUSH1 0x40 MLOAD PUSH32 0x7E55BC43E6F0111474264FD86152C4A3E172ABC29A15F5474298510CE6FF69EA SWAP3 PUSH2 0x701 SWAP3 DUP8 SWAP3 PUSH1 0x1 PUSH1 0x1 PUSH1 0xA0 SHL SUB SWAP1 SWAP3 AND SWAP2 PUSH1 0x2 DUP8 ADD SWAP2 DUP9 SWAP2 PUSH1 0xFF SWAP1 SWAP2 AND SWAP1 PUSH2 0x1DFD JUMP JUMPDEST PUSH1 0x40 MLOAD DUP1 SWAP2 SUB SWAP1 LOG1 POP POP POP JUMP JUMPDEST PUSH2 0x716 PUSH2 0xFFD JUMP JUMPDEST PUSH1 0x1 PUSH1 0x1 PUSH1 0xA0 SHL SUB AND PUSH2 0x727 PUSH2 0x889 JUMP JUMPDEST PUSH1 0x1 PUSH1 0x1 PUSH1 0xA0 SHL SUB AND EQ PUSH2 0x74D JUMPI PUSH1 0x40 MLOAD PUSH3 0x461BCD PUSH1 0xE5 SHL DUP2 MSTORE PUSH1 0x4 ADD PUSH2 0x298 SWAP1 PUSH2 0x212F JUMP JUMPDEST PUSH1 0x65 SLOAD PUSH1 0x40 MLOAD PUSH1 0x0 SWAP2 PUSH1 0x1 PUSH1 0x1 PUSH1 0xA0 SHL SUB AND SWAP1 PUSH32 0x8BE0079C531659141344CD1FD0A4F28419497F9722A3DAAFE3B4186F6B6457E0 SWAP1 DUP4 SWAP1 LOG3 PUSH1 0x65 DUP1 SLOAD PUSH1 0x1 PUSH1 0x1 PUSH1 0xA0 SHL SUB NOT AND SWAP1 SSTORE JUMP JUMPDEST PUSH2 0x79F PUSH2 0xFFD JUMP JUMPDEST PUSH1 0x1 PUSH1 0x1 PUSH1 0xA0 SHL SUB AND PUSH2 0x7B0 PUSH2 0x889 JUMP JUMPDEST PUSH1 0x1 PUSH1 0x1 PUSH1 0xA0 SHL SUB AND EQ PUSH2 0x7D6 JUMPI PUSH1 0x40 MLOAD PUSH3 0x461BCD PUSH1 0xE5 SHL DUP2 MSTORE PUSH1 0x4 ADD PUSH2 0x298 SWAP1 PUSH2 0x212F JUMP JUMPDEST PUSH1 0x1 PUSH1 0x1 PUSH1 0xA0 SHL SUB DUP1 DUP4 AND PUSH1 0x0 SWAP1 DUP2 MSTORE PUSH1 0x97 PUSH1 0x20 MSTORE PUSH1 0x40 SWAP1 KECCAK256 DUP1 SLOAD SWAP1 SWAP2 AND PUSH2 0x810 JUMPI PUSH1 0x40 MLOAD PUSH3 0x461BCD PUSH1 0xE5 SHL DUP2 MSTORE PUSH1 0x4 ADD PUSH2 0x298 SWAP1 PUSH2 0x200B JUMP JUMPDEST PUSH1 0x4 DUP2 ADD DUP1 SLOAD PUSH1 0xFF NOT AND DUP4 ISZERO ISZERO OR SWAP1 SSTORE PUSH1 0x1 DUP2 ADD SLOAD PUSH1 0x3 DUP3 ADD SLOAD PUSH1 0x40 MLOAD PUSH32 0x7E55BC43E6F0111474264FD86152C4A3E172ABC29A15F5474298510CE6FF69EA SWAP3 PUSH2 0x701 SWAP3 DUP8 SWAP3 PUSH1 0x1 PUSH1 0x1 PUSH1 0xA0 SHL SUB SWAP1 SWAP3 AND SWAP2 PUSH1 0x2 DUP8 ADD SWAP2 SWAP1 DUP9 SWAP1 PUSH2 0x1DFD JUMP JUMPDEST PUSH1 0x99 PUSH1 0x20 MSTORE PUSH1 0x0 SWAP1 DUP2 MSTORE PUSH1 0x40 SWAP1 KECCAK256 SLOAD PUSH1 0x1 PUSH1 0x1 PUSH1 0xA0 SHL SUB AND DUP2 JUMP JUMPDEST PUSH1 0x65 SLOAD PUSH1 0x1 PUSH1 0x1 PUSH1 0xA0 SHL SUB AND SWAP1 JUMP JUMPDEST PUSH2 0x8A0 PUSH2 0xFFD JUMP JUMPDEST PUSH1 0x1 PUSH1 0x1 PUSH1 0xA0 SHL SUB AND PUSH2 0x8B1 PUSH2 0x889 JUMP JUMPDEST PUSH1 0x1 PUSH1 0x1 PUSH1 0xA0 SHL SUB AND EQ PUSH2 0x8D7 JUMPI PUSH1 0x40 MLOAD PUSH3 0x461BCD PUSH1 0xE5 SHL DUP2 MSTORE PUSH1 0x4 ADD PUSH2 0x298 SWAP1 PUSH2 0x212F JUMP JUMPDEST DUP1 MLOAD DUP3 MLOAD EQ PUSH2 0x8F8 JUMPI PUSH1 0x40 MLOAD PUSH3 0x461BCD PUSH1 0xE5 SHL DUP2 MSTORE PUSH1 0x4 ADD PUSH2 0x298 SWAP1 PUSH2 0x2164 JUMP JUMPDEST PUSH1 0x0 JUMPDEST DUP3 MLOAD DUP2 LT ISZERO PUSH2 0x96C JUMPI PUSH1 0x0 DUP4 DUP3 DUP2 MLOAD DUP2 LT PUSH2 0x912 JUMPI INVALID JUMPDEST PUSH1 0x20 MUL PUSH1 0x20 ADD ADD MLOAD SWAP1 POP DUP3 DUP3 DUP2 MLOAD DUP2 LT PUSH2 0x928 JUMPI INVALID JUMPDEST PUSH1 0x20 SWAP1 DUP2 MUL SWAP2 SWAP1 SWAP2 ADD DUP2 ADD MLOAD PUSH1 0x1 PUSH1 0x1 PUSH1 0xA0 SHL SUB SWAP3 DUP4 AND PUSH1 0x0 SWAP1 DUP2 MSTORE PUSH1 0x99 SWAP1 SWAP3 MSTORE PUSH1 0x40 SWAP1 SWAP2 KECCAK256 DUP1 SLOAD PUSH1 0x1 PUSH1 0x1 PUSH1 0xA0 SHL SUB NOT AND SWAP3 SWAP1 SWAP2 AND SWAP2 SWAP1 SWAP2 OR SWAP1 SSTORE PUSH1 0x1 ADD PUSH2 0x8FB JUMP JUMPDEST POP POP POP JUMP JUMPDEST PUSH1 0x1 PUSH1 0x1 PUSH1 0xA0 SHL SUB DUP3 DUP2 AND PUSH1 0x0 SWAP1 DUP2 MSTORE PUSH1 0x97 PUSH1 0x20 SWAP1 DUP2 MSTORE PUSH1 0x40 DUP1 DUP4 KECCAK256 PUSH1 0x98 DUP4 MSTORE DUP2 DUP5 KECCAK256 DUP3 MLOAD PUSH1 0xA0 DUP2 ADD DUP5 MSTORE DUP3 SLOAD DUP8 AND DUP2 MSTORE PUSH1 0x1 DUP1 DUP5 ADD SLOAD SWAP1 SWAP8 AND DUP2 DUP7 ADD MSTORE PUSH1 0x2 DUP1 DUP5 ADD DUP1 SLOAD DUP7 MLOAD PUSH2 0x100 SWAP11 DUP3 AND ISZERO SWAP11 SWAP1 SWAP11 MUL PUSH1 0x0 NOT ADD AND SWAP2 SWAP1 SWAP2 DIV PUSH1 0x1F DUP2 ADD DUP8 SWAP1 DIV DUP8 MUL DUP10 ADD DUP8 ADD DUP7 MSTORE DUP1 DUP10 MSTORE SWAP7 SWAP8 SWAP4 SWAP7 SWAP3 SWAP6 PUSH2 0xADF SWAP6 DUP12 SWAP6 SWAP4 SWAP5 DUP10 SWAP5 SWAP2 DUP7 ADD SWAP4 SWAP2 SWAP3 DUP4 ADD DUP3 DUP3 DUP1 ISZERO PUSH2 0xA45 JUMPI DUP1 PUSH1 0x1F LT PUSH2 0xA1A JUMPI PUSH2 0x100 DUP1 DUP4 SLOAD DIV MUL DUP4 MSTORE SWAP2 PUSH1 0x20 ADD SWAP2 PUSH2 0xA45 JUMP JUMPDEST DUP3 ADD SWAP2 SWAP1 PUSH1 0x0 MSTORE PUSH1 0x20 PUSH1 0x0 KECCAK256 SWAP1 JUMPDEST DUP2 SLOAD DUP2 MSTORE SWAP1 PUSH1 0x1 ADD SWAP1 PUSH1 0x20 ADD DUP1 DUP4 GT PUSH2 0xA28 JUMPI DUP3 SWAP1 SUB PUSH1 0x1F AND DUP3 ADD SWAP2 JUMPDEST POP POP POP SWAP2 DUP4 MSTORE POP POP PUSH1 0x3 DUP3 ADD SLOAD PUSH1 0x20 DUP3 ADD MSTORE PUSH1 0x4 SWAP1 SWAP2 ADD SLOAD PUSH1 0xFF AND ISZERO ISZERO PUSH1 0x40 SWAP1 SWAP2 ADD MSTORE DUP4 SLOAD DUP5 SWAP1 DUP9 SWAP1 DUP2 LT PUSH2 0xA76 JUMPI INVALID JUMPDEST PUSH1 0x0 SWAP2 DUP3 MSTORE PUSH1 0x20 SWAP2 DUP3 SWAP1 KECCAK256 PUSH1 0x40 DUP1 MLOAD PUSH1 0x60 DUP2 ADD SWAP1 SWAP2 MSTORE SWAP2 ADD DUP1 SLOAD PUSH1 0x1 PUSH1 0x1 PUSH1 0xA0 SHL SUB DUP2 AND DUP4 MSTORE SWAP2 SWAP3 SWAP1 SWAP2 SWAP1 DUP4 ADD SWAP1 PUSH1 0x1 PUSH1 0xA0 SHL SWAP1 DIV PUSH1 0xFF AND PUSH1 0x4 DUP2 GT ISZERO PUSH2 0xAB9 JUMPI INVALID JUMPDEST PUSH1 0x4 DUP2 GT ISZERO PUSH2 0xAC4 JUMPI INVALID JUMPDEST DUP2 MSTORE SWAP1 SLOAD PUSH1 0x1 PUSH1 0xA8 SHL SWAP1 DIV PUSH1 0xFF AND ISZERO ISZERO PUSH1 0x20 SWAP1 SWAP2 ADD MSTORE PUSH2 0x1001 JUMP JUMPDEST SWAP3 POP POP POP JUMPDEST SWAP3 SWAP2 POP POP JUMP JUMPDEST PUSH1 0x98 PUSH1 0x20 MSTORE DUP2 PUSH1 0x0 MSTORE PUSH1 0x40 PUSH1 0x0 KECCAK256 DUP2 DUP2 SLOAD DUP2 LT PUSH2 0xB03 JUMPI INVALID JUMPDEST PUSH1 0x0 SWAP2 DUP3 MSTORE PUSH1 0x20 SWAP1 SWAP2 KECCAK256 ADD SLOAD PUSH1 0x1 PUSH1 0x1 PUSH1 0xA0 SHL SUB DUP2 AND SWAP3 POP PUSH1 0xFF PUSH1 0x1 PUSH1 0xA0 SHL DUP3 DIV DUP2 AND SWAP3 POP PUSH1 0x1 PUSH1 0xA8 SHL SWAP1 SWAP2 DIV AND DUP4 JUMP JUMPDEST PUSH1 0x9A SLOAD PUSH1 0x1 PUSH1 0x1 PUSH1 0xA0 SHL SUB AND DUP2 JUMP JUMPDEST PUSH2 0xB4B PUSH2 0xFFD JUMP JUMPDEST PUSH1 0x1 PUSH1 0x1 PUSH1 0xA0 SHL SUB AND PUSH2 0xB5C PUSH2 0x889 JUMP JUMPDEST PUSH1 0x1 PUSH1 0x1 PUSH1 0xA0 SHL SUB AND EQ PUSH2 0xB82 JUMPI PUSH1 0x40 MLOAD PUSH3 0x461BCD PUSH1 0xE5 SHL DUP2 MSTORE PUSH1 0x4 ADD PUSH2 0x298 SWAP1 PUSH2 0x212F JUMP JUMPDEST PUSH1 0x9A DUP1 SLOAD PUSH1 0x1 PUSH1 0x1 PUSH1 0xA0 SHL SUB NOT AND PUSH1 0x1 PUSH1 0x1 PUSH1 0xA0 SHL SUB SWAP3 SWAP1 SWAP3 AND SWAP2 SWAP1 SWAP2 OR SWAP1 SSTORE JUMP JUMPDEST PUSH2 0xBAC PUSH2 0xFFD JUMP JUMPDEST PUSH1 0x1 PUSH1 0x1 PUSH1 0xA0 SHL SUB AND PUSH2 0xBBD PUSH2 0x889 JUMP JUMPDEST PUSH1 0x1 PUSH1 0x1 PUSH1 0xA0 SHL SUB AND EQ PUSH2 0xBE3 JUMPI PUSH1 0x40 MLOAD PUSH3 0x461BCD PUSH1 0xE5 SHL DUP2 MSTORE PUSH1 0x4 ADD PUSH2 0x298 SWAP1 PUSH2 0x212F JUMP JUMPDEST PUSH1 0x1 PUSH1 0x1 PUSH1 0xA0 SHL SUB DUP6 AND PUSH1 0x0 SWAP1 DUP2 MSTORE PUSH1 0x98 PUSH1 0x20 MSTORE PUSH1 0x40 SWAP1 KECCAK256 DUP1 SLOAD DUP6 LT ISZERO PUSH2 0xC75 JUMPI PUSH1 0x0 DUP2 DUP7 DUP2 SLOAD DUP2 LT PUSH2 0xC12 JUMPI INVALID JUMPDEST PUSH1 0x0 SWAP2 DUP3 MSTORE PUSH1 0x20 SWAP1 SWAP2 KECCAK256 ADD DUP1 SLOAD PUSH1 0x1 PUSH1 0x1 PUSH1 0xA0 SHL SUB NOT AND PUSH1 0x1 PUSH1 0x1 PUSH1 0xA0 SHL SUB DUP8 AND OR DUP1 DUP3 SSTORE SWAP1 SWAP2 POP DUP5 SWAP1 DUP3 SWAP1 PUSH1 0xFF PUSH1 0xA0 SHL NOT AND PUSH1 0x1 PUSH1 0xA0 SHL DUP4 PUSH1 0x4 DUP2 GT ISZERO PUSH2 0xC56 JUMPI INVALID JUMPDEST MUL OR SWAP1 SSTORE POP DUP1 SLOAD PUSH1 0xFF PUSH1 0xA8 SHL NOT AND PUSH1 0x1 PUSH1 0xA8 SHL DUP5 ISZERO ISZERO MUL OR SWAP1 SSTORE PUSH2 0xD20 JUMP JUMPDEST DUP1 PUSH1 0x40 MLOAD DUP1 PUSH1 0x60 ADD PUSH1 0x40 MSTORE DUP1 DUP7 PUSH1 0x1 PUSH1 0x1 PUSH1 0xA0 SHL SUB AND DUP2 MSTORE PUSH1 0x20 ADD DUP6 PUSH1 0x4 DUP2 GT ISZERO PUSH2 0xC9C JUMPI INVALID JUMPDEST DUP2 MSTORE DUP5 ISZERO ISZERO PUSH1 0x20 SWAP2 DUP3 ADD MSTORE DUP3 SLOAD PUSH1 0x1 DUP2 ADD DUP5 SSTORE PUSH1 0x0 SWAP4 DUP5 MSTORE SWAP3 DUP2 SWAP1 KECCAK256 DUP3 MLOAD SWAP4 ADD DUP1 SLOAD PUSH1 0x1 PUSH1 0x1 PUSH1 0xA0 SHL SUB NOT AND PUSH1 0x1 PUSH1 0x1 PUSH1 0xA0 SHL SUB SWAP1 SWAP5 AND SWAP4 SWAP1 SWAP4 OR DUP1 DUP5 SSTORE SWAP1 DUP3 ADD MLOAD SWAP2 SWAP3 SWAP2 SWAP1 DUP3 SWAP1 PUSH1 0xFF PUSH1 0xA0 SHL NOT AND PUSH1 0x1 PUSH1 0xA0 SHL DUP4 PUSH1 0x4 DUP2 GT ISZERO PUSH2 0xCFC JUMPI INVALID JUMPDEST MUL OR SWAP1 SSTORE POP PUSH1 0x40 SWAP2 SWAP1 SWAP2 ADD MLOAD DUP2 SLOAD SWAP1 ISZERO ISZERO PUSH1 0x1 PUSH1 0xA8 SHL MUL PUSH1 0xFF PUSH1 0xA8 SHL NOT SWAP1 SWAP2 AND OR SWAP1 SSTORE JUMPDEST POP POP POP POP POP POP JUMP JUMPDEST PUSH2 0xD30 PUSH2 0xFFD JUMP JUMPDEST PUSH1 0x1 PUSH1 0x1 PUSH1 0xA0 SHL SUB AND PUSH2 0xD41 PUSH2 0x889 JUMP JUMPDEST PUSH1 0x1 PUSH1 0x1 PUSH1 0xA0 SHL SUB AND EQ PUSH2 0xD67 JUMPI PUSH1 0x40 MLOAD PUSH3 0x461BCD PUSH1 0xE5 SHL DUP2 MSTORE PUSH1 0x4 ADD PUSH2 0x298 SWAP1 PUSH2 0x212F JUMP JUMPDEST PUSH1 0x1 PUSH1 0x1 PUSH1 0xA0 SHL SUB DUP2 AND PUSH2 0xD8D JUMPI PUSH1 0x40 MLOAD PUSH3 0x461BCD PUSH1 0xE5 SHL DUP2 MSTORE PUSH1 0x4 ADD PUSH2 0x298 SWAP1 PUSH2 0x1F83 JUMP JUMPDEST PUSH1 0x65 SLOAD PUSH1 0x40 MLOAD PUSH1 0x1 PUSH1 0x1 PUSH1 0xA0 SHL SUB DUP1 DUP5 AND SWAP3 AND SWAP1 PUSH32 0x8BE0079C531659141344CD1FD0A4F28419497F9722A3DAAFE3B4186F6B6457E0 SWAP1 PUSH1 0x0 SWAP1 LOG3 PUSH1 0x65 DUP1 SLOAD PUSH1 0x1 PUSH1 0x1 PUSH1 0xA0 SHL SUB NOT AND PUSH1 0x1 PUSH1 0x1 PUSH1 0xA0 SHL SUB SWAP3 SWAP1 SWAP3 AND SWAP2 SWAP1 SWAP2 OR SWAP1 SSTORE JUMP JUMPDEST PUSH1 0x1 PUSH1 0x1 PUSH1 0xA0 SHL SUB DUP2 AND PUSH1 0x0 SWAP1 DUP2 MSTORE PUSH1 0x97 PUSH1 0x20 MSTORE PUSH1 0x40 DUP2 KECCAK256 PUSH1 0x4 DUP2 ADD SLOAD DUP3 SWAP2 SWAP1 PUSH1 0xFF AND ISZERO PUSH2 0xE46 JUMPI PUSH1 0x3 DUP2 ADD SLOAD PUSH1 0x1 SWAP3 POP PUSH2 0xE3D SWAP1 PUSH2 0xE37 DUP5 PUSH15 0xC097CE7BC90715B34B9F1000000000 PUSH2 0x11E8 JUMP JUMPDEST SWAP1 PUSH2 0x1222 JUMP JUMPDEST SWAP3 POP POP POP PUSH2 0x629 JUMP JUMPDEST PUSH1 0x1 PUSH1 0x1 PUSH1 0xA0 SHL SUB DUP5 AND PUSH1 0x0 SWAP1 DUP2 MSTORE PUSH1 0x98 PUSH1 0x20 MSTORE PUSH1 0x40 DUP2 KECCAK256 SWAP1 JUMPDEST DUP2 SLOAD DUP2 LT ISZERO PUSH2 0xFD1 JUMPI PUSH1 0x0 DUP3 DUP3 DUP2 SLOAD DUP2 LT PUSH2 0xE77 JUMPI INVALID JUMPDEST PUSH1 0x0 SWAP2 DUP3 MSTORE PUSH1 0x20 SWAP1 SWAP2 KECCAK256 ADD DUP1 SLOAD SWAP1 SWAP2 POP PUSH1 0x1 PUSH1 0xA8 SHL SWAP1 DIV PUSH1 0xFF AND ISZERO ISZERO PUSH1 0x1 EQ ISZERO PUSH2 0xFC8 JUMPI PUSH1 0x40 DUP1 MLOAD PUSH1 0xA0 DUP2 ADD DUP3 MSTORE DUP6 SLOAD PUSH1 0x1 PUSH1 0x1 PUSH1 0xA0 SHL SUB SWAP1 DUP2 AND DUP3 MSTORE PUSH1 0x1 DUP1 DUP9 ADD SLOAD SWAP1 SWAP2 AND PUSH1 0x20 DUP1 DUP5 ADD SWAP2 SWAP1 SWAP2 MSTORE PUSH1 0x2 DUP1 DUP10 ADD DUP1 SLOAD DUP7 MLOAD PUSH2 0x100 SWAP6 DUP3 AND ISZERO SWAP6 SWAP1 SWAP6 MUL PUSH1 0x0 NOT ADD AND SWAP2 SWAP1 SWAP2 DIV PUSH1 0x1F DUP2 ADD DUP4 SWAP1 DIV DUP4 MUL DUP5 ADD DUP4 ADD DUP7 MSTORE DUP1 DUP5 MSTORE PUSH2 0xFB3 SWAP6 DUP14 SWAP6 SWAP5 DUP12 SWAP5 SWAP2 DUP7 ADD SWAP4 SWAP1 SWAP3 SWAP1 SWAP2 DUP4 ADD DUP3 DUP3 DUP1 ISZERO PUSH2 0xF57 JUMPI DUP1 PUSH1 0x1F LT PUSH2 0xF2C JUMPI PUSH2 0x100 DUP1 DUP4 SLOAD DIV MUL DUP4 MSTORE SWAP2 PUSH1 0x20 ADD SWAP2 PUSH2 0xF57 JUMP JUMPDEST DUP3 ADD SWAP2 SWAP1 PUSH1 0x0 MSTORE PUSH1 0x20 PUSH1 0x0 KECCAK256 SWAP1 JUMPDEST DUP2 SLOAD DUP2 MSTORE SWAP1 PUSH1 0x1 ADD SWAP1 PUSH1 0x20 ADD DUP1 DUP4 GT PUSH2 0xF3A JUMPI DUP3 SWAP1 SUB PUSH1 0x1F AND DUP3 ADD SWAP2 JUMPDEST POP POP POP SWAP2 DUP4 MSTORE POP POP PUSH1 0x3 DUP3 ADD SLOAD PUSH1 0x20 DUP1 DUP4 ADD SWAP2 SWAP1 SWAP2 MSTORE PUSH1 0x4 SWAP3 DUP4 ADD SLOAD PUSH1 0xFF SWAP1 DUP2 AND ISZERO ISZERO PUSH1 0x40 SWAP4 DUP5 ADD MSTORE DUP3 MLOAD PUSH1 0x60 DUP2 ADD SWAP1 SWAP4 MSTORE DUP8 SLOAD PUSH1 0x1 PUSH1 0x1 PUSH1 0xA0 SHL SUB DUP2 AND DUP5 MSTORE SWAP3 SWAP4 DUP9 SWAP4 SWAP3 DUP6 ADD SWAP3 PUSH1 0x1 PUSH1 0xA0 SHL SWAP1 DIV SWAP1 SWAP2 AND SWAP1 DUP2 GT ISZERO PUSH2 0xAB9 JUMPI INVALID JUMPDEST SWAP5 POP DUP5 ISZERO PUSH2 0xFC8 JUMPI DUP5 SWAP6 POP POP POP POP POP POP PUSH2 0x629 JUMP JUMPDEST POP PUSH1 0x1 ADD PUSH2 0xE60 JUMP JUMPDEST POP PUSH1 0x0 DUP4 GT PUSH2 0xFF2 JUMPI PUSH1 0x40 MLOAD PUSH3 0x461BCD PUSH1 0xE5 SHL DUP2 MSTORE PUSH1 0x4 ADD PUSH2 0x298 SWAP1 PUSH2 0x2066 JUMP JUMPDEST POP PUSH1 0x0 SWAP5 SWAP4 POP POP POP POP JUMP JUMPDEST CALLER SWAP1 JUMP JUMPDEST PUSH1 0x0 DUP1 PUSH20 0xEEEEEEEEEEEEEEEEEEEEEEEEEEEEEEEEEEEEEEEE SWAP1 POP PUSH1 0x0 DUP6 SWAP1 POP PUSH2 0x10BC DUP2 PUSH1 0x1 PUSH1 0x1 PUSH1 0xA0 SHL SUB AND PUSH4 0x95D89B41 PUSH1 0x40 MLOAD DUP2 PUSH4 0xFFFFFFFF AND PUSH1 0xE0 SHL DUP2 MSTORE PUSH1 0x4 ADD PUSH1 0x0 PUSH1 0x40 MLOAD DUP1 DUP4 SUB DUP2 DUP7 DUP1 EXTCODESIZE ISZERO DUP1 ISZERO PUSH2 0x105C JUMPI PUSH1 0x0 DUP1 REVERT JUMPDEST POP GAS STATICCALL ISZERO DUP1 ISZERO PUSH2 0x1070 JUMPI RETURNDATASIZE PUSH1 0x0 DUP1 RETURNDATACOPY RETURNDATASIZE PUSH1 0x0 REVERT JUMPDEST POP POP POP POP PUSH1 0x40 MLOAD RETURNDATASIZE PUSH1 0x0 DUP3 RETURNDATACOPY PUSH1 0x1F RETURNDATASIZE SWAP1 DUP2 ADD PUSH1 0x1F NOT AND DUP3 ADD PUSH1 0x40 MSTORE PUSH2 0x1098 SWAP2 SWAP1 DUP2 ADD SWAP1 PUSH2 0x1BDF JUMP JUMPDEST PUSH1 0x40 MLOAD DUP1 PUSH1 0x40 ADD PUSH1 0x40 MSTORE DUP1 PUSH1 0x6 DUP2 MSTORE PUSH1 0x20 ADD PUSH6 0x704D41544943 PUSH1 0xD0 SHL DUP2 MSTORE POP PUSH2 0x1254 JUMP JUMPDEST PUSH2 0x1134 JUMPI DUP6 PUSH1 0x1 PUSH1 0x1 PUSH1 0xA0 SHL SUB AND PUSH4 0x6F307DC3 PUSH1 0x40 MLOAD DUP2 PUSH4 0xFFFFFFFF AND PUSH1 0xE0 SHL DUP2 MSTORE PUSH1 0x4 ADD PUSH1 0x20 PUSH1 0x40 MLOAD DUP1 DUP4 SUB DUP2 DUP7 DUP1 EXTCODESIZE ISZERO DUP1 ISZERO PUSH2 0x10F9 JUMPI PUSH1 0x0 DUP1 REVERT JUMPDEST POP GAS STATICCALL ISZERO DUP1 ISZERO PUSH2 0x110D JUMPI RETURNDATASIZE PUSH1 0x0 DUP1 RETURNDATACOPY RETURNDATASIZE PUSH1 0x0 REVERT JUMPDEST POP POP POP POP PUSH1 0x40 MLOAD RETURNDATASIZE PUSH1 0x1F NOT PUSH1 0x1F DUP3 ADD AND DUP3 ADD DUP1 PUSH1 0x40 MSTORE POP DUP2 ADD SWAP1 PUSH2 0x1131 SWAP2 SWAP1 PUSH2 0x19B3 JUMP JUMPDEST SWAP2 POP JUMPDEST PUSH1 0x20 DUP5 ADD MLOAD PUSH1 0x0 DUP2 PUSH1 0x4 DUP2 GT ISZERO PUSH2 0x1147 JUMPI INVALID JUMPDEST EQ ISZERO PUSH2 0x1161 JUMPI PUSH2 0x1157 DUP6 DUP8 PUSH2 0x12AD JUMP JUMPDEST SWAP4 POP POP POP POP PUSH2 0x11E1 JUMP JUMPDEST PUSH1 0x1 DUP2 PUSH1 0x4 DUP2 GT ISZERO PUSH2 0x116F JUMPI INVALID JUMPDEST EQ ISZERO PUSH2 0x117F JUMPI PUSH2 0x1157 DUP6 DUP8 PUSH2 0x138F JUMP JUMPDEST PUSH1 0x2 DUP2 PUSH1 0x4 DUP2 GT ISZERO PUSH2 0x118D JUMPI INVALID JUMPDEST EQ ISZERO PUSH2 0x119D JUMPI PUSH2 0x1157 DUP6 DUP8 PUSH2 0x1457 JUMP JUMPDEST PUSH1 0x3 DUP2 PUSH1 0x4 DUP2 GT ISZERO PUSH2 0x11AB JUMPI INVALID JUMPDEST EQ ISZERO PUSH2 0x11BB JUMPI PUSH2 0x1157 DUP6 DUP8 PUSH2 0x1573 JUMP JUMPDEST PUSH1 0x4 DUP2 PUSH1 0x4 DUP2 GT ISZERO PUSH2 0x11C9 JUMPI INVALID JUMPDEST EQ ISZERO PUSH2 0x11D9 JUMPI PUSH2 0x1157 DUP6 DUP8 PUSH2 0x15AC JUMP JUMPDEST PUSH1 0x0 SWAP4 POP POP POP POP JUMPDEST SWAP4 SWAP3 POP POP POP JUMP JUMPDEST PUSH1 0x0 DUP3 PUSH2 0x11F7 JUMPI POP PUSH1 0x0 PUSH2 0xAE4 JUMP JUMPDEST DUP3 DUP3 MUL DUP3 DUP5 DUP3 DUP2 PUSH2 0x1204 JUMPI INVALID JUMPDEST DIV EQ PUSH2 0x11E1 JUMPI PUSH1 0x40 MLOAD PUSH3 0x461BCD PUSH1 0xE5 SHL DUP2 MSTORE PUSH1 0x4 ADD PUSH2 0x298 SWAP1 PUSH2 0x20EE JUMP JUMPDEST PUSH1 0x0 DUP1 DUP3 GT PUSH2 0x1243 JUMPI PUSH1 0x40 MLOAD PUSH3 0x461BCD PUSH1 0xE5 SHL DUP2 MSTORE PUSH1 0x4 ADD PUSH2 0x298 SWAP1 PUSH2 0x202F JUMP JUMPDEST DUP2 DUP4 DUP2 PUSH2 0x124C JUMPI INVALID JUMPDEST DIV SWAP4 SWAP3 POP POP POP JUMP JUMPDEST PUSH1 0x0 DUP2 PUSH1 0x40 MLOAD PUSH1 0x20 ADD PUSH2 0x1267 SWAP2 SWAP1 PUSH2 0x1D88 JUMP JUMPDEST PUSH1 0x40 MLOAD PUSH1 0x20 DUP2 DUP4 SUB SUB DUP2 MSTORE SWAP1 PUSH1 0x40 MSTORE DUP1 MLOAD SWAP1 PUSH1 0x20 ADD KECCAK256 DUP4 PUSH1 0x40 MLOAD PUSH1 0x20 ADD PUSH2 0x128E SWAP2 SWAP1 PUSH2 0x1D88 JUMP JUMPDEST PUSH1 0x40 MLOAD PUSH1 0x20 DUP2 DUP4 SUB SUB DUP2 MSTORE SWAP1 PUSH1 0x40 MSTORE DUP1 MLOAD SWAP1 PUSH1 0x20 ADD KECCAK256 EQ SWAP1 POP SWAP3 SWAP2 POP POP JUMP JUMPDEST PUSH1 0x0 DUP1 DUP3 PUSH1 0x60 ADD MLOAD GT PUSH2 0x12D2 JUMPI PUSH1 0x40 MLOAD PUSH3 0x461BCD PUSH1 0xE5 SHL DUP2 MSTORE PUSH1 0x4 ADD PUSH2 0x298 SWAP1 PUSH2 0x1FC9 JUMP JUMPDEST PUSH1 0x0 DUP4 PUSH1 0x0 ADD MLOAD SWAP1 POP PUSH1 0x0 DUP2 PUSH1 0x1 PUSH1 0x1 PUSH1 0xA0 SHL SUB AND PUSH4 0xFEAF968C PUSH1 0x40 MLOAD DUP2 PUSH4 0xFFFFFFFF AND PUSH1 0xE0 SHL DUP2 MSTORE PUSH1 0x4 ADD PUSH1 0xA0 PUSH1 0x40 MLOAD DUP1 DUP4 SUB DUP2 DUP7 DUP1 EXTCODESIZE ISZERO DUP1 ISZERO PUSH2 0x1316 JUMPI PUSH1 0x0 DUP1 REVERT JUMPDEST POP GAS STATICCALL ISZERO DUP1 ISZERO PUSH2 0x132A JUMPI RETURNDATASIZE PUSH1 0x0 DUP1 RETURNDATACOPY RETURNDATASIZE PUSH1 0x0 REVERT JUMPDEST POP POP POP POP PUSH1 0x40 MLOAD RETURNDATASIZE PUSH1 0x1F NOT PUSH1 0x1F DUP3 ADD AND DUP3 ADD DUP1 PUSH1 0x40 MSTORE POP DUP2 ADD SWAP1 PUSH2 0x134E SWAP2 SWAP1 PUSH2 0x1D05 JUMP JUMPDEST POP POP POP SWAP2 POP POP PUSH1 0x0 DUP2 SGT PUSH2 0x1367 JUMPI PUSH1 0x0 SWAP3 POP POP POP PUSH2 0xAE4 JUMP JUMPDEST PUSH1 0x60 DUP5 ADD MLOAD PUSH2 0x1386 SWAP1 PUSH2 0xE37 DUP4 PUSH12 0x204FCE5E3E25026110000000 PUSH2 0x11E8 JUMP JUMPDEST SWAP3 POP POP POP PUSH2 0xAE4 JUMP JUMPDEST DUP2 MLOAD PUSH1 0x20 DUP3 ADD MLOAD PUSH1 0x40 MLOAD PUSH4 0x141C631 PUSH1 0xE5 SHL DUP2 MSTORE PUSH1 0x0 SWAP3 SWAP2 DUP3 SWAP2 DUP5 SWAP2 PUSH1 0x1 PUSH1 0x1 PUSH1 0xA0 SHL SUB DUP5 AND SWAP2 PUSH4 0x2838C620 SWAP2 PUSH2 0x13C8 SWAP2 PUSH1 0x4 ADD PUSH2 0x1DA4 JUMP JUMPDEST PUSH1 0x20 PUSH1 0x40 MLOAD DUP1 DUP4 SUB DUP2 DUP7 DUP1 EXTCODESIZE ISZERO DUP1 ISZERO PUSH2 0x13E0 JUMPI PUSH1 0x0 DUP1 REVERT JUMPDEST POP GAS STATICCALL ISZERO DUP1 ISZERO PUSH2 0x13F4 JUMPI RETURNDATASIZE PUSH1 0x0 DUP1 RETURNDATACOPY RETURNDATASIZE PUSH1 0x0 REVERT JUMPDEST POP POP POP POP PUSH1 0x40 MLOAD RETURNDATASIZE PUSH1 0x1F NOT PUSH1 0x1F DUP3 ADD AND DUP3 ADD DUP1 PUSH1 0x40 MSTORE POP DUP2 ADD SWAP1 PUSH2 0x1418 SWAP2 SWAP1 PUSH2 0x1CED JUMP JUMPDEST SWAP1 POP PUSH1 0x0 DUP2 GT PUSH2 0x142E JUMPI PUSH1 0x0 SWAP4 POP POP POP POP PUSH2 0xAE4 JUMP JUMPDEST PUSH1 0x60 DUP6 ADD MLOAD PUSH2 0x144D SWAP1 PUSH2 0xE37 DUP4 PUSH12 0x204FCE5E3E25026110000000 PUSH2 0x11E8 JUMP JUMPDEST SWAP4 POP POP POP POP PUSH2 0xAE4 JUMP JUMPDEST DUP2 MLOAD PUSH1 0x0 SWAP1 DUP1 PUSH2 0x1465 PUSH2 0x17CA JUMP JUMPDEST PUSH1 0x40 DUP1 DUP7 ADD MLOAD SWAP1 MLOAD PUSH4 0x13B6165D PUSH1 0xE1 SHL DUP2 MSTORE PUSH1 0x1 PUSH1 0x1 PUSH1 0xA0 SHL SUB DUP5 AND SWAP2 PUSH4 0x276C2CBA SWAP2 PUSH2 0x1495 SWAP2 SWAP1 PUSH1 0x4 ADD PUSH2 0x1F70 JUMP JUMPDEST PUSH2 0x100 PUSH1 0x40 MLOAD DUP1 DUP4 SUB DUP2 DUP7 DUP1 EXTCODESIZE ISZERO DUP1 ISZERO PUSH2 0x14AE JUMPI PUSH1 0x0 DUP1 REVERT JUMPDEST POP GAS STATICCALL ISZERO DUP1 ISZERO PUSH2 0x14C2 JUMPI RETURNDATASIZE PUSH1 0x0 DUP1 RETURNDATACOPY RETURNDATASIZE PUSH1 0x0 REVERT JUMPDEST POP POP POP POP PUSH1 0x40 MLOAD RETURNDATASIZE PUSH1 0x1F NOT PUSH1 0x1F DUP3 ADD AND DUP3 ADD DUP1 PUSH1 0x40 MSTORE POP DUP2 ADD SWAP1 PUSH2 0x14E6 SWAP2 SWAP1 PUSH2 0x1C52 JUMP JUMPDEST DUP1 MLOAD PUSH1 0x40 MLOAD PUSH4 0xFC57D4DF PUSH1 0xE0 SHL DUP2 MSTORE SWAP2 SWAP3 POP SWAP1 PUSH1 0x1 PUSH1 0x1 PUSH1 0xA0 SHL SUB DUP5 AND SWAP1 PUSH4 0xFC57D4DF SWAP1 PUSH2 0x1518 SWAP1 DUP5 SWAP1 PUSH1 0x4 ADD PUSH2 0x1DA4 JUMP JUMPDEST PUSH1 0x20 PUSH1 0x40 MLOAD DUP1 DUP4 SUB DUP2 DUP7 DUP1 EXTCODESIZE ISZERO DUP1 ISZERO PUSH2 0x1530 JUMPI PUSH1 0x0 DUP1 REVERT JUMPDEST POP GAS STATICCALL ISZERO DUP1 ISZERO PUSH2 0x1544 JUMPI RETURNDATASIZE PUSH1 0x0 DUP1 RETURNDATACOPY RETURNDATASIZE PUSH1 0x0 REVERT JUMPDEST POP POP POP POP PUSH1 0x40 MLOAD RETURNDATASIZE PUSH1 0x1F NOT PUSH1 0x1F DUP3 ADD AND DUP3 ADD DUP1 PUSH1 0x40 MSTORE POP DUP2 ADD SWAP1 PUSH2 0x1568 SWAP2 SWAP1 PUSH2 0x1CED JUMP JUMPDEST SWAP8 SWAP7 POP POP POP POP POP POP POP JUMP JUMPDEST DUP2 MLOAD PUSH1 0x20 DUP3 ADD MLOAD PUSH1 0x40 MLOAD PUSH4 0x41976E09 PUSH1 0xE0 SHL DUP2 MSTORE PUSH1 0x0 SWAP3 SWAP2 DUP3 SWAP2 DUP5 SWAP2 PUSH1 0x1 PUSH1 0x1 PUSH1 0xA0 SHL SUB DUP5 AND SWAP2 PUSH4 0x41976E09 SWAP2 PUSH2 0x13C8 SWAP2 PUSH1 0x4 ADD PUSH2 0x1DA4 JUMP JUMPDEST PUSH1 0x0 DUP1 DUP3 PUSH1 0x60 ADD MLOAD GT PUSH2 0x15D1 JUMPI PUSH1 0x40 MLOAD PUSH3 0x461BCD PUSH1 0xE5 SHL DUP2 MSTORE PUSH1 0x4 ADD PUSH2 0x298 SWAP1 PUSH2 0x1FC9 JUMP JUMPDEST PUSH1 0x20 DUP1 DUP4 ADD MLOAD PUSH1 0x1 PUSH1 0x1 PUSH1 0xA0 SHL SUB DUP1 DUP3 AND PUSH1 0x0 SWAP1 DUP2 MSTORE PUSH1 0x99 SWAP1 SWAP4 MSTORE PUSH1 0x40 DUP1 DUP5 KECCAK256 SLOAD DUP2 MLOAD PUSH4 0x3FABE5A3 PUSH1 0xE2 SHL DUP2 MSTORE SWAP2 MLOAD SWAP4 SWAP5 SWAP3 AND SWAP3 DUP4 SWAP2 PUSH4 0xFEAF968C SWAP2 PUSH1 0x4 DUP1 DUP4 ADD SWAP3 PUSH1 0xA0 SWAP3 SWAP2 SWAP1 DUP3 SWAP1 SUB ADD DUP2 DUP7 DUP1 EXTCODESIZE ISZERO DUP1 ISZERO PUSH2 0x162C JUMPI PUSH1 0x0 DUP1 REVERT JUMPDEST POP GAS STATICCALL ISZERO DUP1 ISZERO PUSH2 0x1640 JUMPI RETURNDATASIZE PUSH1 0x0 DUP1 RETURNDATACOPY RETURNDATASIZE PUSH1 0x0 REVERT JUMPDEST POP POP POP POP PUSH1 0x40 MLOAD RETURNDATASIZE PUSH1 0x1F NOT PUSH1 0x1F DUP3 ADD AND DUP3 ADD DUP1 PUSH1 0x40 MSTORE POP DUP2 ADD SWAP1 PUSH2 0x1664 SWAP2 SWAP1 PUSH2 0x1D05 JUMP JUMPDEST POP POP POP SWAP2 POP POP PUSH1 0x0 PUSH1 0x9A PUSH1 0x0 SWAP1 SLOAD SWAP1 PUSH2 0x100 EXP SWAP1 DIV PUSH1 0x1 PUSH1 0x1 PUSH1 0xA0 SHL SUB AND SWAP1 POP PUSH1 0x0 DUP2 PUSH1 0x1 PUSH1 0x1 PUSH1 0xA0 SHL SUB AND PUSH4 0xFEAF968C PUSH1 0x40 MLOAD DUP2 PUSH4 0xFFFFFFFF AND PUSH1 0xE0 SHL DUP2 MSTORE PUSH1 0x4 ADD PUSH1 0xA0 PUSH1 0x40 MLOAD DUP1 DUP4 SUB DUP2 DUP7 DUP1 EXTCODESIZE ISZERO DUP1 ISZERO PUSH2 0x16BF JUMPI PUSH1 0x0 DUP1 REVERT JUMPDEST POP GAS STATICCALL ISZERO DUP1 ISZERO PUSH2 0x16D3 JUMPI RETURNDATASIZE PUSH1 0x0 DUP1 RETURNDATACOPY RETURNDATASIZE PUSH1 0x0 REVERT JUMPDEST POP POP POP POP PUSH1 0x40 MLOAD RETURNDATASIZE PUSH1 0x1F NOT PUSH1 0x1F DUP3 ADD AND DUP3 ADD DUP1 PUSH1 0x40 MSTORE POP DUP2 ADD SWAP1 PUSH2 0x16F7 SWAP2 SWAP1 PUSH2 0x1D05 JUMP JUMPDEST POP POP POP SWAP2 POP POP PUSH1 0x0 DUP4 SGT PUSH2 0x1713 JUMPI PUSH1 0x0 SWAP6 POP POP POP POP POP POP PUSH2 0xAE4 JUMP JUMPDEST PUSH1 0x60 DUP8 ADD MLOAD PUSH2 0x1735 SWAP1 PUSH2 0xE37 PUSH5 0x2540BE400 PUSH2 0x172F DUP8 DUP7 PUSH2 0x11E8 JUMP JUMPDEST SWAP1 PUSH2 0x11E8 JUMP JUMPDEST SWAP6 POP POP POP POP POP POP PUSH2 0xAE4 JUMP JUMPDEST POP POP POP POP POP SWAP3 SWAP2 POP POP JUMP JUMPDEST DUP3 DUP1 SLOAD PUSH1 0x1 DUP2 PUSH1 0x1 AND ISZERO PUSH2 0x100 MUL SUB AND PUSH1 0x2 SWAP1 DIV SWAP1 PUSH1 0x0 MSTORE PUSH1 0x20 PUSH1 0x0 KECCAK256 SWAP1 PUSH1 0x1F ADD PUSH1 0x20 SWAP1 DIV DUP2 ADD SWAP3 DUP3 PUSH1 0x1F LT PUSH2 0x178D JUMPI DUP1 MLOAD PUSH1 0xFF NOT AND DUP4 DUP1 ADD OR DUP6 SSTORE PUSH2 0x17BA JUMP JUMPDEST DUP3 DUP1 ADD PUSH1 0x1 ADD DUP6 SSTORE DUP3 ISZERO PUSH2 0x17BA JUMPI SWAP2 DUP3 ADD JUMPDEST DUP3 DUP2 GT ISZERO PUSH2 0x17BA JUMPI DUP3 MLOAD DUP3 SSTORE SWAP2 PUSH1 0x20 ADD SWAP2 SWAP1 PUSH1 0x1 ADD SWAP1 PUSH2 0x179F JUMP JUMPDEST POP PUSH2 0x17C6 SWAP3 SWAP2 POP PUSH2 0x180F JUMP JUMPDEST POP SWAP1 JUMP JUMPDEST PUSH1 0x40 DUP1 MLOAD PUSH2 0x100 DUP2 ADD DUP3 MSTORE PUSH1 0x0 DUP1 DUP3 MSTORE PUSH1 0x20 DUP3 ADD DUP2 SWAP1 MSTORE SWAP2 DUP2 ADD DUP3 SWAP1 MSTORE PUSH1 0x60 DUP2 ADD DUP3 SWAP1 MSTORE SWAP1 PUSH1 0x80 DUP3 ADD SWAP1 DUP2 MSTORE PUSH1 0x0 PUSH1 0x20 DUP3 ADD DUP2 SWAP1 MSTORE PUSH1 0x40 DUP3 ADD DUP2 SWAP1 MSTORE PUSH1 0x60 SWAP1 SWAP2 ADD MSTORE SWAP1 JUMP JUMPDEST JUMPDEST DUP1 DUP3 GT ISZERO PUSH2 0x17C6 JUMPI PUSH1 0x0 DUP2 SSTORE PUSH1 0x1 ADD PUSH2 0x1810 JUMP JUMPDEST DUP1 MLOAD PUSH2 0xAE4 DUP2 PUSH2 0x225F JUMP JUMPDEST PUSH1 0x0 DUP3 PUSH1 0x1F DUP4 ADD SLT PUSH2 0x183F JUMPI DUP1 DUP2 REVERT JUMPDEST DUP2 CALLDATALOAD PUSH8 0xFFFFFFFFFFFFFFFF DUP2 GT ISZERO PUSH2 0x1855 JUMPI DUP2 DUP3 REVERT JUMPDEST PUSH1 0x20 DUP1 DUP3 MUL PUSH2 0x1865 DUP3 DUP3 ADD PUSH2 0x21CB JUMP JUMPDEST DUP4 DUP2 MSTORE SWAP4 POP DUP2 DUP5 ADD DUP6 DUP4 ADD DUP3 DUP8 ADD DUP5 ADD DUP9 LT ISZERO PUSH2 0x1881 JUMPI PUSH1 0x0 DUP1 REVERT JUMPDEST PUSH1 0x0 SWAP3 POP JUMPDEST DUP5 DUP4 LT ISZERO PUSH2 0x1741 JUMPI DUP1 CALLDATALOAD PUSH2 0x1899 DUP2 PUSH2 0x225F JUMP JUMPDEST DUP3 MSTORE PUSH1 0x1 SWAP3 SWAP1 SWAP3 ADD SWAP2 SWAP1 DUP4 ADD SWAP1 DUP4 ADD PUSH2 0x1886 JUMP JUMPDEST PUSH1 0x0 DUP1 DUP4 PUSH1 0x1F DUP5 ADD SLT PUSH2 0x18BE JUMPI DUP1 DUP2 REVERT JUMPDEST POP DUP2 CALLDATALOAD PUSH8 0xFFFFFFFFFFFFFFFF DUP2 GT ISZERO PUSH2 0x18D5 JUMPI DUP2 DUP3 REVERT JUMPDEST PUSH1 0x20 DUP4 ADD SWAP2 POP DUP4 PUSH1 0x20 DUP1 DUP4 MUL DUP6 ADD ADD GT ISZERO PUSH2 0x18EF JUMPI PUSH1 0x0 DUP1 REVERT JUMPDEST SWAP3 POP SWAP3 SWAP1 POP JUMP JUMPDEST DUP1 CALLDATALOAD PUSH2 0xAE4 DUP2 PUSH2 0x2274 JUMP JUMPDEST DUP1 MLOAD PUSH2 0xAE4 DUP2 PUSH2 0x2274 JUMP JUMPDEST DUP1 CALLDATALOAD PUSH1 0x5 DUP2 LT PUSH2 0xAE4 JUMPI PUSH1 0x0 DUP1 REVERT JUMPDEST DUP1 MLOAD PUSH1 0x3 DUP2 LT PUSH2 0xAE4 JUMPI PUSH1 0x0 DUP1 REVERT JUMPDEST PUSH1 0x0 DUP3 PUSH1 0x1F DUP4 ADD SLT PUSH2 0x193A JUMPI DUP1 DUP2 REVERT JUMPDEST DUP2 CALLDATALOAD PUSH2 0x194D PUSH2 0x1948 DUP3 PUSH2 0x21F2 JUMP JUMPDEST PUSH2 0x21CB JUMP JUMPDEST SWAP2 POP DUP1 DUP3 MSTORE DUP4 PUSH1 0x20 DUP3 DUP6 ADD ADD GT ISZERO PUSH2 0x1964 JUMPI PUSH1 0x0 DUP1 REVERT JUMPDEST DUP1 PUSH1 0x20 DUP5 ADD PUSH1 0x20 DUP5 ADD CALLDATACOPY PUSH1 0x0 SWAP1 DUP3 ADD PUSH1 0x20 ADD MSTORE SWAP3 SWAP2 POP POP JUMP JUMPDEST DUP1 MLOAD PUSH10 0xFFFFFFFFFFFFFFFFFFFF DUP2 AND DUP2 EQ PUSH2 0xAE4 JUMPI PUSH1 0x0 DUP1 REVERT JUMPDEST PUSH1 0x0 PUSH1 0x20 DUP3 DUP5 SUB SLT ISZERO PUSH2 0x19A8 JUMPI DUP1 DUP2 REVERT JUMPDEST DUP2 CALLDATALOAD PUSH2 0x11E1 DUP2 PUSH2 0x225F JUMP JUMPDEST PUSH1 0x0 PUSH1 0x20 DUP3 DUP5 SUB SLT ISZERO PUSH2 0x19C4 JUMPI DUP1 DUP2 REVERT JUMPDEST DUP2 MLOAD PUSH2 0x11E1 DUP2 PUSH2 0x225F JUMP JUMPDEST PUSH1 0x0 DUP1 PUSH1 0x0 DUP1 PUSH1 0x0 DUP1 PUSH1 0x0 DUP1 PUSH1 0xE0 DUP10 DUP12 SUB SLT ISZERO PUSH2 0x19EA JUMPI DUP4 DUP5 REVERT JUMPDEST DUP9 CALLDATALOAD PUSH2 0x19F5 DUP2 PUSH2 0x225F JUMP JUMPDEST SWAP8 POP PUSH1 0x20 DUP10 ADD CALLDATALOAD PUSH2 0x1A05 DUP2 PUSH2 0x225F JUMP JUMPDEST SWAP7 POP PUSH1 0x40 DUP10 ADD CALLDATALOAD PUSH8 0xFFFFFFFFFFFFFFFF DUP1 DUP3 GT ISZERO PUSH2 0x1A21 JUMPI DUP6 DUP7 REVERT JUMPDEST PUSH2 0x1A2D DUP13 DUP4 DUP14 ADD PUSH2 0x192A JUMP JUMPDEST SWAP8 POP PUSH1 0x60 DUP12 ADD CALLDATALOAD SWAP7 POP PUSH2 0x1A43 DUP13 PUSH1 0x80 DUP14 ADD PUSH2 0x18F6 JUMP JUMPDEST SWAP6 POP PUSH1 0xA0 DUP12 ADD CALLDATALOAD SWAP2 POP DUP1 DUP3 GT ISZERO PUSH2 0x1A58 JUMPI DUP5 DUP6 REVERT JUMPDEST PUSH2 0x1A64 DUP13 DUP4 DUP14 ADD PUSH2 0x182F JUMP JUMPDEST SWAP5 POP PUSH1 0xC0 DUP12 ADD CALLDATALOAD SWAP2 POP DUP1 DUP3 GT ISZERO PUSH2 0x1A79 JUMPI DUP4 DUP5 REVERT JUMPDEST POP PUSH2 0x1A86 DUP12 DUP3 DUP13 ADD PUSH2 0x18AD JUMP JUMPDEST SWAP10 SWAP13 SWAP9 SWAP12 POP SWAP7 SWAP10 POP SWAP5 SWAP8 SWAP4 SWAP7 SWAP3 SWAP6 SWAP5 POP POP POP JUMP JUMPDEST PUSH1 0x0 DUP1 PUSH1 0x40 DUP4 DUP6 SUB SLT ISZERO PUSH2 0x1AAC JUMPI DUP2 DUP3 REVERT JUMPDEST DUP3 CALLDATALOAD PUSH2 0x1AB7 DUP2 PUSH2 0x225F JUMP JUMPDEST SWAP2 POP PUSH1 0x20 DUP4 ADD CALLDATALOAD PUSH2 0x1AC7 DUP2 PUSH2 0x2274 JUMP JUMPDEST DUP1 SWAP2 POP POP SWAP3 POP SWAP3 SWAP1 POP JUMP JUMPDEST PUSH1 0x0 DUP1 PUSH1 0x40 DUP4 DUP6 SUB SLT ISZERO PUSH2 0x1AE4 JUMPI DUP2 DUP3 REVERT JUMPDEST DUP3 CALLDATALOAD PUSH2 0x1AEF DUP2 PUSH2 0x225F JUMP JUMPDEST SWAP5 PUSH1 0x20 SWAP4 SWAP1 SWAP4 ADD CALLDATALOAD SWAP4 POP POP POP JUMP JUMPDEST PUSH1 0x0 DUP1 PUSH1 0x0 DUP1 PUSH1 0x0 PUSH1 0xA0 DUP7 DUP9 SUB SLT ISZERO PUSH2 0x1B14 JUMPI DUP1 DUP2 REVERT JUMPDEST DUP6 CALLDATALOAD PUSH2 0x1B1F DUP2 PUSH2 0x225F JUMP JUMPDEST SWAP5 POP PUSH1 0x20 DUP7 ADD CALLDATALOAD SWAP4 POP PUSH1 0x40 DUP7 ADD CALLDATALOAD PUSH2 0x1B36 DUP2 PUSH2 0x225F JUMP JUMPDEST SWAP3 POP PUSH2 0x1B45 DUP8 PUSH1 0x60 DUP9 ADD PUSH2 0x190C JUMP JUMPDEST SWAP2 POP PUSH1 0x80 DUP7 ADD CALLDATALOAD PUSH2 0x1B55 DUP2 PUSH2 0x2274 JUMP JUMPDEST DUP1 SWAP2 POP POP SWAP3 SWAP6 POP SWAP3 SWAP6 SWAP1 SWAP4 POP JUMP JUMPDEST PUSH1 0x0 DUP1 PUSH1 0x40 DUP4 DUP6 SUB SLT ISZERO PUSH2 0x1B75 JUMPI DUP2 DUP3 REVERT JUMPDEST DUP3 CALLDATALOAD PUSH8 0xFFFFFFFFFFFFFFFF DUP1 DUP3 GT ISZERO PUSH2 0x1B8C JUMPI DUP4 DUP5 REVERT JUMPDEST PUSH2 0x1B98 DUP7 DUP4 DUP8 ADD PUSH2 0x182F JUMP JUMPDEST SWAP4 POP PUSH1 0x20 DUP6 ADD CALLDATALOAD SWAP2 POP DUP1 DUP3 GT ISZERO PUSH2 0x1BAD JUMPI DUP3 DUP4 REVERT JUMPDEST POP PUSH2 0x1BBA DUP6 DUP3 DUP7 ADD PUSH2 0x182F JUMP JUMPDEST SWAP2 POP POP SWAP3 POP SWAP3 SWAP1 POP JUMP JUMPDEST PUSH1 0x0 PUSH1 0x20 DUP3 DUP5 SUB SLT ISZERO PUSH2 0x1BD5 JUMPI DUP1 DUP2 REVERT JUMPDEST PUSH2 0x11E1 DUP4 DUP4 PUSH2 0x190C JUMP JUMPDEST PUSH1 0x0 PUSH1 0x20 DUP3 DUP5 SUB SLT ISZERO PUSH2 0x1BF0 JUMPI DUP1 DUP2 REVERT JUMPDEST DUP2 MLOAD PUSH8 0xFFFFFFFFFFFFFFFF DUP2 GT ISZERO PUSH2 0x1C06 JUMPI DUP2 DUP3 REVERT JUMPDEST DUP3 ADD PUSH1 0x1F DUP2 ADD DUP5 SGT PUSH2 0x1C16 JUMPI DUP2 DUP3 REVERT JUMPDEST DUP1 MLOAD PUSH2 0x1C24 PUSH2 0x1948 DUP3 PUSH2 0x21F2 JUMP JUMPDEST DUP2 DUP2 MSTORE DUP6 PUSH1 0x20 DUP4 DUP6 ADD ADD GT ISZERO PUSH2 0x1C38 JUMPI DUP4 DUP5 REVERT JUMPDEST PUSH2 0x1C49 DUP3 PUSH1 0x20 DUP4 ADD PUSH1 0x20 DUP7 ADD PUSH2 0x2222 JUMP JUMPDEST SWAP6 SWAP5 POP POP POP POP POP JUMP JUMPDEST PUSH1 0x0 PUSH2 0x100 DUP1 DUP4 DUP6 SUB SLT ISZERO PUSH2 0x1C65 JUMPI DUP2 DUP3 REVERT JUMPDEST PUSH2 0x1C6E DUP2 PUSH2 0x21CB JUMP JUMPDEST SWAP1 POP DUP3 MLOAD PUSH2 0x1C7B DUP2 PUSH2 0x225F JUMP JUMPDEST DUP2 MSTORE PUSH1 0x20 DUP4 ADD MLOAD PUSH2 0x1C8B DUP2 PUSH2 0x225F JUMP JUMPDEST DUP1 PUSH1 0x20 DUP4 ADD MSTORE POP PUSH1 0x40 DUP4 ADD MLOAD PUSH1 0x40 DUP3 ADD MSTORE PUSH1 0x60 DUP4 ADD MLOAD PUSH1 0x60 DUP3 ADD MSTORE PUSH2 0x1CB3 DUP5 PUSH1 0x80 DUP6 ADD PUSH2 0x191B JUMP JUMPDEST PUSH1 0x80 DUP3 ADD MSTORE PUSH1 0xA0 DUP4 ADD MLOAD PUSH1 0xA0 DUP3 ADD MSTORE PUSH2 0x1CCF DUP5 PUSH1 0xC0 DUP6 ADD PUSH2 0x1824 JUMP JUMPDEST PUSH1 0xC0 DUP3 ADD MSTORE PUSH2 0x1CE1 DUP5 PUSH1 0xE0 DUP6 ADD PUSH2 0x1901 JUMP JUMPDEST PUSH1 0xE0 DUP3 ADD MSTORE SWAP4 SWAP3 POP POP POP JUMP JUMPDEST PUSH1 0x0 PUSH1 0x20 DUP3 DUP5 SUB SLT ISZERO PUSH2 0x1CFE JUMPI DUP1 DUP2 REVERT JUMPDEST POP MLOAD SWAP2 SWAP1 POP JUMP JUMPDEST PUSH1 0x0 DUP1 PUSH1 0x0 DUP1 PUSH1 0x0 PUSH1 0xA0 DUP7 DUP9 SUB SLT ISZERO PUSH2 0x1D1C JUMPI DUP3 DUP4 REVERT JUMPDEST PUSH2 0x1D26 DUP8 DUP8 PUSH2 0x197D JUMP JUMPDEST SWAP5 POP PUSH1 0x20 DUP7 ADD MLOAD SWAP4 POP PUSH1 0x40 DUP7 ADD MLOAD SWAP3 POP PUSH1 0x60 DUP7 ADD MLOAD SWAP2 POP PUSH2 0x1D4A DUP8 PUSH1 0x80 DUP9 ADD PUSH2 0x197D JUMP JUMPDEST SWAP1 POP SWAP3 SWAP6 POP SWAP3 SWAP6 SWAP1 SWAP4 POP JUMP JUMPDEST ISZERO ISZERO SWAP1 MSTORE JUMP JUMPDEST PUSH1 0x0 DUP2 MLOAD DUP1 DUP5 MSTORE PUSH2 0x1D74 DUP2 PUSH1 0x20 DUP7 ADD PUSH1 0x20 DUP7 ADD PUSH2 0x2222 JUMP JUMPDEST PUSH1 0x1F ADD PUSH1 0x1F NOT AND SWAP3 SWAP1 SWAP3 ADD PUSH1 0x20 ADD SWAP3 SWAP2 POP POP JUMP JUMPDEST PUSH1 0x0 DUP3 MLOAD PUSH2 0x1D9A DUP2 DUP5 PUSH1 0x20 DUP8 ADD PUSH2 0x2222 JUMP JUMPDEST SWAP2 SWAP1 SWAP2 ADD SWAP3 SWAP2 POP POP JUMP JUMPDEST PUSH1 0x1 PUSH1 0x1 PUSH1 0xA0 SHL SUB SWAP2 SWAP1 SWAP2 AND DUP2 MSTORE PUSH1 0x20 ADD SWAP1 JUMP JUMPDEST PUSH1 0x1 PUSH1 0x1 PUSH1 0xA0 SHL SUB DUP7 DUP2 AND DUP3 MSTORE DUP6 AND PUSH1 0x20 DUP3 ADD MSTORE PUSH1 0xA0 PUSH1 0x40 DUP3 ADD DUP2 SWAP1 MSTORE PUSH1 0x0 SWAP1 PUSH2 0x1DE4 SWAP1 DUP4 ADD DUP7 PUSH2 0x1D5C JUMP JUMPDEST PUSH1 0x60 DUP4 ADD SWAP5 SWAP1 SWAP5 MSTORE POP SWAP1 ISZERO ISZERO PUSH1 0x80 SWAP1 SWAP2 ADD MSTORE SWAP4 SWAP3 POP POP POP JUMP JUMPDEST PUSH1 0x0 PUSH1 0xA0 DUP3 ADD PUSH1 0x1 DUP1 PUSH1 0xA0 SHL SUB DUP1 DUP10 AND DUP5 MSTORE PUSH1 0x20 DUP2 DUP10 AND DUP2 DUP7 ADD MSTORE PUSH1 0xA0 PUSH1 0x40 DUP7 ADD MSTORE DUP4 SWAP2 POP DUP8 SLOAD PUSH1 0x1 DUP1 DUP3 AND PUSH1 0x0 DUP2 EQ PUSH2 0x1E3E JUMPI PUSH1 0x1 DUP2 EQ PUSH2 0x1E5E JUMPI PUSH2 0x1E99 JUMP JUMPDEST PUSH2 0x1E4E PUSH1 0x7F PUSH1 0x2 DUP6 DIV AND DUP8 PUSH2 0x21C2 JUMP JUMPDEST PUSH1 0xFF NOT DUP5 AND DUP2 MSTORE DUP5 ADD SWAP5 POP PUSH2 0x1E99 JUMP JUMPDEST PUSH1 0x2 DUP4 DIV PUSH2 0x1E6C DUP2 DUP9 PUSH2 0x21C2 JUMP JUMPDEST PUSH2 0x1E75 DUP14 PUSH2 0x2216 JUMP JUMPDEST DUP10 JUMPDEST DUP4 DUP2 LT ISZERO PUSH2 0x1E90 JUMPI DUP2 SLOAD DUP4 DUP3 ADD MSTORE SWAP1 DUP6 ADD SWAP1 DUP8 ADD PUSH2 0x1E77 JUMP JUMPDEST SWAP2 SWAP1 SWAP2 ADD SWAP7 POP POP POP JUMPDEST POP POP POP POP DUP1 SWAP3 POP POP POP DUP4 PUSH1 0x60 DUP4 ADD MSTORE PUSH2 0x1EB5 PUSH1 0x80 DUP4 ADD DUP5 PUSH2 0x1D56 JUMP JUMPDEST SWAP7 SWAP6 POP POP POP POP POP POP JUMP JUMPDEST PUSH1 0x0 PUSH1 0x40 DUP1 DUP4 ADD PUSH1 0x1 DUP1 PUSH1 0xA0 SHL SUB DUP1 DUP8 AND DUP6 MSTORE PUSH1 0x20 DUP4 DUP2 DUP8 ADD MSTORE DUP3 DUP8 SLOAD DUP1 DUP6 MSTORE PUSH1 0x60 SWAP5 POP DUP5 DUP9 ADD SWAP2 POP DUP9 DUP8 MSTORE DUP3 DUP8 KECCAK256 DUP8 JUMPDEST DUP3 DUP2 LT ISZERO PUSH2 0x1F31 JUMPI DUP2 SLOAD DUP7 DUP2 AND DUP6 MSTORE PUSH1 0xFF DUP1 DUP3 PUSH1 0xA0 SHR AND PUSH2 0x1F10 DUP2 PUSH2 0x2252 JUMP JUMPDEST DUP7 DUP9 ADD MSTORE PUSH1 0xA8 SWAP2 SWAP1 SWAP2 SHR AND ISZERO ISZERO DUP9 DUP6 ADD MSTORE SWAP3 DUP7 ADD SWAP3 PUSH1 0x1 SWAP2 DUP3 ADD SWAP2 ADD PUSH2 0x1EF0 JUMP JUMPDEST POP SWAP2 SWAP11 SWAP10 POP POP POP POP POP POP POP POP POP POP JUMP JUMPDEST PUSH1 0x1 PUSH1 0x1 PUSH1 0xA0 SHL SUB DUP5 AND DUP2 MSTORE PUSH1 0x60 DUP2 ADD PUSH2 0x1F5A DUP5 PUSH2 0x2252 JUMP JUMPDEST DUP4 PUSH1 0x20 DUP4 ADD MSTORE DUP3 ISZERO ISZERO PUSH1 0x40 DUP4 ADD MSTORE SWAP5 SWAP4 POP POP POP POP JUMP JUMPDEST PUSH1 0x0 PUSH1 0x20 DUP3 MSTORE PUSH2 0x11E1 PUSH1 0x20 DUP4 ADD DUP5 PUSH2 0x1D5C JUMP JUMPDEST PUSH1 0x20 DUP1 DUP3 MSTORE PUSH1 0x26 SWAP1 DUP3 ADD MSTORE PUSH32 0x4F776E61626C653A206E6577206F776E657220697320746865207A65726F2061 PUSH1 0x40 DUP3 ADD MSTORE PUSH6 0x646472657373 PUSH1 0xD0 SHL PUSH1 0x60 DUP3 ADD MSTORE PUSH1 0x80 ADD SWAP1 JUMP JUMPDEST PUSH1 0x20 DUP1 DUP3 MSTORE PUSH1 0x22 SWAP1 DUP3 ADD MSTORE PUSH32 0x62617365556E6974206D7573742062652067726561746572207468616E207A65 PUSH1 0x40 DUP3 ADD MSTORE PUSH2 0x726F PUSH1 0xF0 SHL PUSH1 0x60 DUP3 ADD MSTORE PUSH1 0x80 ADD SWAP1 JUMP JUMPDEST PUSH1 0x20 DUP1 DUP3 MSTORE PUSH1 0xA SWAP1 DUP3 ADD MSTORE PUSH10 0x62616420706172616D73 PUSH1 0xB0 SHL PUSH1 0x40 DUP3 ADD MSTORE PUSH1 0x60 ADD SWAP1 JUMP JUMPDEST PUSH1 0x20 DUP1 DUP3 MSTORE PUSH1 0x1A SWAP1 DUP3 ADD MSTORE PUSH32 0x536166654D6174683A206469766973696F6E206279207A65726F000000000000 PUSH1 0x40 DUP3 ADD MSTORE PUSH1 0x60 ADD SWAP1 JUMP JUMPDEST PUSH1 0x20 DUP1 DUP3 MSTORE PUSH1 0x1B SWAP1 DUP3 ADD MSTORE PUSH32 0x7072696365206D75737420626967676572207468616E207A65726F0000000000 PUSH1 0x40 DUP3 ADD MSTORE PUSH1 0x60 ADD SWAP1 JUMP JUMPDEST PUSH1 0x20 DUP1 DUP3 MSTORE PUSH1 0x31 SWAP1 DUP3 ADD MSTORE PUSH32 0x736F7572636554797065732E6C656E677468206D75737420657175616C207468 PUSH1 0x40 DUP3 ADD MSTORE PUSH17 0xC2DC40E6DEEAE4C6CAE65CD8CADCCEE8D PUSH1 0x7B SHL PUSH1 0x60 DUP3 ADD MSTORE PUSH1 0x80 ADD SWAP1 JUMP JUMPDEST PUSH1 0x20 DUP1 DUP3 MSTORE PUSH1 0x21 SWAP1 DUP3 ADD MSTORE PUSH32 0x536166654D6174683A206D756C7469706C69636174696F6E206F766572666C6F PUSH1 0x40 DUP3 ADD MSTORE PUSH1 0x77 PUSH1 0xF8 SHL PUSH1 0x60 DUP3 ADD MSTORE PUSH1 0x80 ADD SWAP1 JUMP JUMPDEST PUSH1 0x20 DUP1 DUP3 MSTORE DUP2 DUP2 ADD MSTORE PUSH32 0x4F776E61626C653A2063616C6C6572206973206E6F7420746865206F776E6572 PUSH1 0x40 DUP3 ADD MSTORE PUSH1 0x60 ADD SWAP1 JUMP JUMPDEST PUSH1 0x20 DUP1 DUP3 MSTORE PUSH1 0x40 SWAP1 DUP3 ADD DUP2 SWAP1 MSTORE PUSH32 0x746F6B656E732E6C656E677468206D75737420657175616C207468616E206368 SWAP1 DUP3 ADD MSTORE PUSH32 0x61696E4C696E6B546F6B656E457468507269636546656564732E6C656E677468 PUSH1 0x60 DUP3 ADD MSTORE PUSH1 0x80 ADD SWAP1 JUMP JUMPDEST SWAP1 DUP2 MSTORE PUSH1 0x20 ADD SWAP1 JUMP JUMPDEST PUSH1 0x40 MLOAD DUP2 DUP2 ADD PUSH8 0xFFFFFFFFFFFFFFFF DUP2 GT DUP3 DUP3 LT OR ISZERO PUSH2 0x21EA JUMPI PUSH1 0x0 DUP1 REVERT JUMPDEST PUSH1 0x40 MSTORE SWAP2 SWAP1 POP JUMP JUMPDEST PUSH1 0x0 PUSH8 0xFFFFFFFFFFFFFFFF DUP3 GT ISZERO PUSH2 0x2208 JUMPI DUP1 DUP2 REVERT JUMPDEST POP PUSH1 0x1F ADD PUSH1 0x1F NOT AND PUSH1 0x20 ADD SWAP1 JUMP JUMPDEST PUSH1 0x0 SWAP1 DUP2 MSTORE PUSH1 0x20 SWAP1 KECCAK256 SWAP1 JUMP JUMPDEST PUSH1 0x0 JUMPDEST DUP4 DUP2 LT ISZERO PUSH2 0x223D JUMPI DUP2 DUP2 ADD MLOAD DUP4 DUP3 ADD MSTORE PUSH1 0x20 ADD PUSH2 0x2225 JUMP JUMPDEST DUP4 DUP2 GT ISZERO PUSH2 0x224C JUMPI PUSH1 0x0 DUP5 DUP5 ADD MSTORE JUMPDEST POP POP POP POP JUMP JUMPDEST PUSH1 0x5 DUP2 LT PUSH2 0x225C JUMPI INVALID JUMPDEST POP JUMP JUMPDEST PUSH1 0x1 PUSH1 0x1 PUSH1 0xA0 SHL SUB DUP2 AND DUP2 EQ PUSH2 0x225C JUMPI PUSH1 0x0 DUP1 REVERT JUMPDEST DUP1 ISZERO ISZERO DUP2 EQ PUSH2 0x225C JUMPI PUSH1 0x0 DUP1 REVERT INVALID LOG2 PUSH5 0x6970667358 0x22 SLT KECCAK256 AND CALLDATALOAD 0xB1 0xF8 PUSH21 0xA724E85BBB1D43084D7C921F6E5200139CB0417414 DUP16 0xB0 RETURNDATASIZE CHAINID 0x2A 0xC8 PUSH5 0x736F6C6343 STOP MOD 0xC STOP CALLER "
				},
				"gasEstimates": {
					"creation": {
						"codeDepositCost": "1777600",
						"executionCost": "1869",
						"totalCost": "1779469"
					},
					"external": {
						"addOrUpdateChainLinkTokenEthPriceFeed(address[],address[])": "infinite",
						"addOrUpdateTokenConfigSource(address,uint256,address,uint8,bool)": "infinite",
						"addTokenConfig(address,address,string,uint256,bool,address[],uint8[])": "infinite",
						"chainLinkTokenEthPriceFeed(address)": "1355",
						"ethUsdPriceFeedAddress()": "1159",
						"getOracleSourcePrice(address,uint256)": "infinite",
						"getUnderlyingPrice(address)": "infinite",
						"oracleLength(address)": "1341",
						"oracles(address,uint256)": "infinite",
						"owner()": "1159",
						"renounceOwnership()": "24275",
						"setEthUsdPriceFeedAddress(address)": "22117",
						"tokenConfigs(address)": "infinite",
						"transferOwnership(address)": "24550",
						"updateTokenConfigBaseUnit(address,uint256)": "infinite",
						"updateTokenConfigFixedUsd(address,bool)": "infinite"
					},
					"internal": {
						"_getChainLinkEthBasePriceInternal(struct DeveloperLendPriceProviderV1.PriceOracle memory,struct DeveloperLendPriceProviderV1.TokenConfig memory)": "infinite",
						"_getChainlinkPriceInternal(struct DeveloperLendPriceProviderV1.PriceOracle memory,struct DeveloperLendPriceProviderV1.TokenConfig memory)": "infinite",
						"_getCompoundPriceInternal(struct DeveloperLendPriceProviderV1.PriceOracle memory,struct DeveloperLendPriceProviderV1.TokenConfig memory)": "infinite",
						"_getCustomerPriceInternal(struct DeveloperLendPriceProviderV1.PriceOracle memory,struct DeveloperLendPriceProviderV1.TokenConfig memory)": "infinite",
						"_getUnderlyingPriceInternal(address,struct DeveloperLendPriceProviderV1.TokenConfig memory,struct DeveloperLendPriceProviderV1.PriceOracle memory)": "infinite",
						"_getUniSwapPriceInternal(struct DeveloperLendPriceProviderV1.PriceOracle memory,struct DeveloperLendPriceProviderV1.TokenConfig memory)": "infinite",
						"compareStrings(string memory,string memory)": "infinite"
					}
				},
				"methodIdentifiers": {
					"addOrUpdateChainLinkTokenEthPriceFeed(address[],address[])": "98ee9a13",
					"addOrUpdateTokenConfigSource(address,uint256,address,uint8,bool)": "e316e297",
					"addTokenConfig(address,address,string,uint256,bool,address[],uint8[])": "0e4230a0",
					"chainLinkTokenEthPriceFeed(address)": "8341301a",
					"ethUsdPriceFeedAddress()": "a22e6ee3",
					"getOracleSourcePrice(address,uint256)": "9e237b1c",
					"getUnderlyingPrice(address)": "fc57d4df",
					"oracleLength(address)": "43f5ae36",
					"oracles(address,uint256)": "a00a8b2c",
					"owner()": "8da5cb5b",
					"renounceOwnership()": "715018a6",
					"setEthUsdPriceFeedAddress(address)": "bec69b4f",
					"tokenConfigs(address)": "1b69dc5f",
					"transferOwnership(address)": "f2fde38b",
					"updateTokenConfigBaseUnit(address,uint256)": "49b39fd6",
					"updateTokenConfigFixedUsd(address,bool)": "71cc09a9"
				}
			},
			"storageLayout": {
				"storage": [
					{
						"astId": 95,
						"contract": "oracle/DeveloperLendPriceProviderV1.sol:DeveloperLendPriceProviderV1",
						"label": "initialized",
						"offset": 0,
						"slot": "0",
						"type": "t_bool"
					},
					{
						"astId": 98,
						"contract": "oracle/DeveloperLendPriceProviderV1.sol:DeveloperLendPriceProviderV1",
						"label": "initializing",
						"offset": 1,
						"slot": "0",
						"type": "t_bool"
					},
					{
						"astId": 163,
						"contract": "oracle/DeveloperLendPriceProviderV1.sol:DeveloperLendPriceProviderV1",
						"label": "______gap",
						"offset": 0,
						"slot": "1",
						"type": "t_array(t_uint256)50_storage"
					},
					{
						"astId": 88,
						"contract": "oracle/DeveloperLendPriceProviderV1.sol:DeveloperLendPriceProviderV1",
						"label": "__gap",
						"offset": 0,
						"slot": "51",
						"type": "t_array(t_uint256)50_storage"
					},
					{
						"astId": 174,
						"contract": "oracle/DeveloperLendPriceProviderV1.sol:DeveloperLendPriceProviderV1",
						"label": "_owner",
						"offset": 0,
						"slot": "101",
						"type": "t_address"
					},
					{
						"astId": 293,
						"contract": "oracle/DeveloperLendPriceProviderV1.sol:DeveloperLendPriceProviderV1",
						"label": "__gap",
						"offset": 0,
						"slot": "102",
						"type": "t_array(t_uint256)49_storage"
					},
					{
						"astId": 769,
						"contract": "oracle/DeveloperLendPriceProviderV1.sol:DeveloperLendPriceProviderV1",
						"label": "tokenConfigs",
						"offset": 0,
						"slot": "151",
						"type": "t_mapping(t_address,t_struct(TokenConfig)765_storage)"
					},
					{
						"astId": 774,
						"contract": "oracle/DeveloperLendPriceProviderV1.sol:DeveloperLendPriceProviderV1",
						"label": "oracles",
						"offset": 0,
						"slot": "152",
						"type": "t_mapping(t_address,t_array(t_struct(PriceOracle)754_storage)dyn_storage)"
					},
					{
						"astId": 778,
						"contract": "oracle/DeveloperLendPriceProviderV1.sol:DeveloperLendPriceProviderV1",
						"label": "chainLinkTokenEthPriceFeed",
						"offset": 0,
						"slot": "153",
						"type": "t_mapping(t_address,t_address)"
					},
					{
						"astId": 780,
						"contract": "oracle/DeveloperLendPriceProviderV1.sol:DeveloperLendPriceProviderV1",
						"label": "ethUsdPriceFeedAddress",
						"offset": 0,
						"slot": "154",
						"type": "t_address"
					}
				],
				"types": {
					"t_address": {
						"encoding": "inplace",
						"label": "address",
						"numberOfBytes": "20"
					},
					"t_array(t_struct(PriceOracle)754_storage)dyn_storage": {
						"base": "t_struct(PriceOracle)754_storage",
						"encoding": "dynamic_array",
						"label": "struct DeveloperLendPriceProviderV1.PriceOracle[]",
						"numberOfBytes": "32"
					},
					"t_array(t_uint256)49_storage": {
						"base": "t_uint256",
						"encoding": "inplace",
						"label": "uint256[49]",
						"numberOfBytes": "1568"
					},
					"t_array(t_uint256)50_storage": {
						"base": "t_uint256",
						"encoding": "inplace",
						"label": "uint256[50]",
						"numberOfBytes": "1600"
					},
					"t_bool": {
						"encoding": "inplace",
						"label": "bool",
						"numberOfBytes": "1"
					},
					"t_enum(PriceOracleType)747": {
						"encoding": "inplace",
						"label": "enum DeveloperLendPriceProviderV1.PriceOracleType",
						"numberOfBytes": "1"
					},
					"t_mapping(t_address,t_address)": {
						"encoding": "mapping",
						"key": "t_address",
						"label": "mapping(address => address)",
						"numberOfBytes": "32",
						"value": "t_address"
					},
					"t_mapping(t_address,t_array(t_struct(PriceOracle)754_storage)dyn_storage)": {
						"encoding": "mapping",
						"key": "t_address",
						"label": "mapping(address => struct DeveloperLendPriceProviderV1.PriceOracle[])",
						"numberOfBytes": "32",
						"value": "t_array(t_struct(PriceOracle)754_storage)dyn_storage"
					},
					"t_mapping(t_address,t_struct(TokenConfig)765_storage)": {
						"encoding": "mapping",
						"key": "t_address",
						"label": "mapping(address => struct DeveloperLendPriceProviderV1.TokenConfig)",
						"numberOfBytes": "32",
						"value": "t_struct(TokenConfig)765_storage"
					},
					"t_string_storage": {
						"encoding": "bytes",
						"label": "string",
						"numberOfBytes": "32"
					},
					"t_struct(PriceOracle)754_storage": {
						"encoding": "inplace",
						"label": "struct DeveloperLendPriceProviderV1.PriceOracle",
						"members": [
							{
								"astId": 749,
								"contract": "oracle/DeveloperLendPriceProviderV1.sol:DeveloperLendPriceProviderV1",
								"label": "source",
								"offset": 0,
								"slot": "0",
								"type": "t_address"
							},
							{
								"astId": 751,
								"contract": "oracle/DeveloperLendPriceProviderV1.sol:DeveloperLendPriceProviderV1",
								"label": "sourceType",
								"offset": 20,
								"slot": "0",
								"type": "t_enum(PriceOracleType)747"
							},
							{
								"astId": 753,
								"contract": "oracle/DeveloperLendPriceProviderV1.sol:DeveloperLendPriceProviderV1",
								"label": "available",
								"offset": 21,
								"slot": "0",
								"type": "t_bool"
							}
						],
						"numberOfBytes": "32"
					},
					"t_struct(TokenConfig)765_storage": {
						"encoding": "inplace",
						"label": "struct DeveloperLendPriceProviderV1.TokenConfig",
						"members": [
							{
								"astId": 756,
								"contract": "oracle/DeveloperLendPriceProviderV1.sol:DeveloperLendPriceProviderV1",
								"label": "pToken",
								"offset": 0,
								"slot": "0",
								"type": "t_address"
							},
							{
								"astId": 758,
								"contract": "oracle/DeveloperLendPriceProviderV1.sol:DeveloperLendPriceProviderV1",
								"label": "underlying",
								"offset": 0,
								"slot": "1",
								"type": "t_address"
							},
							{
								"astId": 760,
								"contract": "oracle/DeveloperLendPriceProviderV1.sol:DeveloperLendPriceProviderV1",
								"label": "underlyingSymbol",
								"offset": 0,
								"slot": "2",
								"type": "t_string_storage"
							},
							{
								"astId": 762,
								"contract": "oracle/DeveloperLendPriceProviderV1.sol:DeveloperLendPriceProviderV1",
								"label": "baseUnit",
								"offset": 0,
								"slot": "3",
								"type": "t_uint256"
							},
							{
								"astId": 764,
								"contract": "oracle/DeveloperLendPriceProviderV1.sol:DeveloperLendPriceProviderV1",
								"label": "fixedUsd",
								"offset": 0,
								"slot": "4",
								"type": "t_bool"
							}
						],
						"numberOfBytes": "160"
					},
					"t_uint256": {
						"encoding": "inplace",
						"label": "uint256",
						"numberOfBytes": "32"
					}
				}
			},
			"userdoc": {
				"kind": "user",
				"methods": {},
				"version": 1
			}
		}
	}
}