{
	"data": {
		"bytecode": {
			"linkReferences": {},
			"object": "608060405234801561001057600080fd5b506122b8806100206000396000f3fe608060405234801561001057600080fd5b50600436106101005760003560e01c806398ee9a1311610097578063bec69b4f11610066578063bec69b4f1461020d578063e316e29714610220578063f2fde38b14610233578063fc57d4df1461024657610100565b806398ee9a13146101bd5780639e237b1c146101d0578063a00a8b2c146101e3578063a22e6ee31461020557610100565b8063715018a6116100d3578063715018a61461017a57806371cc09a9146101825780638341301a146101955780638da5cb5b146101b557610100565b80630e4230a0146101055780631b69dc5f1461011a57806343f5ae361461014757806349b39fd614610167575b600080fd5b6101186101133660046119cf565b610259565b005b61012d610128366004611997565b610545565b60405161013e959493929190611db8565b60405180910390f35b61015a610155366004611997565b61060f565b60405161013e91906121c2565b610118610175366004611ad2565b61062e565b61011861070e565b610118610190366004611a9a565b610797565b6101a86101a3366004611997565b61086e565b60405161013e9190611da4565b6101a8610889565b6101186101cb366004611b63565b610898565b61015a6101de366004611ad2565b610971565b6101f66101f1366004611ad2565b610aea565b60405161013e93929190611f41565b6101a8610b34565b61011861021b366004611997565b610b43565b61011861022e366004611afd565b610ba4565b610118610241366004611997565b610d28565b61015a610254366004611997565b610de9565b610261610ffd565b6001600160a01b0316610272610889565b6001600160a01b0316146102a15760405162461bcd60e51b81526004016102989061212f565b60405180910390fd5b825181146102c15760405162461bcd60e51b81526004016102989061209d565b6001600160a01b0380891660009081526097602052604090208054909116156102fc5760405162461bcd60e51b81526004016102989061200b565b80546001600160a01b03808b166001600160a01b0319928316178355600183018054918b1691909216179055865161033d90600283019060208a019061174c565b506003810186905560048101805460ff19168615151790556001600160a01b03891660009081526098602052604090205460011161038d5760405162461bcd60e51b81526004016102989061200b565b60005b84518110156104a8576000609860008c6001600160a01b03166001600160a01b0316815260200190815260200160002090508060405180606001604052808885815181106103da57fe5b60200260200101516001600160a01b031681526020018787868181106103fc57fe5b90506020020160208101906104119190611bc4565b600481111561041c57fe5b815260016020918201819052835490810184556000938452928190208251930180546001600160a01b0319166001600160a01b03909416939093178084559082015191929190829060ff60a01b1916600160a01b83600481111561047c57fe5b0217905550604091909101518154901515600160a81b0260ff60a81b1990911617905550600101610390565b507f7e55bc43e6f0111474264fd86152c4a3e172abc29a15f5474298510ce6ff69ea89898989896040516104e0959493929190611db8565b60405180910390a16001600160a01b0389166000908152609860205260409081902090517f3305406be9630a8e3735461ddfb1c43204cdc73f28649e8038cafb44584d14bc91610532918c9190611ebf565b60405180910390a1505050505050505050565b60976020908152600091825260409182902080546001808301546002808501805488516101009582161595909502600019011691909104601f81018790048702840187019097528683526001600160a01b03938416969390911694919290918301828280156105f55780601f106105ca576101008083540402835291602001916105f5565b820191906000526020600020905b8154815290600101906020018083116105d857829003601f168201915b50505050600383015460049093015491929160ff16905085565b6001600160a01b0381166000908152609860205260409020545b919050565b610636610ffd565b6001600160a01b0316610647610889565b6001600160a01b03161461066d5760405162461bcd60e51b81526004016102989061212f565b6001600160a01b03808316600090815260976020526040902080549091166106a75760405162461bcd60e51b81526004016102989061200b565b60038101829055600181015460048201546040517f7e55bc43e6f0111474264fd86152c4a3e172abc29a15f5474298510ce6ff69ea926107019287926001600160a01b03909216916002870191889160ff90911690611dfd565b60405180910390a1505050565b610716610ffd565b6001600160a01b0316610727610889565b6001600160a01b03161461074d5760405162461bcd60e51b81526004016102989061212f565b6065546040516000916001600160a01b0316907f8be0079c531659141344cd1fd0a4f28419497f9722a3daafe3b4186f6b6457e0908390a3606580546001600160a01b0319169055565b61079f610ffd565b6001600160a01b03166107b0610889565b6001600160a01b0316146107d65760405162461bcd60e51b81526004016102989061212f565b6001600160a01b03808316600090815260976020526040902080549091166108105760405162461bcd60e51b81526004016102989061200b565b60048101805460ff1916831515179055600181015460038201546040517f7e55bc43e6f0111474264fd86152c4a3e172abc29a15f5474298510ce6ff69ea926107019287926001600160a01b03909216916002870191908890611dfd565b6099602052600090815260409020546001600160a01b031681565b6065546001600160a01b031690565b6108a0610ffd565b6001600160a01b03166108b1610889565b6001600160a01b0316146108d75760405162461bcd60e51b81526004016102989061212f565b80518251146108f85760405162461bcd60e51b815260040161029890612164565b60005b825181101561096c57600083828151811061091257fe5b6020026020010151905082828151811061092857fe5b6020908102919091018101516001600160a01b0392831660009081526099909252604090912080546001600160a01b031916929091169190911790556001016108fb565b505050565b6001600160a01b03828116600090815260976020908152604080832060988352818420825160a081018452825487168152600180840154909716818601526002808401805486516101009a8216159a909a02600019011691909104601f81018790048702890187018652808952969793969295610adf958b9593948994918601939192830182828015610a455780601f10610a1a57610100808354040283529160200191610a45565b820191906000526020600020905b815481529060010190602001808311610a2857829003601f168201915b50505091835250506003820154602082015260049091015460ff1615156040909101528354849088908110610a7657fe5b60009182526020918290206040805160608101909152910180546001600160a01b03811683529192909190830190600160a01b900460ff166004811115610ab957fe5b6004811115610ac457fe5b81529054600160a81b900460ff161515602090910152611001565b925050505b92915050565b60986020528160005260406000208181548110610b0357fe5b6000918252602090912001546001600160a01b038116925060ff600160a01b820481169250600160a81b9091041683565b609a546001600160a01b031681565b610b4b610ffd565b6001600160a01b0316610b5c610889565b6001600160a01b031614610b825760405162461bcd60e51b81526004016102989061212f565b609a80546001600160a01b0319166001600160a01b0392909216919091179055565b610bac610ffd565b6001600160a01b0316610bbd610889565b6001600160a01b031614610be35760405162461bcd60e51b81526004016102989061212f565b6001600160a01b03851660009081526098602052604090208054851015610c75576000818681548110610c1257fe5b600091825260209091200180546001600160a01b0319166001600160a01b038716178082559091508490829060ff60a01b1916600160a01b836004811115610c5657fe5b0217905550805460ff60a81b1916600160a81b84151502179055610d20565b806040518060600160405280866001600160a01b03168152602001856004811115610c9c57fe5b815284151560209182015282546001810184556000938452928190208251930180546001600160a01b0319166001600160a01b03909416939093178084559082015191929190829060ff60a01b1916600160a01b836004811115610cfc57fe5b0217905550604091909101518154901515600160a81b0260ff60a81b199091161790555b505050505050565b610d30610ffd565b6001600160a01b0316610d41610889565b6001600160a01b031614610d675760405162461bcd60e51b81526004016102989061212f565b6001600160a01b038116610d8d5760405162461bcd60e51b815260040161029890611f83565b6065546040516001600160a01b038084169216907f8be0079c531659141344cd1fd0a4f28419497f9722a3daafe3b4186f6b6457e090600090a3606580546001600160a01b0319166001600160a01b0392909216919091179055565b6001600160a01b0381166000908152609760205260408120600481015482919060ff1615610e4657600381015460019250610e3d90610e37846ec097ce7bc90715b34b9f10000000006111e8565b90611222565b92505050610629565b6001600160a01b0384166000908152609860205260408120905b8154811015610fd1576000828281548110610e7757fe5b60009182526020909120018054909150600160a81b900460ff16151560011415610fc8576040805160a08101825285546001600160a01b0390811682526001808801549091166020808401919091526002808901805486516101009582161595909502600019011691909104601f81018390048302840183018652808452610fb3958d95948b949186019390929091830182828015610f575780601f10610f2c57610100808354040283529160200191610f57565b820191906000526020600020905b815481529060010190602001808311610f3a57829003601f168201915b5050509183525050600382015460208083019190915260049283015460ff908116151560409384015282516060810190935287546001600160a01b03811684529293889392850192600160a01b900490911690811115610ab957fe5b94508415610fc8578495505050505050610629565b50600101610e60565b5060008311610ff25760405162461bcd60e51b815260040161029890612066565b506000949350505050565b3390565b60008073eeeeeeeeeeeeeeeeeeeeeeeeeeeeeeeeeeeeeeee905060008590506110bc816001600160a01b03166395d89b416040518163ffffffff1660e01b815260040160006040518083038186803b15801561105c57600080fd5b505afa158015611070573d6000803e3d6000fd5b505050506040513d6000823e601f3d908101601f191682016040526110989190810190611bdf565b60405180604001604052806006815260200165704d4154494360d01b815250611254565b61113457856001600160a01b0316636f307dc36040518163ffffffff1660e01b815260040160206040518083038186803b1580156110f957600080fd5b505afa15801561110d573d6000803e3d6000fd5b505050506040513d601f19601f8201168201806040525081019061113191906119b3565b91505b6020840151600081600481111561114757fe5b14156111615761115785876112ad565b93505050506111e1565b600181600481111561116f57fe5b141561117f57611157858761138f565b600281600481111561118d57fe5b141561119d576111578587611457565b60038160048111156111ab57fe5b14156111bb576111578587611573565b60048160048111156111c957fe5b14156111d95761115785876115ac565b600093505050505b9392505050565b6000826111f757506000610ae4565b8282028284828161120457fe5b04146111e15760405162461bcd60e51b8152600401610298906120ee565b60008082116112435760405162461bcd60e51b81526004016102989061202f565b81838161124c57fe5b049392505050565b6000816040516020016112679190611d88565b604051602081830303815290604052805190602001208360405160200161128e9190611d88565b6040516020818303038152906040528051906020012014905092915050565b6000808260600151116112d25760405162461bcd60e51b815260040161029890611fc9565b6000836000015190506000816001600160a01b031663feaf968c6040518163ffffffff1660e01b815260040160a06040518083038186803b15801561131657600080fd5b505afa15801561132a573d6000803e3d6000fd5b505050506040513d601f19601f8201168201806040525081019061134e9190611d05565b5050509150506000811361136757600092505050610ae4565b606084015161138690610e37836b204fce5e3e250261100000006111e8565b92505050610ae4565b81516020820151604051630141c63160e51b815260009291829184916001600160a01b03841691632838c620916113c891600401611da4565b60206040518083038186803b1580156113e057600080fd5b505afa1580156113f4573d6000803e3d6000fd5b505050506040513d601f19601f820116820180604052508101906114189190611ced565b90506000811161142e5760009350505050610ae4565b606085015161144d90610e37836b204fce5e3e250261100000006111e8565b9350505050610ae4565b8151600090806114656117ca565b60408086015190516313b6165d60e11b81526001600160a01b0384169163276c2cba916114959190600401611f70565b6101006040518083038186803b1580156114ae57600080fd5b505afa1580156114c2573d6000803e3d6000fd5b505050506040513d601f19601f820116820180604052508101906114e69190611c52565b805160405163fc57d4df60e01b8152919250906001600160a01b0384169063fc57d4df90611518908490600401611da4565b60206040518083038186803b15801561153057600080fd5b505afa158015611544573d6000803e3d6000fd5b505050506040513d601f19601f820116820180604052508101906115689190611ced565b979650505050505050565b815160208201516040516341976e0960e01b815260009291829184916001600160a01b038416916341976e09916113c891600401611da4565b6000808260600151116115d15760405162461bcd60e51b815260040161029890611fc9565b6020808301516001600160a01b03808216600090815260999093526040808420548151633fabe5a360e21b815291519394921692839163feaf968c9160048083019260a0929190829003018186803b15801561162c57600080fd5b505afa158015611640573d6000803e3d6000fd5b505050506040513d601f19601f820116820180604052508101906116649190611d05565b5050509150506000609a60009054906101000a90046001600160a01b031690506000816001600160a01b031663feaf968c6040518163ffffffff1660e01b815260040160a06040518083038186803b1580156116bf57600080fd5b505afa1580156116d3573d6000803e3d6000fd5b505050506040513d601f19601f820116820180604052508101906116f79190611d05565b5050509150506000831361171357600095505050505050610ae4565b606087015161173590610e376402540be40061172f87866111e8565b906111e8565b95505050505050610ae4565b505050505092915050565b828054600181600116156101000203166002900490600052602060002090601f016020900481019282601f1061178d57805160ff19168380011785556117ba565b828001600101855582156117ba579182015b828111156117ba57825182559160200191906001019061179f565b506117c692915061180f565b5090565b60408051610100810182526000808252602082018190529181018290526060810182905290608082019081526000602082018190526040820181905260609091015290565b5b808211156117c65760008155600101611810565b8051610ae48161225f565b600082601f83011261183f578081fd5b813567ffffffffffffffff811115611855578182fd5b60208082026118658282016121cb565b8381529350818401858301828701840188101561188157600080fd5b600092505b848310156117415780356118998161225f565b825260019290920191908301908301611886565b60008083601f8401126118be578081fd5b50813567ffffffffffffffff8111156118d5578182fd5b60208301915083602080830285010111156118ef57600080fd5b9250929050565b8035610ae481612274565b8051610ae481612274565b803560058110610ae457600080fd5b805160038110610ae457600080fd5b600082601f83011261193a578081fd5b813561194d611948826121f2565b6121cb565b915080825283602082850101111561196457600080fd5b8060208401602084013760009082016020015292915050565b805169ffffffffffffffffffff81168114610ae457600080fd5b6000602082840312156119a8578081fd5b81356111e18161225f565b6000602082840312156119c4578081fd5b81516111e18161225f565b60008060008060008060008060e0898b0312156119ea578384fd5b88356119f58161225f565b97506020890135611a058161225f565b9650604089013567ffffffffffffffff80821115611a21578586fd5b611a2d8c838d0161192a565b975060608b01359650611a438c60808d016118f6565b955060a08b0135915080821115611a58578485fd5b611a648c838d0161182f565b945060c08b0135915080821115611a79578384fd5b50611a868b828c016118ad565b999c989b5096995094979396929594505050565b60008060408385031215611aac578182fd5b8235611ab78161225f565b91506020830135611ac781612274565b809150509250929050565b60008060408385031215611ae4578182fd5b8235611aef8161225f565b946020939093013593505050565b600080600080600060a08688031215611b14578081fd5b8535611b1f8161225f565b9450602086013593506040860135611b368161225f565b9250611b45876060880161190c565b91506080860135611b5581612274565b809150509295509295909350565b60008060408385031215611b75578182fd5b823567ffffffffffffffff80821115611b8c578384fd5b611b988683870161182f565b93506020850135915080821115611bad578283fd5b50611bba8582860161182f565b9150509250929050565b600060208284031215611bd5578081fd5b6111e1838361190c565b600060208284031215611bf0578081fd5b815167ffffffffffffffff811115611c06578182fd5b8201601f81018413611c16578182fd5b8051611c24611948826121f2565b818152856020838501011115611c38578384fd5b611c49826020830160208601612222565b95945050505050565b6000610100808385031215611c65578182fd5b611c6e816121cb565b90508251611c7b8161225f565b81526020830151611c8b8161225f565b806020830152506040830151604082015260608301516060820152611cb3846080850161191b565b608082015260a083015160a0820152611ccf8460c08501611824565b60c0820152611ce18460e08501611901565b60e08201529392505050565b600060208284031215611cfe578081fd5b5051919050565b600080600080600060a08688031215611d1c578283fd5b611d26878761197d565b9450602086015193506040860151925060608601519150611d4a876080880161197d565b90509295509295909350565b15159052565b60008151808452611d74816020860160208601612222565b601f01601f19169290920160200192915050565b60008251611d9a818460208701612222565b9190910192915050565b6001600160a01b0391909116815260200190565b6001600160a01b0386811682528516602082015260a060408201819052600090611de490830186611d5c565b6060830194909452509015156080909101529392505050565b600060a0820160018060a01b03808916845260208189168186015260a060408601528391508754600180821660008114611e3e5760018114611e5e57611e99565b611e4e607f6002850416876121c2565b60ff198416815284019450611e99565b60028304611e6c81886121c2565b611e758d612216565b895b83811015611e9057815483820152908501908701611e77565b91909101965050505b505050508092505050836060830152611eb56080830184611d56565b9695505050505050565b6000604080830160018060a01b03808716855260208381870152828754808552606094508488019150888752828720875b82811015611f31578154868116855260ff808260a01c16611f1081612252565b8688015260a89190911c161515888501529286019260019182019101611ef0565b50919a9950505050505050505050565b6001600160a01b038416815260608101611f5a84612252565b8360208301528215156040830152949350505050565b6000602082526111e16020830184611d5c565b60208082526026908201527f4f776e61626c653a206e6577206f776e657220697320746865207a65726f206160408201526564647265737360d01b606082015260800190565b60208082526022908201527f62617365556e6974206d7573742062652067726561746572207468616e207a65604082015261726f60f01b606082015260800190565b6020808252600a908201526962616420706172616d7360b01b604082015260600190565b6020808252601a908201527f536166654d6174683a206469766973696f6e206279207a65726f000000000000604082015260600190565b6020808252601b908201527f7072696365206d75737420626967676572207468616e207a65726f0000000000604082015260600190565b60208082526031908201527f736f7572636554797065732e6c656e677468206d75737420657175616c2074686040820152700c2dc40e6deeae4c6cae65cd8cadccee8d607b1b606082015260800190565b60208082526021908201527f536166654d6174683a206d756c7469706c69636174696f6e206f766572666c6f6040820152607760f81b606082015260800190565b6020808252818101527f4f776e61626c653a2063616c6c6572206973206e6f7420746865206f776e6572604082015260600190565b602080825260409082018190527f746f6b656e732e6c656e677468206d75737420657175616c207468616e206368908201527f61696e4c696e6b546f6b656e457468507269636546656564732e6c656e677468606082015260800190565b90815260200190565b60405181810167ffffffffffffffff811182821017156121ea57600080fd5b604052919050565b600067ffffffffffffffff821115612208578081fd5b50601f01601f191660200190565b60009081526020902090565b60005b8381101561223d578181015183820152602001612225565b8381111561224c576000848401525b50505050565b6005811061225c57fe5b50565b6001600160a01b038116811461225c57600080fd5b801515811461225c57600080fdfea26469706673582212201635b1f874a724e85bbb1d43084d7c921f6e5200139cb04174148fb03d462ac864736f6c634300060c0033",
			"opcodes": "PUSH1 0x80 PUSH1 0x40 MSTORE CALLVALUE DUP1 ISZERO PUSH2 0x10 JUMPI PUSH1 0x0 DUP1 REVERT JUMPDEST POP PUSH2 0x22B8 DUP1 PUSH2 0x20 PUSH1 0x0 CODECOPY PUSH1 0x0 RETURN INVALID PUSH1 0x80 PUSH1 0x40 MSTORE CALLVALUE DUP1 ISZERO PUSH2 0x10 JUMPI PUSH1 0x0 DUP1 REVERT JUMPDEST POP PUSH1 0x4 CALLDATASIZE LT PUSH2 0x100 JUMPI PUSH1 0x0 CALLDATALOAD PUSH1 0xE0 SHR DUP1 PUSH4 0x98EE9A13 GT PUSH2 0x97 JUMPI DUP1 PUSH4 0xBEC69B4F GT PUSH2 0x66 JUMPI DUP1 PUSH4 0xBEC69B4F EQ PUSH2 0x20D JUMPI DUP1 PUSH4 0xE316E297 EQ PUSH2 0x220 JUMPI DUP1 PUSH4 0xF2FDE38B EQ PUSH2 0x233 JUMPI DUP1 PUSH4 0xFC57D4DF EQ PUSH2 0x246 JUMPI PUSH2 0x100 JUMP JUMPDEST DUP1 PUSH4 0x98EE9A13 EQ PUSH2 0x1BD JUMPI DUP1 PUSH4 0x9E237B1C EQ PUSH2 0x1D0 JUMPI DUP1 PUSH4 0xA00A8B2C EQ PUSH2 0x1E3 JUMPI DUP1 PUSH4 0xA22E6EE3 EQ PUSH2 0x205 JUMPI PUSH2 0x100 JUMP JUMPDEST DUP1 PUSH4 0x715018A6 GT PUSH2 0xD3 JUMPI DUP1 PUSH4 0x715018A6 EQ PUSH2 0x17A JUMPI DUP1 PUSH4 0x71CC09A9 EQ PUSH2 0x182 JUMPI DUP1 PUSH4 0x8341301A EQ PUSH2 0x195 JUMPI DUP1 PUSH4 0x8DA5CB5B EQ PUSH2 0x1B5 JUMPI PUSH2 0x100 JUMP JUMPDEST DUP1 PUSH4 0xE4230A0 EQ PUSH2 0x105 JUMPI DUP1 PUSH4 0x1B69DC5F EQ PUSH2 0x11A JUMPI DUP1 PUSH4 0x43F5AE36 EQ PUSH2 0x147 JUMPI DUP1 PUSH4 0x49B39FD6 EQ PUSH2 0x167 JUMPI JUMPDEST PUSH1 0x0 DUP1 REVERT JUMPDEST PUSH2 0x118 PUSH2 0x113 CALLDATASIZE PUSH1 0x4 PUSH2 0x19CF JUMP JUMPDEST PUSH2 0x259 JUMP JUMPDEST STOP JUMPDEST PUSH2 0x12D PUSH2 0x128 CALLDATASIZE PUSH1 0x4 PUSH2 0x1997 JUMP JUMPDEST PUSH2 0x545 JUMP JUMPDEST PUSH1 0x40 MLOAD PUSH2 0x13E SWAP6 SWAP5 SWAP4 SWAP3 SWAP2 SWAP1 PUSH2 0x1DB8 JUMP JUMPDEST PUSH1 0x40 MLOAD DUP1 SWAP2 SUB SWAP1 RETURN JUMPDEST PUSH2 0x15A PUSH2 0x155 CALLDATASIZE PUSH1 0x4 PUSH2 0x1997 JUMP JUMPDEST PUSH2 0x60F JUMP JUMPDEST PUSH1 0x40 MLOAD PUSH2 0x13E SWAP2 SWAP1 PUSH2 0x21C2 JUMP JUMPDEST PUSH2 0x118 PUSH2 0x175 CALLDATASIZE PUSH1 0x4 PUSH2 0x1AD2 JUMP JUMPDEST PUSH2 0x62E JUMP JUMPDEST PUSH2 0x118 PUSH2 0x70E JUMP JUMPDEST PUSH2 0x118 PUSH2 0x190 CALLDATASIZE PUSH1 0x4 PUSH2 0x1A9A JUMP JUMPDEST PUSH2 0x797 JUMP JUMPDEST PUSH2 0x1A8 PUSH2 0x1A3 CALLDATASIZE PUSH1 0x4 PUSH2 0x1997 JUMP JUMPDEST PUSH2 0x86E JUMP JUMPDEST PUSH1 0x40 MLOAD PUSH2 0x13E SWAP2 SWAP1 PUSH2 0x1DA4 JUMP JUMPDEST PUSH2 0x1A8 PUSH2 0x889 JUMP JUMPDEST PUSH2 0x118 PUSH2 0x1CB CALLDATASIZE PUSH1 0x4 PUSH2 0x1B63 JUMP JUMPDEST PUSH2 0x898 JUMP JUMPDEST PUSH2 0x15A PUSH2 0x1DE CALLDATASIZE PUSH1 0x4 PUSH2 0x1AD2 JUMP JUMPDEST PUSH2 0x971 JUMP JUMPDEST PUSH2 0x1F6 PUSH2 0x1F1 CALLDATASIZE PUSH1 0x4 PUSH2 0x1AD2 JUMP JUMPDEST PUSH2 0xAEA JUMP JUMPDEST PUSH1 0x40 MLOAD PUSH2 0x13E SWAP4 SWAP3 SWAP2 SWAP1 PUSH2 0x1F41 JUMP JUMPDEST PUSH2 0x1A8 PUSH2 0xB34 JUMP JUMPDEST PUSH2 0x118 PUSH2 0x21B CALLDATASIZE PUSH1 0x4 PUSH2 0x1997 JUMP JUMPDEST PUSH2 0xB43 JUMP JUMPDEST PUSH2 0x118 PUSH2 0x22E CALLDATASIZE PUSH1 0x4 PUSH2 0x1AFD JUMP JUMPDEST PUSH2 0xBA4 JUMP JUMPDEST PUSH2 0x118 PUSH2 0x241 CALLDATASIZE PUSH1 0x4 PUSH2 0x1997 JUMP JUMPDEST PUSH2 0xD28 JUMP JUMPDEST PUSH2 0x15A PUSH2 0x254 CALLDATASIZE PUSH1 0x4 PUSH2 0x1997 JUMP JUMPDEST PUSH2 0xDE9 JUMP JUMPDEST PUSH2 0x261 PUSH2 0xFFD JUMP JUMPDEST PUSH1 0x1 PUSH1 0x1 PUSH1 0xA0 SHL SUB AND PUSH2 0x272 PUSH2 0x889 JUMP JUMPDEST PUSH1 0x1 PUSH1 0x1 PUSH1 0xA0 SHL SUB AND EQ PUSH2 0x2A1 JUMPI PUSH1 0x40 MLOAD PUSH3 0x461BCD PUSH1 0xE5 SHL DUP2 MSTORE PUSH1 0x4 ADD PUSH2 0x298 SWAP1 PUSH2 0x212F JUMP JUMPDEST PUSH1 0x40 MLOAD DUP1 SWAP2 SUB SWAP1 REVERT JUMPDEST DUP3 MLOAD DUP2 EQ PUSH2 0x2C1 JUMPI PUSH1 0x40 MLOAD PUSH3 0x461BCD PUSH1 0xE5 SHL DUP2 MSTORE PUSH1 0x4 ADD PUSH2 0x298 SWAP1 PUSH2 0x209D JUMP JUMPDEST PUSH1 0x1 PUSH1 0x1 PUSH1 0xA0 SHL SUB DUP1 DUP10 AND PUSH1 0x0 SWAP1 DUP2 MSTORE PUSH1 0x97 PUSH1 0x20 MSTORE PUSH1 0x40 SWAP1 KECCAK256 DUP1 SLOAD SWAP1 SWAP2 AND ISZERO PUSH2 0x2FC JUMPI PUSH1 0x40 MLOAD PUSH3 0x461BCD PUSH1 0xE5 SHL DUP2 MSTORE PUSH1 0x4 ADD PUSH2 0x298 SWAP1 PUSH2 0x200B JUMP JUMPDEST DUP1 SLOAD PUSH1 0x1 PUSH1 0x1 PUSH1 0xA0 SHL SUB DUP1 DUP12 AND PUSH1 0x1 PUSH1 0x1 PUSH1 0xA0 SHL SUB NOT SWAP3 DUP4 AND OR DUP4 SSTORE PUSH1 0x1 DUP4 ADD DUP1 SLOAD SWAP2 DUP12 AND SWAP2 SWAP1 SWAP3 AND OR SWAP1 SSTORE DUP7 MLOAD PUSH2 0x33D SWAP1 PUSH1 0x2 DUP4 ADD SWAP1 PUSH1 0x20 DUP11 ADD SWAP1 PUSH2 0x174C JUMP JUMPDEST POP PUSH1 0x3 DUP2 ADD DUP7 SWAP1 SSTORE PUSH1 0x4 DUP2 ADD DUP1 SLOAD PUSH1 0xFF NOT AND DUP7 ISZERO ISZERO OR SWAP1 SSTORE PUSH1 0x1 PUSH1 0x1 PUSH1 0xA0 SHL SUB DUP10 AND PUSH1 0x0 SWAP1 DUP2 MSTORE PUSH1 0x98 PUSH1 0x20 MSTORE PUSH1 0x40 SWAP1 KECCAK256 SLOAD PUSH1 0x1 GT PUSH2 0x38D JUMPI PUSH1 0x40 MLOAD PUSH3 0x461BCD PUSH1 0xE5 SHL DUP2 MSTORE PUSH1 0x4 ADD PUSH2 0x298 SWAP1 PUSH2 0x200B JUMP JUMPDEST PUSH1 0x0 JUMPDEST DUP5 MLOAD DUP2 LT ISZERO PUSH2 0x4A8 JUMPI PUSH1 0x0 PUSH1 0x98 PUSH1 0x0 DUP13 PUSH1 0x1 PUSH1 0x1 PUSH1 0xA0 SHL SUB AND PUSH1 0x1 PUSH1 0x1 PUSH1 0xA0 SHL SUB AND DUP2 MSTORE PUSH1 0x20 ADD SWAP1 DUP2 MSTORE PUSH1 0x20 ADD PUSH1 0x0 KECCAK256 SWAP1 POP DUP1 PUSH1 0x40 MLOAD DUP1 PUSH1 0x60 ADD PUSH1 0x40 MSTORE DUP1 DUP9 DUP6 DUP2 MLOAD DUP2 LT PUSH2 0x3DA JUMPI INVALID JUMPDEST PUSH1 0x20 MUL PUSH1 0x20 ADD ADD MLOAD PUSH1 0x1 PUSH1 0x1 PUSH1 0xA0 SHL SUB AND DUP2 MSTORE PUSH1 0x20 ADD DUP8 DUP8 DUP7 DUP2 DUP2 LT PUSH2 0x3FC JUMPI INVALID JUMPDEST SWAP1 POP PUSH1 0x20 MUL ADD PUSH1 0x20 DUP2 ADD SWAP1 PUSH2 0x411 SWAP2 SWAP1 PUSH2 0x1BC4 JUMP JUMPDEST PUSH1 0x4 DUP2 GT ISZERO PUSH2 0x41C JUMPI INVALID JUMPDEST DUP2 MSTORE PUSH1 0x1 PUSH1 0x20 SWAP2 DUP3 ADD DUP2 SWAP1 MSTORE DUP4 SLOAD SWAP1 DUP2 ADD DUP5 SSTORE PUSH1 0x0 SWAP4 DUP5 MSTORE SWAP3 DUP2 SWAP1 KECCAK256 DUP3 MLOAD SWAP4 ADD DUP1 SLOAD PUSH1 0x1 PUSH1 0x1 PUSH1 0xA0 SHL SUB NOT AND PUSH1 0x1 PUSH1 0x1 PUSH1 0xA0 SHL SUB SWAP1 SWAP5 AND SWAP4 SWAP1 SWAP4 OR DUP1 DUP5 SSTORE SWAP1 DUP3 ADD MLOAD SWAP2 SWAP3 SWAP2 SWAP1 DUP3 SWAP1 PUSH1 0xFF PUSH1 0xA0 SHL NOT AND PUSH1 0x1 PUSH1 0xA0 SHL DUP4 PUSH1 0x4 DUP2 GT ISZERO PUSH2 0x47C JUMPI INVALID JUMPDEST MUL OR SWAP1 SSTORE POP PUSH1 0x40 SWAP2 SWAP1 SWAP2 ADD MLOAD DUP2 SLOAD SWAP1 ISZERO ISZERO PUSH1 0x1 PUSH1 0xA8 SHL MUL PUSH1 0xFF PUSH1 0xA8 SHL NOT SWAP1 SWAP2 AND OR SWAP1 SSTORE POP PUSH1 0x1 ADD PUSH2 0x390 JUMP JUMPDEST POP PUSH32 0x7E55BC43E6F0111474264FD86152C4A3E172ABC29A15F5474298510CE6FF69EA DUP10 DUP10 DUP10 DUP10 DUP10 PUSH1 0x40 MLOAD PUSH2 0x4E0 SWAP6 SWAP5 SWAP4 SWAP3 SWAP2 SWAP1 PUSH2 0x1DB8 JUMP JUMPDEST PUSH1 0x40 MLOAD DUP1 SWAP2 SUB SWAP1 LOG1 PUSH1 0x1 PUSH1 0x1 PUSH1 0xA0 SHL SUB DUP10 AND PUSH1 0x0 SWAP1 DUP2 MSTORE PUSH1 0x98 PUSH1 0x20 MSTORE PUSH1 0x40 SWAP1 DUP2 SWAP1 KECCAK256 SWAP1 MLOAD PUSH32 0x3305406BE9630A8E3735461DDFB1C43204CDC73F28649E8038CAFB44584D14BC SWAP2 PUSH2 0x532 SWAP2 DUP13 SWAP2 SWAP1 PUSH2 0x1EBF JUMP JUMPDEST PUSH1 0x40 MLOAD DUP1 SWAP2 SUB SWAP1 LOG1 POP POP POP POP POP POP POP POP POP JUMP JUMPDEST PUSH1 0x97 PUSH1 0x20 SWAP1 DUP2 MSTORE PUSH1 0x0 SWAP2 DUP3 MSTORE PUSH1 0x40 SWAP2 DUP3 SWAP1 KECCAK256 DUP1 SLOAD PUSH1 0x1 DUP1 DUP4 ADD SLOAD PUSH1 0x2 DUP1 DUP6 ADD DUP1 SLOAD DUP9 MLOAD PUSH2 0x100 SWAP6 DUP3 AND ISZERO SWAP6 SWAP1 SWAP6 MUL PUSH1 0x0 NOT ADD AND SWAP2 SWAP1 SWAP2 DIV PUSH1 0x1F DUP2 ADD DUP8 SWAP1 DIV DUP8 MUL DUP5 ADD DUP8 ADD SWAP1 SWAP8 MSTORE DUP7 DUP4 MSTORE PUSH1 0x1 PUSH1 0x1 PUSH1 0xA0 SHL SUB SWAP4 DUP5 AND SWAP7 SWAP4 SWAP1 SWAP2 AND SWAP5 SWAP2 SWAP3 SWAP1 SWAP2 DUP4 ADD DUP3 DUP3 DUP1 ISZERO PUSH2 0x5F5 JUMPI DUP1 PUSH1 0x1F LT PUSH2 0x5CA JUMPI PUSH2 0x100 DUP1 DUP4 SLOAD DIV MUL DUP4 MSTORE SWAP2 PUSH1 0x20 ADD SWAP2 PUSH2 0x5F5 JUMP JUMPDEST DUP3 ADD SWAP2 SWAP1 PUSH1 0x0 MSTORE PUSH1 0x20 PUSH1 0x0 KECCAK256 SWAP1 JUMPDEST DUP2 SLOAD DUP2 MSTORE SWAP1 PUSH1 0x1 ADD SWAP1 PUSH1 0x20 ADD DUP1 DUP4 GT PUSH2 0x5D8 JUMPI DUP3 SWAP1 SUB PUSH1 0x1F AND DUP3 ADD SWAP2 JUMPDEST POP POP POP POP PUSH1 0x3 DUP4 ADD SLOAD PUSH1 0x4 SWAP1 SWAP4 ADD SLOAD SWAP2 SWAP3 SWAP2 PUSH1 0xFF AND SWAP1 POP DUP6 JUMP JUMPDEST PUSH1 0x1 PUSH1 0x1 PUSH1 0xA0 SHL SUB DUP2 AND PUSH1 0x0 SWAP1 DUP2 MSTORE PUSH1 0x98 PUSH1 0x20 MSTORE PUSH1 0x40 SWAP1 KECCAK256 SLOAD JUMPDEST SWAP2 SWAP1 POP JUMP JUMPDEST PUSH2 0x636 PUSH2 0xFFD JUMP JUMPDEST PUSH1 0x1 PUSH1 0x1 PUSH1 0xA0 SHL SUB AND PUSH2 0x647 PUSH2 0x889 JUMP JUMPDEST PUSH1 0x1 PUSH1 0x1 PUSH1 0xA0 SHL SUB AND EQ PUSH2 0x66D JUMPI PUSH1 0x40 MLOAD PUSH3 0x461BCD PUSH1 0xE5 SHL DUP2 MSTORE PUSH1 0x4 ADD PUSH2 0x298 SWAP1 PUSH2 0x212F JUMP JUMPDEST PUSH1 0x1 PUSH1 0x1 PUSH1 0xA0 SHL SUB DUP1 DUP4 AND PUSH1 0x0 SWAP1 DUP2 MSTORE PUSH1 0x97 PUSH1 0x20 MSTORE PUSH1 0x40 SWAP1 KECCAK256 DUP1 SLOAD SWAP1 SWAP2 AND PUSH2 0x6A7 JUMPI PUSH1 0x40 MLOAD PUSH3 0x461BCD PUSH1 0xE5 SHL DUP2 MSTORE PUSH1 0x4 ADD PUSH2 0x298 SWAP1 PUSH2 0x200B JUMP JUMPDEST PUSH1 0x3 DUP2 ADD DUP3 SWAP1 SSTORE PUSH1 0x1 DUP2 ADD SLOAD PUSH1 0x4 DUP3 ADD SLOAD PUSH1 0x40 MLOAD PUSH32 0x7E55BC43E6F0111474264FD86152C4A3E172ABC29A15F5474298510CE6FF69EA SWAP3 PUSH2 0x701 SWAP3 DUP8 SWAP3 PUSH1 0x1 PUSH1 0x1 PUSH1 0xA0 SHL SUB SWAP1 SWAP3 AND SWAP2 PUSH1 0x2 DUP8 ADD SWAP2 DUP9 SWAP2 PUSH1 0xFF SWAP1 SWAP2 AND SWAP1 PUSH2 0x1DFD JUMP JUMPDEST PUSH1 0x40 MLOAD DUP1 SWAP2 SUB SWAP1 LOG1 POP POP POP JUMP JUMPDEST PUSH2 0x716 PUSH2 0xFFD JUMP JUMPDEST PUSH1 0x1 PUSH1 0x1 PUSH1 0xA0 SHL SUB AND PUSH2 0x727 PUSH2 0x889 JUMP JUMPDEST PUSH1 0x1 PUSH1 0x1 PUSH1 0xA0 SHL SUB AND EQ PUSH2 0x74D JUMPI PUSH1 0x40 MLOAD PUSH3 0x461BCD PUSH1 0xE5 SHL DUP2 MSTORE PUSH1 0x4 ADD PUSH2 0x298 SWAP1 PUSH2 0x212F JUMP JUMPDEST PUSH1 0x65 SLOAD PUSH1 0x40 MLOAD PUSH1 0x0 SWAP2 PUSH1 0x1 PUSH1 0x1 PUSH1 0xA0 SHL SUB AND SWAP1 PUSH32 0x8BE0079C531659141344CD1FD0A4F28419497F9722A3DAAFE3B4186F6B6457E0 SWAP1 DUP4 SWAP1 LOG3 PUSH1 0x65 DUP1 SLOAD PUSH1 0x1 PUSH1 0x1 PUSH1 0xA0 SHL SUB NOT AND SWAP1 SSTORE JUMP JUMPDEST PUSH2 0x79F PUSH2 0xFFD JUMP JUMPDEST PUSH1 0x1 PUSH1 0x1 PUSH1 0xA0 SHL SUB AND PUSH2 0x7B0 PUSH2 0x889 JUMP JUMPDEST PUSH1 0x1 PUSH1 0x1 PUSH1 0xA0 SHL SUB AND EQ PUSH2 0x7D6 JUMPI PUSH1 0x40 MLOAD PUSH3 0x461BCD PUSH1 0xE5 SHL DUP2 MSTORE PUSH1 0x4 ADD PUSH2 0x298 SWAP1 PUSH2 0x212F JUMP JUMPDEST PUSH1 0x1 PUSH1 0x1 PUSH1 0xA0 SHL SUB DUP1 DUP4 AND PUSH1 0x0 SWAP1 DUP2 MSTORE PUSH1 0x97 PUSH1 0x20 MSTORE PUSH1 0x40 SWAP1 KECCAK256 DUP1 SLOAD SWAP1 SWAP2 AND PUSH2 0x810 JUMPI PUSH1 0x40 MLOAD PUSH3 0x461BCD PUSH1 0xE5 SHL DUP2 MSTORE PUSH1 0x4 ADD PUSH2 0x298 SWAP1 PUSH2 0x200B JUMP JUMPDEST PUSH1 0x4 DUP2 ADD DUP1 SLOAD PUSH1 0xFF NOT AND DUP4 ISZERO ISZERO OR SWAP1 SSTORE PUSH1 0x1 DUP2 ADD SLOAD PUSH1 0x3 DUP3 ADD SLOAD PUSH1 0x40 MLOAD PUSH32 0x7E55BC43E6F0111474264FD86152C4A3E172ABC29A15F5474298510CE6FF69EA SWAP3 PUSH2 0x701 SWAP3 DUP8 SWAP3 PUSH1 0x1 PUSH1 0x1 PUSH1 0xA0 SHL SUB SWAP1 SWAP3 AND SWAP2 PUSH1 0x2 DUP8 ADD SWAP2 SWAP1 DUP9 SWAP1 PUSH2 0x1DFD JUMP JUMPDEST PUSH1 0x99 PUSH1 0x20 MSTORE PUSH1 0x0 SWAP1 DUP2 MSTORE PUSH1 0x40 SWAP1 KECCAK256 SLOAD PUSH1 0x1 PUSH1 0x1 PUSH1 0xA0 SHL SUB AND DUP2 JUMP JUMPDEST PUSH1 0x65 SLOAD PUSH1 0x1 PUSH1 0x1 PUSH1 0xA0 SHL SUB AND SWAP1 JUMP JUMPDEST PUSH2 0x8A0 PUSH2 0xFFD JUMP JUMPDEST PUSH1 0x1 PUSH1 0x1 PUSH1 0xA0 SHL SUB AND PUSH2 0x8B1 PUSH2 0x889 JUMP JUMPDEST PUSH1 0x1 PUSH1 0x1 PUSH1 0xA0 SHL SUB AND EQ PUSH2 0x8D7 JUMPI PUSH1 0x40 MLOAD PUSH3 0x461BCD PUSH1 0xE5 SHL DUP2 MSTORE PUSH1 0x4 ADD PUSH2 0x298 SWAP1 PUSH2 0x212F JUMP JUMPDEST DUP1 MLOAD DUP3 MLOAD EQ PUSH2 0x8F8 JUMPI PUSH1 0x40 MLOAD PUSH3 0x461BCD PUSH1 0xE5 SHL DUP2 MSTORE PUSH1 0x4 ADD PUSH2 0x298 SWAP1 PUSH2 0x2164 JUMP JUMPDEST PUSH1 0x0 JUMPDEST DUP3 MLOAD DUP2 LT ISZERO PUSH2 0x96C JUMPI PUSH1 0x0 DUP4 DUP3 DUP2 MLOAD DUP2 LT PUSH2 0x912 JUMPI INVALID JUMPDEST PUSH1 0x20 MUL PUSH1 0x20 ADD ADD MLOAD SWAP1 POP DUP3 DUP3 DUP2 MLOAD DUP2 LT PUSH2 0x928 JUMPI INVALID JUMPDEST PUSH1 0x20 SWAP1 DUP2 MUL SWAP2 SWAP1 SWAP2 ADD DUP2 ADD MLOAD PUSH1 0x1 PUSH1 0x1 PUSH1 0xA0 SHL SUB SWAP3 DUP4 AND PUSH1 0x0 SWAP1 DUP2 MSTORE PUSH1 0x99 SWAP1 SWAP3 MSTORE PUSH1 0x40 SWAP1 SWAP2 KECCAK256 DUP1 SLOAD PUSH1 0x1 PUSH1 0x1 PUSH1 0xA0 SHL SUB NOT AND SWAP3 SWAP1 SWAP2 AND SWAP2 SWAP1 SWAP2 OR SWAP1 SSTORE PUSH1 0x1 ADD PUSH2 0x8FB JUMP JUMPDEST POP POP POP JUMP JUMPDEST PUSH1 0x1 PUSH1 0x1 PUSH1 0xA0 SHL SUB DUP3 DUP2 AND PUSH1 0x0 SWAP1 DUP2 MSTORE PUSH1 0x97 PUSH1 0x20 SWAP1 DUP2 MSTORE PUSH1 0x40 DUP1 DUP4 KECCAK256 PUSH1 0x98 DUP4 MSTORE DUP2 DUP5 KECCAK256 DUP3 MLOAD PUSH1 0xA0 DUP2 ADD DUP5 MSTORE DUP3 SLOAD DUP8 AND DUP2 MSTORE PUSH1 0x1 DUP1 DUP5 ADD SLOAD SWAP1 SWAP8 AND DUP2 DUP7 ADD MSTORE PUSH1 0x2 DUP1 DUP5 ADD DUP1 SLOAD DUP7 MLOAD PUSH2 0x100 SWAP11 DUP3 AND ISZERO SWAP11 SWAP1 SWAP11 MUL PUSH1 0x0 NOT ADD AND SWAP2 SWAP1 SWAP2 DIV PUSH1 0x1F DUP2 ADD DUP8 SWAP1 DIV DUP8 MUL DUP10 ADD DUP8 ADD DUP7 MSTORE DUP1 DUP10 MSTORE SWAP7 SWAP8 SWAP4 SWAP7 SWAP3 SWAP6 PUSH2 0xADF SWAP6 DUP12 SWAP6 SWAP4 SWAP5 DUP10 SWAP5 SWAP2 DUP7 ADD SWAP4 SWAP2 SWAP3 DUP4 ADD DUP3 DUP3 DUP1 ISZERO PUSH2 0xA45 JUMPI DUP1 PUSH1 0x1F LT PUSH2 0xA1A JUMPI PUSH2 0x100 DUP1 DUP4 SLOAD DIV MUL DUP4 MSTORE SWAP2 PUSH1 0x20 ADD SWAP2 PUSH2 0xA45 JUMP JUMPDEST DUP3 ADD SWAP2 SWAP1 PUSH1 0x0 MSTORE PUSH1 0x20 PUSH1 0x0 KECCAK256 SWAP1 JUMPDEST DUP2 SLOAD DUP2 MSTORE SWAP1 PUSH1 0x1 ADD SWAP1 PUSH1 0x20 ADD DUP1 DUP4 GT PUSH2 0xA28 JUMPI DUP3 SWAP1 SUB PUSH1 0x1F AND DUP3 ADD SWAP2 JUMPDEST POP POP POP SWAP2 DUP4 MSTORE POP POP PUSH1 0x3 DUP3 ADD SLOAD PUSH1 0x20 DUP3 ADD MSTORE PUSH1 0x4 SWAP1 SWAP2 ADD SLOAD PUSH1 0xFF AND ISZERO ISZERO PUSH1 0x40 SWAP1 SWAP2 ADD MSTORE DUP4 SLOAD DUP5 SWAP1 DUP9 SWAP1 DUP2 LT PUSH2 0xA76 JUMPI INVALID JUMPDEST PUSH1 0x0 SWAP2 DUP3 MSTORE PUSH1 0x20 SWAP2 DUP3 SWAP1 KECCAK256 PUSH1 0x40 DUP1 MLOAD PUSH1 0x60 DUP2 ADD SWAP1 SWAP2 MSTORE SWAP2 ADD DUP1 SLOAD PUSH1 0x1 PUSH1 0x1 PUSH1 0xA0 SHL SUB DUP2 AND DUP4 MSTORE SWAP2 SWAP3 SWAP1 SWAP2 SWAP1 DUP4 ADD SWAP1 PUSH1 0x1 PUSH1 0xA0 SHL SWAP1 DIV PUSH1 0xFF AND PUSH1 0x4 DUP2 GT ISZERO PUSH2 0xAB9 JUMPI INVALID JUMPDEST PUSH1 0x4 DUP2 GT ISZERO PUSH2 0xAC4 JUMPI INVALID JUMPDEST DUP2 MSTORE SWAP1 SLOAD PUSH1 0x1 PUSH1 0xA8 SHL SWAP1 DIV PUSH1 0xFF AND ISZERO ISZERO PUSH1 0x20 SWAP1 SWAP2 ADD MSTORE PUSH2 0x1001 JUMP JUMPDEST SWAP3 POP POP POP JUMPDEST SWAP3 SWAP2 POP POP JUMP JUMPDEST PUSH1 0x98 PUSH1 0x20 MSTORE DUP2 PUSH1 0x0 MSTORE PUSH1 0x40 PUSH1 0x0 KECCAK256 DUP2 DUP2 SLOAD DUP2 LT PUSH2 0xB03 JUMPI INVALID JUMPDEST PUSH1 0x0 SWAP2 DUP3 MSTORE PUSH1 0x20 SWAP1 SWAP2 KECCAK256 ADD SLOAD PUSH1 0x1 PUSH1 0x1 PUSH1 0xA0 SHL SUB DUP2 AND SWAP3 POP PUSH1 0xFF PUSH1 0x1 PUSH1 0xA0 SHL DUP3 DIV DUP2 AND SWAP3 POP PUSH1 0x1 PUSH1 0xA8 SHL SWAP1 SWAP2 DIV AND DUP4 JUMP JUMPDEST PUSH1 0x9A SLOAD PUSH1 0x1 PUSH1 0x1 PUSH1 0xA0 SHL SUB AND DUP2 JUMP JUMPDEST PUSH2 0xB4B PUSH2 0xFFD JUMP JUMPDEST PUSH1 0x1 PUSH1 0x1 PUSH1 0xA0 SHL SUB AND PUSH2 0xB5C PUSH2 0x889 JUMP JUMPDEST PUSH1 0x1 PUSH1 0x1 PUSH1 0xA0 SHL SUB AND EQ PUSH2 0xB82 JUMPI PUSH1 0x40 MLOAD PUSH3 0x461BCD PUSH1 0xE5 SHL DUP2 MSTORE PUSH1 0x4 ADD PUSH2 0x298 SWAP1 PUSH2 0x212F JUMP JUMPDEST PUSH1 0x9A DUP1 SLOAD PUSH1 0x1 PUSH1 0x1 PUSH1 0xA0 SHL SUB NOT AND PUSH1 0x1 PUSH1 0x1 PUSH1 0xA0 SHL SUB SWAP3 SWAP1 SWAP3 AND SWAP2 SWAP1 SWAP2 OR SWAP1 SSTORE JUMP JUMPDEST PUSH2 0xBAC PUSH2 0xFFD JUMP JUMPDEST PUSH1 0x1 PUSH1 0x1 PUSH1 0xA0 SHL SUB AND PUSH2 0xBBD PUSH2 0x889 JUMP JUMPDEST PUSH1 0x1 PUSH1 0x1 PUSH1 0xA0 SHL SUB AND EQ PUSH2 0xBE3 JUMPI PUSH1 0x40 MLOAD PUSH3 0x461BCD PUSH1 0xE5 SHL DUP2 MSTORE PUSH1 0x4 ADD PUSH2 0x298 SWAP1 PUSH2 0x212F JUMP JUMPDEST PUSH1 0x1 PUSH1 0x1 PUSH1 0xA0 SHL SUB DUP6 AND PUSH1 0x0 SWAP1 DUP2 MSTORE PUSH1 0x98 PUSH1 0x20 MSTORE PUSH1 0x40 SWAP1 KECCAK256 DUP1 SLOAD DUP6 LT ISZERO PUSH2 0xC75 JUMPI PUSH1 0x0 DUP2 DUP7 DUP2 SLOAD DUP2 LT PUSH2 0xC12 JUMPI INVALID JUMPDEST PUSH1 0x0 SWAP2 DUP3 MSTORE PUSH1 0x20 SWAP1 SWAP2 KECCAK256 ADD DUP1 SLOAD PUSH1 0x1 PUSH1 0x1 PUSH1 0xA0 SHL SUB NOT AND PUSH1 0x1 PUSH1 0x1 PUSH1 0xA0 SHL SUB DUP8 AND OR DUP1 DUP3 SSTORE SWAP1 SWAP2 POP DUP5 SWAP1 DUP3 SWAP1 PUSH1 0xFF PUSH1 0xA0 SHL NOT AND PUSH1 0x1 PUSH1 0xA0 SHL DUP4 PUSH1 0x4 DUP2 GT ISZERO PUSH2 0xC56 JUMPI INVALID JUMPDEST MUL OR SWAP1 SSTORE POP DUP1 SLOAD PUSH1 0xFF PUSH1 0xA8 SHL NOT AND PUSH1 0x1 PUSH1 0xA8 SHL DUP5 ISZERO ISZERO MUL OR SWAP1 SSTORE PUSH2 0xD20 JUMP JUMPDEST DUP1 PUSH1 0x40 MLOAD DUP1 PUSH1 0x60 ADD PUSH1 0x40 MSTORE DUP1 DUP7 PUSH1 0x1 PUSH1 0x1 PUSH1 0xA0 SHL SUB AND DUP2 MSTORE PUSH1 0x20 ADD DUP6 PUSH1 0x4 DUP2 GT ISZERO PUSH2 0xC9C JUMPI INVALID JUMPDEST DUP2 MSTORE DUP5 ISZERO ISZERO PUSH1 0x20 SWAP2 DUP3 ADD MSTORE DUP3 SLOAD PUSH1 0x1 DUP2 ADD DUP5 SSTORE PUSH1 0x0 SWAP4 DUP5 MSTORE SWAP3 DUP2 SWAP1 KECCAK256 DUP3 MLOAD SWAP4 ADD DUP1 SLOAD PUSH1 0x1 PUSH1 0x1 PUSH1 0xA0 SHL SUB NOT AND PUSH1 0x1 PUSH1 0x1 PUSH1 0xA0 SHL SUB SWAP1 SWAP5 AND SWAP4 SWAP1 SWAP4 OR DUP1 DUP5 SSTORE SWAP1 DUP3 ADD MLOAD SWAP2 SWAP3 SWAP2 SWAP1 DUP3 SWAP1 PUSH1 0xFF PUSH1 0xA0 SHL NOT AND PUSH1 0x1 PUSH1 0xA0 SHL DUP4 PUSH1 0x4 DUP2 GT ISZERO PUSH2 0xCFC JUMPI INVALID JUMPDEST MUL OR SWAP1 SSTORE POP PUSH1 0x40 SWAP2 SWAP1 SWAP2 ADD MLOAD DUP2 SLOAD SWAP1 ISZERO ISZERO PUSH1 0x1 PUSH1 0xA8 SHL MUL PUSH1 0xFF PUSH1 0xA8 SHL NOT SWAP1 SWAP2 AND OR SWAP1 SSTORE JUMPDEST POP POP POP POP POP POP JUMP JUMPDEST PUSH2 0xD30 PUSH2 0xFFD JUMP JUMPDEST PUSH1 0x1 PUSH1 0x1 PUSH1 0xA0 SHL SUB AND PUSH2 0xD41 PUSH2 0x889 JUMP JUMPDEST PUSH1 0x1 PUSH1 0x1 PUSH1 0xA0 SHL SUB AND EQ PUSH2 0xD67 JUMPI PUSH1 0x40 MLOAD PUSH3 0x461BCD PUSH1 0xE5 SHL DUP2 MSTORE PUSH1 0x4 ADD PUSH2 0x298 SWAP1 PUSH2 0x212F JUMP JUMPDEST PUSH1 0x1 PUSH1 0x1 PUSH1 0xA0 SHL SUB DUP2 AND PUSH2 0xD8D JUMPI PUSH1 0x40 MLOAD PUSH3 0x461BCD PUSH1 0xE5 SHL DUP2 MSTORE PUSH1 0x4 ADD PUSH2 0x298 SWAP1 PUSH2 0x1F83 JUMP JUMPDEST PUSH1 0x65 SLOAD PUSH1 0x40 MLOAD PUSH1 0x1 PUSH1 0x1 PUSH1 0xA0 SHL SUB DUP1 DUP5 AND SWAP3 AND SWAP1 PUSH32 0x8BE0079C531659141344CD1FD0A4F28419497F9722A3DAAFE3B4186F6B6457E0 SWAP1 PUSH1 0x0 SWAP1 LOG3 PUSH1 0x65 DUP1 SLOAD PUSH1 0x1 PUSH1 0x1 PUSH1 0xA0 SHL SUB NOT AND PUSH1 0x1 PUSH1 0x1 PUSH1 0xA0 SHL SUB SWAP3 SWAP1 SWAP3 AND SWAP2 SWAP1 SWAP2 OR SWAP1 SSTORE JUMP JUMPDEST PUSH1 0x1 PUSH1 0x1 PUSH1 0xA0 SHL SUB DUP2 AND PUSH1 0x0 SWAP1 DUP2 MSTORE PUSH1 0x97 PUSH1 0x20 MSTORE PUSH1 0x40 DUP2 KECCAK256 PUSH1 0x4 DUP2 ADD SLOAD DUP3 SWAP2 SWAP1 PUSH1 0xFF AND ISZERO PUSH2 0xE46 JUMPI PUSH1 0x3 DUP2 ADD SLOAD PUSH1 0x1 SWAP3 POP PUSH2 0xE3D SWAP1 PUSH2 0xE37 DUP5 PUSH15 0xC097CE7BC90715B34B9F1000000000 PUSH2 0x11E8 JUMP JUMPDEST SWAP1 PUSH2 0x1222 JUMP JUMPDEST SWAP3 POP POP POP PUSH2 0x629 JUMP JUMPDEST PUSH1 0x1 PUSH1 0x1 PUSH1 0xA0 SHL SUB DUP5 AND PUSH1 0x0 SWAP1 DUP2 MSTORE PUSH1 0x98 PUSH1 0x20 MSTORE PUSH1 0x40 DUP2 KECCAK256 SWAP1 JUMPDEST DUP2 SLOAD DUP2 LT ISZERO PUSH2 0xFD1 JUMPI PUSH1 0x0 DUP3 DUP3 DUP2 SLOAD DUP2 LT PUSH2 0xE77 JUMPI INVALID JUMPDEST PUSH1 0x0 SWAP2 DUP3 MSTORE PUSH1 0x20 SWAP1 SWAP2 KECCAK256 ADD DUP1 SLOAD SWAP1 SWAP2 POP PUSH1 0x1 PUSH1 0xA8 SHL SWAP1 DIV PUSH1 0xFF AND ISZERO ISZERO PUSH1 0x1 EQ ISZERO PUSH2 0xFC8 JUMPI PUSH1 0x40 DUP1 MLOAD PUSH1 0xA0 DUP2 ADD DUP3 MSTORE DUP6 SLOAD PUSH1 0x1 PUSH1 0x1 PUSH1 0xA0 SHL SUB SWAP1 DUP2 AND DUP3 MSTORE PUSH1 0x1 DUP1 DUP9 ADD SLOAD SWAP1 SWAP2 AND PUSH1 0x20 DUP1 DUP5 ADD SWAP2 SWAP1 SWAP2 MSTORE PUSH1 0x2 DUP1 DUP10 ADD DUP1 SLOAD DUP7 MLOAD PUSH2 0x100 SWAP6 DUP3 AND ISZERO SWAP6 SWAP1 SWAP6 MUL PUSH1 0x0 NOT ADD AND SWAP2 SWAP1 SWAP2 DIV PUSH1 0x1F DUP2 ADD DUP4 SWAP1 DIV DUP4 MUL DUP5 ADD DUP4 ADD DUP7 MSTORE DUP1 DUP5 MSTORE PUSH2 0xFB3 SWAP6 DUP14 SWAP6 SWAP5 DUP12 SWAP5 SWAP2 DUP7 ADD SWAP4 SWAP1 SWAP3 SWAP1 SWAP2 DUP4 ADD DUP3 DUP3 DUP1 ISZERO PUSH2 0xF57 JUMPI DUP1 PUSH1 0x1F LT PUSH2 0xF2C JUMPI PUSH2 0x100 DUP1 DUP4 SLOAD DIV MUL DUP4 MSTORE SWAP2 PUSH1 0x20 ADD SWAP2 PUSH2 0xF57 JUMP JUMPDEST DUP3 ADD SWAP2 SWAP1 PUSH1 0x0 MSTORE PUSH1 0x20 PUSH1 0x0 KECCAK256 SWAP1 JUMPDEST DUP2 SLOAD DUP2 MSTORE SWAP1 PUSH1 0x1 ADD SWAP1 PUSH1 0x20 ADD DUP1 DUP4 GT PUSH2 0xF3A JUMPI DUP3 SWAP1 SUB PUSH1 0x1F AND DUP3 ADD SWAP2 JUMPDEST POP POP POP SWAP2 DUP4 MSTORE POP POP PUSH1 0x3 DUP3 ADD SLOAD PUSH1 0x20 DUP1 DUP4 ADD SWAP2 SWAP1 SWAP2 MSTORE PUSH1 0x4 SWAP3 DUP4 ADD SLOAD PUSH1 0xFF SWAP1 DUP2 AND ISZERO ISZERO PUSH1 0x40 SWAP4 DUP5 ADD MSTORE DUP3 MLOAD PUSH1 0x60 DUP2 ADD SWAP1 SWAP4 MSTORE DUP8 SLOAD PUSH1 0x1 PUSH1 0x1 PUSH1 0xA0 SHL SUB DUP2 AND DUP5 MSTORE SWAP3 SWAP4 DUP9 SWAP4 SWAP3 DUP6 ADD SWAP3 PUSH1 0x1 PUSH1 0xA0 SHL SWAP1 DIV SWAP1 SWAP2 AND SWAP1 DUP2 GT ISZERO PUSH2 0xAB9 JUMPI INVALID JUMPDEST SWAP5 POP DUP5 ISZERO PUSH2 0xFC8 JUMPI DUP5 SWAP6 POP POP POP POP POP POP PUSH2 0x629 JUMP JUMPDEST POP PUSH1 0x1 ADD PUSH2 0xE60 JUMP JUMPDEST POP PUSH1 0x0 DUP4 GT PUSH2 0xFF2 JUMPI PUSH1 0x40 MLOAD PUSH3 0x461BCD PUSH1 0xE5 SHL DUP2 MSTORE PUSH1 0x4 ADD PUSH2 0x298 SWAP1 PUSH2 0x2066 JUMP JUMPDEST POP PUSH1 0x0 SWAP5 SWAP4 POP POP POP POP JUMP JUMPDEST CALLER SWAP1 JUMP JUMPDEST PUSH1 0x0 DUP1 PUSH20 0xEEEEEEEEEEEEEEEEEEEEEEEEEEEEEEEEEEEEEEEE SWAP1 POP PUSH1 0x0 DUP6 SWAP1 POP PUSH2 0x10BC DUP2 PUSH1 0x1 PUSH1 0x1 PUSH1 0xA0 SHL SUB AND PUSH4 0x95D89B41 PUSH1 0x40 MLOAD DUP2 PUSH4 0xFFFFFFFF AND PUSH1 0xE0 SHL DUP2 MSTORE PUSH1 0x4 ADD PUSH1 0x0 PUSH1 0x40 MLOAD DUP1 DUP4 SUB DUP2 DUP7 DUP1 EXTCODESIZE ISZERO DUP1 ISZERO PUSH2 0x105C JUMPI PUSH1 0x0 DUP1 REVERT JUMPDEST POP GAS STATICCALL ISZERO DUP1 ISZERO PUSH2 0x1070 JUMPI RETURNDATASIZE PUSH1 0x0 DUP1 RETURNDATACOPY RETURNDATASIZE PUSH1 0x0 REVERT JUMPDEST POP POP POP POP PUSH1 0x40 MLOAD RETURNDATASIZE PUSH1 0x0 DUP3 RETURNDATACOPY PUSH1 0x1F RETURNDATASIZE SWAP1 DUP2 ADD PUSH1 0x1F NOT AND DUP3 ADD PUSH1 0x40 MSTORE PUSH2 0x1098 SWAP2 SWAP1 DUP2 ADD SWAP1 PUSH2 0x1BDF JUMP JUMPDEST PUSH1 0x40 MLOAD DUP1 PUSH1 0x40 ADD PUSH1 0x40 MSTORE DUP1 PUSH1 0x6 DUP2 MSTORE PUSH1 0x20 ADD PUSH6 0x704D41544943 PUSH1 0xD0 SHL DUP2 MSTORE POP PUSH2 0x1254 JUMP JUMPDEST PUSH2 0x1134 JUMPI DUP6 PUSH1 0x1 PUSH1 0x1 PUSH1 0xA0 SHL SUB AND PUSH4 0x6F307DC3 PUSH1 0x40 MLOAD DUP2 PUSH4 0xFFFFFFFF AND PUSH1 0xE0 SHL DUP2 MSTORE PUSH1 0x4 ADD PUSH1 0x20 PUSH1 0x40 MLOAD DUP1 DUP4 SUB DUP2 DUP7 DUP1 EXTCODESIZE ISZERO DUP1 ISZERO PUSH2 0x10F9 JUMPI PUSH1 0x0 DUP1 REVERT JUMPDEST POP GAS STATICCALL ISZERO DUP1 ISZERO PUSH2 0x110D JUMPI RETURNDATASIZE PUSH1 0x0 DUP1 RETURNDATACOPY RETURNDATASIZE PUSH1 0x0 REVERT JUMPDEST POP POP POP POP PUSH1 0x40 MLOAD RETURNDATASIZE PUSH1 0x1F NOT PUSH1 0x1F DUP3 ADD AND DUP3 ADD DUP1 PUSH1 0x40 MSTORE POP DUP2 ADD SWAP1 PUSH2 0x1131 SWAP2 SWAP1 PUSH2 0x19B3 JUMP JUMPDEST SWAP2 POP JUMPDEST PUSH1 0x20 DUP5 ADD MLOAD PUSH1 0x0 DUP2 PUSH1 0x4 DUP2 GT ISZERO PUSH2 0x1147 JUMPI INVALID JUMPDEST EQ ISZERO PUSH2 0x1161 JUMPI PUSH2 0x1157 DUP6 DUP8 PUSH2 0x12AD JUMP JUMPDEST SWAP4 POP POP POP POP PUSH2 0x11E1 JUMP JUMPDEST PUSH1 0x1 DUP2 PUSH1 0x4 DUP2 GT ISZERO PUSH2 0x116F JUMPI INVALID JUMPDEST EQ ISZERO PUSH2 0x117F JUMPI PUSH2 0x1157 DUP6 DUP8 PUSH2 0x138F JUMP JUMPDEST PUSH1 0x2 DUP2 PUSH1 0x4 DUP2 GT ISZERO PUSH2 0x118D JUMPI INVALID JUMPDEST EQ ISZERO PUSH2 0x119D JUMPI PUSH2 0x1157 DUP6 DUP8 PUSH2 0x1457 JUMP JUMPDEST PUSH1 0x3 DUP2 PUSH1 0x4 DUP2 GT ISZERO PUSH2 0x11AB JUMPI INVALID JUMPDEST EQ ISZERO PUSH2 0x11BB JUMPI PUSH2 0x1157 DUP6 DUP8 PUSH2 0x1573 JUMP JUMPDEST PUSH1 0x4 DUP2 PUSH1 0x4 DUP2 GT ISZERO PUSH2 0x11C9 JUMPI INVALID JUMPDEST EQ ISZERO PUSH2 0x11D9 JUMPI PUSH2 0x1157 DUP6 DUP8 PUSH2 0x15AC JUMP JUMPDEST PUSH1 0x0 SWAP4 POP POP POP POP JUMPDEST SWAP4 SWAP3 POP POP POP JUMP JUMPDEST PUSH1 0x0 DUP3 PUSH2 0x11F7 JUMPI POP PUSH1 0x0 PUSH2 0xAE4 JUMP JUMPDEST DUP3 DUP3 MUL DUP3 DUP5 DUP3 DUP2 PUSH2 0x1204 JUMPI INVALID JUMPDEST DIV EQ PUSH2 0x11E1 JUMPI PUSH1 0x40 MLOAD PUSH3 0x461BCD PUSH1 0xE5 SHL DUP2 MSTORE PUSH1 0x4 ADD PUSH2 0x298 SWAP1 PUSH2 0x20EE JUMP JUMPDEST PUSH1 0x0 DUP1 DUP3 GT PUSH2 0x1243 JUMPI PUSH1 0x40 MLOAD PUSH3 0x461BCD PUSH1 0xE5 SHL DUP2 MSTORE PUSH1 0x4 ADD PUSH2 0x298 SWAP1 PUSH2 0x202F JUMP JUMPDEST DUP2 DUP4 DUP2 PUSH2 0x124C JUMPI INVALID JUMPDEST DIV SWAP4 SWAP3 POP POP POP JUMP JUMPDEST PUSH1 0x0 DUP2 PUSH1 0x40 MLOAD PUSH1 0x20 ADD PUSH2 0x1267 SWAP2 SWAP1 PUSH2 0x1D88 JUMP JUMPDEST PUSH1 0x40 MLOAD PUSH1 0x20 DUP2 DUP4 SUB SUB DUP2 MSTORE SWAP1 PUSH1 0x40 MSTORE DUP1 MLOAD SWAP1 PUSH1 0x20 ADD KECCAK256 DUP4 PUSH1 0x40 MLOAD PUSH1 0x20 ADD PUSH2 0x128E SWAP2 SWAP1 PUSH2 0x1D88 JUMP JUMPDEST PUSH1 0x40 MLOAD PUSH1 0x20 DUP2 DUP4 SUB SUB DUP2 MSTORE SWAP1 PUSH1 0x40 MSTORE DUP1 MLOAD SWAP1 PUSH1 0x20 ADD KECCAK256 EQ SWAP1 POP SWAP3 SWAP2 POP POP JUMP JUMPDEST PUSH1 0x0 DUP1 DUP3 PUSH1 0x60 ADD MLOAD GT PUSH2 0x12D2 JUMPI PUSH1 0x40 MLOAD PUSH3 0x461BCD PUSH1 0xE5 SHL DUP2 MSTORE PUSH1 0x4 ADD PUSH2 0x298 SWAP1 PUSH2 0x1FC9 JUMP JUMPDEST PUSH1 0x0 DUP4 PUSH1 0x0 ADD MLOAD SWAP1 POP PUSH1 0x0 DUP2 PUSH1 0x1 PUSH1 0x1 PUSH1 0xA0 SHL SUB AND PUSH4 0xFEAF968C PUSH1 0x40 MLOAD DUP2 PUSH4 0xFFFFFFFF AND PUSH1 0xE0 SHL DUP2 MSTORE PUSH1 0x4 ADD PUSH1 0xA0 PUSH1 0x40 MLOAD DUP1 DUP4 SUB DUP2 DUP7 DUP1 EXTCODESIZE ISZERO DUP1 ISZERO PUSH2 0x1316 JUMPI PUSH1 0x0 DUP1 REVERT JUMPDEST POP GAS STATICCALL ISZERO DUP1 ISZERO PUSH2 0x132A JUMPI RETURNDATASIZE PUSH1 0x0 DUP1 RETURNDATACOPY RETURNDATASIZE PUSH1 0x0 REVERT JUMPDEST POP POP POP POP PUSH1 0x40 MLOAD RETURNDATASIZE PUSH1 0x1F NOT PUSH1 0x1F DUP3 ADD AND DUP3 ADD DUP1 PUSH1 0x40 MSTORE POP DUP2 ADD SWAP1 PUSH2 0x134E SWAP2 SWAP1 PUSH2 0x1D05 JUMP JUMPDEST POP POP POP SWAP2 POP POP PUSH1 0x0 DUP2 SGT PUSH2 0x1367 JUMPI PUSH1 0x0 SWAP3 POP POP POP PUSH2 0xAE4 JUMP JUMPDEST PUSH1 0x60 DUP5 ADD MLOAD PUSH2 0x1386 SWAP1 PUSH2 0xE37 DUP4 PUSH12 0x204FCE5E3E25026110000000 PUSH2 0x11E8 JUMP JUMPDEST SWAP3 POP POP POP PUSH2 0xAE4 JUMP JUMPDEST DUP2 MLOAD PUSH1 0x20 DUP3 ADD MLOAD PUSH1 0x40 MLOAD PUSH4 0x141C631 PUSH1 0xE5 SHL DUP2 MSTORE PUSH1 0x0 SWAP3 SWAP2 DUP3 SWAP2 DUP5 SWAP2 PUSH1 0x1 PUSH1 0x1 PUSH1 0xA0 SHL SUB DUP5 AND SWAP2 PUSH4 0x2838C620 SWAP2 PUSH2 0x13C8 SWAP2 PUSH1 0x4 ADD PUSH2 0x1DA4 JUMP JUMPDEST PUSH1 0x20 PUSH1 0x40 MLOAD DUP1 DUP4 SUB DUP2 DUP7 DUP1 EXTCODESIZE ISZERO DUP1 ISZERO PUSH2 0x13E0 JUMPI PUSH1 0x0 DUP1 REVERT JUMPDEST POP GAS STATICCALL ISZERO DUP1 ISZERO PUSH2 0x13F4 JUMPI RETURNDATASIZE PUSH1 0x0 DUP1 RETURNDATACOPY RETURNDATASIZE PUSH1 0x0 REVERT JUMPDEST POP POP POP POP PUSH1 0x40 MLOAD RETURNDATASIZE PUSH1 0x1F NOT PUSH1 0x1F DUP3 ADD AND DUP3 ADD DUP1 PUSH1 0x40 MSTORE POP DUP2 ADD SWAP1 PUSH2 0x1418 SWAP2 SWAP1 PUSH2 0x1CED JUMP JUMPDEST SWAP1 POP PUSH1 0x0 DUP2 GT PUSH2 0x142E JUMPI PUSH1 0x0 SWAP4 POP POP POP POP PUSH2 0xAE4 JUMP JUMPDEST PUSH1 0x60 DUP6 ADD MLOAD PUSH2 0x144D SWAP1 PUSH2 0xE37 DUP4 PUSH12 0x204FCE5E3E25026110000000 PUSH2 0x11E8 JUMP JUMPDEST SWAP4 POP POP POP POP PUSH2 0xAE4 JUMP JUMPDEST DUP2 MLOAD PUSH1 0x0 SWAP1 DUP1 PUSH2 0x1465 PUSH2 0x17CA JUMP JUMPDEST PUSH1 0x40 DUP1 DUP7 ADD MLOAD SWAP1 MLOAD PUSH4 0x13B6165D PUSH1 0xE1 SHL DUP2 MSTORE PUSH1 0x1 PUSH1 0x1 PUSH1 0xA0 SHL SUB DUP5 AND SWAP2 PUSH4 0x276C2CBA SWAP2 PUSH2 0x1495 SWAP2 SWAP1 PUSH1 0x4 ADD PUSH2 0x1F70 JUMP JUMPDEST PUSH2 0x100 PUSH1 0x40 MLOAD DUP1 DUP4 SUB DUP2 DUP7 DUP1 EXTCODESIZE ISZERO DUP1 ISZERO PUSH2 0x14AE JUMPI PUSH1 0x0 DUP1 REVERT JUMPDEST POP GAS STATICCALL ISZERO DUP1 ISZERO PUSH2 0x14C2 JUMPI RETURNDATASIZE PUSH1 0x0 DUP1 RETURNDATACOPY RETURNDATASIZE PUSH1 0x0 REVERT JUMPDEST POP POP POP POP PUSH1 0x40 MLOAD RETURNDATASIZE PUSH1 0x1F NOT PUSH1 0x1F DUP3 ADD AND DUP3 ADD DUP1 PUSH1 0x40 MSTORE POP DUP2 ADD SWAP1 PUSH2 0x14E6 SWAP2 SWAP1 PUSH2 0x1C52 JUMP JUMPDEST DUP1 MLOAD PUSH1 0x40 MLOAD PUSH4 0xFC57D4DF PUSH1 0xE0 SHL DUP2 MSTORE SWAP2 SWAP3 POP SWAP1 PUSH1 0x1 PUSH1 0x1 PUSH1 0xA0 SHL SUB DUP5 AND SWAP1 PUSH4 0xFC57D4DF SWAP1 PUSH2 0x1518 SWAP1 DUP5 SWAP1 PUSH1 0x4 ADD PUSH2 0x1DA4 JUMP JUMPDEST PUSH1 0x20 PUSH1 0x40 MLOAD DUP1 DUP4 SUB DUP2 DUP7 DUP1 EXTCODESIZE ISZERO DUP1 ISZERO PUSH2 0x1530 JUMPI PUSH1 0x0 DUP1 REVERT JUMPDEST POP GAS STATICCALL ISZERO DUP1 ISZERO PUSH2 0x1544 JUMPI RETURNDATASIZE PUSH1 0x0 DUP1 RETURNDATACOPY RETURNDATASIZE PUSH1 0x0 REVERT JUMPDEST POP POP POP POP PUSH1 0x40 MLOAD RETURNDATASIZE PUSH1 0x1F NOT PUSH1 0x1F DUP3 ADD AND DUP3 ADD DUP1 PUSH1 0x40 MSTORE POP DUP2 ADD SWAP1 PUSH2 0x1568 SWAP2 SWAP1 PUSH2 0x1CED JUMP JUMPDEST SWAP8 SWAP7 POP POP POP POP POP POP POP JUMP JUMPDEST DUP2 MLOAD PUSH1 0x20 DUP3 ADD MLOAD PUSH1 0x40 MLOAD PUSH4 0x41976E09 PUSH1 0xE0 SHL DUP2 MSTORE PUSH1 0x0 SWAP3 SWAP2 DUP3 SWAP2 DUP5 SWAP2 PUSH1 0x1 PUSH1 0x1 PUSH1 0xA0 SHL SUB DUP5 AND SWAP2 PUSH4 0x41976E09 SWAP2 PUSH2 0x13C8 SWAP2 PUSH1 0x4 ADD PUSH2 0x1DA4 JUMP JUMPDEST PUSH1 0x0 DUP1 DUP3 PUSH1 0x60 ADD MLOAD GT PUSH2 0x15D1 JUMPI PUSH1 0x40 MLOAD PUSH3 0x461BCD PUSH1 0xE5 SHL DUP2 MSTORE PUSH1 0x4 ADD PUSH2 0x298 SWAP1 PUSH2 0x1FC9 JUMP JUMPDEST PUSH1 0x20 DUP1 DUP4 ADD MLOAD PUSH1 0x1 PUSH1 0x1 PUSH1 0xA0 SHL SUB DUP1 DUP3 AND PUSH1 0x0 SWAP1 DUP2 MSTORE PUSH1 0x99 SWAP1 SWAP4 MSTORE PUSH1 0x40 DUP1 DUP5 KECCAK256 SLOAD DUP2 MLOAD PUSH4 0x3FABE5A3 PUSH1 0xE2 SHL DUP2 MSTORE SWAP2 MLOAD SWAP4 SWAP5 SWAP3 AND SWAP3 DUP4 SWAP2 PUSH4 0xFEAF968C SWAP2 PUSH1 0x4 DUP1 DUP4 ADD SWAP3 PUSH1 0xA0 SWAP3 SWAP2 SWAP1 DUP3 SWAP1 SUB ADD DUP2 DUP7 DUP1 EXTCODESIZE ISZERO DUP1 ISZERO PUSH2 0x162C JUMPI PUSH1 0x0 DUP1 REVERT JUMPDEST POP GAS STATICCALL ISZERO DUP1 ISZERO PUSH2 0x1640 JUMPI RETURNDATASIZE PUSH1 0x0 DUP1 RETURNDATACOPY RETURNDATASIZE PUSH1 0x0 REVERT JUMPDEST POP POP POP POP PUSH1 0x40 MLOAD RETURNDATASIZE PUSH1 0x1F NOT PUSH1 0x1F DUP3 ADD AND DUP3 ADD DUP1 PUSH1 0x40 MSTORE POP DUP2 ADD SWAP1 PUSH2 0x1664 SWAP2 SWAP1 PUSH2 0x1D05 JUMP JUMPDEST POP POP POP SWAP2 POP POP PUSH1 0x0 PUSH1 0x9A PUSH1 0x0 SWAP1 SLOAD SWAP1 PUSH2 0x100 EXP SWAP1 DIV PUSH1 0x1 PUSH1 0x1 PUSH1 0xA0 SHL SUB AND SWAP1 POP PUSH1 0x0 DUP2 PUSH1 0x1 PUSH1 0x1 PUSH1 0xA0 SHL SUB AND PUSH4 0xFEAF968C PUSH1 0x40 MLOAD DUP2 PUSH4 0xFFFFFFFF AND PUSH1 0xE0 SHL DUP2 MSTORE PUSH1 0x4 ADD PUSH1 0xA0 PUSH1 0x40 MLOAD DUP1 DUP4 SUB DUP2 DUP7 DUP1 EXTCODESIZE ISZERO DUP1 ISZERO PUSH2 0x16BF JUMPI PUSH1 0x0 DUP1 REVERT JUMPDEST POP GAS STATICCALL ISZERO DUP1 ISZERO PUSH2 0x16D3 JUMPI RETURNDATASIZE PUSH1 0x0 DUP1 RETURNDATACOPY RETURNDATASIZE PUSH1 0x0 REVERT JUMPDEST POP POP POP POP PUSH1 0x40 MLOAD RETURNDATASIZE PUSH1 0x1F NOT PUSH1 0x1F DUP3 ADD AND DUP3 ADD DUP1 PUSH1 0x40 MSTORE POP DUP2 ADD SWAP1 PUSH2 0x16F7 SWAP2 SWAP1 PUSH2 0x1D05 JUMP JUMPDEST POP POP POP SWAP2 POP POP PUSH1 0x0 DUP4 SGT PUSH2 0x1713 JUMPI PUSH1 0x0 SWAP6 POP POP POP POP POP POP PUSH2 0xAE4 JUMP JUMPDEST PUSH1 0x60 DUP8 ADD MLOAD PUSH2 0x1735 SWAP1 PUSH2 0xE37 PUSH5 0x2540BE400 PUSH2 0x172F DUP8 DUP7 PUSH2 0x11E8 JUMP JUMPDEST SWAP1 PUSH2 0x11E8 JUMP JUMPDEST SWAP6 POP POP POP POP POP POP PUSH2 0xAE4 JUMP JUMPDEST POP POP POP POP POP SWAP3 SWAP2 POP POP JUMP JUMPDEST DUP3 DUP1 SLOAD PUSH1 0x1 DUP2 PUSH1 0x1 AND ISZERO PUSH2 0x100 MUL SUB AND PUSH1 0x2 SWAP1 DIV SWAP1 PUSH1 0x0 MSTORE PUSH1 0x20 PUSH1 0x0 KECCAK256 SWAP1 PUSH1 0x1F ADD PUSH1 0x20 SWAP1 DIV DUP2 ADD SWAP3 DUP3 PUSH1 0x1F LT PUSH2 0x178D JUMPI DUP1 MLOAD PUSH1 0xFF NOT AND DUP4 DUP1 ADD OR DUP6 SSTORE PUSH2 0x17BA JUMP JUMPDEST DUP3 DUP1 ADD PUSH1 0x1 ADD DUP6 SSTORE DUP3 ISZERO PUSH2 0x17BA JUMPI SWAP2 DUP3 ADD JUMPDEST DUP3 DUP2 GT ISZERO PUSH2 0x17BA JUMPI DUP3 MLOAD DUP3 SSTORE SWAP2 PUSH1 0x20 ADD SWAP2 SWAP1 PUSH1 0x1 ADD SWAP1 PUSH2 0x179F JUMP JUMPDEST POP PUSH2 0x17C6 SWAP3 SWAP2 POP PUSH2 0x180F JUMP JUMPDEST POP SWAP1 JUMP JUMPDEST PUSH1 0x40 DUP1 MLOAD PUSH2 0x100 DUP2 ADD DUP3 MSTORE PUSH1 0x0 DUP1 DUP3 MSTORE PUSH1 0x20 DUP3 ADD DUP2 SWAP1 MSTORE SWAP2 DUP2 ADD DUP3 SWAP1 MSTORE PUSH1 0x60 DUP2 ADD DUP3 SWAP1 MSTORE SWAP1 PUSH1 0x80 DUP3 ADD SWAP1 DUP2 MSTORE PUSH1 0x0 PUSH1 0x20 DUP3 ADD DUP2 SWAP1 MSTORE PUSH1 0x40 DUP3 ADD DUP2 SWAP1 MSTORE PUSH1 0x60 SWAP1 SWAP2 ADD MSTORE SWAP1 JUMP JUMPDEST JUMPDEST DUP1 DUP3 GT ISZERO PUSH2 0x17C6 JUMPI PUSH1 0x0 DUP2 SSTORE PUSH1 0x1 ADD PUSH2 0x1810 JUMP JUMPDEST DUP1 MLOAD PUSH2 0xAE4 DUP2 PUSH2 0x225F JUMP JUMPDEST PUSH1 0x0 DUP3 PUSH1 0x1F DUP4 ADD SLT PUSH2 0x183F JUMPI DUP1 DUP2 REVERT JUMPDEST DUP2 CALLDATALOAD PUSH8 0xFFFFFFFFFFFFFFFF DUP2 GT ISZERO PUSH2 0x1855 JUMPI DUP2 DUP3 REVERT JUMPDEST PUSH1 0x20 DUP1 DUP3 MUL PUSH2 0x1865 DUP3 DUP3 ADD PUSH2 0x21CB JUMP JUMPDEST DUP4 DUP2 MSTORE SWAP4 POP DUP2 DUP5 ADD DUP6 DUP4 ADD DUP3 DUP8 ADD DUP5 ADD DUP9 LT ISZERO PUSH2 0x1881 JUMPI PUSH1 0x0 DUP1 REVERT JUMPDEST PUSH1 0x0 SWAP3 POP JUMPDEST DUP5 DUP4 LT ISZERO PUSH2 0x1741 JUMPI DUP1 CALLDATALOAD PUSH2 0x1899 DUP2 PUSH2 0x225F JUMP JUMPDEST DUP3 MSTORE PUSH1 0x1 SWAP3 SWAP1 SWAP3 ADD SWAP2 SWAP1 DUP4 ADD SWAP1 DUP4 ADD PUSH2 0x1886 JUMP JUMPDEST PUSH1 0x0 DUP1 DUP4 PUSH1 0x1F DUP5 ADD SLT PUSH2 0x18BE JUMPI DUP1 DUP2 REVERT JUMPDEST POP DUP2 CALLDATALOAD PUSH8 0xFFFFFFFFFFFFFFFF DUP2 GT ISZERO PUSH2 0x18D5 JUMPI DUP2 DUP3 REVERT JUMPDEST PUSH1 0x20 DUP4 ADD SWAP2 POP DUP4 PUSH1 0x20 DUP1 DUP4 MUL DUP6 ADD ADD GT ISZERO PUSH2 0x18EF JUMPI PUSH1 0x0 DUP1 REVERT JUMPDEST SWAP3 POP SWAP3 SWAP1 POP JUMP JUMPDEST DUP1 CALLDATALOAD PUSH2 0xAE4 DUP2 PUSH2 0x2274 JUMP JUMPDEST DUP1 MLOAD PUSH2 0xAE4 DUP2 PUSH2 0x2274 JUMP JUMPDEST DUP1 CALLDATALOAD PUSH1 0x5 DUP2 LT PUSH2 0xAE4 JUMPI PUSH1 0x0 DUP1 REVERT JUMPDEST DUP1 MLOAD PUSH1 0x3 DUP2 LT PUSH2 0xAE4 JUMPI PUSH1 0x0 DUP1 REVERT JUMPDEST PUSH1 0x0 DUP3 PUSH1 0x1F DUP4 ADD SLT PUSH2 0x193A JUMPI DUP1 DUP2 REVERT JUMPDEST DUP2 CALLDATALOAD PUSH2 0x194D PUSH2 0x1948 DUP3 PUSH2 0x21F2 JUMP JUMPDEST PUSH2 0x21CB JUMP JUMPDEST SWAP2 POP DUP1 DUP3 MSTORE DUP4 PUSH1 0x20 DUP3 DUP6 ADD ADD GT ISZERO PUSH2 0x1964 JUMPI PUSH1 0x0 DUP1 REVERT JUMPDEST DUP1 PUSH1 0x20 DUP5 ADD PUSH1 0x20 DUP5 ADD CALLDATACOPY PUSH1 0x0 SWAP1 DUP3 ADD PUSH1 0x20 ADD MSTORE SWAP3 SWAP2 POP POP JUMP JUMPDEST DUP1 MLOAD PUSH10 0xFFFFFFFFFFFFFFFFFFFF DUP2 AND DUP2 EQ PUSH2 0xAE4 JUMPI PUSH1 0x0 DUP1 REVERT JUMPDEST PUSH1 0x0 PUSH1 0x20 DUP3 DUP5 SUB SLT ISZERO PUSH2 0x19A8 JUMPI DUP1 DUP2 REVERT JUMPDEST DUP2 CALLDATALOAD PUSH2 0x11E1 DUP2 PUSH2 0x225F JUMP JUMPDEST PUSH1 0x0 PUSH1 0x20 DUP3 DUP5 SUB SLT ISZERO PUSH2 0x19C4 JUMPI DUP1 DUP2 REVERT JUMPDEST DUP2 MLOAD PUSH2 0x11E1 DUP2 PUSH2 0x225F JUMP JUMPDEST PUSH1 0x0 DUP1 PUSH1 0x0 DUP1 PUSH1 0x0 DUP1 PUSH1 0x0 DUP1 PUSH1 0xE0 DUP10 DUP12 SUB SLT ISZERO PUSH2 0x19EA JUMPI DUP4 DUP5 REVERT JUMPDEST DUP9 CALLDATALOAD PUSH2 0x19F5 DUP2 PUSH2 0x225F JUMP JUMPDEST SWAP8 POP PUSH1 0x20 DUP10 ADD CALLDATALOAD PUSH2 0x1A05 DUP2 PUSH2 0x225F JUMP JUMPDEST SWAP7 POP PUSH1 0x40 DUP10 ADD CALLDATALOAD PUSH8 0xFFFFFFFFFFFFFFFF DUP1 DUP3 GT ISZERO PUSH2 0x1A21 JUMPI DUP6 DUP7 REVERT JUMPDEST PUSH2 0x1A2D DUP13 DUP4 DUP14 ADD PUSH2 0x192A JUMP JUMPDEST SWAP8 POP PUSH1 0x60 DUP12 ADD CALLDATALOAD SWAP7 POP PUSH2 0x1A43 DUP13 PUSH1 0x80 DUP14 ADD PUSH2 0x18F6 JUMP JUMPDEST SWAP6 POP PUSH1 0xA0 DUP12 ADD CALLDATALOAD SWAP2 POP DUP1 DUP3 GT ISZERO PUSH2 0x1A58 JUMPI DUP5 DUP6 REVERT JUMPDEST PUSH2 0x1A64 DUP13 DUP4 DUP14 ADD PUSH2 0x182F JUMP JUMPDEST SWAP5 POP PUSH1 0xC0 DUP12 ADD CALLDATALOAD SWAP2 POP DUP1 DUP3 GT ISZERO PUSH2 0x1A79 JUMPI DUP4 DUP5 REVERT JUMPDEST POP PUSH2 0x1A86 DUP12 DUP3 DUP13 ADD PUSH2 0x18AD JUMP JUMPDEST SWAP10 SWAP13 SWAP9 SWAP12 POP SWAP7 SWAP10 POP SWAP5 SWAP8 SWAP4 SWAP7 SWAP3 SWAP6 SWAP5 POP POP POP JUMP JUMPDEST PUSH1 0x0 DUP1 PUSH1 0x40 DUP4 DUP6 SUB SLT ISZERO PUSH2 0x1AAC JUMPI DUP2 DUP3 REVERT JUMPDEST DUP3 CALLDATALOAD PUSH2 0x1AB7 DUP2 PUSH2 0x225F JUMP JUMPDEST SWAP2 POP PUSH1 0x20 DUP4 ADD CALLDATALOAD PUSH2 0x1AC7 DUP2 PUSH2 0x2274 JUMP JUMPDEST DUP1 SWAP2 POP POP SWAP3 POP SWAP3 SWAP1 POP JUMP JUMPDEST PUSH1 0x0 DUP1 PUSH1 0x40 DUP4 DUP6 SUB SLT ISZERO PUSH2 0x1AE4 JUMPI DUP2 DUP3 REVERT JUMPDEST DUP3 CALLDATALOAD PUSH2 0x1AEF DUP2 PUSH2 0x225F JUMP JUMPDEST SWAP5 PUSH1 0x20 SWAP4 SWAP1 SWAP4 ADD CALLDATALOAD SWAP4 POP POP POP JUMP JUMPDEST PUSH1 0x0 DUP1 PUSH1 0x0 DUP1 PUSH1 0x0 PUSH1 0xA0 DUP7 DUP9 SUB SLT ISZERO PUSH2 0x1B14 JUMPI DUP1 DUP2 REVERT JUMPDEST DUP6 CALLDATALOAD PUSH2 0x1B1F DUP2 PUSH2 0x225F JUMP JUMPDEST SWAP5 POP PUSH1 0x20 DUP7 ADD CALLDATALOAD SWAP4 POP PUSH1 0x40 DUP7 ADD CALLDATALOAD PUSH2 0x1B36 DUP2 PUSH2 0x225F JUMP JUMPDEST SWAP3 POP PUSH2 0x1B45 DUP8 PUSH1 0x60 DUP9 ADD PUSH2 0x190C JUMP JUMPDEST SWAP2 POP PUSH1 0x80 DUP7 ADD CALLDATALOAD PUSH2 0x1B55 DUP2 PUSH2 0x2274 JUMP JUMPDEST DUP1 SWAP2 POP POP SWAP3 SWAP6 POP SWAP3 SWAP6 SWAP1 SWAP4 POP JUMP JUMPDEST PUSH1 0x0 DUP1 PUSH1 0x40 DUP4 DUP6 SUB SLT ISZERO PUSH2 0x1B75 JUMPI DUP2 DUP3 REVERT JUMPDEST DUP3 CALLDATALOAD PUSH8 0xFFFFFFFFFFFFFFFF DUP1 DUP3 GT ISZERO PUSH2 0x1B8C JUMPI DUP4 DUP5 REVERT JUMPDEST PUSH2 0x1B98 DUP7 DUP4 DUP8 ADD PUSH2 0x182F JUMP JUMPDEST SWAP4 POP PUSH1 0x20 DUP6 ADD CALLDATALOAD SWAP2 POP DUP1 DUP3 GT ISZERO PUSH2 0x1BAD JUMPI DUP3 DUP4 REVERT JUMPDEST POP PUSH2 0x1BBA DUP6 DUP3 DUP7 ADD PUSH2 0x182F JUMP JUMPDEST SWAP2 POP POP SWAP3 POP SWAP3 SWAP1 POP JUMP JUMPDEST PUSH1 0x0 PUSH1 0x20 DUP3 DUP5 SUB SLT ISZERO PUSH2 0x1BD5 JUMPI DUP1 DUP2 REVERT JUMPDEST PUSH2 0x11E1 DUP4 DUP4 PUSH2 0x190C JUMP JUMPDEST PUSH1 0x0 PUSH1 0x20 DUP3 DUP5 SUB SLT ISZERO PUSH2 0x1BF0 JUMPI DUP1 DUP2 REVERT JUMPDEST DUP2 MLOAD PUSH8 0xFFFFFFFFFFFFFFFF DUP2 GT ISZERO PUSH2 0x1C06 JUMPI DUP2 DUP3 REVERT JUMPDEST DUP3 ADD PUSH1 0x1F DUP2 ADD DUP5 SGT PUSH2 0x1C16 JUMPI DUP2 DUP3 REVERT JUMPDEST DUP1 MLOAD PUSH2 0x1C24 PUSH2 0x1948 DUP3 PUSH2 0x21F2 JUMP JUMPDEST DUP2 DUP2 MSTORE DUP6 PUSH1 0x20 DUP4 DUP6 ADD ADD GT ISZERO PUSH2 0x1C38 JUMPI DUP4 DUP5 REVERT JUMPDEST PUSH2 0x1C49 DUP3 PUSH1 0x20 DUP4 ADD PUSH1 0x20 DUP7 ADD PUSH2 0x2222 JUMP JUMPDEST SWAP6 SWAP5 POP POP POP POP POP JUMP JUMPDEST PUSH1 0x0 PUSH2 0x100 DUP1 DUP4 DUP6 SUB SLT ISZERO PUSH2 0x1C65 JUMPI DUP2 DUP3 REVERT JUMPDEST PUSH2 0x1C6E DUP2 PUSH2 0x21CB JUMP JUMPDEST SWAP1 POP DUP3 MLOAD PUSH2 0x1C7B DUP2 PUSH2 0x225F JUMP JUMPDEST DUP2 MSTORE PUSH1 0x20 DUP4 ADD MLOAD PUSH2 0x1C8B DUP2 PUSH2 0x225F JUMP JUMPDEST DUP1 PUSH1 0x20 DUP4 ADD MSTORE POP PUSH1 0x40 DUP4 ADD MLOAD PUSH1 0x40 DUP3 ADD MSTORE PUSH1 0x60 DUP4 ADD MLOAD PUSH1 0x60 DUP3 ADD MSTORE PUSH2 0x1CB3 DUP5 PUSH1 0x80 DUP6 ADD PUSH2 0x191B JUMP JUMPDEST PUSH1 0x80 DUP3 ADD MSTORE PUSH1 0xA0 DUP4 ADD MLOAD PUSH1 0xA0 DUP3 ADD MSTORE PUSH2 0x1CCF DUP5 PUSH1 0xC0 DUP6 ADD PUSH2 0x1824 JUMP JUMPDEST PUSH1 0xC0 DUP3 ADD MSTORE PUSH2 0x1CE1 DUP5 PUSH1 0xE0 DUP6 ADD PUSH2 0x1901 JUMP JUMPDEST PUSH1 0xE0 DUP3 ADD MSTORE SWAP4 SWAP3 POP POP POP JUMP JUMPDEST PUSH1 0x0 PUSH1 0x20 DUP3 DUP5 SUB SLT ISZERO PUSH2 0x1CFE JUMPI DUP1 DUP2 REVERT JUMPDEST POP MLOAD SWAP2 SWAP1 POP JUMP JUMPDEST PUSH1 0x0 DUP1 PUSH1 0x0 DUP1 PUSH1 0x0 PUSH1 0xA0 DUP7 DUP9 SUB SLT ISZERO PUSH2 0x1D1C JUMPI DUP3 DUP4 REVERT JUMPDEST PUSH2 0x1D26 DUP8 DUP8 PUSH2 0x197D JUMP JUMPDEST SWAP5 POP PUSH1 0x20 DUP7 ADD MLOAD SWAP4 POP PUSH1 0x40 DUP7 ADD MLOAD SWAP3 POP PUSH1 0x60 DUP7 ADD MLOAD SWAP2 POP PUSH2 0x1D4A DUP8 PUSH1 0x80 DUP9 ADD PUSH2 0x197D JUMP JUMPDEST SWAP1 POP SWAP3 SWAP6 POP SWAP3 SWAP6 SWAP1 SWAP4 POP JUMP JUMPDEST ISZERO ISZERO SWAP1 MSTORE JUMP JUMPDEST PUSH1 0x0 DUP2 MLOAD DUP1 DUP5 MSTORE PUSH2 0x1D74 DUP2 PUSH1 0x20 DUP7 ADD PUSH1 0x20 DUP7 ADD PUSH2 0x2222 JUMP JUMPDEST PUSH1 0x1F ADD PUSH1 0x1F NOT AND SWAP3 SWAP1 SWAP3 ADD PUSH1 0x20 ADD SWAP3 SWAP2 POP POP JUMP JUMPDEST PUSH1 0x0 DUP3 MLOAD PUSH2 0x1D9A DUP2 DUP5 PUSH1 0x20 DUP8 ADD PUSH2 0x2222 JUMP JUMPDEST SWAP2 SWAP1 SWAP2 ADD SWAP3 SWAP2 POP POP JUMP JUMPDEST PUSH1 0x1 PUSH1 0x1 PUSH1 0xA0 SHL SUB SWAP2 SWAP1 SWAP2 AND DUP2 MSTORE PUSH1 0x20 ADD SWAP1 JUMP JUMPDEST PUSH1 0x1 PUSH1 0x1 PUSH1 0xA0 SHL SUB DUP7 DUP2 AND DUP3 MSTORE DUP6 AND PUSH1 0x20 DUP3 ADD MSTORE PUSH1 0xA0 PUSH1 0x40 DUP3 ADD DUP2 SWAP1 MSTORE PUSH1 0x0 SWAP1 PUSH2 0x1DE4 SWAP1 DUP4 ADD DUP7 PUSH2 0x1D5C JUMP JUMPDEST PUSH1 0x60 DUP4 ADD SWAP5 SWAP1 SWAP5 MSTORE POP SWAP1 ISZERO ISZERO PUSH1 0x80 SWAP1 SWAP2 ADD MSTORE SWAP4 SWAP3 POP POP POP JUMP JUMPDEST PUSH1 0x0 PUSH1 0xA0 DUP3 ADD PUSH1 0x1 DUP1 PUSH1 0xA0 SHL SUB DUP1 DUP10 AND DUP5 MSTORE PUSH1 0x20 DUP2 DUP10 AND DUP2 DUP7 ADD MSTORE PUSH1 0xA0 PUSH1 0x40 DUP7 ADD MSTORE DUP4 SWAP2 POP DUP8 SLOAD PUSH1 0x1 DUP1 DUP3 AND PUSH1 0x0 DUP2 EQ PUSH2 0x1E3E JUMPI PUSH1 0x1 DUP2 EQ PUSH2 0x1E5E JUMPI PUSH2 0x1E99 JUMP JUMPDEST PUSH2 0x1E4E PUSH1 0x7F PUSH1 0x2 DUP6 DIV AND DUP8 PUSH2 0x21C2 JUMP JUMPDEST PUSH1 0xFF NOT DUP5 AND DUP2 MSTORE DUP5 ADD SWAP5 POP PUSH2 0x1E99 JUMP JUMPDEST PUSH1 0x2 DUP4 DIV PUSH2 0x1E6C DUP2 DUP9 PUSH2 0x21C2 JUMP JUMPDEST PUSH2 0x1E75 DUP14 PUSH2 0x2216 JUMP JUMPDEST DUP10 JUMPDEST DUP4 DUP2 LT ISZERO PUSH2 0x1E90 JUMPI DUP2 SLOAD DUP4 DUP3 ADD MSTORE SWAP1 DUP6 ADD SWAP1 DUP8 ADD PUSH2 0x1E77 JUMP JUMPDEST SWAP2 SWAP1 SWAP2 ADD SWAP7 POP POP POP JUMPDEST POP POP POP POP DUP1 SWAP3 POP POP POP DUP4 PUSH1 0x60 DUP4 ADD MSTORE PUSH2 0x1EB5 PUSH1 0x80 DUP4 ADD DUP5 PUSH2 0x1D56 JUMP JUMPDEST SWAP7 SWAP6 POP POP POP POP POP POP JUMP JUMPDEST PUSH1 0x0 PUSH1 0x40 DUP1 DUP4 ADD PUSH1 0x1 DUP1 PUSH1 0xA0 SHL SUB DUP1 DUP8 AND DUP6 MSTORE PUSH1 0x20 DUP4 DUP2 DUP8 ADD MSTORE DUP3 DUP8 SLOAD DUP1 DUP6 MSTORE PUSH1 0x60 SWAP5 POP DUP5 DUP9 ADD SWAP2 POP DUP9 DUP8 MSTORE DUP3 DUP8 KECCAK256 DUP8 JUMPDEST DUP3 DUP2 LT ISZERO PUSH2 0x1F31 JUMPI DUP2 SLOAD DUP7 DUP2 AND DUP6 MSTORE PUSH1 0xFF DUP1 DUP3 PUSH1 0xA0 SHR AND PUSH2 0x1F10 DUP2 PUSH2 0x2252 JUMP JUMPDEST DUP7 DUP9 ADD MSTORE PUSH1 0xA8 SWAP2 SWAP1 SWAP2 SHR AND ISZERO ISZERO DUP9 DUP6 ADD MSTORE SWAP3 DUP7 ADD SWAP3 PUSH1 0x1 SWAP2 DUP3 ADD SWAP2 ADD PUSH2 0x1EF0 JUMP JUMPDEST POP SWAP2 SWAP11 SWAP10 POP POP POP POP POP POP POP POP POP POP JUMP JUMPDEST PUSH1 0x1 PUSH1 0x1 PUSH1 0xA0 SHL SUB DUP5 AND DUP2 MSTORE PUSH1 0x60 DUP2 ADD PUSH2 0x1F5A DUP5 PUSH2 0x2252 JUMP JUMPDEST DUP4 PUSH1 0x20 DUP4 ADD MSTORE DUP3 ISZERO ISZERO PUSH1 0x40 DUP4 ADD MSTORE SWAP5 SWAP4 POP POP POP POP JUMP JUMPDEST PUSH1 0x0 PUSH1 0x20 DUP3 MSTORE PUSH2 0x11E1 PUSH1 0x20 DUP4 ADD DUP5 PUSH2 0x1D5C JUMP JUMPDEST PUSH1 0x20 DUP1 DUP3 MSTORE PUSH1 0x26 SWAP1 DUP3 ADD MSTORE PUSH32 0x4F776E61626C653A206E6577206F776E657220697320746865207A65726F2061 PUSH1 0x40 DUP3 ADD MSTORE PUSH6 0x646472657373 PUSH1 0xD0 SHL PUSH1 0x60 DUP3 ADD MSTORE PUSH1 0x80 ADD SWAP1 JUMP JUMPDEST PUSH1 0x20 DUP1 DUP3 MSTORE PUSH1 0x22 SWAP1 DUP3 ADD MSTORE PUSH32 0x62617365556E6974206D7573742062652067726561746572207468616E207A65 PUSH1 0x40 DUP3 ADD MSTORE PUSH2 0x726F PUSH1 0xF0 SHL PUSH1 0x60 DUP3 ADD MSTORE PUSH1 0x80 ADD SWAP1 JUMP JUMPDEST PUSH1 0x20 DUP1 DUP3 MSTORE PUSH1 0xA SWAP1 DUP3 ADD MSTORE PUSH10 0x62616420706172616D73 PUSH1 0xB0 SHL PUSH1 0x40 DUP3 ADD MSTORE PUSH1 0x60 ADD SWAP1 JUMP JUMPDEST PUSH1 0x20 DUP1 DUP3 MSTORE PUSH1 0x1A SWAP1 DUP3 ADD MSTORE PUSH32 0x536166654D6174683A206469766973696F6E206279207A65726F000000000000 PUSH1 0x40 DUP3 ADD MSTORE PUSH1 0x60 ADD SWAP1 JUMP JUMPDEST PUSH1 0x20 DUP1 DUP3 MSTORE PUSH1 0x1B SWAP1 DUP3 ADD MSTORE PUSH32 0x7072696365206D75737420626967676572207468616E207A65726F0000000000 PUSH1 0x40 DUP3 ADD MSTORE PUSH1 0x60 ADD SWAP1 JUMP JUMPDEST PUSH1 0x20 DUP1 DUP3 MSTORE PUSH1 0x31 SWAP1 DUP3 ADD MSTORE PUSH32 0x736F7572636554797065732E6C656E677468206D75737420657175616C207468 PUSH1 0x40 DUP3 ADD MSTORE PUSH17 0xC2DC40E6DEEAE4C6CAE65CD8CADCCEE8D PUSH1 0x7B SHL PUSH1 0x60 DUP3 ADD MSTORE PUSH1 0x80 ADD SWAP1 JUMP JUMPDEST PUSH1 0x20 DUP1 DUP3 MSTORE PUSH1 0x21 SWAP1 DUP3 ADD MSTORE PUSH32 0x536166654D6174683A206D756C7469706C69636174696F6E206F766572666C6F PUSH1 0x40 DUP3 ADD MSTORE PUSH1 0x77 PUSH1 0xF8 SHL PUSH1 0x60 DUP3 ADD MSTORE PUSH1 0x80 ADD SWAP1 JUMP JUMPDEST PUSH1 0x20 DUP1 DUP3 MSTORE DUP2 DUP2 ADD MSTORE PUSH32 0x4F776E61626C653A2063616C6C6572206973206E6F7420746865206F776E6572 PUSH1 0x40 DUP3 ADD MSTORE PUSH1 0x60 ADD SWAP1 JUMP JUMPDEST PUSH1 0x20 DUP1 DUP3 MSTORE PUSH1 0x40 SWAP1 DUP3 ADD DUP2 SWAP1 MSTORE PUSH32 0x746F6B656E732E6C656E677468206D75737420657175616C207468616E206368 SWAP1 DUP3 ADD MSTORE PUSH32 0x61696E4C696E6B546F6B656E457468507269636546656564732E6C656E677468 PUSH1 0x60 DUP3 ADD MSTORE PUSH1 0x80 ADD SWAP1 JUMP JUMPDEST SWAP1 DUP2 MSTORE PUSH1 0x20 ADD SWAP1 JUMP JUMPDEST PUSH1 0x40 MLOAD DUP2 DUP2 ADD PUSH8 0xFFFFFFFFFFFFFFFF DUP2 GT DUP3 DUP3 LT OR ISZERO PUSH2 0x21EA JUMPI PUSH1 0x0 DUP1 REVERT JUMPDEST PUSH1 0x40 MSTORE SWAP2 SWAP1 POP JUMP JUMPDEST PUSH1 0x0 PUSH8 0xFFFFFFFFFFFFFFFF DUP3 GT ISZERO PUSH2 0x2208 JUMPI DUP1 DUP2 REVERT JUMPDEST POP PUSH1 0x1F ADD PUSH1 0x1F NOT AND PUSH1 0x20 ADD SWAP1 JUMP JUMPDEST PUSH1 0x0 SWAP1 DUP2 MSTORE PUSH1 0x20 SWAP1 KECCAK256 SWAP1 JUMP JUMPDEST PUSH1 0x0 JUMPDEST DUP4 DUP2 LT ISZERO PUSH2 0x223D JUMPI DUP2 DUP2 ADD MLOAD DUP4 DUP3 ADD MSTORE PUSH1 0x20 ADD PUSH2 0x2225 JUMP JUMPDEST DUP4 DUP2 GT ISZERO PUSH2 0x224C JUMPI PUSH1 0x0 DUP5 DUP5 ADD MSTORE JUMPDEST POP POP POP POP JUMP JUMPDEST PUSH1 0x5 DUP2 LT PUSH2 0x225C JUMPI INVALID JUMPDEST POP JUMP JUMPDEST PUSH1 0x1 PUSH1 0x1 PUSH1 0xA0 SHL SUB DUP2 AND DUP2 EQ PUSH2 0x225C JUMPI PUSH1 0x0 DUP1 REVERT JUMPDEST DUP1 ISZERO ISZERO DUP2 EQ PUSH2 0x225C JUMPI PUSH1 0x0 DUP1 REVERT INVALID LOG2 PUSH5 0x6970667358 0x22 SLT KECCAK256 AND CALLDATALOAD 0xB1 0xF8 PUSH21 0xA724E85BBB1D43084D7C921F6E5200139CB0417414 DUP16 0xB0 RETURNDATASIZE CHAINID 0x2A 0xC8 PUSH5 0x736F6C6343 STOP MOD 0xC STOP CALLER "
		},
		"gasEstimates": {
			"creation": {
				"codeDepositCost": "1777600",
				"executionCost": "1869",
				"totalCost": "1779469"
			},
			"external": {
				"addOrUpdateChainLinkTokenEthPriceFeed(address[],address[])": "infinite",
				"addOrUpdateTokenConfigSource(address,uint256,address,uint8,bool)": "infinite",
				"addTokenConfig(address,address,string,uint256,bool,address[],uint8[])": "infinite",
				"chainLinkTokenEthPriceFeed(address)": "1355",
				"ethUsdPriceFeedAddress()": "1159",
				"getOracleSourcePrice(address,uint256)": "infinite",
				"getUnderlyingPrice(address)": "infinite",
				"oracleLength(address)": "1341",
				"oracles(address,uint256)": "infinite",
				"owner()": "1159",
				"renounceOwnership()": "24275",
				"setEthUsdPriceFeedAddress(address)": "22117",
				"tokenConfigs(address)": "infinite",
				"transferOwnership(address)": "24550",
				"updateTokenConfigBaseUnit(address,uint256)": "infinite",
				"updateTokenConfigFixedUsd(address,bool)": "infinite"
			},
			"internal": {
				"_getChainLinkEthBasePriceInternal(struct DeveloperLendPriceProviderV1.PriceOracle memory,struct DeveloperLendPriceProviderV1.TokenConfig memory)": "infinite",
				"_getChainlinkPriceInternal(struct DeveloperLendPriceProviderV1.PriceOracle memory,struct DeveloperLendPriceProviderV1.TokenConfig memory)": "infinite",
				"_getCompoundPriceInternal(struct DeveloperLendPriceProviderV1.PriceOracle memory,struct DeveloperLendPriceProviderV1.TokenConfig memory)": "infinite",
				"_getCustomerPriceInternal(struct DeveloperLendPriceProviderV1.PriceOracle memory,struct DeveloperLendPriceProviderV1.TokenConfig memory)": "infinite",
				"_getUnderlyingPriceInternal(address,struct DeveloperLendPriceProviderV1.TokenConfig memory,struct DeveloperLendPriceProviderV1.PriceOracle memory)": "infinite",
				"_getUniSwapPriceInternal(struct DeveloperLendPriceProviderV1.PriceOracle memory,struct DeveloperLendPriceProviderV1.TokenConfig memory)": "infinite",
				"compareStrings(string memory,string memory)": "infinite"
			}
		},
		"methodIdentifiers": {
			"addOrUpdateChainLinkTokenEthPriceFeed(address[],address[])": "98ee9a13",
			"addOrUpdateTokenConfigSource(address,uint256,address,uint8,bool)": "e316e297",
			"addTokenConfig(address,address,string,uint256,bool,address[],uint8[])": "0e4230a0",
			"chainLinkTokenEthPriceFeed(address)": "8341301a",
			"ethUsdPriceFeedAddress()": "a22e6ee3",
			"getOracleSourcePrice(address,uint256)": "9e237b1c",
			"getUnderlyingPrice(address)": "fc57d4df",
			"oracleLength(address)": "43f5ae36",
			"oracles(address,uint256)": "a00a8b2c",
			"owner()": "8da5cb5b",
			"renounceOwnership()": "715018a6",
			"setEthUsdPriceFeedAddress(address)": "bec69b4f",
			"tokenConfigs(address)": "1b69dc5f",
			"transferOwnership(address)": "f2fde38b",
			"updateTokenConfigBaseUnit(address,uint256)": "49b39fd6",
			"updateTokenConfigFixedUsd(address,bool)": "71cc09a9"
		}
	},
	"abi": [
		{
			"inputs": [],
			"stateMutability": "nonpayable",
			"type": "constructor"
		},
		{
			"anonymous": false,
			"inputs": [
				{
					"indexed": false,
					"internalType": "address",
					"name": "pToken",
					"type": "address"
				},
				{
					"indexed": false,
					"internalType": "address",
					"name": "underlying",
					"type": "address"
				},
				{
					"indexed": false,
					"internalType": "string",
					"name": "underlyingSymbol",
					"type": "string"
				},
				{
					"indexed": false,
					"internalType": "uint256",
					"name": "baseUnit",
					"type": "uint256"
				},
				{
					"indexed": false,
					"internalType": "bool",
					"name": "fixedUsd",
					"type": "bool"
				}
			],
			"name": "ConfigUpdated",
			"type": "event"
		},
		{
			"anonymous": false,
			"inputs": [
				{
					"indexed": true,
					"internalType": "address",
					"name": "previousOwner",
					"type": "address"
				},
				{
					"indexed": true,
					"internalType": "address",
					"name": "newOwner",
					"type": "address"
				}
			],
			"name": "OwnershipTransferred",
			"type": "event"
		},
		{
			"anonymous": false,
			"inputs": [
				{
					"indexed": false,
					"internalType": "address",
					"name": "pToken",
					"type": "address"
				},
				{
					"components": [
						{
							"internalType": "address",
							"name": "source",
							"type": "address"
						},
						{
							"internalType": "enum DeveloperLendPriceProviderV1.PriceOracleType",
							"name": "sourceType",
							"type": "uint8"
						},
						{
							"internalType": "bool",
							"name": "available",
							"type": "bool"
						}
					],
					"indexed": false,
					"internalType": "struct DeveloperLendPriceProviderV1.PriceOracle[]",
					"name": "oracles",
					"type": "tuple[]"
				}
			],
			"name": "PriceOracleUpdated",
			"type": "event"
		},
		{
			"inputs": [
				{
					"internalType": "address[]",
					"name": "tokens",
					"type": "address[]"
				},
				{
					"internalType": "address[]",
					"name": "chainLinkTokenEthPriceFeeds",
					"type": "address[]"
				}
			],
			"name": "addOrUpdateChainLinkTokenEthPriceFeed",
			"outputs": [],
			"stateMutability": "nonpayable",
			"type": "function"
		},
		{
			"inputs": [
				{
					"internalType": "address",
					"name": "pToken",
					"type": "address"
				},
				{
					"internalType": "uint256",
					"name": "index",
					"type": "uint256"
				},
				{
					"internalType": "address",
					"name": "source",
					"type": "address"
				},
				{
					"internalType": "enum DeveloperLendPriceProviderV1.PriceOracleType",
					"name": "_sourceType",
					"type": "uint8"
				},
				{
					"internalType": "bool",
					"name": "available",
					"type": "bool"
				}
			],
			"name": "addOrUpdateTokenConfigSource",
			"outputs": [],
			"stateMutability": "nonpayable",
			"type": "function"
		},
		{
			"inputs": [
				{
					"internalType": "address",
					"name": "pToken",
					"type": "address"
				},
				{
					"internalType": "address",
					"name": "underlying",
					"type": "address"
				},
				{
					"internalType": "string",
					"name": "underlyingSymbol",
					"type": "string"
				},
				{
					"internalType": "uint256",
					"name": "baseUnit",
					"type": "uint256"
				},
				{
					"internalType": "bool",
					"name": "fixedUsd",
					"type": "bool"
				},
				{
					"internalType": "address[]",
					"name": "sources",
					"type": "address[]"
				},
				{
					"internalType": "enum DeveloperLendPriceProviderV1.PriceOracleType[]",
					"name": "sourceTypes",
					"type": "uint8[]"
				}
			],
			"name": "addTokenConfig",
			"outputs": [],
			"stateMutability": "nonpayable",
			"type": "function"
		},
		{
			"inputs": [
				{
					"internalType": "address",
					"name": "",
					"type": "address"
				}
			],
			"name": "chainLinkTokenEthPriceFeed",
			"outputs": [
				{
					"internalType": "address",
					"name": "",
					"type": "address"
				}
			],
			"stateMutability": "view",
			"type": "function"
		},
		{
			"inputs": [],
			"name": "ethUsdPriceFeedAddress",
			"outputs": [
				{
					"internalType": "address",
					"name": "",
					"type": "address"
				}
			],
			"stateMutability": "view",
			"type": "function"
		},
		{
			"inputs": [
				{
					"internalType": "address",
					"name": "pToken",
					"type": "address"
				},
				{
					"internalType": "uint256",
					"name": "sourceIndex",
					"type": "uint256"
				}
			],
			"name": "getOracleSourcePrice",
			"outputs": [
				{
					"internalType": "uint256",
					"name": "",
					"type": "uint256"
				}
			],
			"stateMutability": "view",
			"type": "function"
		},
		{
			"inputs": [
				{
					"internalType": "address",
					"name": "_pToken",
					"type": "address"
				}
			],
			"name": "getUnderlyingPrice",
			"outputs": [
				{
					"internalType": "uint256",
					"name": "",
					"type": "uint256"
				}
			],
			"stateMutability": "view",
			"type": "function"
		},
		{
			"inputs": [
				{
					"internalType": "address",
					"name": "pToken",
					"type": "address"
				}
			],
			"name": "oracleLength",
			"outputs": [
				{
					"internalType": "uint256",
					"name": "",
					"type": "uint256"
				}
			],
			"stateMutability": "view",
			"type": "function"
		},
		{
			"inputs": [
				{
					"internalType": "address",
					"name": "",
					"type": "address"
				},
				{
					"internalType": "uint256",
					"name": "",
					"type": "uint256"
				}
			],
			"name": "oracles",
			"outputs": [
				{
					"internalType": "address",
					"name": "source",
					"type": "address"
				},
				{
					"internalType": "enum DeveloperLendPriceProviderV1.PriceOracleType",
					"name": "sourceType",
					"type": "uint8"
				},
				{
					"internalType": "bool",
					"name": "available",
					"type": "bool"
				}
			],
			"stateMutability": "view",
			"type": "function"
		},
		{
			"inputs": [],
			"name": "owner",
			"outputs": [
				{
					"internalType": "address",
					"name": "",
					"type": "address"
				}
			],
			"stateMutability": "view",
			"type": "function"
		},
		{
			"inputs": [],
			"name": "renounceOwnership",
			"outputs": [],
			"stateMutability": "nonpayable",
			"type": "function"
		},
		{
			"inputs": [
				{
					"internalType": "address",
					"name": "feedAddress",
					"type": "address"
				}
			],
			"name": "setEthUsdPriceFeedAddress",
			"outputs": [],
			"stateMutability": "nonpayable",
			"type": "function"
		},
		{
			"inputs": [
				{
					"internalType": "address",
					"name": "",
					"type": "address"
				}
			],
			"name": "tokenConfigs",
			"outputs": [
				{
					"internalType": "address",
					"name": "pToken",
					"type": "address"
				},
				{
					"internalType": "address",
					"name": "underlying",
					"type": "address"
				},
				{
					"internalType": "string",
					"name": "underlyingSymbol",
					"type": "string"
				},
				{
					"internalType": "uint256",
					"name": "baseUnit",
					"type": "uint256"
				},
				{
					"internalType": "bool",
					"name": "fixedUsd",
					"type": "bool"
				}
			],
			"stateMutability": "view",
			"type": "function"
		},
		{
			"inputs": [
				{
					"internalType": "address",
					"name": "newOwner",
					"type": "address"
				}
			],
			"name": "transferOwnership",
			"outputs": [],
			"stateMutability": "nonpayable",
			"type": "function"
		},
		{
			"inputs": [
				{
					"internalType": "address",
					"name": "pToken",
					"type": "address"
				},
				{
					"internalType": "uint256",
					"name": "baseUnit",
					"type": "uint256"
				}
			],
			"name": "updateTokenConfigBaseUnit",
			"outputs": [],
			"stateMutability": "nonpayable",
			"type": "function"
		},
		{
			"inputs": [
				{
					"internalType": "address",
					"name": "pToken",
					"type": "address"
				},
				{
					"internalType": "bool",
					"name": "fixedUsd",
					"type": "bool"
				}
			],
			"name": "updateTokenConfigFixedUsd",
			"outputs": [],
			"stateMutability": "nonpayable",
			"type": "function"
		}
	]
}