{
	"token/PTokenStorage.sol": {
		"PTokenStorage": {
			"abi": [
				{
					"inputs": [],
					"name": "accrualBlockNumber",
					"outputs": [
						{
							"internalType": "uint256",
							"name": "",
							"type": "uint256"
						}
					],
					"stateMutability": "view",
					"type": "function"
				},
				{
					"inputs": [],
					"name": "borrowIndex",
					"outputs": [
						{
							"internalType": "uint256",
							"name": "",
							"type": "uint256"
						}
					],
					"stateMutability": "view",
					"type": "function"
				},
				{
					"inputs": [],
					"name": "comptroller",
					"outputs": [
						{
							"internalType": "contract IComptroller",
							"name": "",
							"type": "address"
						}
					],
					"stateMutability": "view",
					"type": "function"
				},
				{
					"inputs": [],
					"name": "decimals",
					"outputs": [
						{
							"internalType": "uint8",
							"name": "",
							"type": "uint8"
						}
					],
					"stateMutability": "view",
					"type": "function"
				},
				{
					"inputs": [],
					"name": "interestRateModel",
					"outputs": [
						{
							"internalType": "contract IInterestRateModel",
							"name": "",
							"type": "address"
						}
					],
					"stateMutability": "view",
					"type": "function"
				},
				{
					"inputs": [],
					"name": "isPToken",
					"outputs": [
						{
							"internalType": "bool",
							"name": "",
							"type": "bool"
						}
					],
					"stateMutability": "view",
					"type": "function"
				},
				{
					"inputs": [],
					"name": "migrator",
					"outputs": [
						{
							"internalType": "address",
							"name": "",
							"type": "address"
						}
					],
					"stateMutability": "view",
					"type": "function"
				},
				{
					"inputs": [],
					"name": "minInterestAccumulated",
					"outputs": [
						{
							"internalType": "uint256",
							"name": "",
							"type": "uint256"
						}
					],
					"stateMutability": "view",
					"type": "function"
				},
				{
					"inputs": [],
					"name": "name",
					"outputs": [
						{
							"internalType": "string",
							"name": "",
							"type": "string"
						}
					],
					"stateMutability": "view",
					"type": "function"
				},
				{
					"inputs": [],
					"name": "reserveFactorMantissa",
					"outputs": [
						{
							"internalType": "uint256",
							"name": "",
							"type": "uint256"
						}
					],
					"stateMutability": "view",
					"type": "function"
				},
				{
					"inputs": [],
					"name": "symbol",
					"outputs": [
						{
							"internalType": "string",
							"name": "",
							"type": "string"
						}
					],
					"stateMutability": "view",
					"type": "function"
				},
				{
					"inputs": [],
					"name": "totalBorrows",
					"outputs": [
						{
							"internalType": "uint256",
							"name": "",
							"type": "uint256"
						}
					],
					"stateMutability": "view",
					"type": "function"
				},
				{
					"inputs": [],
					"name": "totalReserves",
					"outputs": [
						{
							"internalType": "uint256",
							"name": "",
							"type": "uint256"
						}
					],
					"stateMutability": "view",
					"type": "function"
				},
				{
					"inputs": [],
					"name": "totalSupply",
					"outputs": [
						{
							"internalType": "uint256",
							"name": "",
							"type": "uint256"
						}
					],
					"stateMutability": "view",
					"type": "function"
				}
			],
			"devdoc": {
				"kind": "dev",
				"methods": {},
				"stateVariables": {
					"_notEntered": {
						"details": "Guard variable for re-entrancy checks"
					},
					"accountBorrows": {
						"details": "@notice Mapping of account addresses to outstanding borrow balances"
					},
					"accountTokens": {
						"details": "@notice Official record of token balances for each account"
					},
					"accrualBlockNumber": {
						"details": "@notice Block number that interest was last accrued at"
					},
					"borrowIndex": {
						"details": "@notice Accumulator of the total earned interest rate since the opening of the market"
					},
					"borrowRateMaxMantissa": {
						"details": "@notice Maximum borrow rate that can ever be applied (.0005% / block)"
					},
					"comptroller": {
						"details": "@notice Contract which oversees inter-pToken operations"
					},
					"decimals": {
						"details": "@notice EIP-20 token decimals for this token"
					},
					"initialExchangeRateMantissa": {
						"details": "@notice Initial exchange rate used when minting the first PTokens (used when totalSupply = 0)"
					},
					"interestRateModel": {
						"details": "@notice Model which tells what the current interest rate should be"
					},
					"name": {
						"details": "@notice EIP-20 token name for this token"
					},
					"reserveFactorMantissa": {
						"details": "@notice Fraction of interest currently set aside for reserves"
					},
					"reserveFactorMaxMantissa": {
						"details": "@notice Maximum fraction of interest that can be set aside for reserves"
					},
					"symbol": {
						"details": "@notice EIP-20 token symbol for this token"
					},
					"totalBorrows": {
						"details": "@notice Total amount of outstanding borrows of the underlying in this market"
					},
					"totalReserves": {
						"details": "@notice Total amount of reserves of the underlying held in this market"
					},
					"totalSupply": {
						"details": "@notice Total number of tokens in circulation"
					},
					"transferAllowances": {
						"details": "@notice Approved token transfer amounts on behalf of others"
					}
				},
				"version": 1
			},
			"evm": {
				"assembly": "    /* \"token/PTokenStorage.sol\":1713:4860  contract PTokenStorage {... */\n  mstore(0x40, 0x80)\n  callvalue\n  dup1\n  iszero\n  tag_1\n  jumpi\n  0x00\n  dup1\n  revert\ntag_1:\n  pop\n  dataSize(sub_0)\n  dup1\n  dataOffset(sub_0)\n  0x00\n  codecopy\n  0x00\n  return\nstop\n\nsub_0: assembly {\n        /* \"token/PTokenStorage.sol\":1713:4860  contract PTokenStorage {... */\n      mstore(0x40, 0x80)\n      callvalue\n      dup1\n      iszero\n      tag_1\n      jumpi\n      0x00\n      dup1\n      revert\n    tag_1:\n      pop\n      jumpi(tag_2, lt(calldatasize, 0x04))\n      shr(0xe0, calldataload(0x00))\n      dup1\n      0x6c540baf\n      gt\n      tag_17\n      jumpi\n      dup1\n      0x95d89b41\n      gt\n      tag_18\n      jumpi\n      dup1\n      0x95d89b41\n      eq\n      tag_13\n      jumpi\n      dup1\n      0xaa5af0fd\n      eq\n      tag_14\n      jumpi\n      dup1\n      0xe228bb43\n      eq\n      tag_15\n      jumpi\n      dup1\n      0xf3fdb15a\n      eq\n      tag_16\n      jumpi\n      jump(tag_2)\n    tag_18:\n      dup1\n      0x6c540baf\n      eq\n      tag_10\n      jumpi\n      dup1\n      0x7cd07e47\n      eq\n      tag_11\n      jumpi\n      dup1\n      0x8f840ddd\n      eq\n      tag_12\n      jumpi\n      jump(tag_2)\n    tag_17:\n      dup1\n      0x313ce567\n      gt\n      tag_19\n      jumpi\n      dup1\n      0x313ce567\n      eq\n      tag_6\n      jumpi\n      dup1\n      0x47bd3718\n      eq\n      tag_7\n      jumpi\n      dup1\n      0x5a890c0e\n      eq\n      tag_8\n      jumpi\n      dup1\n      0x5fe3b567\n      eq\n      tag_9\n      jumpi\n      jump(tag_2)\n    tag_19:\n      dup1\n      0x06fdde03\n      eq\n      tag_3\n      jumpi\n      dup1\n      0x173b9904\n      eq\n      tag_4\n      jumpi\n      dup1\n      0x18160ddd\n      eq\n      tag_5\n      jumpi\n    tag_2:\n      0x00\n      dup1\n      revert\n        /* \"token/PTokenStorage.sol\":2048:2066  string public name */\n    tag_3:\n      tag_20\n      tag_21\n      jump\t// in\n    tag_20:\n      0x40\n      dup1\n      mload\n      0x20\n      dup1\n      dup3\n      mstore\n      dup4\n      mload\n      dup2\n      dup4\n      add\n      mstore\n      dup4\n      mload\n      swap2\n      swap3\n      dup4\n      swap3\n      swap1\n      dup4\n      add\n      swap2\n      dup6\n      add\n      swap1\n      dup1\n      dup4\n      dup4\n      0x00\n    tag_22:\n      dup4\n      dup2\n      lt\n      iszero\n      tag_24\n      jumpi\n      dup2\n      dup2\n      add\n      mload\n      dup4\n      dup3\n      add\n      mstore\n      0x20\n      add\n      jump(tag_22)\n    tag_24:\n      pop\n      pop\n      pop\n      pop\n      swap1\n      pop\n      swap1\n      dup2\n      add\n      swap1\n      0x1f\n      and\n      dup1\n      iszero\n      tag_25\n      jumpi\n      dup1\n      dup3\n      sub\n      dup1\n      mload\n      0x01\n      dup4\n      0x20\n      sub\n      0x0100\n      exp\n      sub\n      not\n      and\n      dup2\n      mstore\n      0x20\n      add\n      swap2\n      pop\n    tag_25:\n      pop\n      swap3\n      pop\n      pop\n      pop\n      mload(0x40)\n      dup1\n      swap2\n      sub\n      swap1\n      return\n        /* \"token/PTokenStorage.sol\":3187:3223  uint256 public reserveFactorMantissa */\n    tag_4:\n      tag_26\n      tag_27\n      jump\t// in\n    tag_26:\n      0x40\n      dup1\n      mload\n      swap2\n      dup3\n      mstore\n      mload\n      swap1\n      dup2\n      swap1\n      sub\n      0x20\n      add\n      swap1\n      return\n        /* \"token/PTokenStorage.sol\":3882:3908  uint256 public totalSupply */\n    tag_5:\n      tag_26\n      tag_29\n      jump\t// in\n        /* \"token/PTokenStorage.sol\":2258:2279  uint8 public decimals */\n    tag_6:\n      tag_30\n      tag_31\n      jump\t// in\n    tag_30:\n      0x40\n      dup1\n      mload\n      0xff\n      swap1\n      swap3\n      and\n      dup3\n      mstore\n      mload\n      swap1\n      dup2\n      swap1\n      sub\n      0x20\n      add\n      swap1\n      return\n        /* \"token/PTokenStorage.sol\":3626:3653  uint256 public totalBorrows */\n    tag_7:\n      tag_26\n      tag_33\n      jump\t// in\n        /* \"token/PTokenStorage.sol\":1831:1867  bool public constant isPToken = true */\n    tag_8:\n      tag_34\n      tag_35\n      jump\t// in\n    tag_34:\n      0x40\n      dup1\n      mload\n      swap2\n      iszero\n      iszero\n      dup3\n      mstore\n      mload\n      swap1\n      dup2\n      swap1\n      sub\n      0x20\n      add\n      swap1\n      return\n        /* \"token/PTokenStorage.sol\":2720:2751  IComptroller public comptroller */\n    tag_9:\n      tag_36\n      tag_37\n      jump\t// in\n    tag_36:\n      0x40\n      dup1\n      mload\n      sub(shl(0xa0, 0x01), 0x01)\n      swap1\n      swap3\n      and\n      dup3\n      mstore\n      mload\n      swap1\n      dup2\n      swap1\n      sub\n      0x20\n      add\n      swap1\n      return\n        /* \"token/PTokenStorage.sol\":3320:3353  uint256 public accrualBlockNumber */\n    tag_10:\n      tag_26\n      tag_39\n      jump\t// in\n        /* \"token/PTokenStorage.sol\":4789:4812  address public migrator */\n    tag_11:\n      tag_36\n      tag_41\n      jump\t// in\n        /* \"token/PTokenStorage.sol\":3766:3794  uint256 public totalReserves */\n    tag_12:\n      tag_26\n      tag_43\n      jump\t// in\n        /* \"token/PTokenStorage.sol\":2151:2171  string public symbol */\n    tag_13:\n      tag_20\n      tag_45\n      jump\t// in\n        /* \"token/PTokenStorage.sol\":3481:3507  uint256 public borrowIndex */\n    tag_14:\n      tag_26\n      tag_51\n      jump\t// in\n        /* \"token/PTokenStorage.sol\":4819:4856  uint256 public minInterestAccumulated */\n    tag_15:\n      tag_26\n      tag_53\n      jump\t// in\n        /* \"token/PTokenStorage.sol\":2860:2903  IInterestRateModel public interestRateModel */\n    tag_16:\n      tag_36\n      tag_55\n      jump\t// in\n        /* \"token/PTokenStorage.sol\":2048:2066  string public name */\n    tag_21:\n      0x01\n      dup1\n      sload\n      0x40\n      dup1\n      mload\n      0x20\n      0x02\n      dup5\n      dup7\n      and\n      iszero\n      0x0100\n      mul\n      not(0x00)\n      add\n      swap1\n      swap5\n      and\n      swap4\n      swap1\n      swap4\n      div\n      0x1f\n      dup2\n      add\n      dup5\n      swap1\n      div\n      dup5\n      mul\n      dup3\n      add\n      dup5\n      add\n      swap1\n      swap3\n      mstore\n      dup2\n      dup2\n      mstore\n      swap3\n      swap2\n      dup4\n      add\n      dup3\n      dup3\n      dup1\n      iszero\n      tag_56\n      jumpi\n      dup1\n      0x1f\n      lt\n      tag_57\n      jumpi\n      0x0100\n      dup1\n      dup4\n      sload\n      div\n      mul\n      dup4\n      mstore\n      swap2\n      0x20\n      add\n      swap2\n      jump(tag_56)\n    tag_57:\n      dup3\n      add\n      swap2\n      swap1\n      0x00\n      mstore\n      keccak256(0x00, 0x20)\n      swap1\n    tag_58:\n      dup2\n      sload\n      dup2\n      mstore\n      swap1\n      0x01\n      add\n      swap1\n      0x20\n      add\n      dup1\n      dup4\n      gt\n      tag_58\n      jumpi\n      dup3\n      swap1\n      sub\n      0x1f\n      and\n      dup3\n      add\n      swap2\n    tag_56:\n      pop\n      pop\n      pop\n      pop\n      pop\n      dup2\n      jump\t// out\n        /* \"token/PTokenStorage.sol\":3187:3223  uint256 public reserveFactorMantissa */\n    tag_27:\n      sload(0x06)\n      dup2\n      jump\t// out\n        /* \"token/PTokenStorage.sol\":3882:3908  uint256 public totalSupply */\n    tag_29:\n      sload(0x0b)\n      dup2\n      jump\t// out\n        /* \"token/PTokenStorage.sol\":2258:2279  uint8 public decimals */\n    tag_31:\n      and(0xff, sload(0x03))\n      dup2\n      jump\t// out\n        /* \"token/PTokenStorage.sol\":3626:3653  uint256 public totalBorrows */\n    tag_33:\n      sload(0x09)\n      dup2\n      jump\t// out\n        /* \"token/PTokenStorage.sol\":1831:1867  bool public constant isPToken = true */\n    tag_35:\n        /* \"token/PTokenStorage.sol\":1863:1867  true */\n      0x01\n        /* \"token/PTokenStorage.sol\":1831:1867  bool public constant isPToken = true */\n      dup2\n      jump\t// out\n        /* \"token/PTokenStorage.sol\":2720:2751  IComptroller public comptroller */\n    tag_37:\n      sload(0x03)\n      0x0100\n      swap1\n      div\n      sub(shl(0xa0, 0x01), 0x01)\n      and\n      dup2\n      jump\t// out\n        /* \"token/PTokenStorage.sol\":3320:3353  uint256 public accrualBlockNumber */\n    tag_39:\n      sload(0x07)\n      dup2\n      jump\t// out\n        /* \"token/PTokenStorage.sol\":4789:4812  address public migrator */\n    tag_41:\n      and(sub(shl(0xa0, 0x01), 0x01), sload(0x0f))\n      dup2\n      jump\t// out\n        /* \"token/PTokenStorage.sol\":3766:3794  uint256 public totalReserves */\n    tag_43:\n      sload(0x0a)\n      dup2\n      jump\t// out\n        /* \"token/PTokenStorage.sol\":2151:2171  string public symbol */\n    tag_45:\n      0x02\n      dup1\n      sload\n      0x40\n      dup1\n      mload\n      0x20\n      0x01\n      dup5\n      and\n      iszero\n      0x0100\n      mul\n      not(0x00)\n      add\n      swap1\n      swap4\n      and\n      dup5\n      swap1\n      div\n      0x1f\n      dup2\n      add\n      dup5\n      swap1\n      div\n      dup5\n      mul\n      dup3\n      add\n      dup5\n      add\n      swap1\n      swap3\n      mstore\n      dup2\n      dup2\n      mstore\n      swap3\n      swap2\n      dup4\n      add\n      dup3\n      dup3\n      dup1\n      iszero\n      tag_56\n      jumpi\n      dup1\n      0x1f\n      lt\n      tag_57\n      jumpi\n      0x0100\n      dup1\n      dup4\n      sload\n      div\n      mul\n      dup4\n      mstore\n      swap2\n      0x20\n      add\n      swap2\n      jump(tag_56)\n        /* \"token/PTokenStorage.sol\":3481:3507  uint256 public borrowIndex */\n    tag_51:\n      sload(0x08)\n      dup2\n      jump\t// out\n        /* \"token/PTokenStorage.sol\":4819:4856  uint256 public minInterestAccumulated */\n    tag_53:\n      sload(0x10)\n      dup2\n      jump\t// out\n        /* \"token/PTokenStorage.sol\":2860:2903  IInterestRateModel public interestRateModel */\n    tag_55:\n      and(sub(shl(0xa0, 0x01), 0x01), sload(0x04))\n      dup2\n      jump\t// out\n\n    auxdata: 0xa2646970667358221220654ec205396f2608bef5b0cf0927a3e20596d0b4e19b02a2afb1d70d90881b0364736f6c634300060c0033\n}\n",
				"bytecode": {
					"linkReferences": {},
					"object": "608060405234801561001057600080fd5b506103b1806100206000396000f3fe608060405234801561001057600080fd5b50600436106100ea5760003560e01c80636c540baf1161008c57806395d89b411161006657806395d89b411461020c578063aa5af0fd14610214578063e228bb431461021c578063f3fdb15a14610224576100ea565b80636c540baf146101f45780637cd07e47146101fc5780638f840ddd14610204576100ea565b8063313ce567116100c8578063313ce5671461018e57806347bd3718146101ac5780635a890c0e146101b45780635fe3b567146101d0576100ea565b806306fdde03146100ef578063173b99041461016c57806318160ddd14610186575b600080fd5b6100f761022c565b6040805160208082528351818301528351919283929083019185019080838360005b83811015610131578181015183820152602001610119565b50505050905090810190601f16801561015e5780820380516001836020036101000a031916815260200191505b509250505060405180910390f35b6101746102b9565b60408051918252519081900360200190f35b6101746102bf565b6101966102c5565b6040805160ff9092168252519081900360200190f35b6101746102ce565b6101bc6102d4565b604080519115158252519081900360200190f35b6101d86102d9565b604080516001600160a01b039092168252519081900360200190f35b6101746102ed565b6101d86102f3565b610174610302565b6100f7610308565b610174610360565b610174610366565b6101d861036c565b60018054604080516020600284861615610100026000190190941693909304601f810184900484028201840190925281815292918301828280156102b15780601f10610286576101008083540402835291602001916102b1565b820191906000526020600020905b81548152906001019060200180831161029457829003601f168201915b505050505081565b60065481565b600b5481565b60035460ff1681565b60095481565b600181565b60035461010090046001600160a01b031681565b60075481565b600f546001600160a01b031681565b600a5481565b6002805460408051602060018416156101000260001901909316849004601f810184900484028201840190925281815292918301828280156102b15780601f10610286576101008083540402835291602001916102b1565b60085481565b60105481565b6004546001600160a01b03168156fea2646970667358221220654ec205396f2608bef5b0cf0927a3e20596d0b4e19b02a2afb1d70d90881b0364736f6c634300060c0033",
					"opcodes": "PUSH1 0x80 PUSH1 0x40 MSTORE CALLVALUE DUP1 ISZERO PUSH2 0x10 JUMPI PUSH1 0x0 DUP1 REVERT JUMPDEST POP PUSH2 0x3B1 DUP1 PUSH2 0x20 PUSH1 0x0 CODECOPY PUSH1 0x0 RETURN INVALID PUSH1 0x80 PUSH1 0x40 MSTORE CALLVALUE DUP1 ISZERO PUSH2 0x10 JUMPI PUSH1 0x0 DUP1 REVERT JUMPDEST POP PUSH1 0x4 CALLDATASIZE LT PUSH2 0xEA JUMPI PUSH1 0x0 CALLDATALOAD PUSH1 0xE0 SHR DUP1 PUSH4 0x6C540BAF GT PUSH2 0x8C JUMPI DUP1 PUSH4 0x95D89B41 GT PUSH2 0x66 JUMPI DUP1 PUSH4 0x95D89B41 EQ PUSH2 0x20C JUMPI DUP1 PUSH4 0xAA5AF0FD EQ PUSH2 0x214 JUMPI DUP1 PUSH4 0xE228BB43 EQ PUSH2 0x21C JUMPI DUP1 PUSH4 0xF3FDB15A EQ PUSH2 0x224 JUMPI PUSH2 0xEA JUMP JUMPDEST DUP1 PUSH4 0x6C540BAF EQ PUSH2 0x1F4 JUMPI DUP1 PUSH4 0x7CD07E47 EQ PUSH2 0x1FC JUMPI DUP1 PUSH4 0x8F840DDD EQ PUSH2 0x204 JUMPI PUSH2 0xEA JUMP JUMPDEST DUP1 PUSH4 0x313CE567 GT PUSH2 0xC8 JUMPI DUP1 PUSH4 0x313CE567 EQ PUSH2 0x18E JUMPI DUP1 PUSH4 0x47BD3718 EQ PUSH2 0x1AC JUMPI DUP1 PUSH4 0x5A890C0E EQ PUSH2 0x1B4 JUMPI DUP1 PUSH4 0x5FE3B567 EQ PUSH2 0x1D0 JUMPI PUSH2 0xEA JUMP JUMPDEST DUP1 PUSH4 0x6FDDE03 EQ PUSH2 0xEF JUMPI DUP1 PUSH4 0x173B9904 EQ PUSH2 0x16C JUMPI DUP1 PUSH4 0x18160DDD EQ PUSH2 0x186 JUMPI JUMPDEST PUSH1 0x0 DUP1 REVERT JUMPDEST PUSH2 0xF7 PUSH2 0x22C JUMP JUMPDEST PUSH1 0x40 DUP1 MLOAD PUSH1 0x20 DUP1 DUP3 MSTORE DUP4 MLOAD DUP2 DUP4 ADD MSTORE DUP4 MLOAD SWAP2 SWAP3 DUP4 SWAP3 SWAP1 DUP4 ADD SWAP2 DUP6 ADD SWAP1 DUP1 DUP4 DUP4 PUSH1 0x0 JUMPDEST DUP4 DUP2 LT ISZERO PUSH2 0x131 JUMPI DUP2 DUP2 ADD MLOAD DUP4 DUP3 ADD MSTORE PUSH1 0x20 ADD PUSH2 0x119 JUMP JUMPDEST POP POP POP POP SWAP1 POP SWAP1 DUP2 ADD SWAP1 PUSH1 0x1F AND DUP1 ISZERO PUSH2 0x15E JUMPI DUP1 DUP3 SUB DUP1 MLOAD PUSH1 0x1 DUP4 PUSH1 0x20 SUB PUSH2 0x100 EXP SUB NOT AND DUP2 MSTORE PUSH1 0x20 ADD SWAP2 POP JUMPDEST POP SWAP3 POP POP POP PUSH1 0x40 MLOAD DUP1 SWAP2 SUB SWAP1 RETURN JUMPDEST PUSH2 0x174 PUSH2 0x2B9 JUMP JUMPDEST PUSH1 0x40 DUP1 MLOAD SWAP2 DUP3 MSTORE MLOAD SWAP1 DUP2 SWAP1 SUB PUSH1 0x20 ADD SWAP1 RETURN JUMPDEST PUSH2 0x174 PUSH2 0x2BF JUMP JUMPDEST PUSH2 0x196 PUSH2 0x2C5 JUMP JUMPDEST PUSH1 0x40 DUP1 MLOAD PUSH1 0xFF SWAP1 SWAP3 AND DUP3 MSTORE MLOAD SWAP1 DUP2 SWAP1 SUB PUSH1 0x20 ADD SWAP1 RETURN JUMPDEST PUSH2 0x174 PUSH2 0x2CE JUMP JUMPDEST PUSH2 0x1BC PUSH2 0x2D4 JUMP JUMPDEST PUSH1 0x40 DUP1 MLOAD SWAP2 ISZERO ISZERO DUP3 MSTORE MLOAD SWAP1 DUP2 SWAP1 SUB PUSH1 0x20 ADD SWAP1 RETURN JUMPDEST PUSH2 0x1D8 PUSH2 0x2D9 JUMP JUMPDEST PUSH1 0x40 DUP1 MLOAD PUSH1 0x1 PUSH1 0x1 PUSH1 0xA0 SHL SUB SWAP1 SWAP3 AND DUP3 MSTORE MLOAD SWAP1 DUP2 SWAP1 SUB PUSH1 0x20 ADD SWAP1 RETURN JUMPDEST PUSH2 0x174 PUSH2 0x2ED JUMP JUMPDEST PUSH2 0x1D8 PUSH2 0x2F3 JUMP JUMPDEST PUSH2 0x174 PUSH2 0x302 JUMP JUMPDEST PUSH2 0xF7 PUSH2 0x308 JUMP JUMPDEST PUSH2 0x174 PUSH2 0x360 JUMP JUMPDEST PUSH2 0x174 PUSH2 0x366 JUMP JUMPDEST PUSH2 0x1D8 PUSH2 0x36C JUMP JUMPDEST PUSH1 0x1 DUP1 SLOAD PUSH1 0x40 DUP1 MLOAD PUSH1 0x20 PUSH1 0x2 DUP5 DUP7 AND ISZERO PUSH2 0x100 MUL PUSH1 0x0 NOT ADD SWAP1 SWAP5 AND SWAP4 SWAP1 SWAP4 DIV PUSH1 0x1F DUP2 ADD DUP5 SWAP1 DIV DUP5 MUL DUP3 ADD DUP5 ADD SWAP1 SWAP3 MSTORE DUP2 DUP2 MSTORE SWAP3 SWAP2 DUP4 ADD DUP3 DUP3 DUP1 ISZERO PUSH2 0x2B1 JUMPI DUP1 PUSH1 0x1F LT PUSH2 0x286 JUMPI PUSH2 0x100 DUP1 DUP4 SLOAD DIV MUL DUP4 MSTORE SWAP2 PUSH1 0x20 ADD SWAP2 PUSH2 0x2B1 JUMP JUMPDEST DUP3 ADD SWAP2 SWAP1 PUSH1 0x0 MSTORE PUSH1 0x20 PUSH1 0x0 KECCAK256 SWAP1 JUMPDEST DUP2 SLOAD DUP2 MSTORE SWAP1 PUSH1 0x1 ADD SWAP1 PUSH1 0x20 ADD DUP1 DUP4 GT PUSH2 0x294 JUMPI DUP3 SWAP1 SUB PUSH1 0x1F AND DUP3 ADD SWAP2 JUMPDEST POP POP POP POP POP DUP2 JUMP JUMPDEST PUSH1 0x6 SLOAD DUP2 JUMP JUMPDEST PUSH1 0xB SLOAD DUP2 JUMP JUMPDEST PUSH1 0x3 SLOAD PUSH1 0xFF AND DUP2 JUMP JUMPDEST PUSH1 0x9 SLOAD DUP2 JUMP JUMPDEST PUSH1 0x1 DUP2 JUMP JUMPDEST PUSH1 0x3 SLOAD PUSH2 0x100 SWAP1 DIV PUSH1 0x1 PUSH1 0x1 PUSH1 0xA0 SHL SUB AND DUP2 JUMP JUMPDEST PUSH1 0x7 SLOAD DUP2 JUMP JUMPDEST PUSH1 0xF SLOAD PUSH1 0x1 PUSH1 0x1 PUSH1 0xA0 SHL SUB AND DUP2 JUMP JUMPDEST PUSH1 0xA SLOAD DUP2 JUMP JUMPDEST PUSH1 0x2 DUP1 SLOAD PUSH1 0x40 DUP1 MLOAD PUSH1 0x20 PUSH1 0x1 DUP5 AND ISZERO PUSH2 0x100 MUL PUSH1 0x0 NOT ADD SWAP1 SWAP4 AND DUP5 SWAP1 DIV PUSH1 0x1F DUP2 ADD DUP5 SWAP1 DIV DUP5 MUL DUP3 ADD DUP5 ADD SWAP1 SWAP3 MSTORE DUP2 DUP2 MSTORE SWAP3 SWAP2 DUP4 ADD DUP3 DUP3 DUP1 ISZERO PUSH2 0x2B1 JUMPI DUP1 PUSH1 0x1F LT PUSH2 0x286 JUMPI PUSH2 0x100 DUP1 DUP4 SLOAD DIV MUL DUP4 MSTORE SWAP2 PUSH1 0x20 ADD SWAP2 PUSH2 0x2B1 JUMP JUMPDEST PUSH1 0x8 SLOAD DUP2 JUMP JUMPDEST PUSH1 0x10 SLOAD DUP2 JUMP JUMPDEST PUSH1 0x4 SLOAD PUSH1 0x1 PUSH1 0x1 PUSH1 0xA0 SHL SUB AND DUP2 JUMP INVALID LOG2 PUSH5 0x6970667358 0x22 SLT KECCAK256 PUSH6 0x4EC205396F26 ADDMOD 0xBE CREATE2 0xB0 0xCF MULMOD 0x27 LOG3 0xE2 SDIV SWAP7 0xD0 0xB4 0xE1 SWAP12 MUL LOG2 0xAF 0xB1 0xD7 0xD SWAP1 DUP9 SHL SUB PUSH5 0x736F6C6343 STOP MOD 0xC STOP CALLER "
				},
				"gasEstimates": {
					"creation": {
						"codeDepositCost": "189000",
						"executionCost": "232",
						"totalCost": "189232"
					},
					"external": {
						"accrualBlockNumber()": "1021",
						"borrowIndex()": "1042",
						"comptroller()": "1137",
						"decimals()": "1036",
						"interestRateModel()": "1125",
						"isPToken()": "271",
						"migrator()": "1082",
						"minInterestAccumulated()": "1064",
						"name()": "infinite",
						"reserveFactorMantissa()": "1044",
						"symbol()": "infinite",
						"totalBorrows()": "1043",
						"totalReserves()": "1065",
						"totalSupply()": "1066"
					}
				},
				"methodIdentifiers": {
					"accrualBlockNumber()": "6c540baf",
					"borrowIndex()": "aa5af0fd",
					"comptroller()": "5fe3b567",
					"decimals()": "313ce567",
					"interestRateModel()": "f3fdb15a",
					"isPToken()": "5a890c0e",
					"migrator()": "7cd07e47",
					"minInterestAccumulated()": "e228bb43",
					"name()": "06fdde03",
					"reserveFactorMantissa()": "173b9904",
					"symbol()": "95d89b41",
					"totalBorrows()": "47bd3718",
					"totalReserves()": "8f840ddd",
					"totalSupply()": "18160ddd"
				}
			},
			"storageLayout": {
				"storage": [
					{
						"astId": 6669,
						"contract": "token/PTokenStorage.sol:PTokenStorage",
						"label": "_notEntered",
						"offset": 0,
						"slot": "0",
						"type": "t_bool"
					},
					{
						"astId": 6672,
						"contract": "token/PTokenStorage.sol:PTokenStorage",
						"label": "name",
						"offset": 0,
						"slot": "1",
						"type": "t_string_storage"
					},
					{
						"astId": 6675,
						"contract": "token/PTokenStorage.sol:PTokenStorage",
						"label": "symbol",
						"offset": 0,
						"slot": "2",
						"type": "t_string_storage"
					},
					{
						"astId": 6678,
						"contract": "token/PTokenStorage.sol:PTokenStorage",
						"label": "decimals",
						"offset": 0,
						"slot": "3",
						"type": "t_uint8"
					},
					{
						"astId": 6689,
						"contract": "token/PTokenStorage.sol:PTokenStorage",
						"label": "comptroller",
						"offset": 1,
						"slot": "3",
						"type": "t_contract(IComptroller)470"
					},
					{
						"astId": 6692,
						"contract": "token/PTokenStorage.sol:PTokenStorage",
						"label": "interestRateModel",
						"offset": 0,
						"slot": "4",
						"type": "t_contract(IInterestRateModel)2247"
					},
					{
						"astId": 6695,
						"contract": "token/PTokenStorage.sol:PTokenStorage",
						"label": "initialExchangeRateMantissa",
						"offset": 0,
						"slot": "5",
						"type": "t_uint256"
					},
					{
						"astId": 6698,
						"contract": "token/PTokenStorage.sol:PTokenStorage",
						"label": "reserveFactorMantissa",
						"offset": 0,
						"slot": "6",
						"type": "t_uint256"
					},
					{
						"astId": 6701,
						"contract": "token/PTokenStorage.sol:PTokenStorage",
						"label": "accrualBlockNumber",
						"offset": 0,
						"slot": "7",
						"type": "t_uint256"
					},
					{
						"astId": 6704,
						"contract": "token/PTokenStorage.sol:PTokenStorage",
						"label": "borrowIndex",
						"offset": 0,
						"slot": "8",
						"type": "t_uint256"
					},
					{
						"astId": 6707,
						"contract": "token/PTokenStorage.sol:PTokenStorage",
						"label": "totalBorrows",
						"offset": 0,
						"slot": "9",
						"type": "t_uint256"
					},
					{
						"astId": 6710,
						"contract": "token/PTokenStorage.sol:PTokenStorage",
						"label": "totalReserves",
						"offset": 0,
						"slot": "10",
						"type": "t_uint256"
					},
					{
						"astId": 6713,
						"contract": "token/PTokenStorage.sol:PTokenStorage",
						"label": "totalSupply",
						"offset": 0,
						"slot": "11",
						"type": "t_uint256"
					},
					{
						"astId": 6718,
						"contract": "token/PTokenStorage.sol:PTokenStorage",
						"label": "accountTokens",
						"offset": 0,
						"slot": "12",
						"type": "t_mapping(t_address,t_uint256)"
					},
					{
						"astId": 6725,
						"contract": "token/PTokenStorage.sol:PTokenStorage",
						"label": "transferAllowances",
						"offset": 0,
						"slot": "13",
						"type": "t_mapping(t_address,t_mapping(t_address,t_uint256))"
					},
					{
						"astId": 6735,
						"contract": "token/PTokenStorage.sol:PTokenStorage",
						"label": "accountBorrows",
						"offset": 0,
						"slot": "14",
						"type": "t_mapping(t_address,t_struct(BorrowSnapshot)6730_storage)"
					},
					{
						"astId": 6737,
						"contract": "token/PTokenStorage.sol:PTokenStorage",
						"label": "migrator",
						"offset": 0,
						"slot": "15",
						"type": "t_address"
					},
					{
						"astId": 6739,
						"contract": "token/PTokenStorage.sol:PTokenStorage",
						"label": "minInterestAccumulated",
						"offset": 0,
						"slot": "16",
						"type": "t_uint256"
					}
				],
				"types": {
					"t_address": {
						"encoding": "inplace",
						"label": "address",
						"numberOfBytes": "20"
					},
					"t_bool": {
						"encoding": "inplace",
						"label": "bool",
						"numberOfBytes": "1"
					},
					"t_contract(IComptroller)470": {
						"encoding": "inplace",
						"label": "contract IComptroller",
						"numberOfBytes": "20"
					},
					"t_contract(IInterestRateModel)2247": {
						"encoding": "inplace",
						"label": "contract IInterestRateModel",
						"numberOfBytes": "20"
					},
					"t_mapping(t_address,t_mapping(t_address,t_uint256))": {
						"encoding": "mapping",
						"key": "t_address",
						"label": "mapping(address => mapping(address => uint256))",
						"numberOfBytes": "32",
						"value": "t_mapping(t_address,t_uint256)"
					},
					"t_mapping(t_address,t_struct(BorrowSnapshot)6730_storage)": {
						"encoding": "mapping",
						"key": "t_address",
						"label": "mapping(address => struct PTokenStorage.BorrowSnapshot)",
						"numberOfBytes": "32",
						"value": "t_struct(BorrowSnapshot)6730_storage"
					},
					"t_mapping(t_address,t_uint256)": {
						"encoding": "mapping",
						"key": "t_address",
						"label": "mapping(address => uint256)",
						"numberOfBytes": "32",
						"value": "t_uint256"
					},
					"t_string_storage": {
						"encoding": "bytes",
						"label": "string",
						"numberOfBytes": "32"
					},
					"t_struct(BorrowSnapshot)6730_storage": {
						"encoding": "inplace",
						"label": "struct PTokenStorage.BorrowSnapshot",
						"members": [
							{
								"astId": 6727,
								"contract": "token/PTokenStorage.sol:PTokenStorage",
								"label": "principal",
								"offset": 0,
								"slot": "0",
								"type": "t_uint256"
							},
							{
								"astId": 6729,
								"contract": "token/PTokenStorage.sol:PTokenStorage",
								"label": "interestIndex",
								"offset": 0,
								"slot": "1",
								"type": "t_uint256"
							}
						],
						"numberOfBytes": "64"
					},
					"t_uint256": {
						"encoding": "inplace",
						"label": "uint256",
						"numberOfBytes": "32"
					},
					"t_uint8": {
						"encoding": "inplace",
						"label": "uint8",
						"numberOfBytes": "1"
					}
				}
			},
			"userdoc": {
				"kind": "user",
				"methods": {
					"isPToken()": {
						"notice": "Indicator that this is a PToken contract (for inspection)"
					}
				},
				"version": 1
			}
		}
	}
}