{
	"rate/JumpRateModel.sol": {
		"JumpRateModel": {
			"abi": [
				{
					"anonymous": false,
					"inputs": [
						{
							"indexed": false,
							"internalType": "uint256",
							"name": "baseRatePerBlock",
							"type": "uint256"
						},
						{
							"indexed": false,
							"internalType": "uint256",
							"name": "multiplierPerBlock",
							"type": "uint256"
						},
						{
							"indexed": false,
							"internalType": "uint256",
							"name": "jumpMultiplierPerBlock",
							"type": "uint256"
						},
						{
							"indexed": false,
							"internalType": "uint256",
							"name": "kink",
							"type": "uint256"
						}
					],
					"name": "NewInterestParams",
					"type": "event"
				},
				{
					"anonymous": false,
					"inputs": [
						{
							"indexed": true,
							"internalType": "address",
							"name": "previousOwner",
							"type": "address"
						},
						{
							"indexed": true,
							"internalType": "address",
							"name": "newOwner",
							"type": "address"
						}
					],
					"name": "OwnershipTransferred",
					"type": "event"
				},
				{
					"inputs": [],
					"name": "baseRatePerBlock",
					"outputs": [
						{
							"internalType": "uint256",
							"name": "",
							"type": "uint256"
						}
					],
					"stateMutability": "view",
					"type": "function"
				},
				{
					"inputs": [],
					"name": "blocksPerYear",
					"outputs": [
						{
							"internalType": "uint256",
							"name": "",
							"type": "uint256"
						}
					],
					"stateMutability": "view",
					"type": "function"
				},
				{
					"inputs": [
						{
							"internalType": "uint256",
							"name": "cash",
							"type": "uint256"
						},
						{
							"internalType": "uint256",
							"name": "borrows",
							"type": "uint256"
						},
						{
							"internalType": "uint256",
							"name": "reserves",
							"type": "uint256"
						}
					],
					"name": "getBorrowRate",
					"outputs": [
						{
							"internalType": "uint256",
							"name": "",
							"type": "uint256"
						}
					],
					"stateMutability": "view",
					"type": "function"
				},
				{
					"inputs": [
						{
							"internalType": "uint256",
							"name": "cash",
							"type": "uint256"
						},
						{
							"internalType": "uint256",
							"name": "borrows",
							"type": "uint256"
						},
						{
							"internalType": "uint256",
							"name": "reserves",
							"type": "uint256"
						},
						{
							"internalType": "uint256",
							"name": "reserveFactorMantissa",
							"type": "uint256"
						}
					],
					"name": "getSupplyRate",
					"outputs": [
						{
							"internalType": "uint256",
							"name": "",
							"type": "uint256"
						}
					],
					"stateMutability": "view",
					"type": "function"
				},
				{
					"inputs": [
						{
							"internalType": "uint256",
							"name": "baseRatePerYear",
							"type": "uint256"
						},
						{
							"internalType": "uint256",
							"name": "multiplierPerYear",
							"type": "uint256"
						},
						{
							"internalType": "uint256",
							"name": "jumpMultiplierPerYear",
							"type": "uint256"
						},
						{
							"internalType": "uint256",
							"name": "kink_",
							"type": "uint256"
						}
					],
					"name": "initialize",
					"outputs": [],
					"stateMutability": "nonpayable",
					"type": "function"
				},
				{
					"inputs": [],
					"name": "jumpMultiplierPerBlock",
					"outputs": [
						{
							"internalType": "uint256",
							"name": "",
							"type": "uint256"
						}
					],
					"stateMutability": "view",
					"type": "function"
				},
				{
					"inputs": [],
					"name": "kink",
					"outputs": [
						{
							"internalType": "uint256",
							"name": "",
							"type": "uint256"
						}
					],
					"stateMutability": "view",
					"type": "function"
				},
				{
					"inputs": [],
					"name": "multiplierPerBlock",
					"outputs": [
						{
							"internalType": "uint256",
							"name": "",
							"type": "uint256"
						}
					],
					"stateMutability": "view",
					"type": "function"
				},
				{
					"inputs": [],
					"name": "owner",
					"outputs": [
						{
							"internalType": "address",
							"name": "",
							"type": "address"
						}
					],
					"stateMutability": "view",
					"type": "function"
				},
				{
					"inputs": [],
					"name": "renounceOwnership",
					"outputs": [],
					"stateMutability": "nonpayable",
					"type": "function"
				},
				{
					"inputs": [
						{
							"internalType": "address",
							"name": "newOwner",
							"type": "address"
						}
					],
					"name": "transferOwnership",
					"outputs": [],
					"stateMutability": "nonpayable",
					"type": "function"
				},
				{
					"inputs": [
						{
							"internalType": "uint256",
							"name": "baseRatePerYear",
							"type": "uint256"
						},
						{
							"internalType": "uint256",
							"name": "multiplierPerYear",
							"type": "uint256"
						},
						{
							"internalType": "uint256",
							"name": "jumpMultiplierPerYear",
							"type": "uint256"
						},
						{
							"internalType": "uint256",
							"name": "kink_",
							"type": "uint256"
						}
					],
					"name": "updateJumpRateModel",
					"outputs": [],
					"stateMutability": "nonpayable",
					"type": "function"
				},
				{
					"inputs": [
						{
							"internalType": "uint256",
							"name": "cash",
							"type": "uint256"
						},
						{
							"internalType": "uint256",
							"name": "borrows",
							"type": "uint256"
						},
						{
							"internalType": "uint256",
							"name": "reserves",
							"type": "uint256"
						}
					],
					"name": "utilizationRate",
					"outputs": [
						{
							"internalType": "uint256",
							"name": "",
							"type": "uint256"
						}
					],
					"stateMutability": "pure",
					"type": "function"
				}
			],
			"devdoc": {
				"author": "Arr00",
				"kind": "dev",
				"methods": {
					"getBorrowRate(uint256,uint256,uint256)": {
						"params": {
							"borrows": "The amount of borrows in the market",
							"cash": "The amount of cash in the market",
							"reserves": "The amount of reserves in the market"
						},
						"returns": {
							"_0": "The borrow rate percentage per block as a mantissa (scaled by 1e18)"
						}
					},
					"getSupplyRate(uint256,uint256,uint256,uint256)": {
						"params": {
							"borrows": "The amount of borrows in the market",
							"cash": "The amount of cash in the market",
							"reserveFactorMantissa": "The current reserve factor for the market",
							"reserves": "The amount of reserves in the market"
						},
						"returns": {
							"_0": "The supply rate percentage per block as a mantissa (scaled by 1e18)"
						}
					},
					"owner()": {
						"details": "Returns the address of the current owner."
					},
					"renounceOwnership()": {
						"details": "Leaves the contract without owner. It will not be possible to call `onlyOwner` functions anymore. Can only be called by the current owner. NOTE: Renouncing ownership will leave the contract without an owner, thereby removing any functionality that is only available to the owner."
					},
					"transferOwnership(address)": {
						"details": "Transfers ownership of the contract to a new account (`newOwner`). Can only be called by the current owner."
					},
					"updateJumpRateModel(uint256,uint256,uint256,uint256)": {
						"params": {
							"baseRatePerYear": "The approximate target base APR, as a mantissa (scaled by 1e18)",
							"jumpMultiplierPerYear": "The multiplierPerBlock after hitting a specified utilization point",
							"kink_": "The utilization point at which the jump multiplier is applied",
							"multiplierPerYear": "The rate of increase in interest rate wrt utilization (scaled by 1e18)"
						}
					},
					"utilizationRate(uint256,uint256,uint256)": {
						"params": {
							"borrows": "The amount of borrows in the market",
							"cash": "The amount of cash in the market",
							"reserves": "The amount of reserves in the market (currently unused)"
						},
						"returns": {
							"_0": "The utilization rate as a mantissa between [0, 1e18]"
						}
					}
				},
				"title": "Compound's JumpRateModel Contract V2 for V2 cTokens",
				"version": 1
			},
			"evm": {
				"assembly": "    /* \"rate/JumpRateModel.sol\":224:550  contract JumpRateModel is BaseJumpRateModel {... */\n  mstore(0x40, 0x80)\n  callvalue\n  dup1\n  iszero\n  tag_1\n  jumpi\n  0x00\n  dup1\n  revert\ntag_1:\n  pop\n  dataSize(sub_0)\n  dup1\n  dataOffset(sub_0)\n  0x00\n  codecopy\n  0x00\n  return\nstop\n\nsub_0: assembly {\n        /* \"rate/JumpRateModel.sol\":224:550  contract JumpRateModel is BaseJumpRateModel {... */\n      mstore(0x40, 0x80)\n      callvalue\n      dup1\n      iszero\n      tag_1\n      jumpi\n      0x00\n      dup1\n      revert\n    tag_1:\n      pop\n      jumpi(tag_2, lt(calldatasize, 0x04))\n      shr(0xe0, calldataload(0x00))\n      dup1\n      0x8da5cb5b\n      gt\n      tag_16\n      jumpi\n      dup1\n      0xb9f9850a\n      gt\n      tag_17\n      jumpi\n      dup1\n      0xb9f9850a\n      eq\n      tag_12\n      jumpi\n      dup1\n      0xf14039de\n      eq\n      tag_13\n      jumpi\n      dup1\n      0xf2fde38b\n      eq\n      tag_14\n      jumpi\n      dup1\n      0xfd2da339\n      eq\n      tag_15\n      jumpi\n      jump(tag_2)\n    tag_17:\n      dup1\n      0x8da5cb5b\n      eq\n      tag_9\n      jumpi\n      dup1\n      0xa385fb96\n      eq\n      tag_10\n      jumpi\n      dup1\n      0xb8168816\n      eq\n      tag_11\n      jumpi\n      jump(tag_2)\n    tag_16:\n      dup1\n      0x15f24053\n      eq\n      tag_3\n      jumpi\n      dup1\n      0x2037f3e7\n      eq\n      tag_4\n      jumpi\n      dup1\n      0x60a2da44\n      eq\n      tag_5\n      jumpi\n      dup1\n      0x6e71e2d8\n      eq\n      tag_6\n      jumpi\n      dup1\n      0x715018a6\n      eq\n      tag_7\n      jumpi\n      dup1\n      0x8726bb89\n      eq\n      tag_8\n      jumpi\n    tag_2:\n      0x00\n      dup1\n      revert\n        /* \"rate/BaseJumpRateModel.sol\":5633:5812  function getBorrowRate(uint cash, uint borrows, uint reserves) external virtual override view returns (uint) {... */\n    tag_3:\n      tag_18\n      0x04\n      dup1\n      calldatasize\n      sub\n      0x60\n      dup2\n      lt\n      iszero\n      tag_19\n      jumpi\n      0x00\n      dup1\n      revert\n    tag_19:\n      pop\n      dup1\n      calldataload\n      swap1\n      0x20\n      dup2\n      add\n      calldataload\n      swap1\n      0x40\n      add\n      calldataload\n      tag_20\n      jump\t// in\n    tag_18:\n      0x40\n      dup1\n      mload\n      swap2\n      dup3\n      mstore\n      mload\n      swap1\n      dup2\n      swap1\n      sub\n      0x20\n      add\n      swap1\n      return\n        /* \"rate/BaseJumpRateModel.sol\":3485:3719  function updateJumpRateModel(uint baseRatePerYear, uint multiplierPerYear, uint jumpMultiplierPerYear, uint kink_) external {... */\n    tag_4:\n      tag_21\n      0x04\n      dup1\n      calldatasize\n      sub\n      0x80\n      dup2\n      lt\n      iszero\n      tag_22\n      jumpi\n      0x00\n      dup1\n      revert\n    tag_22:\n      pop\n      dup1\n      calldataload\n      swap1\n      0x20\n      dup2\n      add\n      calldataload\n      swap1\n      0x40\n      dup2\n      add\n      calldataload\n      swap1\n      0x60\n      add\n      calldataload\n      tag_23\n      jump\t// in\n    tag_21:\n      stop\n        /* \"rate/JumpRateModel.sol\":275:548  function initialize(uint baseRatePerYear, uint multiplierPerYear, uint jumpMultiplierPerYear, uint kink_) public initializer {... */\n    tag_5:\n      tag_21\n      0x04\n      dup1\n      calldatasize\n      sub\n      0x80\n      dup2\n      lt\n      iszero\n      tag_25\n      jumpi\n      0x00\n      dup1\n      revert\n    tag_25:\n      pop\n      dup1\n      calldataload\n      swap1\n      0x20\n      dup2\n      add\n      calldataload\n      swap1\n      0x40\n      dup2\n      add\n      calldataload\n      swap1\n      0x60\n      add\n      calldataload\n      tag_26\n      jump\t// in\n        /* \"rate/BaseJumpRateModel.sol\":4100:4390  function utilizationRate(uint cash, uint borrows, uint reserves) public pure returns (uint) {... */\n    tag_6:\n      tag_18\n      0x04\n      dup1\n      calldatasize\n      sub\n      0x60\n      dup2\n      lt\n      iszero\n      tag_28\n      jumpi\n      0x00\n      dup1\n      revert\n    tag_28:\n      pop\n      dup1\n      calldataload\n      swap1\n      0x20\n      dup2\n      add\n      calldataload\n      swap1\n      0x40\n      add\n      calldataload\n      tag_29\n      jump\t// in\n        /* \"@openzeppelin/contracts-ethereum-package/contracts/access/Ownable.sol\":1894:2039  function renounceOwnership() public virtual onlyOwner {... */\n    tag_7:\n      tag_21\n      tag_31\n      jump\t// in\n        /* \"rate/BaseJumpRateModel.sol\":2550:2580  uint public multiplierPerBlock */\n    tag_8:\n      tag_18\n      tag_33\n      jump\t// in\n        /* \"@openzeppelin/contracts-ethereum-package/contracts/access/Ownable.sol\":1271:1348  function owner() public view returns (address) {... */\n    tag_9:\n      tag_34\n      tag_35\n      jump\t// in\n    tag_34:\n      0x40\n      dup1\n      mload\n      sub(shl(0xa0, 0x01), 0x01)\n      swap1\n      swap3\n      and\n      dup3\n      mstore\n      mload\n      swap1\n      dup2\n      swap1\n      sub\n      0x20\n      add\n      swap1\n      return\n        /* \"rate/BaseJumpRateModel.sol\":2390:2435  uint public constant blocksPerYear = 15768000 */\n    tag_10:\n      tag_18\n      tag_37\n      jump\t// in\n        /* \"rate/BaseJumpRateModel.sol\":6674:6904  function getSupplyRate(uint cash, uint borrows, uint reserves, uint reserveFactorMantissa) external virtual override view returns (uint) {... */\n    tag_11:\n      tag_18\n      0x04\n      dup1\n      calldatasize\n      sub\n      0x80\n      dup2\n      lt\n      iszero\n      tag_39\n      jumpi\n      0x00\n      dup1\n      revert\n    tag_39:\n      pop\n      dup1\n      calldataload\n      swap1\n      0x20\n      dup2\n      add\n      calldataload\n      swap1\n      0x40\n      dup2\n      add\n      calldataload\n      swap1\n      0x60\n      add\n      calldataload\n      tag_40\n      jump\t// in\n        /* \"rate/BaseJumpRateModel.sol\":2826:2860  uint public jumpMultiplierPerBlock */\n    tag_12:\n      tag_18\n      tag_42\n      jump\t// in\n        /* \"rate/BaseJumpRateModel.sol\":2693:2721  uint public baseRatePerBlock */\n    tag_13:\n      tag_18\n      tag_44\n      jump\t// in\n        /* \"@openzeppelin/contracts-ethereum-package/contracts/access/Ownable.sol\":2188:2428  function transferOwnership(address newOwner) public virtual onlyOwner {... */\n    tag_14:\n      tag_21\n      0x04\n      dup1\n      calldatasize\n      sub\n      0x20\n      dup2\n      lt\n      iszero\n      tag_46\n      jumpi\n      0x00\n      dup1\n      revert\n    tag_46:\n      pop\n      calldataload\n      sub(shl(0xa0, 0x01), 0x01)\n      and\n      tag_47\n      jump\t// in\n        /* \"rate/BaseJumpRateModel.sol\":2960:2976  uint public kink */\n    tag_15:\n      tag_18\n      tag_49\n      jump\t// in\n        /* \"rate/BaseJumpRateModel.sol\":5633:5812  function getBorrowRate(uint cash, uint borrows, uint reserves) external virtual override view returns (uint) {... */\n    tag_20:\n        /* \"rate/BaseJumpRateModel.sol\":5736:5740  uint */\n      0x00\n        /* \"rate/BaseJumpRateModel.sol\":5759:5805  getBorrowRateInternal(cash, borrows, reserves) */\n      tag_51\n        /* \"rate/BaseJumpRateModel.sol\":5781:5785  cash */\n      dup5\n        /* \"rate/BaseJumpRateModel.sol\":5787:5794  borrows */\n      dup5\n        /* \"rate/BaseJumpRateModel.sol\":5796:5804  reserves */\n      dup5\n        /* \"rate/BaseJumpRateModel.sol\":5759:5780  getBorrowRateInternal */\n      tag_52\n        /* \"rate/BaseJumpRateModel.sol\":5759:5805  getBorrowRateInternal(cash, borrows, reserves) */\n      jump\t// in\n    tag_51:\n        /* \"rate/BaseJumpRateModel.sol\":5752:5805  return getBorrowRateInternal(cash, borrows, reserves) */\n      swap1\n      pop\n        /* \"rate/BaseJumpRateModel.sol\":5633:5812  function getBorrowRate(uint cash, uint borrows, uint reserves) external virtual override view returns (uint) {... */\n    tag_50:\n      swap4\n      swap3\n      pop\n      pop\n      pop\n      jump\t// out\n        /* \"rate/BaseJumpRateModel.sol\":3485:3719  function updateJumpRateModel(uint baseRatePerYear, uint multiplierPerYear, uint jumpMultiplierPerYear, uint kink_) external {... */\n    tag_23:\n        /* \"rate/BaseJumpRateModel.sol\":3619:3712  updateJumpRateModelInternal(baseRatePerYear, multiplierPerYear, jumpMultiplierPerYear, kink_) */\n      tag_54\n        /* \"rate/BaseJumpRateModel.sol\":3647:3662  baseRatePerYear */\n      dup5\n        /* \"rate/BaseJumpRateModel.sol\":3664:3681  multiplierPerYear */\n      dup5\n        /* \"rate/BaseJumpRateModel.sol\":3683:3704  jumpMultiplierPerYear */\n      dup5\n        /* \"rate/BaseJumpRateModel.sol\":3706:3711  kink_ */\n      dup5\n        /* \"rate/BaseJumpRateModel.sol\":3619:3646  updateJumpRateModelInternal */\n      tag_55\n        /* \"rate/BaseJumpRateModel.sol\":3619:3712  updateJumpRateModelInternal(baseRatePerYear, multiplierPerYear, jumpMultiplierPerYear, kink_) */\n      jump\t// in\n    tag_54:\n        /* \"rate/BaseJumpRateModel.sol\":3485:3719  function updateJumpRateModel(uint baseRatePerYear, uint multiplierPerYear, uint jumpMultiplierPerYear, uint kink_) external {... */\n      pop\n      pop\n      pop\n      pop\n      jump\t// out\n        /* \"rate/JumpRateModel.sol\":275:548  function initialize(uint baseRatePerYear, uint multiplierPerYear, uint jumpMultiplierPerYear, uint kink_) public initializer {... */\n    tag_26:\n        /* \"@openzeppelin/contracts-ethereum-package/contracts/Initializable.sol\":1024:1036  initializing */\n      sload(0x00)\n      0x0100\n      swap1\n      div\n      0xff\n      and\n      dup1\n        /* \"@openzeppelin/contracts-ethereum-package/contracts/Initializable.sol\":1024:1055  initializing || isConstructor() */\n      tag_58\n      jumpi\n      pop\n        /* \"@openzeppelin/contracts-ethereum-package/contracts/Initializable.sol\":1040:1055  isConstructor() */\n      tag_58\n        /* \"@openzeppelin/contracts-ethereum-package/contracts/Initializable.sol\":1040:1053  isConstructor */\n      tag_59\n        /* \"@openzeppelin/contracts-ethereum-package/contracts/Initializable.sol\":1040:1055  isConstructor() */\n      jump\t// in\n    tag_58:\n        /* \"@openzeppelin/contracts-ethereum-package/contracts/Initializable.sol\":1024:1071  initializing || isConstructor() || !initialized */\n      dup1\n      tag_60\n      jumpi\n      pop\n        /* \"@openzeppelin/contracts-ethereum-package/contracts/Initializable.sol\":1060:1071  initialized */\n      and(0xff, sload(0x00))\n        /* \"@openzeppelin/contracts-ethereum-package/contracts/Initializable.sol\":1059:1071  !initialized */\n      iszero\n        /* \"@openzeppelin/contracts-ethereum-package/contracts/Initializable.sol\":1024:1071  initializing || isConstructor() || !initialized */\n    tag_60:\n        /* \"@openzeppelin/contracts-ethereum-package/contracts/Initializable.sol\":1016:1122  require(initializing || isConstructor() || !initialized, \"Contract instance has already been initialized\") */\n      tag_61\n      jumpi\n      mload(0x40)\n      shl(0xe5, 0x461bcd)\n      dup2\n      mstore\n      0x04\n      add\n      dup1\n      dup1\n      0x20\n      add\n      dup3\n      dup2\n      sub\n      dup3\n      mstore\n      0x2e\n      dup2\n      mstore\n      0x20\n      add\n      dup1\n      data_9fbba6c4dcac9134893b633b9564f36435b3f927c1d5fa152c5c14b20cecb1a4\n      0x2e\n      swap2\n      codecopy\n      0x40\n      add\n      swap2\n      pop\n      pop\n      mload(0x40)\n      dup1\n      swap2\n      sub\n      swap1\n      revert\n    tag_61:\n        /* \"@openzeppelin/contracts-ethereum-package/contracts/Initializable.sol\":1129:1148  bool isTopLevelCall */\n      0x00\n        /* \"@openzeppelin/contracts-ethereum-package/contracts/Initializable.sol\":1152:1164  initializing */\n      sload\n      0x0100\n      swap1\n      div\n      0xff\n      and\n        /* \"@openzeppelin/contracts-ethereum-package/contracts/Initializable.sol\":1151:1164  !initializing */\n      iszero\n        /* \"@openzeppelin/contracts-ethereum-package/contracts/Initializable.sol\":1170:1250  if (isTopLevelCall) {... */\n      dup1\n      iszero\n      tag_62\n      jumpi\n        /* \"@openzeppelin/contracts-ethereum-package/contracts/Initializable.sol\":1198:1210  initializing */\n      0x00\n        /* \"@openzeppelin/contracts-ethereum-package/contracts/Initializable.sol\":1198:1217  initializing = true */\n      dup1\n      sload\n      not(0xff)\n      not(0xff00)\n      swap1\n      swap2\n      and\n      0x0100\n      or\n        /* \"@openzeppelin/contracts-ethereum-package/contracts/Initializable.sol\":1225:1243  initialized = true */\n      and\n        /* \"@openzeppelin/contracts-ethereum-package/contracts/Initializable.sol\":1213:1217  true */\n      0x01\n        /* \"@openzeppelin/contracts-ethereum-package/contracts/Initializable.sol\":1225:1243  initialized = true */\n      or\n      swap1\n      sstore\n        /* \"@openzeppelin/contracts-ethereum-package/contracts/Initializable.sol\":1170:1250  if (isTopLevelCall) {... */\n    tag_62:\n        /* \"rate/JumpRateModel.sol\":410:432  super.__Ownable_init() */\n      tag_64\n        /* \"rate/JumpRateModel.sol\":410:430  super.__Ownable_init */\n      tag_65\n        /* \"rate/JumpRateModel.sol\":410:432  super.__Ownable_init() */\n      jump\t// in\n    tag_64:\n        /* \"rate/JumpRateModel.sol\":442:541  super.updateJumpRateModelInternal(baseRatePerYear, multiplierPerYear, jumpMultiplierPerYear, kink_) */\n      tag_66\n        /* \"rate/JumpRateModel.sol\":476:491  baseRatePerYear */\n      dup6\n        /* \"rate/JumpRateModel.sol\":493:510  multiplierPerYear */\n      dup6\n        /* \"rate/JumpRateModel.sol\":512:533  jumpMultiplierPerYear */\n      dup6\n        /* \"rate/JumpRateModel.sol\":535:540  kink_ */\n      dup6\n        /* \"rate/JumpRateModel.sol\":442:475  super.updateJumpRateModelInternal */\n      tag_55\n        /* \"rate/JumpRateModel.sol\":442:541  super.updateJumpRateModelInternal(baseRatePerYear, multiplierPerYear, jumpMultiplierPerYear, kink_) */\n      jump\t// in\n    tag_66:\n        /* \"@openzeppelin/contracts-ethereum-package/contracts/Initializable.sol\":1268:1282  isTopLevelCall */\n      dup1\n        /* \"@openzeppelin/contracts-ethereum-package/contracts/Initializable.sol\":1264:1319  if (isTopLevelCall) {... */\n      iszero\n      tag_67\n      jumpi\n        /* \"@openzeppelin/contracts-ethereum-package/contracts/Initializable.sol\":1307:1312  false */\n      0x00\n        /* \"@openzeppelin/contracts-ethereum-package/contracts/Initializable.sol\":1292:1312  initializing = false */\n      dup1\n      sload\n      not(0xff00)\n      and\n      swap1\n      sstore\n        /* \"@openzeppelin/contracts-ethereum-package/contracts/Initializable.sol\":1264:1319  if (isTopLevelCall) {... */\n    tag_67:\n        /* \"rate/JumpRateModel.sol\":275:548  function initialize(uint baseRatePerYear, uint multiplierPerYear, uint jumpMultiplierPerYear, uint kink_) public initializer {... */\n      pop\n      pop\n      pop\n      pop\n      pop\n      jump\t// out\n        /* \"rate/BaseJumpRateModel.sol\":4100:4390  function utilizationRate(uint cash, uint borrows, uint reserves) public pure returns (uint) {... */\n    tag_29:\n        /* \"rate/BaseJumpRateModel.sol\":4186:4190  uint */\n      0x00\n        /* \"rate/BaseJumpRateModel.sol\":4265:4277  borrows == 0 */\n      dup3\n        /* \"rate/BaseJumpRateModel.sol\":4261:4312  if (borrows == 0) {... */\n      tag_69\n      jumpi\n      pop\n        /* \"rate/BaseJumpRateModel.sol\":4300:4301  0 */\n      0x00\n        /* \"rate/BaseJumpRateModel.sol\":4293:4301  return 0 */\n      jump(tag_50)\n        /* \"rate/BaseJumpRateModel.sol\":4261:4312  if (borrows == 0) {... */\n    tag_69:\n        /* \"rate/BaseJumpRateModel.sol\":4329:4383  borrows.mul(1e18).div(cash.add(borrows).sub(reserves)) */\n      tag_51\n        /* \"rate/BaseJumpRateModel.sol\":4351:4382  cash.add(borrows).sub(reserves) */\n      tag_71\n        /* \"rate/BaseJumpRateModel.sol\":4373:4381  reserves */\n      dup4\n        /* \"rate/BaseJumpRateModel.sol\":4351:4368  cash.add(borrows) */\n      tag_72\n        /* \"rate/BaseJumpRateModel.sol\":4351:4355  cash */\n      dup8\n        /* \"rate/BaseJumpRateModel.sol\":4360:4367  borrows */\n      dup8\n        /* \"rate/BaseJumpRateModel.sol\":4351:4359  cash.add */\n      tag_73\n        /* \"rate/BaseJumpRateModel.sol\":4351:4368  cash.add(borrows) */\n      jump\t// in\n    tag_72:\n        /* \"rate/BaseJumpRateModel.sol\":4351:4372  cash.add(borrows).sub */\n      swap1\n      tag_74\n        /* \"rate/BaseJumpRateModel.sol\":4351:4382  cash.add(borrows).sub(reserves) */\n      jump\t// in\n    tag_71:\n        /* \"rate/BaseJumpRateModel.sol\":4329:4346  borrows.mul(1e18) */\n      tag_75\n        /* \"rate/BaseJumpRateModel.sol\":4329:4336  borrows */\n      dup6\n        /* \"rate/BaseJumpRateModel.sol\":4341:4345  1e18 */\n      0x0de0b6b3a7640000\n        /* \"rate/BaseJumpRateModel.sol\":4329:4340  borrows.mul */\n      tag_76\n        /* \"rate/BaseJumpRateModel.sol\":4329:4346  borrows.mul(1e18) */\n      jump\t// in\n    tag_75:\n        /* \"rate/BaseJumpRateModel.sol\":4329:4350  borrows.mul(1e18).div */\n      swap1\n      tag_77\n        /* \"rate/BaseJumpRateModel.sol\":4329:4383  borrows.mul(1e18).div(cash.add(borrows).sub(reserves)) */\n      jump\t// in\n        /* \"@openzeppelin/contracts-ethereum-package/contracts/access/Ownable.sol\":1894:2039  function renounceOwnership() public virtual onlyOwner {... */\n    tag_31:\n        /* \"@openzeppelin/contracts-ethereum-package/contracts/access/Ownable.sol\":1485:1497  _msgSender() */\n      tag_79\n        /* \"@openzeppelin/contracts-ethereum-package/contracts/access/Ownable.sol\":1485:1495  _msgSender */\n      tag_80\n        /* \"@openzeppelin/contracts-ethereum-package/contracts/access/Ownable.sol\":1485:1497  _msgSender() */\n      jump\t// in\n    tag_79:\n        /* \"@openzeppelin/contracts-ethereum-package/contracts/access/Ownable.sol\":1475:1481  _owner */\n      sload(0x65)\n      sub(shl(0xa0, 0x01), 0x01)\n      swap1\n      dup2\n      and\n        /* \"@openzeppelin/contracts-ethereum-package/contracts/access/Ownable.sol\":1475:1497  _owner == _msgSender() */\n      swap2\n      and\n      eq\n        /* \"@openzeppelin/contracts-ethereum-package/contracts/access/Ownable.sol\":1467:1534  require(_owner == _msgSender(), \"Ownable: caller is not the owner\") */\n      tag_81\n      jumpi\n      0x40\n      dup1\n      mload\n      shl(0xe5, 0x461bcd)\n      dup2\n      mstore\n      0x20\n      0x04\n      dup3\n      add\n      dup2\n      swap1\n      mstore\n      0x24\n      dup3\n      add\n      mstore\n      0x4f776e61626c653a2063616c6c6572206973206e6f7420746865206f776e6572\n      0x44\n      dup3\n      add\n      mstore\n      swap1\n      mload\n      swap1\n      dup2\n      swap1\n      sub\n      0x64\n      add\n      swap1\n      revert\n    tag_81:\n        /* \"@openzeppelin/contracts-ethereum-package/contracts/access/Ownable.sol\":1984:1990  _owner */\n      sload(0x65)\n        /* \"@openzeppelin/contracts-ethereum-package/contracts/access/Ownable.sol\":1963:2003  OwnershipTransferred(_owner, address(0)) */\n      mload(0x40)\n        /* \"@openzeppelin/contracts-ethereum-package/contracts/access/Ownable.sol\":2000:2001  0 */\n      0x00\n      swap2\n      sub(shl(0xa0, 0x01), 0x01)\n        /* \"@openzeppelin/contracts-ethereum-package/contracts/access/Ownable.sol\":1984:1990  _owner */\n      and\n      swap1\n        /* \"@openzeppelin/contracts-ethereum-package/contracts/access/Ownable.sol\":1963:2003  OwnershipTransferred(_owner, address(0)) */\n      0x8be0079c531659141344cd1fd0a4f28419497f9722a3daafe3b4186f6b6457e0\n      swap1\n        /* \"@openzeppelin/contracts-ethereum-package/contracts/access/Ownable.sol\":2000:2001  0 */\n      dup4\n      swap1\n        /* \"@openzeppelin/contracts-ethereum-package/contracts/access/Ownable.sol\":1963:2003  OwnershipTransferred(_owner, address(0)) */\n      log3\n        /* \"@openzeppelin/contracts-ethereum-package/contracts/access/Ownable.sol\":2013:2019  _owner */\n      0x65\n        /* \"@openzeppelin/contracts-ethereum-package/contracts/access/Ownable.sol\":2013:2032  _owner = address(0) */\n      dup1\n      sload\n      not(sub(shl(0xa0, 0x01), 0x01))\n      and\n      swap1\n      sstore\n        /* \"@openzeppelin/contracts-ethereum-package/contracts/access/Ownable.sol\":1894:2039  function renounceOwnership() public virtual onlyOwner {... */\n      jump\t// out\n        /* \"rate/BaseJumpRateModel.sol\":2550:2580  uint public multiplierPerBlock */\n    tag_33:\n      sload(0x97)\n      dup2\n      jump\t// out\n        /* \"@openzeppelin/contracts-ethereum-package/contracts/access/Ownable.sol\":1271:1348  function owner() public view returns (address) {... */\n    tag_35:\n        /* \"@openzeppelin/contracts-ethereum-package/contracts/access/Ownable.sol\":1335:1341  _owner */\n      and(sub(shl(0xa0, 0x01), 0x01), sload(0x65))\n        /* \"@openzeppelin/contracts-ethereum-package/contracts/access/Ownable.sol\":1271:1348  function owner() public view returns (address) {... */\n      swap1\n      jump\t// out\n        /* \"rate/BaseJumpRateModel.sol\":2390:2435  uint public constant blocksPerYear = 15768000 */\n    tag_37:\n        /* \"rate/BaseJumpRateModel.sol\":2427:2435  15768000 */\n      0xf099c0\n        /* \"rate/BaseJumpRateModel.sol\":2390:2435  uint public constant blocksPerYear = 15768000 */\n      dup2\n      jump\t// out\n        /* \"rate/BaseJumpRateModel.sol\":6674:6904  function getSupplyRate(uint cash, uint borrows, uint reserves, uint reserveFactorMantissa) external virtual override view returns (uint) {... */\n    tag_40:\n        /* \"rate/BaseJumpRateModel.sol\":6805:6809  uint */\n      0x00\n        /* \"rate/BaseJumpRateModel.sol\":6828:6897  getSupplyRateInternal(cash, borrows, reserves, reserveFactorMantissa) */\n      tag_85\n        /* \"rate/BaseJumpRateModel.sol\":6850:6854  cash */\n      dup6\n        /* \"rate/BaseJumpRateModel.sol\":6856:6863  borrows */\n      dup6\n        /* \"rate/BaseJumpRateModel.sol\":6865:6873  reserves */\n      dup6\n        /* \"rate/BaseJumpRateModel.sol\":6875:6896  reserveFactorMantissa */\n      dup6\n        /* \"rate/BaseJumpRateModel.sol\":6828:6849  getSupplyRateInternal */\n      tag_86\n        /* \"rate/BaseJumpRateModel.sol\":6828:6897  getSupplyRateInternal(cash, borrows, reserves, reserveFactorMantissa) */\n      jump\t// in\n    tag_85:\n        /* \"rate/BaseJumpRateModel.sol\":6821:6897  return getSupplyRateInternal(cash, borrows, reserves, reserveFactorMantissa) */\n      swap6\n        /* \"rate/BaseJumpRateModel.sol\":6674:6904  function getSupplyRate(uint cash, uint borrows, uint reserves, uint reserveFactorMantissa) external virtual override view returns (uint) {... */\n      swap5\n      pop\n      pop\n      pop\n      pop\n      pop\n      jump\t// out\n        /* \"rate/BaseJumpRateModel.sol\":2826:2860  uint public jumpMultiplierPerBlock */\n    tag_42:\n      sload(0x99)\n      dup2\n      jump\t// out\n        /* \"rate/BaseJumpRateModel.sol\":2693:2721  uint public baseRatePerBlock */\n    tag_44:\n      sload(0x98)\n      dup2\n      jump\t// out\n        /* \"@openzeppelin/contracts-ethereum-package/contracts/access/Ownable.sol\":2188:2428  function transferOwnership(address newOwner) public virtual onlyOwner {... */\n    tag_47:\n        /* \"@openzeppelin/contracts-ethereum-package/contracts/access/Ownable.sol\":1485:1497  _msgSender() */\n      tag_88\n        /* \"@openzeppelin/contracts-ethereum-package/contracts/access/Ownable.sol\":1485:1495  _msgSender */\n      tag_80\n        /* \"@openzeppelin/contracts-ethereum-package/contracts/access/Ownable.sol\":1485:1497  _msgSender() */\n      jump\t// in\n    tag_88:\n        /* \"@openzeppelin/contracts-ethereum-package/contracts/access/Ownable.sol\":1475:1481  _owner */\n      sload(0x65)\n      sub(shl(0xa0, 0x01), 0x01)\n      swap1\n      dup2\n      and\n        /* \"@openzeppelin/contracts-ethereum-package/contracts/access/Ownable.sol\":1475:1497  _owner == _msgSender() */\n      swap2\n      and\n      eq\n        /* \"@openzeppelin/contracts-ethereum-package/contracts/access/Ownable.sol\":1467:1534  require(_owner == _msgSender(), \"Ownable: caller is not the owner\") */\n      tag_89\n      jumpi\n      0x40\n      dup1\n      mload\n      shl(0xe5, 0x461bcd)\n      dup2\n      mstore\n      0x20\n      0x04\n      dup3\n      add\n      dup2\n      swap1\n      mstore\n      0x24\n      dup3\n      add\n      mstore\n      0x4f776e61626c653a2063616c6c6572206973206e6f7420746865206f776e6572\n      0x44\n      dup3\n      add\n      mstore\n      swap1\n      mload\n      swap1\n      dup2\n      swap1\n      sub\n      0x64\n      add\n      swap1\n      revert\n    tag_89:\n      sub(shl(0xa0, 0x01), 0x01)\n        /* \"@openzeppelin/contracts-ethereum-package/contracts/access/Ownable.sol\":2276:2298  newOwner != address(0) */\n      dup2\n      and\n        /* \"@openzeppelin/contracts-ethereum-package/contracts/access/Ownable.sol\":2268:2341  require(newOwner != address(0), \"Ownable: new owner is the zero address\") */\n      tag_91\n      jumpi\n      mload(0x40)\n      shl(0xe5, 0x461bcd)\n      dup2\n      mstore\n      0x04\n      add\n      dup1\n      dup1\n      0x20\n      add\n      dup3\n      dup2\n      sub\n      dup3\n      mstore\n      0x26\n      dup2\n      mstore\n      0x20\n      add\n      dup1\n      data_245f15ff17f551913a7a18385165551503906a406f905ac1c2437281a7cd0cfe\n      0x26\n      swap2\n      codecopy\n      0x40\n      add\n      swap2\n      pop\n      pop\n      mload(0x40)\n      dup1\n      swap2\n      sub\n      swap1\n      revert\n    tag_91:\n        /* \"@openzeppelin/contracts-ethereum-package/contracts/access/Ownable.sol\":2377:2383  _owner */\n      sload(0x65)\n        /* \"@openzeppelin/contracts-ethereum-package/contracts/access/Ownable.sol\":2356:2394  OwnershipTransferred(_owner, newOwner) */\n      mload(0x40)\n      sub(shl(0xa0, 0x01), 0x01)\n      dup1\n      dup5\n      and\n      swap3\n        /* \"@openzeppelin/contracts-ethereum-package/contracts/access/Ownable.sol\":2377:2383  _owner */\n      and\n      swap1\n        /* \"@openzeppelin/contracts-ethereum-package/contracts/access/Ownable.sol\":2356:2394  OwnershipTransferred(_owner, newOwner) */\n      0x8be0079c531659141344cd1fd0a4f28419497f9722a3daafe3b4186f6b6457e0\n      swap1\n        /* \"@openzeppelin/contracts-ethereum-package/contracts/access/Ownable.sol\":2377:2383  _owner */\n      0x00\n      swap1\n        /* \"@openzeppelin/contracts-ethereum-package/contracts/access/Ownable.sol\":2356:2394  OwnershipTransferred(_owner, newOwner) */\n      log3\n        /* \"@openzeppelin/contracts-ethereum-package/contracts/access/Ownable.sol\":2404:2410  _owner */\n      0x65\n        /* \"@openzeppelin/contracts-ethereum-package/contracts/access/Ownable.sol\":2404:2421  _owner = newOwner */\n      dup1\n      sload\n      not(sub(shl(0xa0, 0x01), 0x01))\n      and\n      sub(shl(0xa0, 0x01), 0x01)\n      swap3\n      swap1\n      swap3\n      and\n      swap2\n      swap1\n      swap2\n      or\n      swap1\n      sstore\n        /* \"@openzeppelin/contracts-ethereum-package/contracts/access/Ownable.sol\":2188:2428  function transferOwnership(address newOwner) public virtual onlyOwner {... */\n      jump\t// out\n        /* \"rate/BaseJumpRateModel.sol\":2960:2976  uint public kink */\n    tag_49:\n      sload(0x9a)\n      dup2\n      jump\t// out\n        /* \"rate/BaseJumpRateModel.sol\":4769:5298  function getBorrowRateInternal(uint cash, uint borrows, uint reserves) internal view returns (uint) {... */\n    tag_52:\n        /* \"rate/BaseJumpRateModel.sol\":4863:4867  uint */\n      0x00\n        /* \"rate/BaseJumpRateModel.sol\":4879:4888  uint util */\n      dup1\n        /* \"rate/BaseJumpRateModel.sol\":4891:4931  utilizationRate(cash, borrows, reserves) */\n      tag_93\n        /* \"rate/BaseJumpRateModel.sol\":4907:4911  cash */\n      dup6\n        /* \"rate/BaseJumpRateModel.sol\":4913:4920  borrows */\n      dup6\n        /* \"rate/BaseJumpRateModel.sol\":4922:4930  reserves */\n      dup6\n        /* \"rate/BaseJumpRateModel.sol\":4891:4906  utilizationRate */\n      tag_29\n        /* \"rate/BaseJumpRateModel.sol\":4891:4931  utilizationRate(cash, borrows, reserves) */\n      jump\t// in\n    tag_93:\n        /* \"rate/BaseJumpRateModel.sol\":4879:4931  uint util = utilizationRate(cash, borrows, reserves) */\n      swap1\n      pop\n        /* \"rate/BaseJumpRateModel.sol\":4954:4958  kink */\n      sload(0x9a)\n        /* \"rate/BaseJumpRateModel.sol\":4946:4950  util */\n      dup2\n        /* \"rate/BaseJumpRateModel.sol\":4946:4958  util <= kink */\n      gt\n        /* \"rate/BaseJumpRateModel.sol\":4942:5292  if (util <= kink) {... */\n      tag_94\n      jumpi\n        /* \"rate/BaseJumpRateModel.sol\":4981:5041  util.mul(multiplierPerBlock).div(1e18).add(baseRatePerBlock) */\n      tag_95\n        /* \"rate/BaseJumpRateModel.sol\":5024:5040  baseRatePerBlock */\n      sload(0x98)\n        /* \"rate/BaseJumpRateModel.sol\":4981:5019  util.mul(multiplierPerBlock).div(1e18) */\n      tag_96\n        /* \"rate/BaseJumpRateModel.sol\":5014:5018  1e18 */\n      0x0de0b6b3a7640000\n        /* \"rate/BaseJumpRateModel.sol\":4981:5009  util.mul(multiplierPerBlock) */\n      tag_75\n        /* \"rate/BaseJumpRateModel.sol\":4990:5008  multiplierPerBlock */\n      sload(0x97)\n        /* \"rate/BaseJumpRateModel.sol\":4981:4985  util */\n      dup7\n        /* \"rate/BaseJumpRateModel.sol\":4981:4989  util.mul */\n      tag_76\n      swap1\n        /* \"rate/BaseJumpRateModel.sol\":4981:5009  util.mul(multiplierPerBlock) */\n      swap2\n      swap1\n      0xffffffff\n      and\n      jump\t// in\n        /* \"rate/BaseJumpRateModel.sol\":4981:5019  util.mul(multiplierPerBlock).div(1e18) */\n    tag_96:\n        /* \"rate/BaseJumpRateModel.sol\":4981:5023  util.mul(multiplierPerBlock).div(1e18).add */\n      swap1\n      tag_73\n        /* \"rate/BaseJumpRateModel.sol\":4981:5041  util.mul(multiplierPerBlock).div(1e18).add(baseRatePerBlock) */\n      jump\t// in\n    tag_95:\n        /* \"rate/BaseJumpRateModel.sol\":4974:5041  return util.mul(multiplierPerBlock).div(1e18).add(baseRatePerBlock) */\n      swap2\n      pop\n      pop\n      jump(tag_50)\n        /* \"rate/BaseJumpRateModel.sol\":4942:5292  if (util <= kink) {... */\n    tag_94:\n        /* \"rate/BaseJumpRateModel.sol\":5072:5087  uint normalRate */\n      0x00\n        /* \"rate/BaseJumpRateModel.sol\":5090:5150  kink.mul(multiplierPerBlock).div(1e18).add(baseRatePerBlock) */\n      tag_99\n        /* \"rate/BaseJumpRateModel.sol\":5133:5149  baseRatePerBlock */\n      sload(0x98)\n        /* \"rate/BaseJumpRateModel.sol\":5090:5128  kink.mul(multiplierPerBlock).div(1e18) */\n      tag_96\n        /* \"rate/BaseJumpRateModel.sol\":5123:5127  1e18 */\n      0x0de0b6b3a7640000\n        /* \"rate/BaseJumpRateModel.sol\":5090:5118  kink.mul(multiplierPerBlock) */\n      tag_75\n        /* \"rate/BaseJumpRateModel.sol\":5099:5117  multiplierPerBlock */\n      sload(0x97)\n        /* \"rate/BaseJumpRateModel.sol\":5090:5094  kink */\n      sload(0x9a)\n        /* \"rate/BaseJumpRateModel.sol\":5090:5098  kink.mul */\n      tag_76\n      swap1\n        /* \"rate/BaseJumpRateModel.sol\":5090:5118  kink.mul(multiplierPerBlock) */\n      swap2\n      swap1\n      0xffffffff\n      and\n      jump\t// in\n        /* \"rate/BaseJumpRateModel.sol\":5090:5150  kink.mul(multiplierPerBlock).div(1e18).add(baseRatePerBlock) */\n    tag_99:\n        /* \"rate/BaseJumpRateModel.sol\":5072:5150  uint normalRate = kink.mul(multiplierPerBlock).div(1e18).add(baseRatePerBlock) */\n      swap1\n      pop\n        /* \"rate/BaseJumpRateModel.sol\":5164:5179  uint excessUtil */\n      0x00\n        /* \"rate/BaseJumpRateModel.sol\":5182:5196  util.sub(kink) */\n      tag_102\n        /* \"rate/BaseJumpRateModel.sol\":5191:5195  kink */\n      sload(0x9a)\n        /* \"rate/BaseJumpRateModel.sol\":5182:5186  util */\n      dup5\n        /* \"rate/BaseJumpRateModel.sol\":5182:5190  util.sub */\n      tag_74\n      swap1\n        /* \"rate/BaseJumpRateModel.sol\":5182:5196  util.sub(kink) */\n      swap2\n      swap1\n      0xffffffff\n      and\n      jump\t// in\n    tag_102:\n        /* \"rate/BaseJumpRateModel.sol\":5164:5196  uint excessUtil = util.sub(kink) */\n      swap1\n      pop\n        /* \"rate/BaseJumpRateModel.sol\":5217:5281  excessUtil.mul(jumpMultiplierPerBlock).div(1e18).add(normalRate) */\n      tag_103\n        /* \"rate/BaseJumpRateModel.sol\":5270:5280  normalRate */\n      dup3\n        /* \"rate/BaseJumpRateModel.sol\":5217:5265  excessUtil.mul(jumpMultiplierPerBlock).div(1e18) */\n      tag_96\n        /* \"rate/BaseJumpRateModel.sol\":5260:5264  1e18 */\n      0x0de0b6b3a7640000\n        /* \"rate/BaseJumpRateModel.sol\":5217:5255  excessUtil.mul(jumpMultiplierPerBlock) */\n      tag_75\n        /* \"rate/BaseJumpRateModel.sol\":5232:5254  jumpMultiplierPerBlock */\n      sload(0x99)\n        /* \"rate/BaseJumpRateModel.sol\":5217:5227  excessUtil */\n      dup7\n        /* \"rate/BaseJumpRateModel.sol\":5217:5231  excessUtil.mul */\n      tag_76\n      swap1\n        /* \"rate/BaseJumpRateModel.sol\":5217:5255  excessUtil.mul(jumpMultiplierPerBlock) */\n      swap2\n      swap1\n      0xffffffff\n      and\n      jump\t// in\n        /* \"rate/BaseJumpRateModel.sol\":5217:5281  excessUtil.mul(jumpMultiplierPerBlock).div(1e18).add(normalRate) */\n    tag_103:\n        /* \"rate/BaseJumpRateModel.sol\":5210:5281  return excessUtil.mul(jumpMultiplierPerBlock).div(1e18).add(normalRate) */\n      swap4\n      pop\n      pop\n      pop\n      pop\n      jump(tag_50)\n        /* \"rate/BaseJumpRateModel.sol\":7393:7893  function updateJumpRateModelInternal(uint baseRatePerYear, uint multiplierPerYear, uint jumpMultiplierPerYear, uint kink_) internal onlyOwner {... */\n    tag_55:\n        /* \"@openzeppelin/contracts-ethereum-package/contracts/access/Ownable.sol\":1485:1497  _msgSender() */\n      tag_107\n        /* \"@openzeppelin/contracts-ethereum-package/contracts/access/Ownable.sol\":1485:1495  _msgSender */\n      tag_80\n        /* \"@openzeppelin/contracts-ethereum-package/contracts/access/Ownable.sol\":1485:1497  _msgSender() */\n      jump\t// in\n    tag_107:\n        /* \"@openzeppelin/contracts-ethereum-package/contracts/access/Ownable.sol\":1475:1481  _owner */\n      sload(0x65)\n      sub(shl(0xa0, 0x01), 0x01)\n      swap1\n      dup2\n      and\n        /* \"@openzeppelin/contracts-ethereum-package/contracts/access/Ownable.sol\":1475:1497  _owner == _msgSender() */\n      swap2\n      and\n      eq\n        /* \"@openzeppelin/contracts-ethereum-package/contracts/access/Ownable.sol\":1467:1534  require(_owner == _msgSender(), \"Ownable: caller is not the owner\") */\n      tag_108\n      jumpi\n      0x40\n      dup1\n      mload\n      shl(0xe5, 0x461bcd)\n      dup2\n      mstore\n      0x20\n      0x04\n      dup3\n      add\n      dup2\n      swap1\n      mstore\n      0x24\n      dup3\n      add\n      mstore\n      0x4f776e61626c653a2063616c6c6572206973206e6f7420746865206f776e6572\n      0x44\n      dup3\n      add\n      mstore\n      swap1\n      mload\n      swap1\n      dup2\n      swap1\n      sub\n      0x64\n      add\n      swap1\n      revert\n    tag_108:\n        /* \"rate/BaseJumpRateModel.sol\":7564:7598  baseRatePerYear.div(blocksPerYear) */\n      tag_110\n        /* \"rate/BaseJumpRateModel.sol\":7564:7579  baseRatePerYear */\n      dup5\n        /* \"rate/BaseJumpRateModel.sol\":2427:2435  15768000 */\n      0xf099c0\n        /* \"rate/BaseJumpRateModel.sol\":7564:7583  baseRatePerYear.div */\n      tag_77\n        /* \"rate/BaseJumpRateModel.sol\":7564:7598  baseRatePerYear.div(blocksPerYear) */\n      jump\t// in\n    tag_110:\n        /* \"rate/BaseJumpRateModel.sol\":7545:7561  baseRatePerBlock */\n      0x98\n        /* \"rate/BaseJumpRateModel.sol\":7545:7598  baseRatePerBlock = baseRatePerYear.div(blocksPerYear) */\n      sstore\n        /* \"rate/BaseJumpRateModel.sol\":7629:7688  (multiplierPerYear.mul(1e18)).div(blocksPerYear.mul(kink_)) */\n      tag_111\n        /* \"rate/BaseJumpRateModel.sol\":7663:7687  blocksPerYear.mul(kink_) */\n      tag_71\n        /* \"rate/BaseJumpRateModel.sol\":2427:2435  15768000 */\n      0xf099c0\n        /* \"rate/BaseJumpRateModel.sol\":7681:7686  kink_ */\n      dup4\n        /* \"rate/BaseJumpRateModel.sol\":7663:7680  blocksPerYear.mul */\n      tag_76\n        /* \"rate/BaseJumpRateModel.sol\":7663:7687  blocksPerYear.mul(kink_) */\n      jump\t// in\n        /* \"rate/BaseJumpRateModel.sol\":7629:7688  (multiplierPerYear.mul(1e18)).div(blocksPerYear.mul(kink_)) */\n    tag_111:\n        /* \"rate/BaseJumpRateModel.sol\":7608:7626  multiplierPerBlock */\n      0x97\n        /* \"rate/BaseJumpRateModel.sol\":7608:7688  multiplierPerBlock = (multiplierPerYear.mul(1e18)).div(blocksPerYear.mul(kink_)) */\n      sstore\n        /* \"rate/BaseJumpRateModel.sol\":7723:7763  jumpMultiplierPerYear.div(blocksPerYear) */\n      tag_114\n        /* \"rate/BaseJumpRateModel.sol\":7723:7744  jumpMultiplierPerYear */\n      dup3\n        /* \"rate/BaseJumpRateModel.sol\":2427:2435  15768000 */\n      0xf099c0\n        /* \"rate/BaseJumpRateModel.sol\":7723:7748  jumpMultiplierPerYear.div */\n      tag_77\n        /* \"rate/BaseJumpRateModel.sol\":7723:7763  jumpMultiplierPerYear.div(blocksPerYear) */\n      jump\t// in\n    tag_114:\n        /* \"rate/BaseJumpRateModel.sol\":7698:7720  jumpMultiplierPerBlock */\n      0x99\n        /* \"rate/BaseJumpRateModel.sol\":7698:7763  jumpMultiplierPerBlock = jumpMultiplierPerYear.div(blocksPerYear) */\n      dup2\n      swap1\n      sstore\n        /* \"rate/BaseJumpRateModel.sol\":7773:7777  kink */\n      0x9a\n        /* \"rate/BaseJumpRateModel.sol\":7773:7785  kink = kink_ */\n      dup3\n      swap1\n      sstore\n        /* \"rate/BaseJumpRateModel.sol\":7819:7835  baseRatePerBlock */\n      sload(0x98)\n        /* \"rate/BaseJumpRateModel.sol\":7837:7855  multiplierPerBlock */\n      sload(0x97)\n        /* \"rate/BaseJumpRateModel.sol\":7801:7886  NewInterestParams(baseRatePerBlock, multiplierPerBlock, jumpMultiplierPerBlock, kink) */\n      0x40\n      dup1\n      mload\n      swap3\n      dup4\n      mstore\n      0x20\n      dup4\n      add\n      swap2\n      swap1\n      swap2\n      mstore\n      dup2\n      dup2\n      add\n      swap3\n      swap1\n      swap3\n      mstore\n      0x60\n      dup2\n      add\n      dup4\n      swap1\n      mstore\n      swap1\n      mload\n      0x6960ab234c7ef4b0c9197100f5393cfcde7c453ac910a27bd2000aa1dd4c068d\n      swap2\n      dup2\n      swap1\n      sub\n      0x80\n      add\n      swap1\n      log1\n        /* \"rate/BaseJumpRateModel.sol\":7393:7893  function updateJumpRateModelInternal(uint baseRatePerYear, uint multiplierPerYear, uint jumpMultiplierPerYear, uint kink_) internal onlyOwner {... */\n      pop\n      pop\n      pop\n      pop\n      jump\t// out\n        /* \"@openzeppelin/contracts-ethereum-package/contracts/Initializable.sol\":1409:1907  function isConstructor() private view returns (bool) {... */\n    tag_59:\n        /* \"@openzeppelin/contracts-ethereum-package/contracts/Initializable.sol\":1820:1824  this */\n      address\n        /* \"@openzeppelin/contracts-ethereum-package/contracts/Initializable.sol\":1864:1881  extcodesize(self) */\n      extcodesize\n        /* \"@openzeppelin/contracts-ethereum-package/contracts/Initializable.sol\":1895:1902  cs == 0 */\n      iszero\n        /* \"@openzeppelin/contracts-ethereum-package/contracts/Initializable.sol\":1409:1907  function isConstructor() private view returns (bool) {... */\n      swap1\n      jump\t// out\n        /* \"@openzeppelin/contracts-ethereum-package/contracts/access/Ownable.sol\":867:993  function __Ownable_init() internal initializer {... */\n    tag_65:\n        /* \"@openzeppelin/contracts-ethereum-package/contracts/Initializable.sol\":1024:1036  initializing */\n      sload(0x00)\n      0x0100\n      swap1\n      div\n      0xff\n      and\n      dup1\n        /* \"@openzeppelin/contracts-ethereum-package/contracts/Initializable.sol\":1024:1055  initializing || isConstructor() */\n      tag_118\n      jumpi\n      pop\n        /* \"@openzeppelin/contracts-ethereum-package/contracts/Initializable.sol\":1040:1055  isConstructor() */\n      tag_118\n        /* \"@openzeppelin/contracts-ethereum-package/contracts/Initializable.sol\":1040:1053  isConstructor */\n      tag_59\n        /* \"@openzeppelin/contracts-ethereum-package/contracts/Initializable.sol\":1040:1055  isConstructor() */\n      jump\t// in\n    tag_118:\n        /* \"@openzeppelin/contracts-ethereum-package/contracts/Initializable.sol\":1024:1071  initializing || isConstructor() || !initialized */\n      dup1\n      tag_119\n      jumpi\n      pop\n        /* \"@openzeppelin/contracts-ethereum-package/contracts/Initializable.sol\":1060:1071  initialized */\n      and(0xff, sload(0x00))\n        /* \"@openzeppelin/contracts-ethereum-package/contracts/Initializable.sol\":1059:1071  !initialized */\n      iszero\n        /* \"@openzeppelin/contracts-ethereum-package/contracts/Initializable.sol\":1024:1071  initializing || isConstructor() || !initialized */\n    tag_119:\n        /* \"@openzeppelin/contracts-ethereum-package/contracts/Initializable.sol\":1016:1122  require(initializing || isConstructor() || !initialized, \"Contract instance has already been initialized\") */\n      tag_120\n      jumpi\n      mload(0x40)\n      shl(0xe5, 0x461bcd)\n      dup2\n      mstore\n      0x04\n      add\n      dup1\n      dup1\n      0x20\n      add\n      dup3\n      dup2\n      sub\n      dup3\n      mstore\n      0x2e\n      dup2\n      mstore\n      0x20\n      add\n      dup1\n      data_9fbba6c4dcac9134893b633b9564f36435b3f927c1d5fa152c5c14b20cecb1a4\n      0x2e\n      swap2\n      codecopy\n      0x40\n      add\n      swap2\n      pop\n      pop\n      mload(0x40)\n      dup1\n      swap2\n      sub\n      swap1\n      revert\n    tag_120:\n        /* \"@openzeppelin/contracts-ethereum-package/contracts/Initializable.sol\":1129:1148  bool isTopLevelCall */\n      0x00\n        /* \"@openzeppelin/contracts-ethereum-package/contracts/Initializable.sol\":1152:1164  initializing */\n      sload\n      0x0100\n      swap1\n      div\n      0xff\n      and\n        /* \"@openzeppelin/contracts-ethereum-package/contracts/Initializable.sol\":1151:1164  !initializing */\n      iszero\n        /* \"@openzeppelin/contracts-ethereum-package/contracts/Initializable.sol\":1170:1250  if (isTopLevelCall) {... */\n      dup1\n      iszero\n      tag_121\n      jumpi\n        /* \"@openzeppelin/contracts-ethereum-package/contracts/Initializable.sol\":1198:1210  initializing */\n      0x00\n        /* \"@openzeppelin/contracts-ethereum-package/contracts/Initializable.sol\":1198:1217  initializing = true */\n      dup1\n      sload\n      not(0xff)\n      not(0xff00)\n      swap1\n      swap2\n      and\n      0x0100\n      or\n        /* \"@openzeppelin/contracts-ethereum-package/contracts/Initializable.sol\":1225:1243  initialized = true */\n      and\n        /* \"@openzeppelin/contracts-ethereum-package/contracts/Initializable.sol\":1213:1217  true */\n      0x01\n        /* \"@openzeppelin/contracts-ethereum-package/contracts/Initializable.sol\":1225:1243  initialized = true */\n      or\n      swap1\n      sstore\n        /* \"@openzeppelin/contracts-ethereum-package/contracts/Initializable.sol\":1170:1250  if (isTopLevelCall) {... */\n    tag_121:\n        /* \"@openzeppelin/contracts-ethereum-package/contracts/access/Ownable.sol\":924:950  __Context_init_unchained() */\n      tag_123\n        /* \"@openzeppelin/contracts-ethereum-package/contracts/access/Ownable.sol\":924:948  __Context_init_unchained */\n      tag_124\n        /* \"@openzeppelin/contracts-ethereum-package/contracts/access/Ownable.sol\":924:950  __Context_init_unchained() */\n      jump\t// in\n    tag_123:\n        /* \"@openzeppelin/contracts-ethereum-package/contracts/access/Ownable.sol\":960:986  __Ownable_init_unchained() */\n      tag_125\n        /* \"@openzeppelin/contracts-ethereum-package/contracts/access/Ownable.sol\":960:984  __Ownable_init_unchained */\n      tag_126\n        /* \"@openzeppelin/contracts-ethereum-package/contracts/access/Ownable.sol\":960:986  __Ownable_init_unchained() */\n      jump\t// in\n    tag_125:\n        /* \"@openzeppelin/contracts-ethereum-package/contracts/Initializable.sol\":1268:1282  isTopLevelCall */\n      dup1\n        /* \"@openzeppelin/contracts-ethereum-package/contracts/Initializable.sol\":1264:1319  if (isTopLevelCall) {... */\n      iszero\n      tag_127\n      jumpi\n        /* \"@openzeppelin/contracts-ethereum-package/contracts/Initializable.sol\":1307:1312  false */\n      0x00\n        /* \"@openzeppelin/contracts-ethereum-package/contracts/Initializable.sol\":1292:1312  initializing = false */\n      dup1\n      sload\n      not(0xff00)\n      and\n      swap1\n      sstore\n        /* \"@openzeppelin/contracts-ethereum-package/contracts/Initializable.sol\":1264:1319  if (isTopLevelCall) {... */\n    tag_127:\n        /* \"@openzeppelin/contracts-ethereum-package/contracts/access/Ownable.sol\":867:993  function __Ownable_init() internal initializer {... */\n      pop\n      jump\t// out\n        /* \"@openzeppelin/contracts-ethereum-package/contracts/math/SafeMath.sol\":834:1010  function add(uint256 a, uint256 b) internal pure returns (uint256) {... */\n    tag_73:\n        /* \"@openzeppelin/contracts-ethereum-package/contracts/math/SafeMath.sol\":892:899  uint256 */\n      0x00\n        /* \"@openzeppelin/contracts-ethereum-package/contracts/math/SafeMath.sol\":923:928  a + b */\n      dup3\n      dup3\n      add\n        /* \"@openzeppelin/contracts-ethereum-package/contracts/math/SafeMath.sol\":946:952  c >= a */\n      dup4\n      dup2\n      lt\n      iszero\n        /* \"@openzeppelin/contracts-ethereum-package/contracts/math/SafeMath.sol\":938:984  require(c >= a, \"SafeMath: addition overflow\") */\n      tag_129\n      jumpi\n      0x40\n      dup1\n      mload\n      shl(0xe5, 0x461bcd)\n      dup2\n      mstore\n      0x20\n      0x04\n      dup3\n      add\n      mstore\n      0x1b\n      0x24\n      dup3\n      add\n      mstore\n      0x536166654d6174683a206164646974696f6e206f766572666c6f770000000000\n      0x44\n      dup3\n      add\n      mstore\n      swap1\n      mload\n      swap1\n      dup2\n      swap1\n      sub\n      0x64\n      add\n      swap1\n      revert\n    tag_129:\n        /* \"@openzeppelin/contracts-ethereum-package/contracts/math/SafeMath.sol\":1002:1003  c */\n      swap1\n      pop\n        /* \"@openzeppelin/contracts-ethereum-package/contracts/math/SafeMath.sol\":834:1010  function add(uint256 a, uint256 b) internal pure returns (uint256) {... */\n    tag_128:\n      swap3\n      swap2\n      pop\n      pop\n      jump\t// out\n        /* \"@openzeppelin/contracts-ethereum-package/contracts/math/SafeMath.sol\":1274:1408  function sub(uint256 a, uint256 b) internal pure returns (uint256) {... */\n    tag_74:\n        /* \"@openzeppelin/contracts-ethereum-package/contracts/math/SafeMath.sol\":1332:1339  uint256 */\n      0x00\n        /* \"@openzeppelin/contracts-ethereum-package/contracts/math/SafeMath.sol\":1358:1401  sub(a, b, \"SafeMath: subtraction overflow\") */\n      tag_129\n        /* \"@openzeppelin/contracts-ethereum-package/contracts/math/SafeMath.sol\":1362:1363  a */\n      dup4\n        /* \"@openzeppelin/contracts-ethereum-package/contracts/math/SafeMath.sol\":1365:1366  b */\n      dup4\n        /* \"@openzeppelin/contracts-ethereum-package/contracts/math/SafeMath.sol\":1358:1401  sub(a, b, \"SafeMath: subtraction overflow\") */\n      mload(0x40)\n      dup1\n      0x40\n      add\n      0x40\n      mstore\n      dup1\n      0x1e\n      dup2\n      mstore\n      0x20\n      add\n      0x536166654d6174683a207375627472616374696f6e206f766572666c6f770000\n      dup2\n      mstore\n      pop\n        /* \"@openzeppelin/contracts-ethereum-package/contracts/math/SafeMath.sol\":1358:1361  sub */\n      tag_132\n        /* \"@openzeppelin/contracts-ethereum-package/contracts/math/SafeMath.sol\":1358:1401  sub(a, b, \"SafeMath: subtraction overflow\") */\n      jump\t// in\n        /* \"@openzeppelin/contracts-ethereum-package/contracts/math/SafeMath.sol\":2119:2578  function mul(uint256 a, uint256 b) internal pure returns (uint256) {... */\n    tag_76:\n        /* \"@openzeppelin/contracts-ethereum-package/contracts/math/SafeMath.sol\":2177:2184  uint256 */\n      0x00\n        /* \"@openzeppelin/contracts-ethereum-package/contracts/math/SafeMath.sol\":2418:2424  a == 0 */\n      dup3\n        /* \"@openzeppelin/contracts-ethereum-package/contracts/math/SafeMath.sol\":2414:2459  if (a == 0) {... */\n      tag_134\n      jumpi\n      pop\n        /* \"@openzeppelin/contracts-ethereum-package/contracts/math/SafeMath.sol\":2447:2448  0 */\n      0x00\n        /* \"@openzeppelin/contracts-ethereum-package/contracts/math/SafeMath.sol\":2440:2448  return 0 */\n      jump(tag_128)\n        /* \"@openzeppelin/contracts-ethereum-package/contracts/math/SafeMath.sol\":2414:2459  if (a == 0) {... */\n    tag_134:\n        /* \"@openzeppelin/contracts-ethereum-package/contracts/math/SafeMath.sol\":2481:2486  a * b */\n      dup3\n      dup3\n      mul\n        /* \"@openzeppelin/contracts-ethereum-package/contracts/math/SafeMath.sol\":2485:2486  b */\n      dup3\n        /* \"@openzeppelin/contracts-ethereum-package/contracts/math/SafeMath.sol\":2481:2482  a */\n      dup5\n        /* \"@openzeppelin/contracts-ethereum-package/contracts/math/SafeMath.sol\":2481:2486  a * b */\n      dup3\n        /* \"@openzeppelin/contracts-ethereum-package/contracts/math/SafeMath.sol\":2481:2482  a */\n      dup2\n        /* \"@openzeppelin/contracts-ethereum-package/contracts/math/SafeMath.sol\":2504:2509  c / a */\n      tag_135\n      jumpi\n      invalid\n    tag_135:\n      div\n        /* \"@openzeppelin/contracts-ethereum-package/contracts/math/SafeMath.sol\":2504:2514  c / a == b */\n      eq\n        /* \"@openzeppelin/contracts-ethereum-package/contracts/math/SafeMath.sol\":2496:2552  require(c / a == b, \"SafeMath: multiplication overflow\") */\n      tag_129\n      jumpi\n      mload(0x40)\n      shl(0xe5, 0x461bcd)\n      dup2\n      mstore\n      0x04\n      add\n      dup1\n      dup1\n      0x20\n      add\n      dup3\n      dup2\n      sub\n      dup3\n      mstore\n      0x21\n      dup2\n      mstore\n      0x20\n      add\n      dup1\n      data_9113bb53c2876a3805b2c9242029423fc540a728243ce887ab24c82cf119fba3\n      0x21\n      swap2\n      codecopy\n      0x40\n      add\n      swap2\n      pop\n      pop\n      mload(0x40)\n      dup1\n      swap2\n      sub\n      swap1\n      revert\n        /* \"@openzeppelin/contracts-ethereum-package/contracts/math/SafeMath.sol\":3033:3163  function div(uint256 a, uint256 b) internal pure returns (uint256) {... */\n    tag_77:\n        /* \"@openzeppelin/contracts-ethereum-package/contracts/math/SafeMath.sol\":3091:3098  uint256 */\n      0x00\n        /* \"@openzeppelin/contracts-ethereum-package/contracts/math/SafeMath.sol\":3117:3156  div(a, b, \"SafeMath: division by zero\") */\n      tag_129\n        /* \"@openzeppelin/contracts-ethereum-package/contracts/math/SafeMath.sol\":3121:3122  a */\n      dup4\n        /* \"@openzeppelin/contracts-ethereum-package/contracts/math/SafeMath.sol\":3124:3125  b */\n      dup4\n        /* \"@openzeppelin/contracts-ethereum-package/contracts/math/SafeMath.sol\":3117:3156  div(a, b, \"SafeMath: division by zero\") */\n      mload(0x40)\n      dup1\n      0x40\n      add\n      0x40\n      mstore\n      dup1\n      0x1a\n      dup2\n      mstore\n      0x20\n      add\n      0x536166654d6174683a206469766973696f6e206279207a65726f000000000000\n      dup2\n      mstore\n      pop\n        /* \"@openzeppelin/contracts-ethereum-package/contracts/math/SafeMath.sol\":3117:3120  div */\n      tag_139\n        /* \"@openzeppelin/contracts-ethereum-package/contracts/math/SafeMath.sol\":3117:3156  div(a, b, \"SafeMath: division by zero\") */\n      jump\t// in\n        /* \"@openzeppelin/contracts-ethereum-package/contracts/GSN/Context.sol\":931:1035  function _msgSender() internal view virtual returns (address payable) {... */\n    tag_80:\n        /* \"@openzeppelin/contracts-ethereum-package/contracts/GSN/Context.sol\":1018:1028  msg.sender */\n      caller\n        /* \"@openzeppelin/contracts-ethereum-package/contracts/GSN/Context.sol\":931:1035  function _msgSender() internal view virtual returns (address payable) {... */\n      swap1\n      jump\t// out\n        /* \"rate/BaseJumpRateModel.sol\":5819:6262  function getSupplyRateInternal(uint cash, uint borrows, uint reserves, uint reserveFactorMantissa) internal view returns (uint) {... */\n    tag_86:\n        /* \"rate/BaseJumpRateModel.sol\":5941:5945  uint */\n      0x00\n      dup1\n        /* \"rate/BaseJumpRateModel.sol\":5986:6023  uint(1e18).sub(reserveFactorMantissa) */\n      tag_142\n        /* \"rate/BaseJumpRateModel.sol\":5991:5995  1e18 */\n      0x0de0b6b3a7640000\n        /* \"rate/BaseJumpRateModel.sol\":6001:6022  reserveFactorMantissa */\n      dup5\n        /* \"rate/BaseJumpRateModel.sol\":5986:6000  uint(1e18).sub */\n      tag_74\n        /* \"rate/BaseJumpRateModel.sol\":5986:6023  uint(1e18).sub(reserveFactorMantissa) */\n      jump\t// in\n    tag_142:\n        /* \"rate/BaseJumpRateModel.sol\":5957:6023  uint oneMinusReserveFactor = uint(1e18).sub(reserveFactorMantissa) */\n      swap1\n      pop\n        /* \"rate/BaseJumpRateModel.sol\":6033:6048  uint borrowRate */\n      0x00\n        /* \"rate/BaseJumpRateModel.sol\":6051:6097  getBorrowRateInternal(cash, borrows, reserves) */\n      tag_143\n        /* \"rate/BaseJumpRateModel.sol\":6073:6077  cash */\n      dup8\n        /* \"rate/BaseJumpRateModel.sol\":6079:6086  borrows */\n      dup8\n        /* \"rate/BaseJumpRateModel.sol\":6088:6096  reserves */\n      dup8\n        /* \"rate/BaseJumpRateModel.sol\":6051:6072  getBorrowRateInternal */\n      tag_52\n        /* \"rate/BaseJumpRateModel.sol\":6051:6097  getBorrowRateInternal(cash, borrows, reserves) */\n      jump\t// in\n    tag_143:\n        /* \"rate/BaseJumpRateModel.sol\":6033:6097  uint borrowRate = getBorrowRateInternal(cash, borrows, reserves) */\n      swap1\n      pop\n        /* \"rate/BaseJumpRateModel.sol\":6107:6122  uint rateToPool */\n      0x00\n        /* \"rate/BaseJumpRateModel.sol\":6125:6172  borrowRate.mul(oneMinusReserveFactor).div(1e18) */\n      tag_144\n        /* \"rate/BaseJumpRateModel.sol\":6167:6171  1e18 */\n      0x0de0b6b3a7640000\n        /* \"rate/BaseJumpRateModel.sol\":6125:6162  borrowRate.mul(oneMinusReserveFactor) */\n      tag_75\n        /* \"rate/BaseJumpRateModel.sol\":6033:6097  uint borrowRate = getBorrowRateInternal(cash, borrows, reserves) */\n      dup5\n        /* \"rate/BaseJumpRateModel.sol\":6140:6161  oneMinusReserveFactor */\n      dup7\n        /* \"rate/BaseJumpRateModel.sol\":6125:6139  borrowRate.mul */\n      tag_76\n        /* \"rate/BaseJumpRateModel.sol\":6125:6162  borrowRate.mul(oneMinusReserveFactor) */\n      jump\t// in\n        /* \"rate/BaseJumpRateModel.sol\":6125:6172  borrowRate.mul(oneMinusReserveFactor).div(1e18) */\n    tag_144:\n        /* \"rate/BaseJumpRateModel.sol\":6107:6172  uint rateToPool = borrowRate.mul(oneMinusReserveFactor).div(1e18) */\n      swap1\n      pop\n        /* \"rate/BaseJumpRateModel.sol\":6189:6255  utilizationRate(cash, borrows, reserves).mul(rateToPool).div(1e18) */\n      tag_146\n        /* \"rate/BaseJumpRateModel.sol\":6250:6254  1e18 */\n      0x0de0b6b3a7640000\n        /* \"rate/BaseJumpRateModel.sol\":6189:6245  utilizationRate(cash, borrows, reserves).mul(rateToPool) */\n      tag_75\n        /* \"rate/BaseJumpRateModel.sol\":6234:6244  rateToPool */\n      dup4\n        /* \"rate/BaseJumpRateModel.sol\":6189:6229  utilizationRate(cash, borrows, reserves) */\n      tag_148\n        /* \"rate/BaseJumpRateModel.sol\":6205:6209  cash */\n      dup13\n        /* \"rate/BaseJumpRateModel.sol\":6211:6218  borrows */\n      dup13\n        /* \"rate/BaseJumpRateModel.sol\":6220:6228  reserves */\n      dup13\n        /* \"rate/BaseJumpRateModel.sol\":6189:6204  utilizationRate */\n      tag_29\n        /* \"rate/BaseJumpRateModel.sol\":6189:6229  utilizationRate(cash, borrows, reserves) */\n      jump\t// in\n    tag_148:\n        /* \"rate/BaseJumpRateModel.sol\":6189:6233  utilizationRate(cash, borrows, reserves).mul */\n      swap1\n      tag_76\n        /* \"rate/BaseJumpRateModel.sol\":6189:6245  utilizationRate(cash, borrows, reserves).mul(rateToPool) */\n      jump\t// in\n        /* \"rate/BaseJumpRateModel.sol\":6189:6255  utilizationRate(cash, borrows, reserves).mul(rateToPool).div(1e18) */\n    tag_146:\n        /* \"rate/BaseJumpRateModel.sol\":6182:6255  return utilizationRate(cash, borrows, reserves).mul(rateToPool).div(1e18) */\n      swap9\n        /* \"rate/BaseJumpRateModel.sol\":5819:6262  function getSupplyRateInternal(uint cash, uint borrows, uint reserves, uint reserveFactorMantissa) internal view returns (uint) {... */\n      swap8\n      pop\n      pop\n      pop\n      pop\n      pop\n      pop\n      pop\n      pop\n      jump\t// out\n        /* \"@openzeppelin/contracts-ethereum-package/contracts/GSN/Context.sol\":858:924  function __Context_init_unchained() internal initializer {... */\n    tag_124:\n        /* \"@openzeppelin/contracts-ethereum-package/contracts/Initializable.sol\":1024:1036  initializing */\n      sload(0x00)\n      0x0100\n      swap1\n      div\n      0xff\n      and\n      dup1\n        /* \"@openzeppelin/contracts-ethereum-package/contracts/Initializable.sol\":1024:1055  initializing || isConstructor() */\n      tag_151\n      jumpi\n      pop\n        /* \"@openzeppelin/contracts-ethereum-package/contracts/Initializable.sol\":1040:1055  isConstructor() */\n      tag_151\n        /* \"@openzeppelin/contracts-ethereum-package/contracts/Initializable.sol\":1040:1053  isConstructor */\n      tag_59\n        /* \"@openzeppelin/contracts-ethereum-package/contracts/Initializable.sol\":1040:1055  isConstructor() */\n      jump\t// in\n    tag_151:\n        /* \"@openzeppelin/contracts-ethereum-package/contracts/Initializable.sol\":1024:1071  initializing || isConstructor() || !initialized */\n      dup1\n      tag_152\n      jumpi\n      pop\n        /* \"@openzeppelin/contracts-ethereum-package/contracts/Initializable.sol\":1060:1071  initialized */\n      and(0xff, sload(0x00))\n        /* \"@openzeppelin/contracts-ethereum-package/contracts/Initializable.sol\":1059:1071  !initialized */\n      iszero\n        /* \"@openzeppelin/contracts-ethereum-package/contracts/Initializable.sol\":1024:1071  initializing || isConstructor() || !initialized */\n    tag_152:\n        /* \"@openzeppelin/contracts-ethereum-package/contracts/Initializable.sol\":1016:1122  require(initializing || isConstructor() || !initialized, \"Contract instance has already been initialized\") */\n      tag_153\n      jumpi\n      mload(0x40)\n      shl(0xe5, 0x461bcd)\n      dup2\n      mstore\n      0x04\n      add\n      dup1\n      dup1\n      0x20\n      add\n      dup3\n      dup2\n      sub\n      dup3\n      mstore\n      0x2e\n      dup2\n      mstore\n      0x20\n      add\n      dup1\n      data_9fbba6c4dcac9134893b633b9564f36435b3f927c1d5fa152c5c14b20cecb1a4\n      0x2e\n      swap2\n      codecopy\n      0x40\n      add\n      swap2\n      pop\n      pop\n      mload(0x40)\n      dup1\n      swap2\n      sub\n      swap1\n      revert\n    tag_153:\n        /* \"@openzeppelin/contracts-ethereum-package/contracts/Initializable.sol\":1129:1148  bool isTopLevelCall */\n      0x00\n        /* \"@openzeppelin/contracts-ethereum-package/contracts/Initializable.sol\":1152:1164  initializing */\n      sload\n      0x0100\n      swap1\n      div\n      0xff\n      and\n        /* \"@openzeppelin/contracts-ethereum-package/contracts/Initializable.sol\":1151:1164  !initializing */\n      iszero\n        /* \"@openzeppelin/contracts-ethereum-package/contracts/Initializable.sol\":1170:1250  if (isTopLevelCall) {... */\n      dup1\n      iszero\n      tag_125\n      jumpi\n        /* \"@openzeppelin/contracts-ethereum-package/contracts/Initializable.sol\":1198:1210  initializing */\n      0x00\n        /* \"@openzeppelin/contracts-ethereum-package/contracts/Initializable.sol\":1198:1217  initializing = true */\n      dup1\n      sload\n      not(0xff)\n      not(0xff00)\n      swap1\n      swap2\n      and\n      0x0100\n      or\n        /* \"@openzeppelin/contracts-ethereum-package/contracts/Initializable.sol\":1225:1243  initialized = true */\n      and\n        /* \"@openzeppelin/contracts-ethereum-package/contracts/Initializable.sol\":1213:1217  true */\n      0x01\n        /* \"@openzeppelin/contracts-ethereum-package/contracts/Initializable.sol\":1225:1243  initialized = true */\n      or\n      swap1\n      sstore\n        /* \"@openzeppelin/contracts-ethereum-package/contracts/Initializable.sol\":1268:1282  isTopLevelCall */\n      dup1\n        /* \"@openzeppelin/contracts-ethereum-package/contracts/Initializable.sol\":1264:1319  if (isTopLevelCall) {... */\n      iszero\n      tag_127\n      jumpi\n        /* \"@openzeppelin/contracts-ethereum-package/contracts/Initializable.sol\":1307:1312  false */\n      0x00\n        /* \"@openzeppelin/contracts-ethereum-package/contracts/Initializable.sol\":1292:1312  initializing = false */\n      dup1\n      sload\n      not(0xff00)\n      and\n      swap1\n      sstore\n        /* \"@openzeppelin/contracts-ethereum-package/contracts/GSN/Context.sol\":858:924  function __Context_init_unchained() internal initializer {... */\n      pop\n      jump\t// out\n        /* \"@openzeppelin/contracts-ethereum-package/contracts/access/Ownable.sol\":999:1194  function __Ownable_init_unchained() internal initializer {... */\n    tag_126:\n        /* \"@openzeppelin/contracts-ethereum-package/contracts/Initializable.sol\":1024:1036  initializing */\n      sload(0x00)\n      0x0100\n      swap1\n      div\n      0xff\n      and\n      dup1\n        /* \"@openzeppelin/contracts-ethereum-package/contracts/Initializable.sol\":1024:1055  initializing || isConstructor() */\n      tag_159\n      jumpi\n      pop\n        /* \"@openzeppelin/contracts-ethereum-package/contracts/Initializable.sol\":1040:1055  isConstructor() */\n      tag_159\n        /* \"@openzeppelin/contracts-ethereum-package/contracts/Initializable.sol\":1040:1053  isConstructor */\n      tag_59\n        /* \"@openzeppelin/contracts-ethereum-package/contracts/Initializable.sol\":1040:1055  isConstructor() */\n      jump\t// in\n    tag_159:\n        /* \"@openzeppelin/contracts-ethereum-package/contracts/Initializable.sol\":1024:1071  initializing || isConstructor() || !initialized */\n      dup1\n      tag_160\n      jumpi\n      pop\n        /* \"@openzeppelin/contracts-ethereum-package/contracts/Initializable.sol\":1060:1071  initialized */\n      and(0xff, sload(0x00))\n        /* \"@openzeppelin/contracts-ethereum-package/contracts/Initializable.sol\":1059:1071  !initialized */\n      iszero\n        /* \"@openzeppelin/contracts-ethereum-package/contracts/Initializable.sol\":1024:1071  initializing || isConstructor() || !initialized */\n    tag_160:\n        /* \"@openzeppelin/contracts-ethereum-package/contracts/Initializable.sol\":1016:1122  require(initializing || isConstructor() || !initialized, \"Contract instance has already been initialized\") */\n      tag_161\n      jumpi\n      mload(0x40)\n      shl(0xe5, 0x461bcd)\n      dup2\n      mstore\n      0x04\n      add\n      dup1\n      dup1\n      0x20\n      add\n      dup3\n      dup2\n      sub\n      dup3\n      mstore\n      0x2e\n      dup2\n      mstore\n      0x20\n      add\n      dup1\n      data_9fbba6c4dcac9134893b633b9564f36435b3f927c1d5fa152c5c14b20cecb1a4\n      0x2e\n      swap2\n      codecopy\n      0x40\n      add\n      swap2\n      pop\n      pop\n      mload(0x40)\n      dup1\n      swap2\n      sub\n      swap1\n      revert\n    tag_161:\n        /* \"@openzeppelin/contracts-ethereum-package/contracts/Initializable.sol\":1129:1148  bool isTopLevelCall */\n      0x00\n        /* \"@openzeppelin/contracts-ethereum-package/contracts/Initializable.sol\":1152:1164  initializing */\n      sload\n      0x0100\n      swap1\n      div\n      0xff\n      and\n        /* \"@openzeppelin/contracts-ethereum-package/contracts/Initializable.sol\":1151:1164  !initializing */\n      iszero\n        /* \"@openzeppelin/contracts-ethereum-package/contracts/Initializable.sol\":1170:1250  if (isTopLevelCall) {... */\n      dup1\n      iszero\n      tag_162\n      jumpi\n        /* \"@openzeppelin/contracts-ethereum-package/contracts/Initializable.sol\":1198:1210  initializing */\n      0x00\n        /* \"@openzeppelin/contracts-ethereum-package/contracts/Initializable.sol\":1198:1217  initializing = true */\n      dup1\n      sload\n      not(0xff)\n      not(0xff00)\n      swap1\n      swap2\n      and\n      0x0100\n      or\n        /* \"@openzeppelin/contracts-ethereum-package/contracts/Initializable.sol\":1225:1243  initialized = true */\n      and\n        /* \"@openzeppelin/contracts-ethereum-package/contracts/Initializable.sol\":1213:1217  true */\n      0x01\n        /* \"@openzeppelin/contracts-ethereum-package/contracts/Initializable.sol\":1225:1243  initialized = true */\n      or\n      swap1\n      sstore\n        /* \"@openzeppelin/contracts-ethereum-package/contracts/Initializable.sol\":1170:1250  if (isTopLevelCall) {... */\n    tag_162:\n        /* \"@openzeppelin/contracts-ethereum-package/contracts/access/Ownable.sol\":1068:1085  address msgSender */\n      0x00\n        /* \"@openzeppelin/contracts-ethereum-package/contracts/access/Ownable.sol\":1088:1100  _msgSender() */\n      tag_164\n        /* \"@openzeppelin/contracts-ethereum-package/contracts/access/Ownable.sol\":1088:1098  _msgSender */\n      tag_80\n        /* \"@openzeppelin/contracts-ethereum-package/contracts/access/Ownable.sol\":1088:1100  _msgSender() */\n      jump\t// in\n    tag_164:\n        /* \"@openzeppelin/contracts-ethereum-package/contracts/access/Ownable.sol\":1110:1116  _owner */\n      0x65\n        /* \"@openzeppelin/contracts-ethereum-package/contracts/access/Ownable.sol\":1110:1128  _owner = msgSender */\n      dup1\n      sload\n      not(sub(shl(0xa0, 0x01), 0x01))\n      and\n      sub(shl(0xa0, 0x01), 0x01)\n      dup4\n      and\n      swap1\n      dup2\n      or\n      swap1\n      swap2\n      sstore\n        /* \"@openzeppelin/contracts-ethereum-package/contracts/access/Ownable.sol\":1143:1186  OwnershipTransferred(address(0), msgSender) */\n      mload(0x40)\n        /* \"@openzeppelin/contracts-ethereum-package/contracts/access/Ownable.sol\":1110:1128  _owner = msgSender */\n      swap2\n      swap3\n      pop\n      swap1\n      0x00\n      swap1\n        /* \"@openzeppelin/contracts-ethereum-package/contracts/access/Ownable.sol\":1143:1186  OwnershipTransferred(address(0), msgSender) */\n      0x8be0079c531659141344cd1fd0a4f28419497f9722a3daafe3b4186f6b6457e0\n      swap1\n      dup3\n      swap1\n      log3\n        /* \"@openzeppelin/contracts-ethereum-package/contracts/Initializable.sol\":1256:1257  _ */\n      pop\n        /* \"@openzeppelin/contracts-ethereum-package/contracts/Initializable.sol\":1268:1282  isTopLevelCall */\n      dup1\n        /* \"@openzeppelin/contracts-ethereum-package/contracts/Initializable.sol\":1264:1319  if (isTopLevelCall) {... */\n      iszero\n      tag_127\n      jumpi\n        /* \"@openzeppelin/contracts-ethereum-package/contracts/Initializable.sol\":1307:1312  false */\n      0x00\n        /* \"@openzeppelin/contracts-ethereum-package/contracts/Initializable.sol\":1292:1312  initializing = false */\n      dup1\n      sload\n      not(0xff00)\n      and\n      swap1\n      sstore\n        /* \"@openzeppelin/contracts-ethereum-package/contracts/access/Ownable.sol\":999:1194  function __Ownable_init_unchained() internal initializer {... */\n      pop\n      jump\t// out\n        /* \"@openzeppelin/contracts-ethereum-package/contracts/math/SafeMath.sol\":1692:1879  function sub(uint256 a, uint256 b, string memory errorMessage) internal pure returns (uint256) {... */\n    tag_132:\n        /* \"@openzeppelin/contracts-ethereum-package/contracts/math/SafeMath.sol\":1778:1785  uint256 */\n      0x00\n        /* \"@openzeppelin/contracts-ethereum-package/contracts/math/SafeMath.sol\":1813:1825  errorMessage */\n      dup2\n        /* \"@openzeppelin/contracts-ethereum-package/contracts/math/SafeMath.sol\":1805:1811  b <= a */\n      dup5\n      dup5\n      gt\n      iszero\n        /* \"@openzeppelin/contracts-ethereum-package/contracts/math/SafeMath.sol\":1797:1826  require(b <= a, errorMessage) */\n      tag_167\n      jumpi\n      mload(0x40)\n      shl(0xe5, 0x461bcd)\n      dup2\n      mstore\n      0x04\n      add\n      dup1\n      dup1\n      0x20\n      add\n      dup3\n      dup2\n      sub\n      dup3\n      mstore\n      dup4\n      dup2\n      dup2\n      mload\n      dup2\n      mstore\n      0x20\n      add\n      swap2\n      pop\n      dup1\n      mload\n      swap1\n      0x20\n      add\n      swap1\n      dup1\n      dup4\n      dup4\n      0x00\n    tag_168:\n      dup4\n      dup2\n      lt\n      iszero\n      tag_170\n      jumpi\n      dup2\n      dup2\n      add\n      mload\n      dup4\n      dup3\n      add\n      mstore\n      0x20\n      add\n      jump(tag_168)\n    tag_170:\n      pop\n      pop\n      pop\n      pop\n      swap1\n      pop\n      swap1\n      dup2\n      add\n      swap1\n      0x1f\n      and\n      dup1\n      iszero\n      tag_171\n      jumpi\n      dup1\n      dup3\n      sub\n      dup1\n      mload\n      0x01\n      dup4\n      0x20\n      sub\n      0x0100\n      exp\n      sub\n      not\n      and\n      dup2\n      mstore\n      0x20\n      add\n      swap2\n      pop\n    tag_171:\n      pop\n      swap3\n      pop\n      pop\n      pop\n      mload(0x40)\n      dup1\n      swap2\n      sub\n      swap1\n      revert\n    tag_167:\n      pop\n      pop\n      pop\n        /* \"@openzeppelin/contracts-ethereum-package/contracts/math/SafeMath.sol\":1848:1853  a - b */\n      swap1\n      sub\n      swap1\n        /* \"@openzeppelin/contracts-ethereum-package/contracts/math/SafeMath.sol\":1692:1879  function sub(uint256 a, uint256 b, string memory errorMessage) internal pure returns (uint256) {... */\n      jump\t// out\n        /* \"@openzeppelin/contracts-ethereum-package/contracts/math/SafeMath.sol\":3638:3976  function div(uint256 a, uint256 b, string memory errorMessage) internal pure returns (uint256) {... */\n    tag_139:\n        /* \"@openzeppelin/contracts-ethereum-package/contracts/math/SafeMath.sol\":3724:3731  uint256 */\n      0x00\n        /* \"@openzeppelin/contracts-ethereum-package/contracts/math/SafeMath.sol\":3824:3836  errorMessage */\n      dup2\n        /* \"@openzeppelin/contracts-ethereum-package/contracts/math/SafeMath.sol\":3817:3822  b > 0 */\n      dup4\n        /* \"@openzeppelin/contracts-ethereum-package/contracts/math/SafeMath.sol\":3809:3837  require(b > 0, errorMessage) */\n      tag_173\n      jumpi\n      mload(0x40)\n      shl(0xe5, 0x461bcd)\n      dup2\n      mstore\n      0x20\n      0x04\n      dup3\n      add\n      dup2\n      dup2\n      mstore\n      dup4\n      mload\n      0x24\n      dup5\n      add\n      mstore\n      dup4\n      mload\n      swap1\n      swap3\n      dup4\n      swap3\n      0x44\n      swap1\n      swap2\n      add\n      swap2\n      swap1\n      dup6\n      add\n      swap1\n      dup1\n      dup4\n      dup4\n      0x00\n      dup4\n      iszero\n      tag_170\n      jumpi\n      dup2\n      dup2\n      add\n      mload\n      dup4\n      dup3\n      add\n      mstore\n      0x20\n      add\n      jump(tag_168)\n    tag_173:\n      pop\n        /* \"@openzeppelin/contracts-ethereum-package/contracts/math/SafeMath.sol\":3847:3856  uint256 c */\n      0x00\n        /* \"@openzeppelin/contracts-ethereum-package/contracts/math/SafeMath.sol\":3863:3864  b */\n      dup4\n        /* \"@openzeppelin/contracts-ethereum-package/contracts/math/SafeMath.sol\":3859:3860  a */\n      dup6\n        /* \"@openzeppelin/contracts-ethereum-package/contracts/math/SafeMath.sol\":3859:3864  a / b */\n      dup2\n      tag_178\n      jumpi\n      invalid\n    tag_178:\n      div\n      swap6\n        /* \"@openzeppelin/contracts-ethereum-package/contracts/math/SafeMath.sol\":3638:3976  function div(uint256 a, uint256 b, string memory errorMessage) internal pure returns (uint256) {... */\n      swap5\n      pop\n      pop\n      pop\n      pop\n      pop\n      jump\t// out\n    stop\n    data_245f15ff17f551913a7a18385165551503906a406f905ac1c2437281a7cd0cfe 4f776e61626c653a206e6577206f776e657220697320746865207a65726f2061646472657373\n    data_9113bb53c2876a3805b2c9242029423fc540a728243ce887ab24c82cf119fba3 536166654d6174683a206d756c7469706c69636174696f6e206f766572666c6f77\n    data_9fbba6c4dcac9134893b633b9564f36435b3f927c1d5fa152c5c14b20cecb1a4 436f6e747261637420696e7374616e63652068617320616c7265616479206265656e20696e697469616c697a6564\n\n    auxdata: 0xa2646970667358221220464cf6851d658e8b57a4350eef357d7e2ccc74bc124d46a38b6c47d4d56cd85b64736f6c634300060c0033\n}\n",
				"bytecode": {
					"linkReferences": {},
					"object": "608060405234801561001057600080fd5b50610ccb806100206000396000f3fe608060405234801561001057600080fd5b50600436106100cf5760003560e01c80638da5cb5b1161008c578063b9f9850a11610066578063b9f9850a14610203578063f14039de1461020b578063f2fde38b14610213578063fd2da33914610239576100cf565b80638da5cb5b146101a8578063a385fb96146101cc578063b8168816146101d4576100cf565b806315f24053146100d45780632037f3e71461010f57806360a2da44146101405780636e71e2d81461016f578063715018a6146101985780638726bb89146101a0575b600080fd5b6100fd600480360360608110156100ea57600080fd5b5080359060208101359060400135610241565b60408051918252519081900360200190f35b61013e6004803603608081101561012557600080fd5b5080359060208101359060408101359060600135610258565b005b61013e6004803603608081101561015657600080fd5b508035906020810135906040810135906060013561026a565b6100fd6004803603606081101561018557600080fd5b5080359060208101359060400135610324565b61013e610362565b6100fd610416565b6101b061041c565b604080516001600160a01b039092168252519081900360200190f35b6100fd61042b565b6100fd600480360360808110156101ea57600080fd5b5080359060208101359060408101359060600135610432565b6100fd610449565b6100fd61044f565b61013e6004803603602081101561022957600080fd5b50356001600160a01b0316610455565b6100fd610560565b600061024e848484610566565b90505b9392505050565b61026484848484610629565b50505050565b600054610100900460ff16806102835750610283610722565b80610291575060005460ff16155b6102cc5760405162461bcd60e51b815260040180806020018281038252602e815260200180610c68602e913960400191505060405180910390fd5b600054610100900460ff161580156102f7576000805460ff1961ff0019909116610100171660011790555b6102ff610728565b61030b85858585610629565b801561031d576000805461ff00191690555b5050505050565b60008261033357506000610251565b61024e61034a8361034487876107da565b9061083d565b61035c85670de0b6b3a764000061087f565b906108d8565b61036a61091a565b6065546001600160a01b039081169116146103cc576040805162461bcd60e51b815260206004820181905260248201527f4f776e61626c653a2063616c6c6572206973206e6f7420746865206f776e6572604482015290519081900360640190fd5b6065546040516000916001600160a01b0316907f8be0079c531659141344cd1fd0a4f28419497f9722a3daafe3b4186f6b6457e0908390a3606580546001600160a01b0319169055565b60975481565b6065546001600160a01b031690565b62f099c081565b60006104408585858561091e565b95945050505050565b60995481565b60985481565b61045d61091a565b6065546001600160a01b039081169116146104bf576040805162461bcd60e51b815260206004820181905260248201527f4f776e61626c653a2063616c6c6572206973206e6f7420746865206f776e6572604482015290519081900360640190fd5b6001600160a01b0381166105045760405162461bcd60e51b8152600401808060200182810382526026815260200180610c216026913960400191505060405180910390fd5b6065546040516001600160a01b038084169216907f8be0079c531659141344cd1fd0a4f28419497f9722a3daafe3b4186f6b6457e090600090a3606580546001600160a01b0319166001600160a01b0392909216919091179055565b609a5481565b600080610574858585610324565b9050609a5481116105b4576105ac6098546105a6670de0b6b3a764000061035c6097548661087f90919063ffffffff16565b906107da565b915050610251565b60006105df6098546105a6670de0b6b3a764000061035c609754609a5461087f90919063ffffffff16565b905060006105f8609a548461083d90919063ffffffff16565b905061061f826105a6670de0b6b3a764000061035c6099548661087f90919063ffffffff16565b9350505050610251565b61063161091a565b6065546001600160a01b03908116911614610693576040805162461bcd60e51b815260206004820181905260248201527f4f776e61626c653a2063616c6c6572206973206e6f7420746865206f776e6572604482015290519081900360640190fd5b6106a08462f099c06108d8565b6098556106b361034a62f099c08361087f565b6097556106c38262f099c06108d8565b6099819055609a829055609854609754604080519283526020830191909152818101929092526060810183905290517f6960ab234c7ef4b0c9197100f5393cfcde7c453ac910a27bd2000aa1dd4c068d9181900360800190a150505050565b303b1590565b600054610100900460ff16806107415750610741610722565b8061074f575060005460ff16155b61078a5760405162461bcd60e51b815260040180806020018281038252602e815260200180610c68602e913960400191505060405180910390fd5b600054610100900460ff161580156107b5576000805460ff1961ff0019909116610100171660011790555b6107bd61098b565b6107c5610a2b565b80156107d7576000805461ff00191690555b50565b600082820183811015610834576040805162461bcd60e51b815260206004820152601b60248201527f536166654d6174683a206164646974696f6e206f766572666c6f770000000000604482015290519081900360640190fd5b90505b92915050565b600061083483836040518060400160405280601e81526020017f536166654d6174683a207375627472616374696f6e206f766572666c6f770000815250610b24565b60008261088e57506000610837565b8282028284828161089b57fe5b04146108345760405162461bcd60e51b8152600401808060200182810382526021815260200180610c476021913960400191505060405180910390fd5b600061083483836040518060400160405280601a81526020017f536166654d6174683a206469766973696f6e206279207a65726f000000000000815250610bbb565b3390565b600080610933670de0b6b3a76400008461083d565b90506000610942878787610566565b9050600061095c670de0b6b3a764000061035c848661087f565b905061097f670de0b6b3a764000061035c836109798c8c8c610324565b9061087f565b98975050505050505050565b600054610100900460ff16806109a457506109a4610722565b806109b2575060005460ff16155b6109ed5760405162461bcd60e51b815260040180806020018281038252602e815260200180610c68602e913960400191505060405180910390fd5b600054610100900460ff161580156107c5576000805460ff1961ff00199091166101001716600117905580156107d7576000805461ff001916905550565b600054610100900460ff1680610a445750610a44610722565b80610a52575060005460ff16155b610a8d5760405162461bcd60e51b815260040180806020018281038252602e815260200180610c68602e913960400191505060405180910390fd5b600054610100900460ff16158015610ab8576000805460ff1961ff0019909116610100171660011790555b6000610ac261091a565b606580546001600160a01b0319166001600160a01b038316908117909155604051919250906000907f8be0079c531659141344cd1fd0a4f28419497f9722a3daafe3b4186f6b6457e0908290a35080156107d7576000805461ff001916905550565b60008184841115610bb35760405162461bcd60e51b81526004018080602001828103825283818151815260200191508051906020019080838360005b83811015610b78578181015183820152602001610b60565b50505050905090810190601f168015610ba55780820380516001836020036101000a031916815260200191505b509250505060405180910390fd5b505050900390565b60008183610c0a5760405162461bcd60e51b8152602060048201818152835160248401528351909283926044909101919085019080838360008315610b78578181015183820152602001610b60565b506000838581610c1657fe5b049594505050505056fe4f776e61626c653a206e6577206f776e657220697320746865207a65726f2061646472657373536166654d6174683a206d756c7469706c69636174696f6e206f766572666c6f77436f6e747261637420696e7374616e63652068617320616c7265616479206265656e20696e697469616c697a6564a2646970667358221220464cf6851d658e8b57a4350eef357d7e2ccc74bc124d46a38b6c47d4d56cd85b64736f6c634300060c0033",
					"opcodes": "PUSH1 0x80 PUSH1 0x40 MSTORE CALLVALUE DUP1 ISZERO PUSH2 0x10 JUMPI PUSH1 0x0 DUP1 REVERT JUMPDEST POP PUSH2 0xCCB DUP1 PUSH2 0x20 PUSH1 0x0 CODECOPY PUSH1 0x0 RETURN INVALID PUSH1 0x80 PUSH1 0x40 MSTORE CALLVALUE DUP1 ISZERO PUSH2 0x10 JUMPI PUSH1 0x0 DUP1 REVERT JUMPDEST POP PUSH1 0x4 CALLDATASIZE LT PUSH2 0xCF JUMPI PUSH1 0x0 CALLDATALOAD PUSH1 0xE0 SHR DUP1 PUSH4 0x8DA5CB5B GT PUSH2 0x8C JUMPI DUP1 PUSH4 0xB9F9850A GT PUSH2 0x66 JUMPI DUP1 PUSH4 0xB9F9850A EQ PUSH2 0x203 JUMPI DUP1 PUSH4 0xF14039DE EQ PUSH2 0x20B JUMPI DUP1 PUSH4 0xF2FDE38B EQ PUSH2 0x213 JUMPI DUP1 PUSH4 0xFD2DA339 EQ PUSH2 0x239 JUMPI PUSH2 0xCF JUMP JUMPDEST DUP1 PUSH4 0x8DA5CB5B EQ PUSH2 0x1A8 JUMPI DUP1 PUSH4 0xA385FB96 EQ PUSH2 0x1CC JUMPI DUP1 PUSH4 0xB8168816 EQ PUSH2 0x1D4 JUMPI PUSH2 0xCF JUMP JUMPDEST DUP1 PUSH4 0x15F24053 EQ PUSH2 0xD4 JUMPI DUP1 PUSH4 0x2037F3E7 EQ PUSH2 0x10F JUMPI DUP1 PUSH4 0x60A2DA44 EQ PUSH2 0x140 JUMPI DUP1 PUSH4 0x6E71E2D8 EQ PUSH2 0x16F JUMPI DUP1 PUSH4 0x715018A6 EQ PUSH2 0x198 JUMPI DUP1 PUSH4 0x8726BB89 EQ PUSH2 0x1A0 JUMPI JUMPDEST PUSH1 0x0 DUP1 REVERT JUMPDEST PUSH2 0xFD PUSH1 0x4 DUP1 CALLDATASIZE SUB PUSH1 0x60 DUP2 LT ISZERO PUSH2 0xEA JUMPI PUSH1 0x0 DUP1 REVERT JUMPDEST POP DUP1 CALLDATALOAD SWAP1 PUSH1 0x20 DUP2 ADD CALLDATALOAD SWAP1 PUSH1 0x40 ADD CALLDATALOAD PUSH2 0x241 JUMP JUMPDEST PUSH1 0x40 DUP1 MLOAD SWAP2 DUP3 MSTORE MLOAD SWAP1 DUP2 SWAP1 SUB PUSH1 0x20 ADD SWAP1 RETURN JUMPDEST PUSH2 0x13E PUSH1 0x4 DUP1 CALLDATASIZE SUB PUSH1 0x80 DUP2 LT ISZERO PUSH2 0x125 JUMPI PUSH1 0x0 DUP1 REVERT JUMPDEST POP DUP1 CALLDATALOAD SWAP1 PUSH1 0x20 DUP2 ADD CALLDATALOAD SWAP1 PUSH1 0x40 DUP2 ADD CALLDATALOAD SWAP1 PUSH1 0x60 ADD CALLDATALOAD PUSH2 0x258 JUMP JUMPDEST STOP JUMPDEST PUSH2 0x13E PUSH1 0x4 DUP1 CALLDATASIZE SUB PUSH1 0x80 DUP2 LT ISZERO PUSH2 0x156 JUMPI PUSH1 0x0 DUP1 REVERT JUMPDEST POP DUP1 CALLDATALOAD SWAP1 PUSH1 0x20 DUP2 ADD CALLDATALOAD SWAP1 PUSH1 0x40 DUP2 ADD CALLDATALOAD SWAP1 PUSH1 0x60 ADD CALLDATALOAD PUSH2 0x26A JUMP JUMPDEST PUSH2 0xFD PUSH1 0x4 DUP1 CALLDATASIZE SUB PUSH1 0x60 DUP2 LT ISZERO PUSH2 0x185 JUMPI PUSH1 0x0 DUP1 REVERT JUMPDEST POP DUP1 CALLDATALOAD SWAP1 PUSH1 0x20 DUP2 ADD CALLDATALOAD SWAP1 PUSH1 0x40 ADD CALLDATALOAD PUSH2 0x324 JUMP JUMPDEST PUSH2 0x13E PUSH2 0x362 JUMP JUMPDEST PUSH2 0xFD PUSH2 0x416 JUMP JUMPDEST PUSH2 0x1B0 PUSH2 0x41C JUMP JUMPDEST PUSH1 0x40 DUP1 MLOAD PUSH1 0x1 PUSH1 0x1 PUSH1 0xA0 SHL SUB SWAP1 SWAP3 AND DUP3 MSTORE MLOAD SWAP1 DUP2 SWAP1 SUB PUSH1 0x20 ADD SWAP1 RETURN JUMPDEST PUSH2 0xFD PUSH2 0x42B JUMP JUMPDEST PUSH2 0xFD PUSH1 0x4 DUP1 CALLDATASIZE SUB PUSH1 0x80 DUP2 LT ISZERO PUSH2 0x1EA JUMPI PUSH1 0x0 DUP1 REVERT JUMPDEST POP DUP1 CALLDATALOAD SWAP1 PUSH1 0x20 DUP2 ADD CALLDATALOAD SWAP1 PUSH1 0x40 DUP2 ADD CALLDATALOAD SWAP1 PUSH1 0x60 ADD CALLDATALOAD PUSH2 0x432 JUMP JUMPDEST PUSH2 0xFD PUSH2 0x449 JUMP JUMPDEST PUSH2 0xFD PUSH2 0x44F JUMP JUMPDEST PUSH2 0x13E PUSH1 0x4 DUP1 CALLDATASIZE SUB PUSH1 0x20 DUP2 LT ISZERO PUSH2 0x229 JUMPI PUSH1 0x0 DUP1 REVERT JUMPDEST POP CALLDATALOAD PUSH1 0x1 PUSH1 0x1 PUSH1 0xA0 SHL SUB AND PUSH2 0x455 JUMP JUMPDEST PUSH2 0xFD PUSH2 0x560 JUMP JUMPDEST PUSH1 0x0 PUSH2 0x24E DUP5 DUP5 DUP5 PUSH2 0x566 JUMP JUMPDEST SWAP1 POP JUMPDEST SWAP4 SWAP3 POP POP POP JUMP JUMPDEST PUSH2 0x264 DUP5 DUP5 DUP5 DUP5 PUSH2 0x629 JUMP JUMPDEST POP POP POP POP JUMP JUMPDEST PUSH1 0x0 SLOAD PUSH2 0x100 SWAP1 DIV PUSH1 0xFF AND DUP1 PUSH2 0x283 JUMPI POP PUSH2 0x283 PUSH2 0x722 JUMP JUMPDEST DUP1 PUSH2 0x291 JUMPI POP PUSH1 0x0 SLOAD PUSH1 0xFF AND ISZERO JUMPDEST PUSH2 0x2CC JUMPI PUSH1 0x40 MLOAD PUSH3 0x461BCD PUSH1 0xE5 SHL DUP2 MSTORE PUSH1 0x4 ADD DUP1 DUP1 PUSH1 0x20 ADD DUP3 DUP2 SUB DUP3 MSTORE PUSH1 0x2E DUP2 MSTORE PUSH1 0x20 ADD DUP1 PUSH2 0xC68 PUSH1 0x2E SWAP2 CODECOPY PUSH1 0x40 ADD SWAP2 POP POP PUSH1 0x40 MLOAD DUP1 SWAP2 SUB SWAP1 REVERT JUMPDEST PUSH1 0x0 SLOAD PUSH2 0x100 SWAP1 DIV PUSH1 0xFF AND ISZERO DUP1 ISZERO PUSH2 0x2F7 JUMPI PUSH1 0x0 DUP1 SLOAD PUSH1 0xFF NOT PUSH2 0xFF00 NOT SWAP1 SWAP2 AND PUSH2 0x100 OR AND PUSH1 0x1 OR SWAP1 SSTORE JUMPDEST PUSH2 0x2FF PUSH2 0x728 JUMP JUMPDEST PUSH2 0x30B DUP6 DUP6 DUP6 DUP6 PUSH2 0x629 JUMP JUMPDEST DUP1 ISZERO PUSH2 0x31D JUMPI PUSH1 0x0 DUP1 SLOAD PUSH2 0xFF00 NOT AND SWAP1 SSTORE JUMPDEST POP POP POP POP POP JUMP JUMPDEST PUSH1 0x0 DUP3 PUSH2 0x333 JUMPI POP PUSH1 0x0 PUSH2 0x251 JUMP JUMPDEST PUSH2 0x24E PUSH2 0x34A DUP4 PUSH2 0x344 DUP8 DUP8 PUSH2 0x7DA JUMP JUMPDEST SWAP1 PUSH2 0x83D JUMP JUMPDEST PUSH2 0x35C DUP6 PUSH8 0xDE0B6B3A7640000 PUSH2 0x87F JUMP JUMPDEST SWAP1 PUSH2 0x8D8 JUMP JUMPDEST PUSH2 0x36A PUSH2 0x91A JUMP JUMPDEST PUSH1 0x65 SLOAD PUSH1 0x1 PUSH1 0x1 PUSH1 0xA0 SHL SUB SWAP1 DUP2 AND SWAP2 AND EQ PUSH2 0x3CC JUMPI PUSH1 0x40 DUP1 MLOAD PUSH3 0x461BCD PUSH1 0xE5 SHL DUP2 MSTORE PUSH1 0x20 PUSH1 0x4 DUP3 ADD DUP2 SWAP1 MSTORE PUSH1 0x24 DUP3 ADD MSTORE PUSH32 0x4F776E61626C653A2063616C6C6572206973206E6F7420746865206F776E6572 PUSH1 0x44 DUP3 ADD MSTORE SWAP1 MLOAD SWAP1 DUP2 SWAP1 SUB PUSH1 0x64 ADD SWAP1 REVERT JUMPDEST PUSH1 0x65 SLOAD PUSH1 0x40 MLOAD PUSH1 0x0 SWAP2 PUSH1 0x1 PUSH1 0x1 PUSH1 0xA0 SHL SUB AND SWAP1 PUSH32 0x8BE0079C531659141344CD1FD0A4F28419497F9722A3DAAFE3B4186F6B6457E0 SWAP1 DUP4 SWAP1 LOG3 PUSH1 0x65 DUP1 SLOAD PUSH1 0x1 PUSH1 0x1 PUSH1 0xA0 SHL SUB NOT AND SWAP1 SSTORE JUMP JUMPDEST PUSH1 0x97 SLOAD DUP2 JUMP JUMPDEST PUSH1 0x65 SLOAD PUSH1 0x1 PUSH1 0x1 PUSH1 0xA0 SHL SUB AND SWAP1 JUMP JUMPDEST PUSH3 0xF099C0 DUP2 JUMP JUMPDEST PUSH1 0x0 PUSH2 0x440 DUP6 DUP6 DUP6 DUP6 PUSH2 0x91E JUMP JUMPDEST SWAP6 SWAP5 POP POP POP POP POP JUMP JUMPDEST PUSH1 0x99 SLOAD DUP2 JUMP JUMPDEST PUSH1 0x98 SLOAD DUP2 JUMP JUMPDEST PUSH2 0x45D PUSH2 0x91A JUMP JUMPDEST PUSH1 0x65 SLOAD PUSH1 0x1 PUSH1 0x1 PUSH1 0xA0 SHL SUB SWAP1 DUP2 AND SWAP2 AND EQ PUSH2 0x4BF JUMPI PUSH1 0x40 DUP1 MLOAD PUSH3 0x461BCD PUSH1 0xE5 SHL DUP2 MSTORE PUSH1 0x20 PUSH1 0x4 DUP3 ADD DUP2 SWAP1 MSTORE PUSH1 0x24 DUP3 ADD MSTORE PUSH32 0x4F776E61626C653A2063616C6C6572206973206E6F7420746865206F776E6572 PUSH1 0x44 DUP3 ADD MSTORE SWAP1 MLOAD SWAP1 DUP2 SWAP1 SUB PUSH1 0x64 ADD SWAP1 REVERT JUMPDEST PUSH1 0x1 PUSH1 0x1 PUSH1 0xA0 SHL SUB DUP2 AND PUSH2 0x504 JUMPI PUSH1 0x40 MLOAD PUSH3 0x461BCD PUSH1 0xE5 SHL DUP2 MSTORE PUSH1 0x4 ADD DUP1 DUP1 PUSH1 0x20 ADD DUP3 DUP2 SUB DUP3 MSTORE PUSH1 0x26 DUP2 MSTORE PUSH1 0x20 ADD DUP1 PUSH2 0xC21 PUSH1 0x26 SWAP2 CODECOPY PUSH1 0x40 ADD SWAP2 POP POP PUSH1 0x40 MLOAD DUP1 SWAP2 SUB SWAP1 REVERT JUMPDEST PUSH1 0x65 SLOAD PUSH1 0x40 MLOAD PUSH1 0x1 PUSH1 0x1 PUSH1 0xA0 SHL SUB DUP1 DUP5 AND SWAP3 AND SWAP1 PUSH32 0x8BE0079C531659141344CD1FD0A4F28419497F9722A3DAAFE3B4186F6B6457E0 SWAP1 PUSH1 0x0 SWAP1 LOG3 PUSH1 0x65 DUP1 SLOAD PUSH1 0x1 PUSH1 0x1 PUSH1 0xA0 SHL SUB NOT AND PUSH1 0x1 PUSH1 0x1 PUSH1 0xA0 SHL SUB SWAP3 SWAP1 SWAP3 AND SWAP2 SWAP1 SWAP2 OR SWAP1 SSTORE JUMP JUMPDEST PUSH1 0x9A SLOAD DUP2 JUMP JUMPDEST PUSH1 0x0 DUP1 PUSH2 0x574 DUP6 DUP6 DUP6 PUSH2 0x324 JUMP JUMPDEST SWAP1 POP PUSH1 0x9A SLOAD DUP2 GT PUSH2 0x5B4 JUMPI PUSH2 0x5AC PUSH1 0x98 SLOAD PUSH2 0x5A6 PUSH8 0xDE0B6B3A7640000 PUSH2 0x35C PUSH1 0x97 SLOAD DUP7 PUSH2 0x87F SWAP1 SWAP2 SWAP1 PUSH4 0xFFFFFFFF AND JUMP JUMPDEST SWAP1 PUSH2 0x7DA JUMP JUMPDEST SWAP2 POP POP PUSH2 0x251 JUMP JUMPDEST PUSH1 0x0 PUSH2 0x5DF PUSH1 0x98 SLOAD PUSH2 0x5A6 PUSH8 0xDE0B6B3A7640000 PUSH2 0x35C PUSH1 0x97 SLOAD PUSH1 0x9A SLOAD PUSH2 0x87F SWAP1 SWAP2 SWAP1 PUSH4 0xFFFFFFFF AND JUMP JUMPDEST SWAP1 POP PUSH1 0x0 PUSH2 0x5F8 PUSH1 0x9A SLOAD DUP5 PUSH2 0x83D SWAP1 SWAP2 SWAP1 PUSH4 0xFFFFFFFF AND JUMP JUMPDEST SWAP1 POP PUSH2 0x61F DUP3 PUSH2 0x5A6 PUSH8 0xDE0B6B3A7640000 PUSH2 0x35C PUSH1 0x99 SLOAD DUP7 PUSH2 0x87F SWAP1 SWAP2 SWAP1 PUSH4 0xFFFFFFFF AND JUMP JUMPDEST SWAP4 POP POP POP POP PUSH2 0x251 JUMP JUMPDEST PUSH2 0x631 PUSH2 0x91A JUMP JUMPDEST PUSH1 0x65 SLOAD PUSH1 0x1 PUSH1 0x1 PUSH1 0xA0 SHL SUB SWAP1 DUP2 AND SWAP2 AND EQ PUSH2 0x693 JUMPI PUSH1 0x40 DUP1 MLOAD PUSH3 0x461BCD PUSH1 0xE5 SHL DUP2 MSTORE PUSH1 0x20 PUSH1 0x4 DUP3 ADD DUP2 SWAP1 MSTORE PUSH1 0x24 DUP3 ADD MSTORE PUSH32 0x4F776E61626C653A2063616C6C6572206973206E6F7420746865206F776E6572 PUSH1 0x44 DUP3 ADD MSTORE SWAP1 MLOAD SWAP1 DUP2 SWAP1 SUB PUSH1 0x64 ADD SWAP1 REVERT JUMPDEST PUSH2 0x6A0 DUP5 PUSH3 0xF099C0 PUSH2 0x8D8 JUMP JUMPDEST PUSH1 0x98 SSTORE PUSH2 0x6B3 PUSH2 0x34A PUSH3 0xF099C0 DUP4 PUSH2 0x87F JUMP JUMPDEST PUSH1 0x97 SSTORE PUSH2 0x6C3 DUP3 PUSH3 0xF099C0 PUSH2 0x8D8 JUMP JUMPDEST PUSH1 0x99 DUP2 SWAP1 SSTORE PUSH1 0x9A DUP3 SWAP1 SSTORE PUSH1 0x98 SLOAD PUSH1 0x97 SLOAD PUSH1 0x40 DUP1 MLOAD SWAP3 DUP4 MSTORE PUSH1 0x20 DUP4 ADD SWAP2 SWAP1 SWAP2 MSTORE DUP2 DUP2 ADD SWAP3 SWAP1 SWAP3 MSTORE PUSH1 0x60 DUP2 ADD DUP4 SWAP1 MSTORE SWAP1 MLOAD PUSH32 0x6960AB234C7EF4B0C9197100F5393CFCDE7C453AC910A27BD2000AA1DD4C068D SWAP2 DUP2 SWAP1 SUB PUSH1 0x80 ADD SWAP1 LOG1 POP POP POP POP JUMP JUMPDEST ADDRESS EXTCODESIZE ISZERO SWAP1 JUMP JUMPDEST PUSH1 0x0 SLOAD PUSH2 0x100 SWAP1 DIV PUSH1 0xFF AND DUP1 PUSH2 0x741 JUMPI POP PUSH2 0x741 PUSH2 0x722 JUMP JUMPDEST DUP1 PUSH2 0x74F JUMPI POP PUSH1 0x0 SLOAD PUSH1 0xFF AND ISZERO JUMPDEST PUSH2 0x78A JUMPI PUSH1 0x40 MLOAD PUSH3 0x461BCD PUSH1 0xE5 SHL DUP2 MSTORE PUSH1 0x4 ADD DUP1 DUP1 PUSH1 0x20 ADD DUP3 DUP2 SUB DUP3 MSTORE PUSH1 0x2E DUP2 MSTORE PUSH1 0x20 ADD DUP1 PUSH2 0xC68 PUSH1 0x2E SWAP2 CODECOPY PUSH1 0x40 ADD SWAP2 POP POP PUSH1 0x40 MLOAD DUP1 SWAP2 SUB SWAP1 REVERT JUMPDEST PUSH1 0x0 SLOAD PUSH2 0x100 SWAP1 DIV PUSH1 0xFF AND ISZERO DUP1 ISZERO PUSH2 0x7B5 JUMPI PUSH1 0x0 DUP1 SLOAD PUSH1 0xFF NOT PUSH2 0xFF00 NOT SWAP1 SWAP2 AND PUSH2 0x100 OR AND PUSH1 0x1 OR SWAP1 SSTORE JUMPDEST PUSH2 0x7BD PUSH2 0x98B JUMP JUMPDEST PUSH2 0x7C5 PUSH2 0xA2B JUMP JUMPDEST DUP1 ISZERO PUSH2 0x7D7 JUMPI PUSH1 0x0 DUP1 SLOAD PUSH2 0xFF00 NOT AND SWAP1 SSTORE JUMPDEST POP JUMP JUMPDEST PUSH1 0x0 DUP3 DUP3 ADD DUP4 DUP2 LT ISZERO PUSH2 0x834 JUMPI PUSH1 0x40 DUP1 MLOAD PUSH3 0x461BCD PUSH1 0xE5 SHL DUP2 MSTORE PUSH1 0x20 PUSH1 0x4 DUP3 ADD MSTORE PUSH1 0x1B PUSH1 0x24 DUP3 ADD MSTORE PUSH32 0x536166654D6174683A206164646974696F6E206F766572666C6F770000000000 PUSH1 0x44 DUP3 ADD MSTORE SWAP1 MLOAD SWAP1 DUP2 SWAP1 SUB PUSH1 0x64 ADD SWAP1 REVERT JUMPDEST SWAP1 POP JUMPDEST SWAP3 SWAP2 POP POP JUMP JUMPDEST PUSH1 0x0 PUSH2 0x834 DUP4 DUP4 PUSH1 0x40 MLOAD DUP1 PUSH1 0x40 ADD PUSH1 0x40 MSTORE DUP1 PUSH1 0x1E DUP2 MSTORE PUSH1 0x20 ADD PUSH32 0x536166654D6174683A207375627472616374696F6E206F766572666C6F770000 DUP2 MSTORE POP PUSH2 0xB24 JUMP JUMPDEST PUSH1 0x0 DUP3 PUSH2 0x88E JUMPI POP PUSH1 0x0 PUSH2 0x837 JUMP JUMPDEST DUP3 DUP3 MUL DUP3 DUP5 DUP3 DUP2 PUSH2 0x89B JUMPI INVALID JUMPDEST DIV EQ PUSH2 0x834 JUMPI PUSH1 0x40 MLOAD PUSH3 0x461BCD PUSH1 0xE5 SHL DUP2 MSTORE PUSH1 0x4 ADD DUP1 DUP1 PUSH1 0x20 ADD DUP3 DUP2 SUB DUP3 MSTORE PUSH1 0x21 DUP2 MSTORE PUSH1 0x20 ADD DUP1 PUSH2 0xC47 PUSH1 0x21 SWAP2 CODECOPY PUSH1 0x40 ADD SWAP2 POP POP PUSH1 0x40 MLOAD DUP1 SWAP2 SUB SWAP1 REVERT JUMPDEST PUSH1 0x0 PUSH2 0x834 DUP4 DUP4 PUSH1 0x40 MLOAD DUP1 PUSH1 0x40 ADD PUSH1 0x40 MSTORE DUP1 PUSH1 0x1A DUP2 MSTORE PUSH1 0x20 ADD PUSH32 0x536166654D6174683A206469766973696F6E206279207A65726F000000000000 DUP2 MSTORE POP PUSH2 0xBBB JUMP JUMPDEST CALLER SWAP1 JUMP JUMPDEST PUSH1 0x0 DUP1 PUSH2 0x933 PUSH8 0xDE0B6B3A7640000 DUP5 PUSH2 0x83D JUMP JUMPDEST SWAP1 POP PUSH1 0x0 PUSH2 0x942 DUP8 DUP8 DUP8 PUSH2 0x566 JUMP JUMPDEST SWAP1 POP PUSH1 0x0 PUSH2 0x95C PUSH8 0xDE0B6B3A7640000 PUSH2 0x35C DUP5 DUP7 PUSH2 0x87F JUMP JUMPDEST SWAP1 POP PUSH2 0x97F PUSH8 0xDE0B6B3A7640000 PUSH2 0x35C DUP4 PUSH2 0x979 DUP13 DUP13 DUP13 PUSH2 0x324 JUMP JUMPDEST SWAP1 PUSH2 0x87F JUMP JUMPDEST SWAP9 SWAP8 POP POP POP POP POP POP POP POP JUMP JUMPDEST PUSH1 0x0 SLOAD PUSH2 0x100 SWAP1 DIV PUSH1 0xFF AND DUP1 PUSH2 0x9A4 JUMPI POP PUSH2 0x9A4 PUSH2 0x722 JUMP JUMPDEST DUP1 PUSH2 0x9B2 JUMPI POP PUSH1 0x0 SLOAD PUSH1 0xFF AND ISZERO JUMPDEST PUSH2 0x9ED JUMPI PUSH1 0x40 MLOAD PUSH3 0x461BCD PUSH1 0xE5 SHL DUP2 MSTORE PUSH1 0x4 ADD DUP1 DUP1 PUSH1 0x20 ADD DUP3 DUP2 SUB DUP3 MSTORE PUSH1 0x2E DUP2 MSTORE PUSH1 0x20 ADD DUP1 PUSH2 0xC68 PUSH1 0x2E SWAP2 CODECOPY PUSH1 0x40 ADD SWAP2 POP POP PUSH1 0x40 MLOAD DUP1 SWAP2 SUB SWAP1 REVERT JUMPDEST PUSH1 0x0 SLOAD PUSH2 0x100 SWAP1 DIV PUSH1 0xFF AND ISZERO DUP1 ISZERO PUSH2 0x7C5 JUMPI PUSH1 0x0 DUP1 SLOAD PUSH1 0xFF NOT PUSH2 0xFF00 NOT SWAP1 SWAP2 AND PUSH2 0x100 OR AND PUSH1 0x1 OR SWAP1 SSTORE DUP1 ISZERO PUSH2 0x7D7 JUMPI PUSH1 0x0 DUP1 SLOAD PUSH2 0xFF00 NOT AND SWAP1 SSTORE POP JUMP JUMPDEST PUSH1 0x0 SLOAD PUSH2 0x100 SWAP1 DIV PUSH1 0xFF AND DUP1 PUSH2 0xA44 JUMPI POP PUSH2 0xA44 PUSH2 0x722 JUMP JUMPDEST DUP1 PUSH2 0xA52 JUMPI POP PUSH1 0x0 SLOAD PUSH1 0xFF AND ISZERO JUMPDEST PUSH2 0xA8D JUMPI PUSH1 0x40 MLOAD PUSH3 0x461BCD PUSH1 0xE5 SHL DUP2 MSTORE PUSH1 0x4 ADD DUP1 DUP1 PUSH1 0x20 ADD DUP3 DUP2 SUB DUP3 MSTORE PUSH1 0x2E DUP2 MSTORE PUSH1 0x20 ADD DUP1 PUSH2 0xC68 PUSH1 0x2E SWAP2 CODECOPY PUSH1 0x40 ADD SWAP2 POP POP PUSH1 0x40 MLOAD DUP1 SWAP2 SUB SWAP1 REVERT JUMPDEST PUSH1 0x0 SLOAD PUSH2 0x100 SWAP1 DIV PUSH1 0xFF AND ISZERO DUP1 ISZERO PUSH2 0xAB8 JUMPI PUSH1 0x0 DUP1 SLOAD PUSH1 0xFF NOT PUSH2 0xFF00 NOT SWAP1 SWAP2 AND PUSH2 0x100 OR AND PUSH1 0x1 OR SWAP1 SSTORE JUMPDEST PUSH1 0x0 PUSH2 0xAC2 PUSH2 0x91A JUMP JUMPDEST PUSH1 0x65 DUP1 SLOAD PUSH1 0x1 PUSH1 0x1 PUSH1 0xA0 SHL SUB NOT AND PUSH1 0x1 PUSH1 0x1 PUSH1 0xA0 SHL SUB DUP4 AND SWAP1 DUP2 OR SWAP1 SWAP2 SSTORE PUSH1 0x40 MLOAD SWAP2 SWAP3 POP SWAP1 PUSH1 0x0 SWAP1 PUSH32 0x8BE0079C531659141344CD1FD0A4F28419497F9722A3DAAFE3B4186F6B6457E0 SWAP1 DUP3 SWAP1 LOG3 POP DUP1 ISZERO PUSH2 0x7D7 JUMPI PUSH1 0x0 DUP1 SLOAD PUSH2 0xFF00 NOT AND SWAP1 SSTORE POP JUMP JUMPDEST PUSH1 0x0 DUP2 DUP5 DUP5 GT ISZERO PUSH2 0xBB3 JUMPI PUSH1 0x40 MLOAD PUSH3 0x461BCD PUSH1 0xE5 SHL DUP2 MSTORE PUSH1 0x4 ADD DUP1 DUP1 PUSH1 0x20 ADD DUP3 DUP2 SUB DUP3 MSTORE DUP4 DUP2 DUP2 MLOAD DUP2 MSTORE PUSH1 0x20 ADD SWAP2 POP DUP1 MLOAD SWAP1 PUSH1 0x20 ADD SWAP1 DUP1 DUP4 DUP4 PUSH1 0x0 JUMPDEST DUP4 DUP2 LT ISZERO PUSH2 0xB78 JUMPI DUP2 DUP2 ADD MLOAD DUP4 DUP3 ADD MSTORE PUSH1 0x20 ADD PUSH2 0xB60 JUMP JUMPDEST POP POP POP POP SWAP1 POP SWAP1 DUP2 ADD SWAP1 PUSH1 0x1F AND DUP1 ISZERO PUSH2 0xBA5 JUMPI DUP1 DUP3 SUB DUP1 MLOAD PUSH1 0x1 DUP4 PUSH1 0x20 SUB PUSH2 0x100 EXP SUB NOT AND DUP2 MSTORE PUSH1 0x20 ADD SWAP2 POP JUMPDEST POP SWAP3 POP POP POP PUSH1 0x40 MLOAD DUP1 SWAP2 SUB SWAP1 REVERT JUMPDEST POP POP POP SWAP1 SUB SWAP1 JUMP JUMPDEST PUSH1 0x0 DUP2 DUP4 PUSH2 0xC0A JUMPI PUSH1 0x40 MLOAD PUSH3 0x461BCD PUSH1 0xE5 SHL DUP2 MSTORE PUSH1 0x20 PUSH1 0x4 DUP3 ADD DUP2 DUP2 MSTORE DUP4 MLOAD PUSH1 0x24 DUP5 ADD MSTORE DUP4 MLOAD SWAP1 SWAP3 DUP4 SWAP3 PUSH1 0x44 SWAP1 SWAP2 ADD SWAP2 SWAP1 DUP6 ADD SWAP1 DUP1 DUP4 DUP4 PUSH1 0x0 DUP4 ISZERO PUSH2 0xB78 JUMPI DUP2 DUP2 ADD MLOAD DUP4 DUP3 ADD MSTORE PUSH1 0x20 ADD PUSH2 0xB60 JUMP JUMPDEST POP PUSH1 0x0 DUP4 DUP6 DUP2 PUSH2 0xC16 JUMPI INVALID JUMPDEST DIV SWAP6 SWAP5 POP POP POP POP POP JUMP INVALID 0x4F PUSH24 0x6E61626C653A206E6577206F776E65722069732074686520 PUSH27 0x65726F2061646472657373536166654D6174683A206D756C746970 PUSH13 0x69636174696F6E206F76657266 PUSH13 0x6F77436F6E747261637420696E PUSH20 0x74616E63652068617320616C7265616479206265 PUSH6 0x6E20696E6974 PUSH10 0x616C697A6564A2646970 PUSH7 0x7358221220464C 0xF6 DUP6 SAR PUSH6 0x8E8B57A4350E 0xEF CALLDATALOAD PUSH30 0x7E2CCC74BC124D46A38B6C47D4D56CD85B64736F6C634300060C00330000 "
				},
				"gasEstimates": {
					"creation": {
						"codeDepositCost": "655000",
						"executionCost": "689",
						"totalCost": "655689"
					},
					"external": {
						"baseRatePerBlock()": "1042",
						"blocksPerYear()": "243",
						"getBorrowRate(uint256,uint256,uint256)": "infinite",
						"getSupplyRate(uint256,uint256,uint256,uint256)": "infinite",
						"initialize(uint256,uint256,uint256,uint256)": "infinite",
						"jumpMultiplierPerBlock()": "1020",
						"kink()": "1086",
						"multiplierPerBlock()": "1109",
						"owner()": "1060",
						"renounceOwnership()": "24290",
						"transferOwnership(address)": "infinite",
						"updateJumpRateModel(uint256,uint256,uint256,uint256)": "infinite",
						"utilizationRate(uint256,uint256,uint256)": "infinite"
					}
				},
				"methodIdentifiers": {
					"baseRatePerBlock()": "f14039de",
					"blocksPerYear()": "a385fb96",
					"getBorrowRate(uint256,uint256,uint256)": "15f24053",
					"getSupplyRate(uint256,uint256,uint256,uint256)": "b8168816",
					"initialize(uint256,uint256,uint256,uint256)": "60a2da44",
					"jumpMultiplierPerBlock()": "b9f9850a",
					"kink()": "fd2da339",
					"multiplierPerBlock()": "8726bb89",
					"owner()": "8da5cb5b",
					"renounceOwnership()": "715018a6",
					"transferOwnership(address)": "f2fde38b",
					"updateJumpRateModel(uint256,uint256,uint256,uint256)": "2037f3e7",
					"utilizationRate(uint256,uint256,uint256)": "6e71e2d8"
				}
			},
			"storageLayout": {
				"storage": [
					{
						"astId": 50,
						"contract": "rate/JumpRateModel.sol:JumpRateModel",
						"label": "initialized",
						"offset": 0,
						"slot": "0",
						"type": "t_bool"
					},
					{
						"astId": 53,
						"contract": "rate/JumpRateModel.sol:JumpRateModel",
						"label": "initializing",
						"offset": 1,
						"slot": "0",
						"type": "t_bool"
					},
					{
						"astId": 118,
						"contract": "rate/JumpRateModel.sol:JumpRateModel",
						"label": "______gap",
						"offset": 0,
						"slot": "1",
						"type": "t_array(t_uint256)50_storage"
					},
					{
						"astId": 43,
						"contract": "rate/JumpRateModel.sol:JumpRateModel",
						"label": "__gap",
						"offset": 0,
						"slot": "51",
						"type": "t_array(t_uint256)50_storage"
					},
					{
						"astId": 130,
						"contract": "rate/JumpRateModel.sol:JumpRateModel",
						"label": "_owner",
						"offset": 0,
						"slot": "101",
						"type": "t_address"
					},
					{
						"astId": 248,
						"contract": "rate/JumpRateModel.sol:JumpRateModel",
						"label": "__gap",
						"offset": 0,
						"slot": "102",
						"type": "t_array(t_uint256)49_storage"
					},
					{
						"astId": 475,
						"contract": "rate/JumpRateModel.sol:JumpRateModel",
						"label": "multiplierPerBlock",
						"offset": 0,
						"slot": "151",
						"type": "t_uint256"
					},
					{
						"astId": 478,
						"contract": "rate/JumpRateModel.sol:JumpRateModel",
						"label": "baseRatePerBlock",
						"offset": 0,
						"slot": "152",
						"type": "t_uint256"
					},
					{
						"astId": 481,
						"contract": "rate/JumpRateModel.sol:JumpRateModel",
						"label": "jumpMultiplierPerBlock",
						"offset": 0,
						"slot": "153",
						"type": "t_uint256"
					},
					{
						"astId": 484,
						"contract": "rate/JumpRateModel.sol:JumpRateModel",
						"label": "kink",
						"offset": 0,
						"slot": "154",
						"type": "t_uint256"
					}
				],
				"types": {
					"t_address": {
						"encoding": "inplace",
						"label": "address",
						"numberOfBytes": "20"
					},
					"t_array(t_uint256)49_storage": {
						"base": "t_uint256",
						"encoding": "inplace",
						"label": "uint256[49]",
						"numberOfBytes": "1568"
					},
					"t_array(t_uint256)50_storage": {
						"base": "t_uint256",
						"encoding": "inplace",
						"label": "uint256[50]",
						"numberOfBytes": "1600"
					},
					"t_bool": {
						"encoding": "inplace",
						"label": "bool",
						"numberOfBytes": "1"
					},
					"t_uint256": {
						"encoding": "inplace",
						"label": "uint256",
						"numberOfBytes": "32"
					}
				}
			},
			"userdoc": {
				"kind": "user",
				"methods": {
					"baseRatePerBlock()": {
						"notice": "The base interest rate which is the y-intercept when utilization rate is 0"
					},
					"blocksPerYear()": {
						"notice": "The approximate number of blocks per year that is assumed by the interest rate model"
					},
					"getBorrowRate(uint256,uint256,uint256)": {
						"notice": "Calculates the current borrow rate per block"
					},
					"getSupplyRate(uint256,uint256,uint256,uint256)": {
						"notice": "Calculates the current supply rate per block"
					},
					"jumpMultiplierPerBlock()": {
						"notice": "The multiplierPerBlock after hitting a specified utilization point"
					},
					"kink()": {
						"notice": "The utilization point at which the jump multiplier is applied"
					},
					"multiplierPerBlock()": {
						"notice": "The multiplier of utilization rate that gives the slope of the interest rate"
					},
					"updateJumpRateModel(uint256,uint256,uint256,uint256)": {
						"notice": "Update the parameters of the interest rate model (only callable by owner, i.e. Timelock)"
					},
					"utilizationRate(uint256,uint256,uint256)": {
						"notice": "Calculates the utilization rate of the market: `borrows / (cash + borrows - reserves)`"
					}
				},
				"notice": "Supports only for V2 cTokens",
				"version": 1
			}
		}
	}
}